{"src/mocks/MockCompoundPool.sol":{"MockCompoundPool":{"abi":[{"inputs":[{"internalType":"address","name":"_asset","type":"address"}],"stateMutability":"nonpayable","type":"constructor"},{"anonymous":false,"inputs":[{"indexed":true,"internalType":"address","name":"reserve","type":"address"},{"indexed":false,"internalType":"uint256","name":"liquidityRate","type":"uint256"},{"indexed":false,"internalType":"uint256","name":"stableBorrowRate","type":"uint256"},{"indexed":false,"internalType":"uint256","name":"variableBorrowRate","type":"uint256"}],"name":"InterestRateUpdated","type":"event"},{"anonymous":false,"inputs":[{"indexed":true,"internalType":"address","name":"reserve","type":"address"},{"indexed":false,"internalType":"address","name":"user","type":"address"},{"indexed":true,"internalType":"address","name":"onBehalfOf","type":"address"},{"indexed":false,"internalType":"uint256","name":"amount","type":"uint256"},{"indexed":true,"internalType":"uint16","name":"referralCode","type":"uint16"}],"name":"Supply","type":"event"},{"anonymous":false,"inputs":[{"indexed":true,"internalType":"address","name":"reserve","type":"address"},{"indexed":false,"internalType":"address","name":"user","type":"address"},{"indexed":true,"internalType":"address","name":"to","type":"address"},{"indexed":false,"internalType":"uint256","name":"amount","type":"uint256"}],"name":"Withdraw","type":"event"},{"inputs":[],"name":"accrueInterest","outputs":[],"stateMutability":"nonpayable","type":"function"},{"inputs":[],"name":"asset","outputs":[{"internalType":"address","name":"","type":"address"}],"stateMutability":"view","type":"function"},{"inputs":[{"internalType":"address","name":"account","type":"address"}],"name":"balanceOf","outputs":[{"internalType":"uint256","name":"","type":"uint256"}],"stateMutability":"view","type":"function"},{"inputs":[],"name":"borrowRatePerBlock","outputs":[{"internalType":"uint256","name":"","type":"uint256"}],"stateMutability":"view","type":"function"},{"inputs":[],"name":"exchangeRateCurrent","outputs":[{"internalType":"uint256","name":"","type":"uint256"}],"stateMutability":"view","type":"function"},{"inputs":[{"internalType":"address","name":"_asset","type":"address"}],"name":"getReserveData","outputs":[{"components":[{"internalType":"uint256","name":"currentLiquidityRate","type":"uint256"},{"internalType":"uint256","name":"currentStableBorrowRate","type":"uint256"},{"internalType":"uint256","name":"currentVariableBorrowRate","type":"uint256"},{"internalType":"uint256","name":"liquidityIndex","type":"uint256"},{"internalType":"uint256","name":"variableBorrowIndex","type":"uint256"},{"internalType":"uint256","name":"totalLiquidity","type":"uint256"},{"internalType":"uint256","name":"totalStableDebt","type":"uint256"},{"internalType":"uint256","name":"totalVariableDebt","type":"uint256"},{"internalType":"address","name":"aTokenAddress","type":"address"},{"internalType":"address","name":"stableDebtTokenAddress","type":"address"},{"internalType":"address","name":"variableDebtTokenAddress","type":"address"},{"internalType":"uint256","name":"lastUpdateTimestamp","type":"uint256"}],"internalType":"struct ILendingPool.ReserveData","name":"","type":"tuple"}],"stateMutability":"view","type":"function"},{"inputs":[{"internalType":"address","name":"_asset","type":"address"}],"name":"getReserveNormalizedIncome","outputs":[{"internalType":"uint256","name":"","type":"uint256"}],"stateMutability":"view","type":"function"},{"inputs":[{"internalType":"uint256","name":"newRate","type":"uint256"}],"name":"setBorrowRatePerBlock","outputs":[],"stateMutability":"nonpayable","type":"function"},{"inputs":[{"internalType":"uint256","name":"newRate","type":"uint256"}],"name":"setSupplyRatePerBlock","outputs":[],"stateMutability":"nonpayable","type":"function"},{"inputs":[{"internalType":"address","name":"_asset","type":"address"},{"internalType":"uint256","name":"amount","type":"uint256"},{"internalType":"address","name":"onBehalfOf","type":"address"},{"internalType":"uint16","name":"","type":"uint16"}],"name":"supply","outputs":[],"stateMutability":"nonpayable","type":"function"},{"inputs":[],"name":"supplyRatePerBlock","outputs":[{"internalType":"uint256","name":"","type":"uint256"}],"stateMutability":"view","type":"function"},{"inputs":[{"internalType":"address","name":"_asset","type":"address"},{"internalType":"uint256","name":"amount","type":"uint256"},{"internalType":"address","name":"to","type":"address"}],"name":"withdraw","outputs":[{"internalType":"uint256","name":"","type":"uint256"}],"stateMutability":"nonpayable","type":"function"}],"evm":{"bytecode":{"linkReferences":{},"object":"60a060405234801561001057600080fd5b50604051610b88380380610b8883398101604081905261002f91610060565b6001600160a01b0316608052670de0b6b3a764000060015560008055630e2ce5cb6003556302b5da46600455610090565b60006020828403121561007257600080fd5b81516001600160a01b038116811461008957600080fd5b9392505050565b608051610ab46100d46000396000818160e70152818161024401528181610376015281816104e0015281816106e10152818161077701526107dc0152610ab46000f3fe608060405234801561001057600080fd5b50600436106100b45760003560e01c8063ae9d70b011610071578063ae9d70b014610172578063bd6d894d1461017a578063c7437e2114610182578063cbf4d87714610195578063d15e0053146101a8578063f8f9da28146101bb57600080fd5b806335ea6a75146100b957806338d52e0f146100e2578063617ba0371461012157806369328dec1461013657806370a0823114610157578063a6afed951461016a575b600080fd5b6100cc6100c7366004610858565b6101c3565b6040516100d9919061087a565b60405180910390f35b6101097f000000000000000000000000000000000000000000000000000000000000000081565b6040516001600160a01b0390911681526020016100d9565b61013461012f366004610927565b610374565b005b61014961014436600461097d565b6104dc565b6040519081526020016100d9565b610149610165366004610858565b61064c565b61013461068a565b600354610149565b600154610149565b6101346101903660046109b9565b6106d2565b6101346101a33660046109b9565b610765565b6101496101b6366004610858565b6107d8565b600454610149565b610242604051806101800160405280600081526020016000815260200160008152602001600081526020016000815260200160008152602001600081526020016000815260200160006001600160a01b0316815260200160006001600160a01b0316815260200160006001600160a01b03168152602001600081525090565b7f00000000000000000000000000000000000000000000000000000000000000006001600160a01b0316826001600160a01b03161461029c5760405162461bcd60e51b8152600401610293906109d2565b60405180910390fd5b6000622014806003546102af9190610a1f565b90506000670de0b6b3a76400006102d2836b033b2e3c9fd0803ce8000000610a1f565b6102dc9190610a36565b905060405180610180016040528082815260200160008152602001600081526020016b033b2e3c9fd0803ce800000081526020016b033b2e3c9fd0803ce800000081526020016305f5e1006001546000546103379190610a1f565b6103419190610a36565b8152600060208201819052604082018190523060608301526080820181905260a08201524260c090910152949350505050565b7f00000000000000000000000000000000000000000000000000000000000000006001600160a01b0316846001600160a01b0316146103c55760405162461bcd60e51b8152600401610293906109d2565b600083116104215760405162461bcd60e51b8152602060048201526024808201527f4d6f636b436f6d706f756e64506f6f6c3a20416d6f756e74206d7573742062656044820152630203e20360e41b6064820152608401610293565b600154600090610435856305f5e100610a1f565b61043f9190610a36565b6001600160a01b03841660009081526002602052604081208054929350839290919061046c908490610a58565b92505081905550806000808282546104849190610a58565b909155505060408051338152602081018690526000916001600160a01b0380871692908916917f2b627736bca15cd5381dcf80b0bf11fd197d01a037c52b927a881a10fb73ba61910160405180910390a45050505050565b60007f00000000000000000000000000000000000000000000000000000000000000006001600160a01b0316846001600160a01b03161461052f5760405162461bcd60e51b8152600401610293906109d2565b600154600090610543856305f5e100610a1f565b61054d9190610a36565b336000908152600260205260409020549091508111156105be5760405162461bcd60e51b815260206004820152602660248201527f4d6f636b436f6d706f756e64506f6f6c3a20496e73756666696369656e742062604482015265616c616e636560d01b6064820152608401610293565b33600090815260026020526040812080548392906105dd908490610a6b565b92505081905550806000808282546105f59190610a6b565b909155505060408051338152602081018690526001600160a01b0380861692908816917f3115d1449a7b732c986cba18244e897a450f61e1bb8d589cd2e69e6c8924f9f7910160405180910390a350919392505050565b6001546001600160a01b03821660009081526002602052604081205490916305f5e1009161067a9190610a1f565b6106849190610a36565b92915050565b6003546106a262201480670de0b6b3a7640000610a1f565b6001546106af9083610a1f565b6106b99190610a36565b600160008282546106ca9190610a58565b909155505050565b60038190556001600160a01b037f0000000000000000000000000000000000000000000000000000000000000000167ffe6503c3ffa4f15f70414cb7846d0be83ef955bddd428112d917adc8d3a06ec361073083633b9aca00610a1f565b6000600454633b9aca006107449190610a1f565b6040805193845260208401929092529082015260600160405180910390a250565b60048190556003546001600160a01b037f000000000000000000000000000000000000000000000000000000000000000016907ffe6503c3ffa4f15f70414cb7846d0be83ef955bddd428112d917adc8d3a06ec3906107c890633b9aca00610a1f565b600061074485633b9aca00610a1f565b60007f00000000000000000000000000000000000000000000000000000000000000006001600160a01b0316826001600160a01b03161461082b5760405162461bcd60e51b8152600401610293906109d2565b60015461068490633b9aca00610a1f565b80356001600160a01b038116811461085357600080fd5b919050565b60006020828403121561086a57600080fd5b6108738261083c565b9392505050565b600061018082019050825182526020830151602083015260408301516040830152606083015160608301526080830151608083015260a083015160a083015260c083015160c083015260e083015160e0830152610100808401516108e8828501826001600160a01b03169052565b5050610120838101516001600160a01b038116848301525050610140838101516001600160a01b03811684830152505061016092830151919092015290565b6000806000806080858703121561093d57600080fd5b6109468561083c565b93506020850135925061095b6040860161083c565b9150606085013561ffff8116811461097257600080fd5b939692955090935050565b60008060006060848603121561099257600080fd5b61099b8461083c565b9250602084013591506109b06040850161083c565b90509250925092565b6000602082840312156109cb57600080fd5b5035919050565b6020808252601f908201527f4d6f636b436f6d706f756e64506f6f6c3a20496e76616c696420617373657400604082015260600190565b634e487b7160e01b600052601160045260246000fd5b808202811582820484141761068457610684610a09565b600082610a5357634e487b7160e01b600052601260045260246000fd5b500490565b8082018082111561068457610684610a09565b8181038181111561068457610684610a0956fea2646970667358221220336b36cb6aa357b300b672ded89ca503bf6c6785dd3f4b483ad027f37a8832ea64736f6c63430008140033","opcodes":"PUSH1 0xA0 PUSH1 0x40 MSTORE CALLVALUE DUP1 ISZERO PUSH2 0x10 JUMPI PUSH1 0x0 DUP1 REVERT JUMPDEST POP PUSH1 0x40 MLOAD PUSH2 0xB88 CODESIZE SUB DUP1 PUSH2 0xB88 DUP4 CODECOPY DUP2 ADD PUSH1 0x40 DUP2 SWAP1 MSTORE PUSH2 0x2F SWAP2 PUSH2 0x60 JUMP JUMPDEST PUSH1 0x1 PUSH1 0x1 PUSH1 0xA0 SHL SUB AND PUSH1 0x80 MSTORE PUSH8 0xDE0B6B3A7640000 PUSH1 0x1 SSTORE PUSH1 0x0 DUP1 SSTORE PUSH4 0xE2CE5CB PUSH1 0x3 SSTORE PUSH4 0x2B5DA46 PUSH1 0x4 SSTORE PUSH2 0x90 JUMP JUMPDEST PUSH1 0x0 PUSH1 0x20 DUP3 DUP5 SUB SLT ISZERO PUSH2 0x72 JUMPI PUSH1 0x0 DUP1 REVERT JUMPDEST DUP2 MLOAD PUSH1 0x1 PUSH1 0x1 PUSH1 0xA0 SHL SUB DUP2 AND DUP2 EQ PUSH2 0x89 JUMPI PUSH1 0x0 DUP1 REVERT JUMPDEST SWAP4 SWAP3 POP POP POP JUMP JUMPDEST PUSH1 0x80 MLOAD PUSH2 0xAB4 PUSH2 0xD4 PUSH1 0x0 CODECOPY PUSH1 0x0 DUP2 DUP2 PUSH1 0xE7 ADD MSTORE DUP2 DUP2 PUSH2 0x244 ADD MSTORE DUP2 DUP2 PUSH2 0x376 ADD MSTORE DUP2 DUP2 PUSH2 0x4E0 ADD MSTORE DUP2 DUP2 PUSH2 0x6E1 ADD MSTORE DUP2 DUP2 PUSH2 0x777 ADD MSTORE PUSH2 0x7DC ADD MSTORE PUSH2 0xAB4 PUSH1 0x0 RETURN INVALID PUSH1 0x80 PUSH1 0x40 MSTORE CALLVALUE DUP1 ISZERO PUSH2 0x10 JUMPI PUSH1 0x0 DUP1 REVERT JUMPDEST POP PUSH1 0x4 CALLDATASIZE LT PUSH2 0xB4 JUMPI PUSH1 0x0 CALLDATALOAD PUSH1 0xE0 SHR DUP1 PUSH4 0xAE9D70B0 GT PUSH2 0x71 JUMPI DUP1 PUSH4 0xAE9D70B0 EQ PUSH2 0x172 JUMPI DUP1 PUSH4 0xBD6D894D EQ PUSH2 0x17A JUMPI DUP1 PUSH4 0xC7437E21 EQ PUSH2 0x182 JUMPI DUP1 PUSH4 0xCBF4D877 EQ PUSH2 0x195 JUMPI DUP1 PUSH4 0xD15E0053 EQ PUSH2 0x1A8 JUMPI DUP1 PUSH4 0xF8F9DA28 EQ PUSH2 0x1BB JUMPI PUSH1 0x0 DUP1 REVERT JUMPDEST DUP1 PUSH4 0x35EA6A75 EQ PUSH2 0xB9 JUMPI DUP1 PUSH4 0x38D52E0F EQ PUSH2 0xE2 JUMPI DUP1 PUSH4 0x617BA037 EQ PUSH2 0x121 JUMPI DUP1 PUSH4 0x69328DEC EQ PUSH2 0x136 JUMPI DUP1 PUSH4 0x70A08231 EQ PUSH2 0x157 JUMPI DUP1 PUSH4 0xA6AFED95 EQ PUSH2 0x16A JUMPI JUMPDEST PUSH1 0x0 DUP1 REVERT JUMPDEST PUSH2 0xCC PUSH2 0xC7 CALLDATASIZE PUSH1 0x4 PUSH2 0x858 JUMP JUMPDEST PUSH2 0x1C3 JUMP JUMPDEST PUSH1 0x40 MLOAD PUSH2 0xD9 SWAP2 SWAP1 PUSH2 0x87A JUMP JUMPDEST PUSH1 0x40 MLOAD DUP1 SWAP2 SUB SWAP1 RETURN JUMPDEST PUSH2 0x109 PUSH32 0x0 DUP2 JUMP JUMPDEST PUSH1 0x40 MLOAD PUSH1 0x1 PUSH1 0x1 PUSH1 0xA0 SHL SUB SWAP1 SWAP2 AND DUP2 MSTORE PUSH1 0x20 ADD PUSH2 0xD9 JUMP JUMPDEST PUSH2 0x134 PUSH2 0x12F CALLDATASIZE PUSH1 0x4 PUSH2 0x927 JUMP JUMPDEST PUSH2 0x374 JUMP JUMPDEST STOP JUMPDEST PUSH2 0x149 PUSH2 0x144 CALLDATASIZE PUSH1 0x4 PUSH2 0x97D JUMP JUMPDEST PUSH2 0x4DC JUMP JUMPDEST PUSH1 0x40 MLOAD SWAP1 DUP2 MSTORE PUSH1 0x20 ADD PUSH2 0xD9 JUMP JUMPDEST PUSH2 0x149 PUSH2 0x165 CALLDATASIZE PUSH1 0x4 PUSH2 0x858 JUMP JUMPDEST PUSH2 0x64C JUMP JUMPDEST PUSH2 0x134 PUSH2 0x68A JUMP JUMPDEST PUSH1 0x3 SLOAD PUSH2 0x149 JUMP JUMPDEST PUSH1 0x1 SLOAD PUSH2 0x149 JUMP JUMPDEST PUSH2 0x134 PUSH2 0x190 CALLDATASIZE PUSH1 0x4 PUSH2 0x9B9 JUMP JUMPDEST PUSH2 0x6D2 JUMP JUMPDEST PUSH2 0x134 PUSH2 0x1A3 CALLDATASIZE PUSH1 0x4 PUSH2 0x9B9 JUMP JUMPDEST PUSH2 0x765 JUMP JUMPDEST PUSH2 0x149 PUSH2 0x1B6 CALLDATASIZE PUSH1 0x4 PUSH2 0x858 JUMP JUMPDEST PUSH2 0x7D8 JUMP JUMPDEST PUSH1 0x4 SLOAD PUSH2 0x149 JUMP JUMPDEST PUSH2 0x242 PUSH1 0x40 MLOAD DUP1 PUSH2 0x180 ADD PUSH1 0x40 MSTORE DUP1 PUSH1 0x0 DUP2 MSTORE PUSH1 0x20 ADD PUSH1 0x0 DUP2 MSTORE PUSH1 0x20 ADD PUSH1 0x0 DUP2 MSTORE PUSH1 0x20 ADD PUSH1 0x0 DUP2 MSTORE PUSH1 0x20 ADD PUSH1 0x0 DUP2 MSTORE PUSH1 0x20 ADD PUSH1 0x0 DUP2 MSTORE PUSH1 0x20 ADD PUSH1 0x0 DUP2 MSTORE PUSH1 0x20 ADD PUSH1 0x0 DUP2 MSTORE PUSH1 0x20 ADD PUSH1 0x0 PUSH1 0x1 PUSH1 0x1 PUSH1 0xA0 SHL SUB AND DUP2 MSTORE PUSH1 0x20 ADD PUSH1 0x0 PUSH1 0x1 PUSH1 0x1 PUSH1 0xA0 SHL SUB AND DUP2 MSTORE PUSH1 0x20 ADD PUSH1 0x0 PUSH1 0x1 PUSH1 0x1 PUSH1 0xA0 SHL SUB AND DUP2 MSTORE PUSH1 0x20 ADD PUSH1 0x0 DUP2 MSTORE POP SWAP1 JUMP JUMPDEST PUSH32 0x0 PUSH1 0x1 PUSH1 0x1 PUSH1 0xA0 SHL SUB AND DUP3 PUSH1 0x1 PUSH1 0x1 PUSH1 0xA0 SHL SUB AND EQ PUSH2 0x29C JUMPI PUSH1 0x40 MLOAD PUSH3 0x461BCD PUSH1 0xE5 SHL DUP2 MSTORE PUSH1 0x4 ADD PUSH2 0x293 SWAP1 PUSH2 0x9D2 JUMP JUMPDEST PUSH1 0x40 MLOAD DUP1 SWAP2 SUB SWAP1 REVERT JUMPDEST PUSH1 0x0 PUSH3 0x201480 PUSH1 0x3 SLOAD PUSH2 0x2AF SWAP2 SWAP1 PUSH2 0xA1F JUMP JUMPDEST SWAP1 POP PUSH1 0x0 PUSH8 0xDE0B6B3A7640000 PUSH2 0x2D2 DUP4 PUSH12 0x33B2E3C9FD0803CE8000000 PUSH2 0xA1F JUMP JUMPDEST PUSH2 0x2DC SWAP2 SWAP1 PUSH2 0xA36 JUMP JUMPDEST SWAP1 POP PUSH1 0x40 MLOAD DUP1 PUSH2 0x180 ADD PUSH1 0x40 MSTORE DUP1 DUP3 DUP2 MSTORE PUSH1 0x20 ADD PUSH1 0x0 DUP2 MSTORE PUSH1 0x20 ADD PUSH1 0x0 DUP2 MSTORE PUSH1 0x20 ADD PUSH12 0x33B2E3C9FD0803CE8000000 DUP2 MSTORE PUSH1 0x20 ADD PUSH12 0x33B2E3C9FD0803CE8000000 DUP2 MSTORE PUSH1 0x20 ADD PUSH4 0x5F5E100 PUSH1 0x1 SLOAD PUSH1 0x0 SLOAD PUSH2 0x337 SWAP2 SWAP1 PUSH2 0xA1F JUMP JUMPDEST PUSH2 0x341 SWAP2 SWAP1 PUSH2 0xA36 JUMP JUMPDEST DUP2 MSTORE PUSH1 0x0 PUSH1 0x20 DUP3 ADD DUP2 SWAP1 MSTORE PUSH1 0x40 DUP3 ADD DUP2 SWAP1 MSTORE ADDRESS PUSH1 0x60 DUP4 ADD MSTORE PUSH1 0x80 DUP3 ADD DUP2 SWAP1 MSTORE PUSH1 0xA0 DUP3 ADD MSTORE TIMESTAMP PUSH1 0xC0 SWAP1 SWAP2 ADD MSTORE SWAP5 SWAP4 POP POP POP POP JUMP JUMPDEST PUSH32 0x0 PUSH1 0x1 PUSH1 0x1 PUSH1 0xA0 SHL SUB AND DUP5 PUSH1 0x1 PUSH1 0x1 PUSH1 0xA0 SHL SUB AND EQ PUSH2 0x3C5 JUMPI PUSH1 0x40 MLOAD PUSH3 0x461BCD PUSH1 0xE5 SHL DUP2 MSTORE PUSH1 0x4 ADD PUSH2 0x293 SWAP1 PUSH2 0x9D2 JUMP JUMPDEST PUSH1 0x0 DUP4 GT PUSH2 0x421 JUMPI PUSH1 0x40 MLOAD PUSH3 0x461BCD PUSH1 0xE5 SHL DUP2 MSTORE PUSH1 0x20 PUSH1 0x4 DUP3 ADD MSTORE PUSH1 0x24 DUP1 DUP3 ADD MSTORE PUSH32 0x4D6F636B436F6D706F756E64506F6F6C3A20416D6F756E74206D757374206265 PUSH1 0x44 DUP3 ADD MSTORE PUSH4 0x203E203 PUSH1 0xE4 SHL PUSH1 0x64 DUP3 ADD MSTORE PUSH1 0x84 ADD PUSH2 0x293 JUMP JUMPDEST PUSH1 0x1 SLOAD PUSH1 0x0 SWAP1 PUSH2 0x435 DUP6 PUSH4 0x5F5E100 PUSH2 0xA1F JUMP JUMPDEST PUSH2 0x43F SWAP2 SWAP1 PUSH2 0xA36 JUMP JUMPDEST PUSH1 0x1 PUSH1 0x1 PUSH1 0xA0 SHL SUB DUP5 AND PUSH1 0x0 SWAP1 DUP2 MSTORE PUSH1 0x2 PUSH1 0x20 MSTORE PUSH1 0x40 DUP2 KECCAK256 DUP1 SLOAD SWAP3 SWAP4 POP DUP4 SWAP3 SWAP1 SWAP2 SWAP1 PUSH2 0x46C SWAP1 DUP5 SWAP1 PUSH2 0xA58 JUMP JUMPDEST SWAP3 POP POP DUP2 SWAP1 SSTORE POP DUP1 PUSH1 0x0 DUP1 DUP3 DUP3 SLOAD PUSH2 0x484 SWAP2 SWAP1 PUSH2 0xA58 JUMP JUMPDEST SWAP1 SWAP2 SSTORE POP POP PUSH1 0x40 DUP1 MLOAD CALLER DUP2 MSTORE PUSH1 0x20 DUP2 ADD DUP7 SWAP1 MSTORE PUSH1 0x0 SWAP2 PUSH1 0x1 PUSH1 0x1 PUSH1 0xA0 SHL SUB DUP1 DUP8 AND SWAP3 SWAP1 DUP10 AND SWAP2 PUSH32 0x2B627736BCA15CD5381DCF80B0BF11FD197D01A037C52B927A881A10FB73BA61 SWAP2 ADD PUSH1 0x40 MLOAD DUP1 SWAP2 SUB SWAP1 LOG4 POP POP POP POP POP JUMP JUMPDEST PUSH1 0x0 PUSH32 0x0 PUSH1 0x1 PUSH1 0x1 PUSH1 0xA0 SHL SUB AND DUP5 PUSH1 0x1 PUSH1 0x1 PUSH1 0xA0 SHL SUB AND EQ PUSH2 0x52F JUMPI PUSH1 0x40 MLOAD PUSH3 0x461BCD PUSH1 0xE5 SHL DUP2 MSTORE PUSH1 0x4 ADD PUSH2 0x293 SWAP1 PUSH2 0x9D2 JUMP JUMPDEST PUSH1 0x1 SLOAD PUSH1 0x0 SWAP1 PUSH2 0x543 DUP6 PUSH4 0x5F5E100 PUSH2 0xA1F JUMP JUMPDEST PUSH2 0x54D SWAP2 SWAP1 PUSH2 0xA36 JUMP JUMPDEST CALLER PUSH1 0x0 SWAP1 DUP2 MSTORE PUSH1 0x2 PUSH1 0x20 MSTORE PUSH1 0x40 SWAP1 KECCAK256 SLOAD SWAP1 SWAP2 POP DUP2 GT ISZERO PUSH2 0x5BE JUMPI PUSH1 0x40 MLOAD PUSH3 0x461BCD PUSH1 0xE5 SHL DUP2 MSTORE PUSH1 0x20 PUSH1 0x4 DUP3 ADD MSTORE PUSH1 0x26 PUSH1 0x24 DUP3 ADD MSTORE PUSH32 0x4D6F636B436F6D706F756E64506F6F6C3A20496E73756666696369656E742062 PUSH1 0x44 DUP3 ADD MSTORE PUSH6 0x616C616E6365 PUSH1 0xD0 SHL PUSH1 0x64 DUP3 ADD MSTORE PUSH1 0x84 ADD PUSH2 0x293 JUMP JUMPDEST CALLER PUSH1 0x0 SWAP1 DUP2 MSTORE PUSH1 0x2 PUSH1 0x20 MSTORE PUSH1 0x40 DUP2 KECCAK256 DUP1 SLOAD DUP4 SWAP3 SWAP1 PUSH2 0x5DD SWAP1 DUP5 SWAP1 PUSH2 0xA6B JUMP JUMPDEST SWAP3 POP POP DUP2 SWAP1 SSTORE POP DUP1 PUSH1 0x0 DUP1 DUP3 DUP3 SLOAD PUSH2 0x5F5 SWAP2 SWAP1 PUSH2 0xA6B JUMP JUMPDEST SWAP1 SWAP2 SSTORE POP POP PUSH1 0x40 DUP1 MLOAD CALLER DUP2 MSTORE PUSH1 0x20 DUP2 ADD DUP7 SWAP1 MSTORE PUSH1 0x1 PUSH1 0x1 PUSH1 0xA0 SHL SUB DUP1 DUP7 AND SWAP3 SWAP1 DUP9 AND SWAP2 PUSH32 0x3115D1449A7B732C986CBA18244E897A450F61E1BB8D589CD2E69E6C8924F9F7 SWAP2 ADD PUSH1 0x40 MLOAD DUP1 SWAP2 SUB SWAP1 LOG3 POP SWAP2 SWAP4 SWAP3 POP POP POP JUMP JUMPDEST PUSH1 0x1 SLOAD PUSH1 0x1 PUSH1 0x1 PUSH1 0xA0 SHL SUB DUP3 AND PUSH1 0x0 SWAP1 DUP2 MSTORE PUSH1 0x2 PUSH1 0x20 MSTORE PUSH1 0x40 DUP2 KECCAK256 SLOAD SWAP1 SWAP2 PUSH4 0x5F5E100 SWAP2 PUSH2 0x67A SWAP2 SWAP1 PUSH2 0xA1F JUMP JUMPDEST PUSH2 0x684 SWAP2 SWAP1 PUSH2 0xA36 JUMP JUMPDEST SWAP3 SWAP2 POP POP JUMP JUMPDEST PUSH1 0x3 SLOAD PUSH2 0x6A2 PUSH3 0x201480 PUSH8 0xDE0B6B3A7640000 PUSH2 0xA1F JUMP JUMPDEST PUSH1 0x1 SLOAD PUSH2 0x6AF SWAP1 DUP4 PUSH2 0xA1F JUMP JUMPDEST PUSH2 0x6B9 SWAP2 SWAP1 PUSH2 0xA36 JUMP JUMPDEST PUSH1 0x1 PUSH1 0x0 DUP3 DUP3 SLOAD PUSH2 0x6CA SWAP2 SWAP1 PUSH2 0xA58 JUMP JUMPDEST SWAP1 SWAP2 SSTORE POP POP POP JUMP JUMPDEST PUSH1 0x3 DUP2 SWAP1 SSTORE PUSH1 0x1 PUSH1 0x1 PUSH1 0xA0 SHL SUB PUSH32 0x0 AND PUSH32 0xFE6503C3FFA4F15F70414CB7846D0BE83EF955BDDD428112D917ADC8D3A06EC3 PUSH2 0x730 DUP4 PUSH4 0x3B9ACA00 PUSH2 0xA1F JUMP JUMPDEST PUSH1 0x0 PUSH1 0x4 SLOAD PUSH4 0x3B9ACA00 PUSH2 0x744 SWAP2 SWAP1 PUSH2 0xA1F JUMP JUMPDEST PUSH1 0x40 DUP1 MLOAD SWAP4 DUP5 MSTORE PUSH1 0x20 DUP5 ADD SWAP3 SWAP1 SWAP3 MSTORE SWAP1 DUP3 ADD MSTORE PUSH1 0x60 ADD PUSH1 0x40 MLOAD DUP1 SWAP2 SUB SWAP1 LOG2 POP JUMP JUMPDEST PUSH1 0x4 DUP2 SWAP1 SSTORE PUSH1 0x3 SLOAD PUSH1 0x1 PUSH1 0x1 PUSH1 0xA0 SHL SUB PUSH32 0x0 AND SWAP1 PUSH32 0xFE6503C3FFA4F15F70414CB7846D0BE83EF955BDDD428112D917ADC8D3A06EC3 SWAP1 PUSH2 0x7C8 SWAP1 PUSH4 0x3B9ACA00 PUSH2 0xA1F JUMP JUMPDEST PUSH1 0x0 PUSH2 0x744 DUP6 PUSH4 0x3B9ACA00 PUSH2 0xA1F JUMP JUMPDEST PUSH1 0x0 PUSH32 0x0 PUSH1 0x1 PUSH1 0x1 PUSH1 0xA0 SHL SUB AND DUP3 PUSH1 0x1 PUSH1 0x1 PUSH1 0xA0 SHL SUB AND EQ PUSH2 0x82B JUMPI PUSH1 0x40 MLOAD PUSH3 0x461BCD PUSH1 0xE5 SHL DUP2 MSTORE PUSH1 0x4 ADD PUSH2 0x293 SWAP1 PUSH2 0x9D2 JUMP JUMPDEST PUSH1 0x1 SLOAD PUSH2 0x684 SWAP1 PUSH4 0x3B9ACA00 PUSH2 0xA1F JUMP JUMPDEST DUP1 CALLDATALOAD PUSH1 0x1 PUSH1 0x1 PUSH1 0xA0 SHL SUB DUP2 AND DUP2 EQ PUSH2 0x853 JUMPI PUSH1 0x0 DUP1 REVERT JUMPDEST SWAP2 SWAP1 POP JUMP JUMPDEST PUSH1 0x0 PUSH1 0x20 DUP3 DUP5 SUB SLT ISZERO PUSH2 0x86A JUMPI PUSH1 0x0 DUP1 REVERT JUMPDEST PUSH2 0x873 DUP3 PUSH2 0x83C JUMP JUMPDEST SWAP4 SWAP3 POP POP POP JUMP JUMPDEST PUSH1 0x0 PUSH2 0x180 DUP3 ADD SWAP1 POP DUP3 MLOAD DUP3 MSTORE PUSH1 0x20 DUP4 ADD MLOAD PUSH1 0x20 DUP4 ADD MSTORE PUSH1 0x40 DUP4 ADD MLOAD PUSH1 0x40 DUP4 ADD MSTORE PUSH1 0x60 DUP4 ADD MLOAD PUSH1 0x60 DUP4 ADD MSTORE PUSH1 0x80 DUP4 ADD MLOAD PUSH1 0x80 DUP4 ADD MSTORE PUSH1 0xA0 DUP4 ADD MLOAD PUSH1 0xA0 DUP4 ADD MSTORE PUSH1 0xC0 DUP4 ADD MLOAD PUSH1 0xC0 DUP4 ADD MSTORE PUSH1 0xE0 DUP4 ADD MLOAD PUSH1 0xE0 DUP4 ADD MSTORE PUSH2 0x100 DUP1 DUP5 ADD MLOAD PUSH2 0x8E8 DUP3 DUP6 ADD DUP3 PUSH1 0x1 PUSH1 0x1 PUSH1 0xA0 SHL SUB AND SWAP1 MSTORE JUMP JUMPDEST POP POP PUSH2 0x120 DUP4 DUP2 ADD MLOAD PUSH1 0x1 PUSH1 0x1 PUSH1 0xA0 SHL SUB DUP2 AND DUP5 DUP4 ADD MSTORE POP POP PUSH2 0x140 DUP4 DUP2 ADD MLOAD PUSH1 0x1 PUSH1 0x1 PUSH1 0xA0 SHL SUB DUP2 AND DUP5 DUP4 ADD MSTORE POP POP PUSH2 0x160 SWAP3 DUP4 ADD MLOAD SWAP2 SWAP1 SWAP3 ADD MSTORE SWAP1 JUMP JUMPDEST PUSH1 0x0 DUP1 PUSH1 0x0 DUP1 PUSH1 0x80 DUP6 DUP8 SUB SLT ISZERO PUSH2 0x93D JUMPI PUSH1 0x0 DUP1 REVERT JUMPDEST PUSH2 0x946 DUP6 PUSH2 0x83C JUMP JUMPDEST SWAP4 POP PUSH1 0x20 DUP6 ADD CALLDATALOAD SWAP3 POP PUSH2 0x95B PUSH1 0x40 DUP7 ADD PUSH2 0x83C JUMP JUMPDEST SWAP2 POP PUSH1 0x60 DUP6 ADD CALLDATALOAD PUSH2 0xFFFF DUP2 AND DUP2 EQ PUSH2 0x972 JUMPI PUSH1 0x0 DUP1 REVERT JUMPDEST SWAP4 SWAP7 SWAP3 SWAP6 POP SWAP1 SWAP4 POP POP JUMP JUMPDEST PUSH1 0x0 DUP1 PUSH1 0x0 PUSH1 0x60 DUP5 DUP7 SUB SLT ISZERO PUSH2 0x992 JUMPI PUSH1 0x0 DUP1 REVERT JUMPDEST PUSH2 0x99B DUP5 PUSH2 0x83C JUMP JUMPDEST SWAP3 POP PUSH1 0x20 DUP5 ADD CALLDATALOAD SWAP2 POP PUSH2 0x9B0 PUSH1 0x40 DUP6 ADD PUSH2 0x83C JUMP JUMPDEST SWAP1 POP SWAP3 POP SWAP3 POP SWAP3 JUMP JUMPDEST PUSH1 0x0 PUSH1 0x20 DUP3 DUP5 SUB SLT ISZERO PUSH2 0x9CB JUMPI PUSH1 0x0 DUP1 REVERT JUMPDEST POP CALLDATALOAD SWAP2 SWAP1 POP JUMP JUMPDEST PUSH1 0x20 DUP1 DUP3 MSTORE PUSH1 0x1F SWAP1 DUP3 ADD MSTORE PUSH32 0x4D6F636B436F6D706F756E64506F6F6C3A20496E76616C696420617373657400 PUSH1 0x40 DUP3 ADD MSTORE PUSH1 0x60 ADD SWAP1 JUMP JUMPDEST PUSH4 0x4E487B71 PUSH1 0xE0 SHL PUSH1 0x0 MSTORE PUSH1 0x11 PUSH1 0x4 MSTORE PUSH1 0x24 PUSH1 0x0 REVERT JUMPDEST DUP1 DUP3 MUL DUP2 ISZERO DUP3 DUP3 DIV DUP5 EQ OR PUSH2 0x684 JUMPI PUSH2 0x684 PUSH2 0xA09 JUMP JUMPDEST PUSH1 0x0 DUP3 PUSH2 0xA53 JUMPI PUSH4 0x4E487B71 PUSH1 0xE0 SHL PUSH1 0x0 MSTORE PUSH1 0x12 PUSH1 0x4 MSTORE PUSH1 0x24 PUSH1 0x0 REVERT JUMPDEST POP DIV SWAP1 JUMP JUMPDEST DUP1 DUP3 ADD DUP1 DUP3 GT ISZERO PUSH2 0x684 JUMPI PUSH2 0x684 PUSH2 0xA09 JUMP JUMPDEST DUP2 DUP2 SUB DUP2 DUP2 GT ISZERO PUSH2 0x684 JUMPI PUSH2 0x684 PUSH2 0xA09 JUMP INVALID LOG2 PUSH5 0x6970667358 0x22 SLT KECCAK256 CALLER PUSH12 0x36CB6AA357B300B672DED89C 0xA5 SUB 0xBF PUSH13 0x6785DD3F4B483AD027F37A8832 0xEA PUSH5 0x736F6C6343 STOP ADDMOD EQ STOP CALLER "},"methodIdentifiers":{"accrueInterest()":"a6afed95","asset()":"38d52e0f","balanceOf(address)":"70a08231","borrowRatePerBlock()":"f8f9da28","exchangeRateCurrent()":"bd6d894d","getReserveData(address)":"35ea6a75","getReserveNormalizedIncome(address)":"d15e0053","setBorrowRatePerBlock(uint256)":"cbf4d877","setSupplyRatePerBlock(uint256)":"c7437e21","supply(address,uint256,address,uint16)":"617ba037","supplyRatePerBlock()":"ae9d70b0","withdraw(address,uint256,address)":"69328dec"}}}}}