{"src/reactive/YieldMonitor.sol":{"YieldMonitor":{"abi":[{"inputs":[{"internalType":"address","name":"_poolA","type":"address"},{"internalType":"address","name":"_poolB","type":"address"},{"internalType":"address","name":"_asset","type":"address"},{"internalType":"address","name":"_vault","type":"address"}],"stateMutability":"nonpayable","type":"constructor"},{"inputs":[{"internalType":"address","name":"owner","type":"address"}],"name":"OwnableInvalidOwner","type":"error"},{"inputs":[{"internalType":"address","name":"account","type":"address"}],"name":"OwnableUnauthorizedAccount","type":"error"},{"anonymous":false,"inputs":[{"indexed":true,"internalType":"uint256","name":"chain_id","type":"uint256"},{"indexed":true,"internalType":"address","name":"_contract","type":"address"},{"indexed":true,"internalType":"uint64","name":"gas_limit","type":"uint64"},{"indexed":false,"internalType":"bytes","name":"payload","type":"bytes"}],"name":"Callback","type":"event"},{"anonymous":false,"inputs":[],"name":"MonitorPaused","type":"event"},{"anonymous":false,"inputs":[],"name":"MonitorResumed","type":"event"},{"anonymous":false,"inputs":[{"indexed":true,"internalType":"address","name":"previousOwner","type":"address"},{"indexed":true,"internalType":"address","name":"newOwner","type":"address"}],"name":"OwnershipTransferred","type":"event"},{"anonymous":false,"inputs":[{"indexed":true,"internalType":"address","name":"fromPool","type":"address"},{"indexed":true,"internalType":"address","name":"toPool","type":"address"},{"indexed":false,"internalType":"uint256","name":"amount","type":"uint256"}],"name":"RebalanceTriggered","type":"event"},{"anonymous":false,"inputs":[{"indexed":false,"internalType":"uint256","name":"poolA_Apy","type":"uint256"},{"indexed":false,"internalType":"uint256","name":"poolB_Apy","type":"uint256"},{"indexed":false,"internalType":"uint256","name":"difference","type":"uint256"}],"name":"YieldRateUpdated","type":"event"},{"inputs":[],"name":"asset","outputs":[{"internalType":"address","name":"","type":"address"}],"stateMutability":"view","type":"function"},{"inputs":[],"name":"checkYieldRates","outputs":[],"stateMutability":"nonpayable","type":"function"},{"inputs":[],"name":"getCurrentYieldData","outputs":[{"internalType":"uint256","name":"poolA_Apy","type":"uint256"},{"internalType":"uint256","name":"poolB_Apy","type":"uint256"},{"internalType":"uint256","name":"difference","type":"uint256"}],"stateMutability":"view","type":"function"},{"inputs":[],"name":"isPaused","outputs":[{"internalType":"bool","name":"","type":"bool"}],"stateMutability":"view","type":"function"},{"inputs":[],"name":"lastPoolA_Apy","outputs":[{"internalType":"uint256","name":"","type":"uint256"}],"stateMutability":"view","type":"function"},{"inputs":[],"name":"lastPoolB_Apy","outputs":[{"internalType":"uint256","name":"","type":"uint256"}],"stateMutability":"view","type":"function"},{"inputs":[],"name":"lastUpdateBlock","outputs":[{"internalType":"uint256","name":"","type":"uint256"}],"stateMutability":"view","type":"function"},{"inputs":[],"name":"owner","outputs":[{"internalType":"address","name":"","type":"address"}],"stateMutability":"view","type":"function"},{"inputs":[{"internalType":"bool","name":"paused","type":"bool"}],"name":"ownerPause","outputs":[],"stateMutability":"nonpayable","type":"function"},{"inputs":[],"name":"pause","outputs":[],"stateMutability":"nonpayable","type":"function"},{"inputs":[{"internalType":"uint256","name":"amount","type":"uint256"}],"name":"pay","outputs":[],"stateMutability":"nonpayable","type":"function"},{"inputs":[],"name":"poolA","outputs":[{"internalType":"address","name":"","type":"address"}],"stateMutability":"view","type":"function"},{"inputs":[],"name":"poolB","outputs":[{"internalType":"address","name":"","type":"address"}],"stateMutability":"view","type":"function"},{"inputs":[{"components":[{"internalType":"uint256","name":"chain_id","type":"uint256"},{"internalType":"address","name":"_contract","type":"address"},{"internalType":"uint256","name":"topic_0","type":"uint256"},{"internalType":"uint256","name":"topic_1","type":"uint256"},{"internalType":"uint256","name":"topic_2","type":"uint256"},{"internalType":"uint256","name":"topic_3","type":"uint256"},{"internalType":"bytes","name":"data","type":"bytes"},{"internalType":"uint256","name":"block_number","type":"uint256"},{"internalType":"uint256","name":"op_code","type":"uint256"},{"internalType":"uint256","name":"block_hash","type":"uint256"},{"internalType":"uint256","name":"tx_hash","type":"uint256"},{"internalType":"uint256","name":"log_index","type":"uint256"}],"internalType":"struct IReactive.LogRecord","name":"log","type":"tuple"}],"name":"react","outputs":[],"stateMutability":"nonpayable","type":"function"},{"inputs":[],"name":"renounceOwnership","outputs":[],"stateMutability":"nonpayable","type":"function"},{"inputs":[],"name":"resume","outputs":[],"stateMutability":"nonpayable","type":"function"},{"inputs":[],"name":"totalAllocated","outputs":[{"internalType":"uint256","name":"","type":"uint256"}],"stateMutability":"view","type":"function"},{"inputs":[{"internalType":"address","name":"newOwner","type":"address"}],"name":"transferOwnership","outputs":[],"stateMutability":"nonpayable","type":"function"},{"inputs":[{"internalType":"address","name":"newVault","type":"address"}],"name":"updateVaultAddress","outputs":[],"stateMutability":"nonpayable","type":"function"},{"inputs":[],"name":"vaultAddress","outputs":[{"internalType":"address","name":"","type":"address"}],"stateMutability":"view","type":"function"},{"stateMutability":"payable","type":"receive"}],"evm":{"bytecode":{"linkReferences":{},"object":"608060405234801561001057600080fd5b5060405162000f3938038062000f398339810160408190526100319161012e565b338061005757604051631e4fbdf760e01b81526000600482015260240160405180910390fd5b610060816100c2565b50600280546001600160a01b039586166001600160a01b0319918216179091556003805494861694821694909417909355600480546001805493871693909516929092179093556001600160a81b031916921691909117905543600755610182565b600080546001600160a01b038381166001600160a01b0319831681178455604051919092169283917f8be0079c531659141344cd1fd0a4f28419497f9722a3daafe3b4186f6b6457e09190a35050565b80516001600160a01b038116811461012957600080fd5b919050565b6000806000806080858703121561014457600080fd5b61014d85610112565b935061015b60208601610112565b925061016960408601610112565b915061017760608601610112565b905092959194509250565b610da780620001926000396000f3fe6080604052600436106101235760003560e01c8063a218141b116100a0578063d4a2aa3311610064578063d4a2aa3314610328578063e96279ce14610348578063ec7568db14610378578063f2fde38b1461038e578063f7b02097146103ae57600080fd5b8063a218141b14610264578063b187bd261461027a578063c290d691146102ab578063cbbf425f146102cb578063d2de2f85146102eb57600080fd5b806345f7f249116100e757806345f7f249146101e3578063715018a61461020757806379be5d221461021c5780638456cb59146102315780638da5cb5b1461024657600080fd5b8063046f7da21461012f5780630d152c2c146101465780631f4e0c231461016657806338d52e0f14610186578063430bf08a146101c357600080fd5b3661012a57005b600080fd5b34801561013b57600080fd5b506101446103c4565b005b34801561015257600080fd5b50610144610161366004610a8f565b610424565b34801561017257600080fd5b50610144610181366004610acb565b6104d0565b34801561019257600080fd5b506004546101a6906001600160a01b031681565b6040516001600160a01b0390911681526020015b60405180910390f35b3480156101cf57600080fd5b506001546101a6906001600160a01b031681565b3480156101ef57600080fd5b506101f960085481565b6040519081526020016101ba565b34801561021357600080fd5b50610144610552565b34801561022857600080fd5b50610144610566565b34801561023d57600080fd5b50610144610598565b34801561025257600080fd5b506000546001600160a01b03166101a6565b34801561027057600080fd5b506101f960075481565b34801561028657600080fd5b5060045461029b90600160a01b900460ff1681565b60405190151581526020016101ba565b3480156102b757600080fd5b506101446102c6366004610aed565b6105f5565b3480156102d757600080fd5b506002546101a6906001600160a01b031681565b3480156102f757600080fd5b50610144610306366004610b1b565b600180546001600160a01b0319166001600160a01b0392909216919091179055565b34801561033457600080fd5b506003546101a6906001600160a01b031681565b34801561035457600080fd5b5061035d610626565b604080519384526020840192909252908201526060016101ba565b34801561038457600080fd5b506101f960055481565b34801561039a57600080fd5b506101446103a9366004610b1b565b61065f565b3480156103ba57600080fd5b506101f960065481565b3033146103ec5760405162461bcd60e51b81526004016103e390610b38565b60405180910390fd5b6004805460ff60a01b191690556040517f2a9fc0f54e60b24a2383ee7bc79f061b7d628c0252a3e10f58686af9981c3be590600090a1565b3033146104435760405162461bcd60e51b81526004016103e390610b38565b600454600160a01b900460ff161561046d5760405162461bcd60e51b81526004016103e390610b6f565b6002546001600160a01b03166104896040830160208401610b1b565b6001600160a01b031614806104c057506003546001600160a01b03166104b56040830160208401610b1b565b6001600160a01b0316145b156104cd576104cd61069a565b50565b6104d8610735565b6004805482158015600160a01b0260ff60a01b1990921691909117909155610526576040517f13eec0552086416c3e09381b21148ff64916a0ba39d91d6f9a37c47e0d261a0d90600090a150565b6040517f2a9fc0f54e60b24a2383ee7bc79f061b7d628c0252a3e10f58686af9981c3be590600090a150565b61055a610735565b6105646000610762565b565b600454600160a01b900460ff16156105905760405162461bcd60e51b81526004016103e390610b6f565b61056461069a565b3033146105b75760405162461bcd60e51b81526004016103e390610b38565b6004805460ff60a01b1916600160a01b1790556040517f13eec0552086416c3e09381b21148ff64916a0ba39d91d6f9a37c47e0d261a0d90600090a1565b604051339082156108fc029083906000818181858888f19350505050158015610622573d6000803e3d6000fd5b5050565b60008060006106336107b2565b909350915081831161064e576106498383610bc7565b610658565b6106588284610bc7565b9050909192565b610667610735565b6001600160a01b03811661069157604051631e4fbdf760e01b8152600060048201526024016103e3565b6104cd81610762565b6000806106a56107b2565b6005829055600681905543600755909250905060008183116106d0576106cb8383610bc7565b6106da565b6106da8284610bc7565b60408051858152602081018590529081018290529091507f875894a489de1b1b13bf2e6c03981e3ddabcf1794b4b94dc5ba5d8e855a1e2f99060600160405180910390a1603281106107305761073083836108d3565b505050565b6000546001600160a01b031633146105645760405163118cdaa760e01b81523360048201526024016103e3565b600080546001600160a01b038381166001600160a01b0319831681178455604051919092169283917f8be0079c531659141344cd1fd0a4f28419497f9722a3daafe3b4186f6b6457e09190a35050565b600254600480546040516335ea6a7560e01b81526001600160a01b03918216928101929092526000928392911690829082906335ea6a759060240161018060405180830381865afa15801561080b573d6000803e3d6000fd5b505050506040513d601f19601f8201168201806040525081019061082f9190610c22565b905061083e8160000151610a3a565b93506000600360009054906101000a90046001600160a01b031690506000816001600160a01b031663ae9d70b06040518163ffffffff1660e01b8152600401602060405180830381865afa15801561089a573d6000803e3d6000fd5b505050506040513d601f19601f820116820180604052508101906108be9190610cd1565b90506108c981610a63565b9450505050509091565b60008183116108ed576002546001600160a01b03166108fa565b6003546001600160a01b03165b90506000828411610916576003546001600160a01b0316610923565b6002546001600160a01b03165b905060006109318383610a77565b90508015610a33576040516000602482018190526001600160a01b03808616604484015284166064830152608482018390529060a40160408051601f198184030181529181526020820180516001600160e01b031663b3f865f760e01b179052600154905191925062030d40916001600160a01b039091169062aa36a7907f8dd725fa9d6cd150017ab9e60318d40616439424e2fade9c1c58854950917dfc906109dc908690610cea565b60405180910390a4826001600160a01b0316846001600160a01b03167ffdda45e966ff112496244be5352b7733c9a992c78ba3e05e468531fb3eb9791d84604051610a2991815260200190565b60405180910390a3505b5050505050565b600069021e19e0c9bab2400000610a5383617b30610d38565b610a5d9190610d4f565b92915050565b600064e8d4a51000610a5383615220610d38565b6000600a600854610a889190610d4f565b9392505050565b600060208284031215610aa157600080fd5b813567ffffffffffffffff811115610ab857600080fd5b82016101808185031215610a8857600080fd5b600060208284031215610add57600080fd5b81358015158114610a8857600080fd5b600060208284031215610aff57600080fd5b5035919050565b6001600160a01b03811681146104cd57600080fd5b600060208284031215610b2d57600080fd5b8135610a8881610b06565b6020808252601e908201527f766d4f6e6c793a2063616c6c6572206d757374206265205265616374564d0000604082015260600190565b60208082526022908201527f5969656c644d6f6e69746f723a204d6f6e69746f72696e672069732070617573604082015261195960f21b606082015260800190565b634e487b7160e01b600052601160045260246000fd5b81810381811115610a5d57610a5d610bb1565b604051610180810167ffffffffffffffff81118282101715610c0c57634e487b7160e01b600052604160045260246000fd5b60405290565b8051610c1d81610b06565b919050565b60006101808284031215610c3557600080fd5b610c3d610bda565b825181526020830151602082015260408301516040820152606083015160608201526080830151608082015260a083015160a082015260c083015160c082015260e083015160e0820152610100610c95818501610c12565b90820152610120610ca7848201610c12565b90820152610140610cb9848201610c12565b90820152610160928301519281019290925250919050565b600060208284031215610ce357600080fd5b5051919050565b600060208083528351808285015260005b81811015610d1757858101830151858201604001528201610cfb565b506000604082860101526040601f19601f8301168501019250505092915050565b8082028115828204841417610a5d57610a5d610bb1565b600082610d6c57634e487b7160e01b600052601260045260246000fd5b50049056fea2646970667358221220673caacaa4a2e1b717a86e9c83eee4c1f3dc9378aab4a5812effa297c938073d64736f6c63430008140033","opcodes":"PUSH1 0x80 PUSH1 0x40 MSTORE CALLVALUE DUP1 ISZERO PUSH2 0x10 JUMPI PUSH1 0x0 DUP1 REVERT JUMPDEST POP PUSH1 0x40 MLOAD PUSH3 0xF39 CODESIZE SUB DUP1 PUSH3 0xF39 DUP4 CODECOPY DUP2 ADD PUSH1 0x40 DUP2 SWAP1 MSTORE PUSH2 0x31 SWAP2 PUSH2 0x12E JUMP JUMPDEST CALLER DUP1 PUSH2 0x57 JUMPI PUSH1 0x40 MLOAD PUSH4 0x1E4FBDF7 PUSH1 0xE0 SHL DUP2 MSTORE PUSH1 0x0 PUSH1 0x4 DUP3 ADD MSTORE PUSH1 0x24 ADD PUSH1 0x40 MLOAD DUP1 SWAP2 SUB SWAP1 REVERT JUMPDEST PUSH2 0x60 DUP2 PUSH2 0xC2 JUMP JUMPDEST POP PUSH1 0x2 DUP1 SLOAD PUSH1 0x1 PUSH1 0x1 PUSH1 0xA0 SHL SUB SWAP6 DUP7 AND PUSH1 0x1 PUSH1 0x1 PUSH1 0xA0 SHL SUB NOT SWAP2 DUP3 AND OR SWAP1 SWAP2 SSTORE PUSH1 0x3 DUP1 SLOAD SWAP5 DUP7 AND SWAP5 DUP3 AND SWAP5 SWAP1 SWAP5 OR SWAP1 SWAP4 SSTORE PUSH1 0x4 DUP1 SLOAD PUSH1 0x1 DUP1 SLOAD SWAP4 DUP8 AND SWAP4 SWAP1 SWAP6 AND SWAP3 SWAP1 SWAP3 OR SWAP1 SWAP4 SSTORE PUSH1 0x1 PUSH1 0x1 PUSH1 0xA8 SHL SUB NOT AND SWAP3 AND SWAP2 SWAP1 SWAP2 OR SWAP1 SSTORE NUMBER PUSH1 0x7 SSTORE PUSH2 0x182 JUMP JUMPDEST PUSH1 0x0 DUP1 SLOAD PUSH1 0x1 PUSH1 0x1 PUSH1 0xA0 SHL SUB DUP4 DUP2 AND PUSH1 0x1 PUSH1 0x1 PUSH1 0xA0 SHL SUB NOT DUP4 AND DUP2 OR DUP5 SSTORE PUSH1 0x40 MLOAD SWAP2 SWAP1 SWAP3 AND SWAP3 DUP4 SWAP2 PUSH32 0x8BE0079C531659141344CD1FD0A4F28419497F9722A3DAAFE3B4186F6B6457E0 SWAP2 SWAP1 LOG3 POP POP JUMP JUMPDEST DUP1 MLOAD PUSH1 0x1 PUSH1 0x1 PUSH1 0xA0 SHL SUB DUP2 AND DUP2 EQ PUSH2 0x129 JUMPI PUSH1 0x0 DUP1 REVERT JUMPDEST SWAP2 SWAP1 POP JUMP JUMPDEST PUSH1 0x0 DUP1 PUSH1 0x0 DUP1 PUSH1 0x80 DUP6 DUP8 SUB SLT ISZERO PUSH2 0x144 JUMPI PUSH1 0x0 DUP1 REVERT JUMPDEST PUSH2 0x14D DUP6 PUSH2 0x112 JUMP JUMPDEST SWAP4 POP PUSH2 0x15B PUSH1 0x20 DUP7 ADD PUSH2 0x112 JUMP JUMPDEST SWAP3 POP PUSH2 0x169 PUSH1 0x40 DUP7 ADD PUSH2 0x112 JUMP JUMPDEST SWAP2 POP PUSH2 0x177 PUSH1 0x60 DUP7 ADD PUSH2 0x112 JUMP JUMPDEST SWAP1 POP SWAP3 SWAP6 SWAP2 SWAP5 POP SWAP3 POP JUMP JUMPDEST PUSH2 0xDA7 DUP1 PUSH3 0x192 PUSH1 0x0 CODECOPY PUSH1 0x0 RETURN INVALID PUSH1 0x80 PUSH1 0x40 MSTORE PUSH1 0x4 CALLDATASIZE LT PUSH2 0x123 JUMPI PUSH1 0x0 CALLDATALOAD PUSH1 0xE0 SHR DUP1 PUSH4 0xA218141B GT PUSH2 0xA0 JUMPI DUP1 PUSH4 0xD4A2AA33 GT PUSH2 0x64 JUMPI DUP1 PUSH4 0xD4A2AA33 EQ PUSH2 0x328 JUMPI DUP1 PUSH4 0xE96279CE EQ PUSH2 0x348 JUMPI DUP1 PUSH4 0xEC7568DB EQ PUSH2 0x378 JUMPI DUP1 PUSH4 0xF2FDE38B EQ PUSH2 0x38E JUMPI DUP1 PUSH4 0xF7B02097 EQ PUSH2 0x3AE JUMPI PUSH1 0x0 DUP1 REVERT JUMPDEST DUP1 PUSH4 0xA218141B EQ PUSH2 0x264 JUMPI DUP1 PUSH4 0xB187BD26 EQ PUSH2 0x27A JUMPI DUP1 PUSH4 0xC290D691 EQ PUSH2 0x2AB JUMPI DUP1 PUSH4 0xCBBF425F EQ PUSH2 0x2CB JUMPI DUP1 PUSH4 0xD2DE2F85 EQ PUSH2 0x2EB JUMPI PUSH1 0x0 DUP1 REVERT JUMPDEST DUP1 PUSH4 0x45F7F249 GT PUSH2 0xE7 JUMPI DUP1 PUSH4 0x45F7F249 EQ PUSH2 0x1E3 JUMPI DUP1 PUSH4 0x715018A6 EQ PUSH2 0x207 JUMPI DUP1 PUSH4 0x79BE5D22 EQ PUSH2 0x21C JUMPI DUP1 PUSH4 0x8456CB59 EQ PUSH2 0x231 JUMPI DUP1 PUSH4 0x8DA5CB5B EQ PUSH2 0x246 JUMPI PUSH1 0x0 DUP1 REVERT JUMPDEST DUP1 PUSH4 0x46F7DA2 EQ PUSH2 0x12F JUMPI DUP1 PUSH4 0xD152C2C EQ PUSH2 0x146 JUMPI DUP1 PUSH4 0x1F4E0C23 EQ PUSH2 0x166 JUMPI DUP1 PUSH4 0x38D52E0F EQ PUSH2 0x186 JUMPI DUP1 PUSH4 0x430BF08A EQ PUSH2 0x1C3 JUMPI PUSH1 0x0 DUP1 REVERT JUMPDEST CALLDATASIZE PUSH2 0x12A JUMPI STOP JUMPDEST PUSH1 0x0 DUP1 REVERT JUMPDEST CALLVALUE DUP1 ISZERO PUSH2 0x13B JUMPI PUSH1 0x0 DUP1 REVERT JUMPDEST POP PUSH2 0x144 PUSH2 0x3C4 JUMP JUMPDEST STOP JUMPDEST CALLVALUE DUP1 ISZERO PUSH2 0x152 JUMPI PUSH1 0x0 DUP1 REVERT JUMPDEST POP PUSH2 0x144 PUSH2 0x161 CALLDATASIZE PUSH1 0x4 PUSH2 0xA8F JUMP JUMPDEST PUSH2 0x424 JUMP JUMPDEST CALLVALUE DUP1 ISZERO PUSH2 0x172 JUMPI PUSH1 0x0 DUP1 REVERT JUMPDEST POP PUSH2 0x144 PUSH2 0x181 CALLDATASIZE PUSH1 0x4 PUSH2 0xACB JUMP JUMPDEST PUSH2 0x4D0 JUMP JUMPDEST CALLVALUE DUP1 ISZERO PUSH2 0x192 JUMPI PUSH1 0x0 DUP1 REVERT JUMPDEST POP PUSH1 0x4 SLOAD PUSH2 0x1A6 SWAP1 PUSH1 0x1 PUSH1 0x1 PUSH1 0xA0 SHL SUB AND DUP2 JUMP JUMPDEST PUSH1 0x40 MLOAD PUSH1 0x1 PUSH1 0x1 PUSH1 0xA0 SHL SUB SWAP1 SWAP2 AND DUP2 MSTORE PUSH1 0x20 ADD JUMPDEST PUSH1 0x40 MLOAD DUP1 SWAP2 SUB SWAP1 RETURN JUMPDEST CALLVALUE DUP1 ISZERO PUSH2 0x1CF JUMPI PUSH1 0x0 DUP1 REVERT JUMPDEST POP PUSH1 0x1 SLOAD PUSH2 0x1A6 SWAP1 PUSH1 0x1 PUSH1 0x1 PUSH1 0xA0 SHL SUB AND DUP2 JUMP JUMPDEST CALLVALUE DUP1 ISZERO PUSH2 0x1EF JUMPI PUSH1 0x0 DUP1 REVERT JUMPDEST POP PUSH2 0x1F9 PUSH1 0x8 SLOAD DUP2 JUMP JUMPDEST PUSH1 0x40 MLOAD SWAP1 DUP2 MSTORE PUSH1 0x20 ADD PUSH2 0x1BA JUMP JUMPDEST CALLVALUE DUP1 ISZERO PUSH2 0x213 JUMPI PUSH1 0x0 DUP1 REVERT JUMPDEST POP PUSH2 0x144 PUSH2 0x552 JUMP JUMPDEST CALLVALUE DUP1 ISZERO PUSH2 0x228 JUMPI PUSH1 0x0 DUP1 REVERT JUMPDEST POP PUSH2 0x144 PUSH2 0x566 JUMP JUMPDEST CALLVALUE DUP1 ISZERO PUSH2 0x23D JUMPI PUSH1 0x0 DUP1 REVERT JUMPDEST POP PUSH2 0x144 PUSH2 0x598 JUMP JUMPDEST CALLVALUE DUP1 ISZERO PUSH2 0x252 JUMPI PUSH1 0x0 DUP1 REVERT JUMPDEST POP PUSH1 0x0 SLOAD PUSH1 0x1 PUSH1 0x1 PUSH1 0xA0 SHL SUB AND PUSH2 0x1A6 JUMP JUMPDEST CALLVALUE DUP1 ISZERO PUSH2 0x270 JUMPI PUSH1 0x0 DUP1 REVERT JUMPDEST POP PUSH2 0x1F9 PUSH1 0x7 SLOAD DUP2 JUMP JUMPDEST CALLVALUE DUP1 ISZERO PUSH2 0x286 JUMPI PUSH1 0x0 DUP1 REVERT JUMPDEST POP PUSH1 0x4 SLOAD PUSH2 0x29B SWAP1 PUSH1 0x1 PUSH1 0xA0 SHL SWAP1 DIV PUSH1 0xFF AND DUP2 JUMP JUMPDEST PUSH1 0x40 MLOAD SWAP1 ISZERO ISZERO DUP2 MSTORE PUSH1 0x20 ADD PUSH2 0x1BA JUMP JUMPDEST CALLVALUE DUP1 ISZERO PUSH2 0x2B7 JUMPI PUSH1 0x0 DUP1 REVERT JUMPDEST POP PUSH2 0x144 PUSH2 0x2C6 CALLDATASIZE PUSH1 0x4 PUSH2 0xAED JUMP JUMPDEST PUSH2 0x5F5 JUMP JUMPDEST CALLVALUE DUP1 ISZERO PUSH2 0x2D7 JUMPI PUSH1 0x0 DUP1 REVERT JUMPDEST POP PUSH1 0x2 SLOAD PUSH2 0x1A6 SWAP1 PUSH1 0x1 PUSH1 0x1 PUSH1 0xA0 SHL SUB AND DUP2 JUMP JUMPDEST CALLVALUE DUP1 ISZERO PUSH2 0x2F7 JUMPI PUSH1 0x0 DUP1 REVERT JUMPDEST POP PUSH2 0x144 PUSH2 0x306 CALLDATASIZE PUSH1 0x4 PUSH2 0xB1B JUMP JUMPDEST PUSH1 0x1 DUP1 SLOAD PUSH1 0x1 PUSH1 0x1 PUSH1 0xA0 SHL SUB NOT AND PUSH1 0x1 PUSH1 0x1 PUSH1 0xA0 SHL SUB SWAP3 SWAP1 SWAP3 AND SWAP2 SWAP1 SWAP2 OR SWAP1 SSTORE JUMP JUMPDEST CALLVALUE DUP1 ISZERO PUSH2 0x334 JUMPI PUSH1 0x0 DUP1 REVERT JUMPDEST POP PUSH1 0x3 SLOAD PUSH2 0x1A6 SWAP1 PUSH1 0x1 PUSH1 0x1 PUSH1 0xA0 SHL SUB AND DUP2 JUMP JUMPDEST CALLVALUE DUP1 ISZERO PUSH2 0x354 JUMPI PUSH1 0x0 DUP1 REVERT JUMPDEST POP PUSH2 0x35D PUSH2 0x626 JUMP JUMPDEST PUSH1 0x40 DUP1 MLOAD SWAP4 DUP5 MSTORE PUSH1 0x20 DUP5 ADD SWAP3 SWAP1 SWAP3 MSTORE SWAP1 DUP3 ADD MSTORE PUSH1 0x60 ADD PUSH2 0x1BA JUMP JUMPDEST CALLVALUE DUP1 ISZERO PUSH2 0x384 JUMPI PUSH1 0x0 DUP1 REVERT JUMPDEST POP PUSH2 0x1F9 PUSH1 0x5 SLOAD DUP2 JUMP JUMPDEST CALLVALUE DUP1 ISZERO PUSH2 0x39A JUMPI PUSH1 0x0 DUP1 REVERT JUMPDEST POP PUSH2 0x144 PUSH2 0x3A9 CALLDATASIZE PUSH1 0x4 PUSH2 0xB1B JUMP JUMPDEST PUSH2 0x65F JUMP JUMPDEST CALLVALUE DUP1 ISZERO PUSH2 0x3BA JUMPI PUSH1 0x0 DUP1 REVERT JUMPDEST POP PUSH2 0x1F9 PUSH1 0x6 SLOAD DUP2 JUMP JUMPDEST ADDRESS CALLER EQ PUSH2 0x3EC JUMPI PUSH1 0x40 MLOAD PUSH3 0x461BCD PUSH1 0xE5 SHL DUP2 MSTORE PUSH1 0x4 ADD PUSH2 0x3E3 SWAP1 PUSH2 0xB38 JUMP JUMPDEST PUSH1 0x40 MLOAD DUP1 SWAP2 SUB SWAP1 REVERT JUMPDEST PUSH1 0x4 DUP1 SLOAD PUSH1 0xFF PUSH1 0xA0 SHL NOT AND SWAP1 SSTORE PUSH1 0x40 MLOAD PUSH32 0x2A9FC0F54E60B24A2383EE7BC79F061B7D628C0252A3E10F58686AF9981C3BE5 SWAP1 PUSH1 0x0 SWAP1 LOG1 JUMP JUMPDEST ADDRESS CALLER EQ PUSH2 0x443 JUMPI PUSH1 0x40 MLOAD PUSH3 0x461BCD PUSH1 0xE5 SHL DUP2 MSTORE PUSH1 0x4 ADD PUSH2 0x3E3 SWAP1 PUSH2 0xB38 JUMP JUMPDEST PUSH1 0x4 SLOAD PUSH1 0x1 PUSH1 0xA0 SHL SWAP1 DIV PUSH1 0xFF AND ISZERO PUSH2 0x46D JUMPI PUSH1 0x40 MLOAD PUSH3 0x461BCD PUSH1 0xE5 SHL DUP2 MSTORE PUSH1 0x4 ADD PUSH2 0x3E3 SWAP1 PUSH2 0xB6F JUMP JUMPDEST PUSH1 0x2 SLOAD PUSH1 0x1 PUSH1 0x1 PUSH1 0xA0 SHL SUB AND PUSH2 0x489 PUSH1 0x40 DUP4 ADD PUSH1 0x20 DUP5 ADD PUSH2 0xB1B JUMP JUMPDEST PUSH1 0x1 PUSH1 0x1 PUSH1 0xA0 SHL SUB AND EQ DUP1 PUSH2 0x4C0 JUMPI POP PUSH1 0x3 SLOAD PUSH1 0x1 PUSH1 0x1 PUSH1 0xA0 SHL SUB AND PUSH2 0x4B5 PUSH1 0x40 DUP4 ADD PUSH1 0x20 DUP5 ADD PUSH2 0xB1B JUMP JUMPDEST PUSH1 0x1 PUSH1 0x1 PUSH1 0xA0 SHL SUB AND EQ JUMPDEST ISZERO PUSH2 0x4CD JUMPI PUSH2 0x4CD PUSH2 0x69A JUMP JUMPDEST POP JUMP JUMPDEST PUSH2 0x4D8 PUSH2 0x735 JUMP JUMPDEST PUSH1 0x4 DUP1 SLOAD DUP3 ISZERO DUP1 ISZERO PUSH1 0x1 PUSH1 0xA0 SHL MUL PUSH1 0xFF PUSH1 0xA0 SHL NOT SWAP1 SWAP3 AND SWAP2 SWAP1 SWAP2 OR SWAP1 SWAP2 SSTORE PUSH2 0x526 JUMPI PUSH1 0x40 MLOAD PUSH32 0x13EEC0552086416C3E09381B21148FF64916A0BA39D91D6F9A37C47E0D261A0D SWAP1 PUSH1 0x0 SWAP1 LOG1 POP JUMP JUMPDEST PUSH1 0x40 MLOAD PUSH32 0x2A9FC0F54E60B24A2383EE7BC79F061B7D628C0252A3E10F58686AF9981C3BE5 SWAP1 PUSH1 0x0 SWAP1 LOG1 POP JUMP JUMPDEST PUSH2 0x55A PUSH2 0x735 JUMP JUMPDEST PUSH2 0x564 PUSH1 0x0 PUSH2 0x762 JUMP JUMPDEST JUMP JUMPDEST PUSH1 0x4 SLOAD PUSH1 0x1 PUSH1 0xA0 SHL SWAP1 DIV PUSH1 0xFF AND ISZERO PUSH2 0x590 JUMPI PUSH1 0x40 MLOAD PUSH3 0x461BCD PUSH1 0xE5 SHL DUP2 MSTORE PUSH1 0x4 ADD PUSH2 0x3E3 SWAP1 PUSH2 0xB6F JUMP JUMPDEST PUSH2 0x564 PUSH2 0x69A JUMP JUMPDEST ADDRESS CALLER EQ PUSH2 0x5B7 JUMPI PUSH1 0x40 MLOAD PUSH3 0x461BCD PUSH1 0xE5 SHL DUP2 MSTORE PUSH1 0x4 ADD PUSH2 0x3E3 SWAP1 PUSH2 0xB38 JUMP JUMPDEST PUSH1 0x4 DUP1 SLOAD PUSH1 0xFF PUSH1 0xA0 SHL NOT AND PUSH1 0x1 PUSH1 0xA0 SHL OR SWAP1 SSTORE PUSH1 0x40 MLOAD PUSH32 0x13EEC0552086416C3E09381B21148FF64916A0BA39D91D6F9A37C47E0D261A0D SWAP1 PUSH1 0x0 SWAP1 LOG1 JUMP JUMPDEST PUSH1 0x40 MLOAD CALLER SWAP1 DUP3 ISZERO PUSH2 0x8FC MUL SWAP1 DUP4 SWAP1 PUSH1 0x0 DUP2 DUP2 DUP2 DUP6 DUP9 DUP9 CALL SWAP4 POP POP POP POP ISZERO DUP1 ISZERO PUSH2 0x622 JUMPI RETURNDATASIZE PUSH1 0x0 DUP1 RETURNDATACOPY RETURNDATASIZE PUSH1 0x0 REVERT JUMPDEST POP POP JUMP JUMPDEST PUSH1 0x0 DUP1 PUSH1 0x0 PUSH2 0x633 PUSH2 0x7B2 JUMP JUMPDEST SWAP1 SWAP4 POP SWAP2 POP DUP2 DUP4 GT PUSH2 0x64E JUMPI PUSH2 0x649 DUP4 DUP4 PUSH2 0xBC7 JUMP JUMPDEST PUSH2 0x658 JUMP JUMPDEST PUSH2 0x658 DUP3 DUP5 PUSH2 0xBC7 JUMP JUMPDEST SWAP1 POP SWAP1 SWAP2 SWAP3 JUMP JUMPDEST PUSH2 0x667 PUSH2 0x735 JUMP JUMPDEST PUSH1 0x1 PUSH1 0x1 PUSH1 0xA0 SHL SUB DUP2 AND PUSH2 0x691 JUMPI PUSH1 0x40 MLOAD PUSH4 0x1E4FBDF7 PUSH1 0xE0 SHL DUP2 MSTORE PUSH1 0x0 PUSH1 0x4 DUP3 ADD MSTORE PUSH1 0x24 ADD PUSH2 0x3E3 JUMP JUMPDEST PUSH2 0x4CD DUP2 PUSH2 0x762 JUMP JUMPDEST PUSH1 0x0 DUP1 PUSH2 0x6A5 PUSH2 0x7B2 JUMP JUMPDEST PUSH1 0x5 DUP3 SWAP1 SSTORE PUSH1 0x6 DUP2 SWAP1 SSTORE NUMBER PUSH1 0x7 SSTORE SWAP1 SWAP3 POP SWAP1 POP PUSH1 0x0 DUP2 DUP4 GT PUSH2 0x6D0 JUMPI PUSH2 0x6CB DUP4 DUP4 PUSH2 0xBC7 JUMP JUMPDEST PUSH2 0x6DA JUMP JUMPDEST PUSH2 0x6DA DUP3 DUP5 PUSH2 0xBC7 JUMP JUMPDEST PUSH1 0x40 DUP1 MLOAD DUP6 DUP2 MSTORE PUSH1 0x20 DUP2 ADD DUP6 SWAP1 MSTORE SWAP1 DUP2 ADD DUP3 SWAP1 MSTORE SWAP1 SWAP2 POP PUSH32 0x875894A489DE1B1B13BF2E6C03981E3DDABCF1794B4B94DC5BA5D8E855A1E2F9 SWAP1 PUSH1 0x60 ADD PUSH1 0x40 MLOAD DUP1 SWAP2 SUB SWAP1 LOG1 PUSH1 0x32 DUP2 LT PUSH2 0x730 JUMPI PUSH2 0x730 DUP4 DUP4 PUSH2 0x8D3 JUMP JUMPDEST POP POP POP JUMP JUMPDEST PUSH1 0x0 SLOAD PUSH1 0x1 PUSH1 0x1 PUSH1 0xA0 SHL SUB AND CALLER EQ PUSH2 0x564 JUMPI PUSH1 0x40 MLOAD PUSH4 0x118CDAA7 PUSH1 0xE0 SHL DUP2 MSTORE CALLER PUSH1 0x4 DUP3 ADD MSTORE PUSH1 0x24 ADD PUSH2 0x3E3 JUMP JUMPDEST PUSH1 0x0 DUP1 SLOAD PUSH1 0x1 PUSH1 0x1 PUSH1 0xA0 SHL SUB DUP4 DUP2 AND PUSH1 0x1 PUSH1 0x1 PUSH1 0xA0 SHL SUB NOT DUP4 AND DUP2 OR DUP5 SSTORE PUSH1 0x40 MLOAD SWAP2 SWAP1 SWAP3 AND SWAP3 DUP4 SWAP2 PUSH32 0x8BE0079C531659141344CD1FD0A4F28419497F9722A3DAAFE3B4186F6B6457E0 SWAP2 SWAP1 LOG3 POP POP JUMP JUMPDEST PUSH1 0x2 SLOAD PUSH1 0x4 DUP1 SLOAD PUSH1 0x40 MLOAD PUSH4 0x35EA6A75 PUSH1 0xE0 SHL DUP2 MSTORE PUSH1 0x1 PUSH1 0x1 PUSH1 0xA0 SHL SUB SWAP2 DUP3 AND SWAP3 DUP2 ADD SWAP3 SWAP1 SWAP3 MSTORE PUSH1 0x0 SWAP3 DUP4 SWAP3 SWAP2 AND SWAP1 DUP3 SWAP1 DUP3 SWAP1 PUSH4 0x35EA6A75 SWAP1 PUSH1 0x24 ADD PUSH2 0x180 PUSH1 0x40 MLOAD DUP1 DUP4 SUB DUP2 DUP7 GAS STATICCALL ISZERO DUP1 ISZERO PUSH2 0x80B JUMPI RETURNDATASIZE PUSH1 0x0 DUP1 RETURNDATACOPY RETURNDATASIZE PUSH1 0x0 REVERT JUMPDEST POP POP POP POP PUSH1 0x40 MLOAD RETURNDATASIZE PUSH1 0x1F NOT PUSH1 0x1F DUP3 ADD AND DUP3 ADD DUP1 PUSH1 0x40 MSTORE POP DUP2 ADD SWAP1 PUSH2 0x82F SWAP2 SWAP1 PUSH2 0xC22 JUMP JUMPDEST SWAP1 POP PUSH2 0x83E DUP2 PUSH1 0x0 ADD MLOAD PUSH2 0xA3A JUMP JUMPDEST SWAP4 POP PUSH1 0x0 PUSH1 0x3 PUSH1 0x0 SWAP1 SLOAD SWAP1 PUSH2 0x100 EXP SWAP1 DIV PUSH1 0x1 PUSH1 0x1 PUSH1 0xA0 SHL SUB AND SWAP1 POP PUSH1 0x0 DUP2 PUSH1 0x1 PUSH1 0x1 PUSH1 0xA0 SHL SUB AND PUSH4 0xAE9D70B0 PUSH1 0x40 MLOAD DUP2 PUSH4 0xFFFFFFFF AND PUSH1 0xE0 SHL DUP2 MSTORE PUSH1 0x4 ADD PUSH1 0x20 PUSH1 0x40 MLOAD DUP1 DUP4 SUB DUP2 DUP7 GAS STATICCALL ISZERO DUP1 ISZERO PUSH2 0x89A JUMPI RETURNDATASIZE PUSH1 0x0 DUP1 RETURNDATACOPY RETURNDATASIZE PUSH1 0x0 REVERT JUMPDEST POP POP POP POP PUSH1 0x40 MLOAD RETURNDATASIZE PUSH1 0x1F NOT PUSH1 0x1F DUP3 ADD AND DUP3 ADD DUP1 PUSH1 0x40 MSTORE POP DUP2 ADD SWAP1 PUSH2 0x8BE SWAP2 SWAP1 PUSH2 0xCD1 JUMP JUMPDEST SWAP1 POP PUSH2 0x8C9 DUP2 PUSH2 0xA63 JUMP JUMPDEST SWAP5 POP POP POP POP POP SWAP1 SWAP2 JUMP JUMPDEST PUSH1 0x0 DUP2 DUP4 GT PUSH2 0x8ED JUMPI PUSH1 0x2 SLOAD PUSH1 0x1 PUSH1 0x1 PUSH1 0xA0 SHL SUB AND PUSH2 0x8FA JUMP JUMPDEST PUSH1 0x3 SLOAD PUSH1 0x1 PUSH1 0x1 PUSH1 0xA0 SHL SUB AND JUMPDEST SWAP1 POP PUSH1 0x0 DUP3 DUP5 GT PUSH2 0x916 JUMPI PUSH1 0x3 SLOAD PUSH1 0x1 PUSH1 0x1 PUSH1 0xA0 SHL SUB AND PUSH2 0x923 JUMP JUMPDEST PUSH1 0x2 SLOAD PUSH1 0x1 PUSH1 0x1 PUSH1 0xA0 SHL SUB AND JUMPDEST SWAP1 POP PUSH1 0x0 PUSH2 0x931 DUP4 DUP4 PUSH2 0xA77 JUMP JUMPDEST SWAP1 POP DUP1 ISZERO PUSH2 0xA33 JUMPI PUSH1 0x40 MLOAD PUSH1 0x0 PUSH1 0x24 DUP3 ADD DUP2 SWAP1 MSTORE PUSH1 0x1 PUSH1 0x1 PUSH1 0xA0 SHL SUB DUP1 DUP7 AND PUSH1 0x44 DUP5 ADD MSTORE DUP5 AND PUSH1 0x64 DUP4 ADD MSTORE PUSH1 0x84 DUP3 ADD DUP4 SWAP1 MSTORE SWAP1 PUSH1 0xA4 ADD PUSH1 0x40 DUP1 MLOAD PUSH1 0x1F NOT DUP2 DUP5 SUB ADD DUP2 MSTORE SWAP2 DUP2 MSTORE PUSH1 0x20 DUP3 ADD DUP1 MLOAD PUSH1 0x1 PUSH1 0x1 PUSH1 0xE0 SHL SUB AND PUSH4 0xB3F865F7 PUSH1 0xE0 SHL OR SWAP1 MSTORE PUSH1 0x1 SLOAD SWAP1 MLOAD SWAP2 SWAP3 POP PUSH3 0x30D40 SWAP2 PUSH1 0x1 PUSH1 0x1 PUSH1 0xA0 SHL SUB SWAP1 SWAP2 AND SWAP1 PUSH3 0xAA36A7 SWAP1 PUSH32 0x8DD725FA9D6CD150017AB9E60318D40616439424E2FADE9C1C58854950917DFC SWAP1 PUSH2 0x9DC SWAP1 DUP7 SWAP1 PUSH2 0xCEA JUMP JUMPDEST PUSH1 0x40 MLOAD DUP1 SWAP2 SUB SWAP1 LOG4 DUP3 PUSH1 0x1 PUSH1 0x1 PUSH1 0xA0 SHL SUB AND DUP5 PUSH1 0x1 PUSH1 0x1 PUSH1 0xA0 SHL SUB AND PUSH32 0xFDDA45E966FF112496244BE5352B7733C9A992C78BA3E05E468531FB3EB9791D DUP5 PUSH1 0x40 MLOAD PUSH2 0xA29 SWAP2 DUP2 MSTORE PUSH1 0x20 ADD SWAP1 JUMP JUMPDEST PUSH1 0x40 MLOAD DUP1 SWAP2 SUB SWAP1 LOG3 POP JUMPDEST POP POP POP POP POP JUMP JUMPDEST PUSH1 0x0 PUSH10 0x21E19E0C9BAB2400000 PUSH2 0xA53 DUP4 PUSH2 0x7B30 PUSH2 0xD38 JUMP JUMPDEST PUSH2 0xA5D SWAP2 SWAP1 PUSH2 0xD4F JUMP JUMPDEST SWAP3 SWAP2 POP POP JUMP JUMPDEST PUSH1 0x0 PUSH5 0xE8D4A51000 PUSH2 0xA53 DUP4 PUSH2 0x5220 PUSH2 0xD38 JUMP JUMPDEST PUSH1 0x0 PUSH1 0xA PUSH1 0x8 SLOAD PUSH2 0xA88 SWAP2 SWAP1 PUSH2 0xD4F JUMP JUMPDEST SWAP4 SWAP3 POP POP POP JUMP JUMPDEST PUSH1 0x0 PUSH1 0x20 DUP3 DUP5 SUB SLT ISZERO PUSH2 0xAA1 JUMPI PUSH1 0x0 DUP1 REVERT JUMPDEST DUP2 CALLDATALOAD PUSH8 0xFFFFFFFFFFFFFFFF DUP2 GT ISZERO PUSH2 0xAB8 JUMPI PUSH1 0x0 DUP1 REVERT JUMPDEST DUP3 ADD PUSH2 0x180 DUP2 DUP6 SUB SLT ISZERO PUSH2 0xA88 JUMPI PUSH1 0x0 DUP1 REVERT JUMPDEST PUSH1 0x0 PUSH1 0x20 DUP3 DUP5 SUB SLT ISZERO PUSH2 0xADD JUMPI PUSH1 0x0 DUP1 REVERT JUMPDEST DUP2 CALLDATALOAD DUP1 ISZERO ISZERO DUP2 EQ PUSH2 0xA88 JUMPI PUSH1 0x0 DUP1 REVERT JUMPDEST PUSH1 0x0 PUSH1 0x20 DUP3 DUP5 SUB SLT ISZERO PUSH2 0xAFF JUMPI PUSH1 0x0 DUP1 REVERT JUMPDEST POP CALLDATALOAD SWAP2 SWAP1 POP JUMP JUMPDEST PUSH1 0x1 PUSH1 0x1 PUSH1 0xA0 SHL SUB DUP2 AND DUP2 EQ PUSH2 0x4CD JUMPI PUSH1 0x0 DUP1 REVERT JUMPDEST PUSH1 0x0 PUSH1 0x20 DUP3 DUP5 SUB SLT ISZERO PUSH2 0xB2D JUMPI PUSH1 0x0 DUP1 REVERT JUMPDEST DUP2 CALLDATALOAD PUSH2 0xA88 DUP2 PUSH2 0xB06 JUMP JUMPDEST PUSH1 0x20 DUP1 DUP3 MSTORE PUSH1 0x1E SWAP1 DUP3 ADD MSTORE PUSH32 0x766D4F6E6C793A2063616C6C6572206D757374206265205265616374564D0000 PUSH1 0x40 DUP3 ADD MSTORE PUSH1 0x60 ADD SWAP1 JUMP JUMPDEST PUSH1 0x20 DUP1 DUP3 MSTORE PUSH1 0x22 SWAP1 DUP3 ADD MSTORE PUSH32 0x5969656C644D6F6E69746F723A204D6F6E69746F72696E672069732070617573 PUSH1 0x40 DUP3 ADD MSTORE PUSH2 0x1959 PUSH1 0xF2 SHL PUSH1 0x60 DUP3 ADD MSTORE PUSH1 0x80 ADD SWAP1 JUMP JUMPDEST PUSH4 0x4E487B71 PUSH1 0xE0 SHL PUSH1 0x0 MSTORE PUSH1 0x11 PUSH1 0x4 MSTORE PUSH1 0x24 PUSH1 0x0 REVERT JUMPDEST DUP2 DUP2 SUB DUP2 DUP2 GT ISZERO PUSH2 0xA5D JUMPI PUSH2 0xA5D PUSH2 0xBB1 JUMP JUMPDEST PUSH1 0x40 MLOAD PUSH2 0x180 DUP2 ADD PUSH8 0xFFFFFFFFFFFFFFFF DUP2 GT DUP3 DUP3 LT OR ISZERO PUSH2 0xC0C JUMPI PUSH4 0x4E487B71 PUSH1 0xE0 SHL PUSH1 0x0 MSTORE PUSH1 0x41 PUSH1 0x4 MSTORE PUSH1 0x24 PUSH1 0x0 REVERT JUMPDEST PUSH1 0x40 MSTORE SWAP1 JUMP JUMPDEST DUP1 MLOAD PUSH2 0xC1D DUP2 PUSH2 0xB06 JUMP JUMPDEST SWAP2 SWAP1 POP JUMP JUMPDEST PUSH1 0x0 PUSH2 0x180 DUP3 DUP5 SUB SLT ISZERO PUSH2 0xC35 JUMPI PUSH1 0x0 DUP1 REVERT JUMPDEST PUSH2 0xC3D PUSH2 0xBDA JUMP JUMPDEST DUP3 MLOAD DUP2 MSTORE PUSH1 0x20 DUP4 ADD MLOAD PUSH1 0x20 DUP3 ADD MSTORE PUSH1 0x40 DUP4 ADD MLOAD PUSH1 0x40 DUP3 ADD MSTORE PUSH1 0x60 DUP4 ADD MLOAD PUSH1 0x60 DUP3 ADD MSTORE PUSH1 0x80 DUP4 ADD MLOAD PUSH1 0x80 DUP3 ADD MSTORE PUSH1 0xA0 DUP4 ADD MLOAD PUSH1 0xA0 DUP3 ADD MSTORE PUSH1 0xC0 DUP4 ADD MLOAD PUSH1 0xC0 DUP3 ADD MSTORE PUSH1 0xE0 DUP4 ADD MLOAD PUSH1 0xE0 DUP3 ADD MSTORE PUSH2 0x100 PUSH2 0xC95 DUP2 DUP6 ADD PUSH2 0xC12 JUMP JUMPDEST SWAP1 DUP3 ADD MSTORE PUSH2 0x120 PUSH2 0xCA7 DUP5 DUP3 ADD PUSH2 0xC12 JUMP JUMPDEST SWAP1 DUP3 ADD MSTORE PUSH2 0x140 PUSH2 0xCB9 DUP5 DUP3 ADD PUSH2 0xC12 JUMP JUMPDEST SWAP1 DUP3 ADD MSTORE PUSH2 0x160 SWAP3 DUP4 ADD MLOAD SWAP3 DUP2 ADD SWAP3 SWAP1 SWAP3 MSTORE POP SWAP2 SWAP1 POP JUMP JUMPDEST PUSH1 0x0 PUSH1 0x20 DUP3 DUP5 SUB SLT ISZERO PUSH2 0xCE3 JUMPI PUSH1 0x0 DUP1 REVERT JUMPDEST POP MLOAD SWAP2 SWAP1 POP JUMP JUMPDEST PUSH1 0x0 PUSH1 0x20 DUP1 DUP4 MSTORE DUP4 MLOAD DUP1 DUP3 DUP6 ADD MSTORE PUSH1 0x0 JUMPDEST DUP2 DUP2 LT ISZERO PUSH2 0xD17 JUMPI DUP6 DUP2 ADD DUP4 ADD MLOAD DUP6 DUP3 ADD PUSH1 0x40 ADD MSTORE DUP3 ADD PUSH2 0xCFB JUMP JUMPDEST POP PUSH1 0x0 PUSH1 0x40 DUP3 DUP7 ADD ADD MSTORE PUSH1 0x40 PUSH1 0x1F NOT PUSH1 0x1F DUP4 ADD AND DUP6 ADD ADD SWAP3 POP POP POP SWAP3 SWAP2 POP POP JUMP JUMPDEST DUP1 DUP3 MUL DUP2 ISZERO DUP3 DUP3 DIV DUP5 EQ OR PUSH2 0xA5D JUMPI PUSH2 0xA5D PUSH2 0xBB1 JUMP JUMPDEST PUSH1 0x0 DUP3 PUSH2 0xD6C JUMPI PUSH4 0x4E487B71 PUSH1 0xE0 SHL PUSH1 0x0 MSTORE PUSH1 0x12 PUSH1 0x4 MSTORE PUSH1 0x24 PUSH1 0x0 REVERT JUMPDEST POP DIV SWAP1 JUMP INVALID LOG2 PUSH5 0x6970667358 0x22 SLT KECCAK256 PUSH8 0x3CAACAA4A2E1B717 0xA8 PUSH15 0x9C83EEE4C1F3DC9378AAB4A5812EFF LOG2 SWAP8 0xC9 CODESIZE SMOD RETURNDATASIZE PUSH5 0x736F6C6343 STOP ADDMOD EQ STOP CALLER "},"methodIdentifiers":{"asset()":"38d52e0f","checkYieldRates()":"79be5d22","getCurrentYieldData()":"e96279ce","isPaused()":"b187bd26","lastPoolA_Apy()":"ec7568db","lastPoolB_Apy()":"f7b02097","lastUpdateBlock()":"a218141b","owner()":"8da5cb5b","ownerPause(bool)":"1f4e0c23","pause()":"8456cb59","pay(uint256)":"c290d691","poolA()":"cbbf425f","poolB()":"d4a2aa33","react((uint256,address,uint256,uint256,uint256,uint256,bytes,uint256,uint256,uint256,uint256,uint256))":"0d152c2c","renounceOwnership()":"715018a6","resume()":"046f7da2","totalAllocated()":"45f7f249","transferOwnership(address)":"f2fde38b","updateVaultAddress(address)":"d2de2f85","vaultAddress()":"430bf08a"}}}}}