{"src/reactive/YieldMonitor.sol":{"YieldMonitor":{"abi":[{"inputs":[{"internalType":"address","name":"_poolA","type":"address"},{"internalType":"address","name":"_poolB","type":"address"},{"internalType":"address","name":"_asset","type":"address"},{"internalType":"address","name":"_vault","type":"address"}],"stateMutability":"nonpayable","type":"constructor"},{"anonymous":false,"inputs":[{"indexed":true,"internalType":"uint256","name":"chain_id","type":"uint256"},{"indexed":true,"internalType":"address","name":"_contract","type":"address"},{"indexed":true,"internalType":"uint64","name":"gas_limit","type":"uint64"},{"indexed":false,"internalType":"bytes","name":"payload","type":"bytes"}],"name":"Callback","type":"event"},{"anonymous":false,"inputs":[],"name":"MonitorPaused","type":"event"},{"anonymous":false,"inputs":[],"name":"MonitorResumed","type":"event"},{"anonymous":false,"inputs":[{"indexed":true,"internalType":"address","name":"fromPool","type":"address"},{"indexed":true,"internalType":"address","name":"toPool","type":"address"},{"indexed":false,"internalType":"uint256","name":"amount","type":"uint256"}],"name":"RebalanceTriggered","type":"event"},{"anonymous":false,"inputs":[{"indexed":false,"internalType":"uint256","name":"poolA_Apy","type":"uint256"},{"indexed":false,"internalType":"uint256","name":"poolB_Apy","type":"uint256"},{"indexed":false,"internalType":"uint256","name":"difference","type":"uint256"}],"name":"YieldRateUpdated","type":"event"},{"inputs":[],"name":"asset","outputs":[{"internalType":"address","name":"","type":"address"}],"stateMutability":"view","type":"function"},{"inputs":[],"name":"checkYieldRates","outputs":[],"stateMutability":"nonpayable","type":"function"},{"inputs":[],"name":"getCurrentYieldData","outputs":[{"internalType":"uint256","name":"poolA_Apy","type":"uint256"},{"internalType":"uint256","name":"poolB_Apy","type":"uint256"},{"internalType":"uint256","name":"difference","type":"uint256"}],"stateMutability":"view","type":"function"},{"inputs":[],"name":"isPaused","outputs":[{"internalType":"bool","name":"","type":"bool"}],"stateMutability":"view","type":"function"},{"inputs":[],"name":"lastPoolA_Apy","outputs":[{"internalType":"uint256","name":"","type":"uint256"}],"stateMutability":"view","type":"function"},{"inputs":[],"name":"lastPoolB_Apy","outputs":[{"internalType":"uint256","name":"","type":"uint256"}],"stateMutability":"view","type":"function"},{"inputs":[],"name":"lastUpdateBlock","outputs":[{"internalType":"uint256","name":"","type":"uint256"}],"stateMutability":"view","type":"function"},{"inputs":[],"name":"pause","outputs":[],"stateMutability":"nonpayable","type":"function"},{"inputs":[{"internalType":"uint256","name":"amount","type":"uint256"}],"name":"pay","outputs":[],"stateMutability":"nonpayable","type":"function"},{"inputs":[],"name":"poolA","outputs":[{"internalType":"address","name":"","type":"address"}],"stateMutability":"view","type":"function"},{"inputs":[],"name":"poolB","outputs":[{"internalType":"address","name":"","type":"address"}],"stateMutability":"view","type":"function"},{"inputs":[{"components":[{"internalType":"uint256","name":"chain_id","type":"uint256"},{"internalType":"address","name":"_contract","type":"address"},{"internalType":"uint256","name":"topic_0","type":"uint256"},{"internalType":"uint256","name":"topic_1","type":"uint256"},{"internalType":"uint256","name":"topic_2","type":"uint256"},{"internalType":"uint256","name":"topic_3","type":"uint256"},{"internalType":"bytes","name":"data","type":"bytes"},{"internalType":"uint256","name":"block_number","type":"uint256"},{"internalType":"uint256","name":"op_code","type":"uint256"},{"internalType":"uint256","name":"block_hash","type":"uint256"},{"internalType":"uint256","name":"tx_hash","type":"uint256"},{"internalType":"uint256","name":"log_index","type":"uint256"}],"internalType":"struct IReactive.LogRecord","name":"log","type":"tuple"}],"name":"react","outputs":[],"stateMutability":"nonpayable","type":"function"},{"inputs":[],"name":"resume","outputs":[],"stateMutability":"nonpayable","type":"function"},{"inputs":[],"name":"totalAllocated","outputs":[{"internalType":"uint256","name":"","type":"uint256"}],"stateMutability":"view","type":"function"},{"inputs":[{"internalType":"address","name":"newVault","type":"address"}],"name":"updateVaultAddress","outputs":[],"stateMutability":"nonpayable","type":"function"},{"inputs":[],"name":"vaultAddress","outputs":[{"internalType":"address","name":"","type":"address"}],"stateMutability":"view","type":"function"},{"stateMutability":"payable","type":"receive"}],"evm":{"bytecode":{"linkReferences":{},"object":"608060405234801561001057600080fd5b50604051610d07380380610d0783398101604081905261002f916100ac565b600180546001600160a01b039586166001600160a01b0319918216179091556002805494861694821694909417909355600380546000805493871693909516929092179093556001600160a81b031916921691909117905543600655610100565b80516001600160a01b03811681146100a757600080fd5b919050565b600080600080608085870312156100c257600080fd5b6100cb85610090565b93506100d960208601610090565b92506100e760408601610090565b91506100f560608601610090565b905092959194509250565b610bf88061010f6000396000f3fe6080604052600436106100f75760003560e01c8063b187bd261161008a578063d4a2aa3311610059578063d4a2aa33146102a9578063e96279ce146102c9578063ec7568db146102f9578063f7b020971461030f57600080fd5b8063b187bd26146101fb578063c290d6911461022c578063cbbf425f1461024c578063d2de2f851461026c57600080fd5b806345f7f249116100c657806345f7f2491461019757806379be5d22146101bb5780638456cb59146101d0578063a218141b146101e557600080fd5b8063046f7da2146101035780630d152c2c1461011a57806338d52e0f1461013a578063430bf08a1461017757600080fd5b366100fe57005b600080fd5b34801561010f57600080fd5b50610118610325565b005b34801561012657600080fd5b50610118610135366004610902565b610385565b34801561014657600080fd5b5060035461015a906001600160a01b031681565b6040516001600160a01b0390911681526020015b60405180910390f35b34801561018357600080fd5b5060005461015a906001600160a01b031681565b3480156101a357600080fd5b506101ad60075481565b60405190815260200161016e565b3480156101c757600080fd5b50610118610431565b3480156101dc57600080fd5b50610118610465565b3480156101f157600080fd5b506101ad60065481565b34801561020757600080fd5b5060035461021c90600160a01b900460ff1681565b604051901515815260200161016e565b34801561023857600080fd5b5061011861024736600461093e565b6104c2565b34801561025857600080fd5b5060015461015a906001600160a01b031681565b34801561027857600080fd5b5061011861028736600461096c565b600080546001600160a01b0319166001600160a01b0392909216919091179055565b3480156102b557600080fd5b5060025461015a906001600160a01b031681565b3480156102d557600080fd5b506102de6104f3565b6040805193845260208401929092529082015260600161016e565b34801561030557600080fd5b506101ad60045481565b34801561031b57600080fd5b506101ad60055481565b30331461034d5760405162461bcd60e51b815260040161034490610989565b60405180910390fd5b6003805460ff60a01b191690556040517f2a9fc0f54e60b24a2383ee7bc79f061b7d628c0252a3e10f58686af9981c3be590600090a1565b3033146103a45760405162461bcd60e51b815260040161034490610989565b600354600160a01b900460ff16156103ce5760405162461bcd60e51b8152600401610344906109c0565b6001546001600160a01b03166103ea604083016020840161096c565b6001600160a01b0316148061042157506002546001600160a01b0316610416604083016020840161096c565b6001600160a01b0316145b1561042e5761042e61052c565b50565b600354600160a01b900460ff161561045b5760405162461bcd60e51b8152600401610344906109c0565b61046361052c565b565b3033146104845760405162461bcd60e51b815260040161034490610989565b6003805460ff60a01b1916600160a01b1790556040517f13eec0552086416c3e09381b21148ff64916a0ba39d91d6f9a37c47e0d261a0d90600090a1565b604051339082156108fc029083906000818181858888f193505050501580156104ef573d6000803e3d6000fd5b5050565b60008060006105006105c7565b909350915081831161051b576105168383610a18565b610525565b6105258284610a18565b9050909192565b6000806105376105c7565b6004829055600581905543600655909250905060008183116105625761055d8383610a18565b61056c565b61056c8284610a18565b60408051858152602081018590529081018290529091507f875894a489de1b1b13bf2e6c03981e3ddabcf1794b4b94dc5ba5d8e855a1e2f99060600160405180910390a1603281106105c2576105c283836106e4565b505050565b6001546003546040516335ea6a7560e01b81526001600160a01b03918216600482015260009283921690829082906335ea6a759060240161018060405180830381865afa15801561061c573d6000803e3d6000fd5b505050506040513d601f19601f820116820180604052508101906106409190610a73565b905061064f816000015161084b565b93506000600260009054906101000a90046001600160a01b031690506000816001600160a01b031663ae9d70b06040518163ffffffff1660e01b8152600401602060405180830381865afa1580156106ab573d6000803e3d6000fd5b505050506040513d601f19601f820116820180604052508101906106cf9190610b22565b90506106da816108b0565b9450505050509091565b60008183116106fe576001546001600160a01b031661070b565b6002546001600160a01b03165b90506000828411610727576002546001600160a01b0316610734565b6001546001600160a01b03165b9050600061074283836108e8565b90508015610844576040516000602482018190526001600160a01b03808616604484015284166064830152608482018390529060a40160408051601f198184030181529181526020820180516001600160e01b031663b3f865f760e01b179052600054905191925062030d40916001600160a01b039091169062aa36a7907f8dd725fa9d6cd150017ab9e60318d40616439424e2fade9c1c58854950917dfc906107ed908690610b3b565b60405180910390a4826001600160a01b0316846001600160a01b03167ffdda45e966ff112496244be5352b7733c9a992c78ba3e05e468531fb3eb9791d8460405161083a91815260200190565b60405180910390a3505b5050505050565b60008160000361085d57506000919050565b60006b033b2e3c9fd0803ce800000061087a6301e1338085610b89565b6108849190610ba0565b90506b033b2e3c9fd0803ce800000061089f82612710610b89565b6108a99190610ba0565b9392505050565b6000816000036108c257506000919050565b60006108d16220148084610b89565b9050670de0b6b3a764000061089f82612710610b89565b6000600a6007546108f99190610ba0565b90505b92915050565b60006020828403121561091457600080fd5b813567ffffffffffffffff81111561092b57600080fd5b820161018081850312156108a957600080fd5b60006020828403121561095057600080fd5b5035919050565b6001600160a01b038116811461042e57600080fd5b60006020828403121561097e57600080fd5b81356108a981610957565b6020808252601e908201527f766d4f6e6c793a2063616c6c6572206d757374206265205265616374564d0000604082015260600190565b60208082526022908201527f5969656c644d6f6e69746f723a204d6f6e69746f72696e672069732070617573604082015261195960f21b606082015260800190565b634e487b7160e01b600052601160045260246000fd5b818103818111156108fc576108fc610a02565b604051610180810167ffffffffffffffff81118282101715610a5d57634e487b7160e01b600052604160045260246000fd5b60405290565b8051610a6e81610957565b919050565b60006101808284031215610a8657600080fd5b610a8e610a2b565b825181526020830151602082015260408301516040820152606083015160608201526080830151608082015260a083015160a082015260c083015160c082015260e083015160e0820152610100610ae6818501610a63565b90820152610120610af8848201610a63565b90820152610140610b0a848201610a63565b90820152610160928301519281019290925250919050565b600060208284031215610b3457600080fd5b5051919050565b600060208083528351808285015260005b81811015610b6857858101830151858201604001528201610b4c565b506000604082860101526040601f19601f8301168501019250505092915050565b80820281158282048414176108fc576108fc610a02565b600082610bbd57634e487b7160e01b600052601260045260246000fd5b50049056fea26469706673582212202a1ef40554ae064e06935dd7edd899292daa7f12a19cd964c2af94ddfac9573064736f6c63430008140033","opcodes":"PUSH1 0x80 PUSH1 0x40 MSTORE CALLVALUE DUP1 ISZERO PUSH2 0x10 JUMPI PUSH1 0x0 DUP1 REVERT JUMPDEST POP PUSH1 0x40 MLOAD PUSH2 0xD07 CODESIZE SUB DUP1 PUSH2 0xD07 DUP4 CODECOPY DUP2 ADD PUSH1 0x40 DUP2 SWAP1 MSTORE PUSH2 0x2F SWAP2 PUSH2 0xAC JUMP JUMPDEST PUSH1 0x1 DUP1 SLOAD PUSH1 0x1 PUSH1 0x1 PUSH1 0xA0 SHL SUB SWAP6 DUP7 AND PUSH1 0x1 PUSH1 0x1 PUSH1 0xA0 SHL SUB NOT SWAP2 DUP3 AND OR SWAP1 SWAP2 SSTORE PUSH1 0x2 DUP1 SLOAD SWAP5 DUP7 AND SWAP5 DUP3 AND SWAP5 SWAP1 SWAP5 OR SWAP1 SWAP4 SSTORE PUSH1 0x3 DUP1 SLOAD PUSH1 0x0 DUP1 SLOAD SWAP4 DUP8 AND SWAP4 SWAP1 SWAP6 AND SWAP3 SWAP1 SWAP3 OR SWAP1 SWAP4 SSTORE PUSH1 0x1 PUSH1 0x1 PUSH1 0xA8 SHL SUB NOT AND SWAP3 AND SWAP2 SWAP1 SWAP2 OR SWAP1 SSTORE NUMBER PUSH1 0x6 SSTORE PUSH2 0x100 JUMP JUMPDEST DUP1 MLOAD PUSH1 0x1 PUSH1 0x1 PUSH1 0xA0 SHL SUB DUP2 AND DUP2 EQ PUSH2 0xA7 JUMPI PUSH1 0x0 DUP1 REVERT JUMPDEST SWAP2 SWAP1 POP JUMP JUMPDEST PUSH1 0x0 DUP1 PUSH1 0x0 DUP1 PUSH1 0x80 DUP6 DUP8 SUB SLT ISZERO PUSH2 0xC2 JUMPI PUSH1 0x0 DUP1 REVERT JUMPDEST PUSH2 0xCB DUP6 PUSH2 0x90 JUMP JUMPDEST SWAP4 POP PUSH2 0xD9 PUSH1 0x20 DUP7 ADD PUSH2 0x90 JUMP JUMPDEST SWAP3 POP PUSH2 0xE7 PUSH1 0x40 DUP7 ADD PUSH2 0x90 JUMP JUMPDEST SWAP2 POP PUSH2 0xF5 PUSH1 0x60 DUP7 ADD PUSH2 0x90 JUMP JUMPDEST SWAP1 POP SWAP3 SWAP6 SWAP2 SWAP5 POP SWAP3 POP JUMP JUMPDEST PUSH2 0xBF8 DUP1 PUSH2 0x10F PUSH1 0x0 CODECOPY PUSH1 0x0 RETURN INVALID PUSH1 0x80 PUSH1 0x40 MSTORE PUSH1 0x4 CALLDATASIZE LT PUSH2 0xF7 JUMPI PUSH1 0x0 CALLDATALOAD PUSH1 0xE0 SHR DUP1 PUSH4 0xB187BD26 GT PUSH2 0x8A JUMPI DUP1 PUSH4 0xD4A2AA33 GT PUSH2 0x59 JUMPI DUP1 PUSH4 0xD4A2AA33 EQ PUSH2 0x2A9 JUMPI DUP1 PUSH4 0xE96279CE EQ PUSH2 0x2C9 JUMPI DUP1 PUSH4 0xEC7568DB EQ PUSH2 0x2F9 JUMPI DUP1 PUSH4 0xF7B02097 EQ PUSH2 0x30F JUMPI PUSH1 0x0 DUP1 REVERT JUMPDEST DUP1 PUSH4 0xB187BD26 EQ PUSH2 0x1FB JUMPI DUP1 PUSH4 0xC290D691 EQ PUSH2 0x22C JUMPI DUP1 PUSH4 0xCBBF425F EQ PUSH2 0x24C JUMPI DUP1 PUSH4 0xD2DE2F85 EQ PUSH2 0x26C JUMPI PUSH1 0x0 DUP1 REVERT JUMPDEST DUP1 PUSH4 0x45F7F249 GT PUSH2 0xC6 JUMPI DUP1 PUSH4 0x45F7F249 EQ PUSH2 0x197 JUMPI DUP1 PUSH4 0x79BE5D22 EQ PUSH2 0x1BB JUMPI DUP1 PUSH4 0x8456CB59 EQ PUSH2 0x1D0 JUMPI DUP1 PUSH4 0xA218141B EQ PUSH2 0x1E5 JUMPI PUSH1 0x0 DUP1 REVERT JUMPDEST DUP1 PUSH4 0x46F7DA2 EQ PUSH2 0x103 JUMPI DUP1 PUSH4 0xD152C2C EQ PUSH2 0x11A JUMPI DUP1 PUSH4 0x38D52E0F EQ PUSH2 0x13A JUMPI DUP1 PUSH4 0x430BF08A EQ PUSH2 0x177 JUMPI PUSH1 0x0 DUP1 REVERT JUMPDEST CALLDATASIZE PUSH2 0xFE JUMPI STOP JUMPDEST PUSH1 0x0 DUP1 REVERT JUMPDEST CALLVALUE DUP1 ISZERO PUSH2 0x10F JUMPI PUSH1 0x0 DUP1 REVERT JUMPDEST POP PUSH2 0x118 PUSH2 0x325 JUMP JUMPDEST STOP JUMPDEST CALLVALUE DUP1 ISZERO PUSH2 0x126 JUMPI PUSH1 0x0 DUP1 REVERT JUMPDEST POP PUSH2 0x118 PUSH2 0x135 CALLDATASIZE PUSH1 0x4 PUSH2 0x902 JUMP JUMPDEST PUSH2 0x385 JUMP JUMPDEST CALLVALUE DUP1 ISZERO PUSH2 0x146 JUMPI PUSH1 0x0 DUP1 REVERT JUMPDEST POP PUSH1 0x3 SLOAD PUSH2 0x15A SWAP1 PUSH1 0x1 PUSH1 0x1 PUSH1 0xA0 SHL SUB AND DUP2 JUMP JUMPDEST PUSH1 0x40 MLOAD PUSH1 0x1 PUSH1 0x1 PUSH1 0xA0 SHL SUB SWAP1 SWAP2 AND DUP2 MSTORE PUSH1 0x20 ADD JUMPDEST PUSH1 0x40 MLOAD DUP1 SWAP2 SUB SWAP1 RETURN JUMPDEST CALLVALUE DUP1 ISZERO PUSH2 0x183 JUMPI PUSH1 0x0 DUP1 REVERT JUMPDEST POP PUSH1 0x0 SLOAD PUSH2 0x15A SWAP1 PUSH1 0x1 PUSH1 0x1 PUSH1 0xA0 SHL SUB AND DUP2 JUMP JUMPDEST CALLVALUE DUP1 ISZERO PUSH2 0x1A3 JUMPI PUSH1 0x0 DUP1 REVERT JUMPDEST POP PUSH2 0x1AD PUSH1 0x7 SLOAD DUP2 JUMP JUMPDEST PUSH1 0x40 MLOAD SWAP1 DUP2 MSTORE PUSH1 0x20 ADD PUSH2 0x16E JUMP JUMPDEST CALLVALUE DUP1 ISZERO PUSH2 0x1C7 JUMPI PUSH1 0x0 DUP1 REVERT JUMPDEST POP PUSH2 0x118 PUSH2 0x431 JUMP JUMPDEST CALLVALUE DUP1 ISZERO PUSH2 0x1DC JUMPI PUSH1 0x0 DUP1 REVERT JUMPDEST POP PUSH2 0x118 PUSH2 0x465 JUMP JUMPDEST CALLVALUE DUP1 ISZERO PUSH2 0x1F1 JUMPI PUSH1 0x0 DUP1 REVERT JUMPDEST POP PUSH2 0x1AD PUSH1 0x6 SLOAD DUP2 JUMP JUMPDEST CALLVALUE DUP1 ISZERO PUSH2 0x207 JUMPI PUSH1 0x0 DUP1 REVERT JUMPDEST POP PUSH1 0x3 SLOAD PUSH2 0x21C SWAP1 PUSH1 0x1 PUSH1 0xA0 SHL SWAP1 DIV PUSH1 0xFF AND DUP2 JUMP JUMPDEST PUSH1 0x40 MLOAD SWAP1 ISZERO ISZERO DUP2 MSTORE PUSH1 0x20 ADD PUSH2 0x16E JUMP JUMPDEST CALLVALUE DUP1 ISZERO PUSH2 0x238 JUMPI PUSH1 0x0 DUP1 REVERT JUMPDEST POP PUSH2 0x118 PUSH2 0x247 CALLDATASIZE PUSH1 0x4 PUSH2 0x93E JUMP JUMPDEST PUSH2 0x4C2 JUMP JUMPDEST CALLVALUE DUP1 ISZERO PUSH2 0x258 JUMPI PUSH1 0x0 DUP1 REVERT JUMPDEST POP PUSH1 0x1 SLOAD PUSH2 0x15A SWAP1 PUSH1 0x1 PUSH1 0x1 PUSH1 0xA0 SHL SUB AND DUP2 JUMP JUMPDEST CALLVALUE DUP1 ISZERO PUSH2 0x278 JUMPI PUSH1 0x0 DUP1 REVERT JUMPDEST POP PUSH2 0x118 PUSH2 0x287 CALLDATASIZE PUSH1 0x4 PUSH2 0x96C JUMP JUMPDEST PUSH1 0x0 DUP1 SLOAD PUSH1 0x1 PUSH1 0x1 PUSH1 0xA0 SHL SUB NOT AND PUSH1 0x1 PUSH1 0x1 PUSH1 0xA0 SHL SUB SWAP3 SWAP1 SWAP3 AND SWAP2 SWAP1 SWAP2 OR SWAP1 SSTORE JUMP JUMPDEST CALLVALUE DUP1 ISZERO PUSH2 0x2B5 JUMPI PUSH1 0x0 DUP1 REVERT JUMPDEST POP PUSH1 0x2 SLOAD PUSH2 0x15A SWAP1 PUSH1 0x1 PUSH1 0x1 PUSH1 0xA0 SHL SUB AND DUP2 JUMP JUMPDEST CALLVALUE DUP1 ISZERO PUSH2 0x2D5 JUMPI PUSH1 0x0 DUP1 REVERT JUMPDEST POP PUSH2 0x2DE PUSH2 0x4F3 JUMP JUMPDEST PUSH1 0x40 DUP1 MLOAD SWAP4 DUP5 MSTORE PUSH1 0x20 DUP5 ADD SWAP3 SWAP1 SWAP3 MSTORE SWAP1 DUP3 ADD MSTORE PUSH1 0x60 ADD PUSH2 0x16E JUMP JUMPDEST CALLVALUE DUP1 ISZERO PUSH2 0x305 JUMPI PUSH1 0x0 DUP1 REVERT JUMPDEST POP PUSH2 0x1AD PUSH1 0x4 SLOAD DUP2 JUMP JUMPDEST CALLVALUE DUP1 ISZERO PUSH2 0x31B JUMPI PUSH1 0x0 DUP1 REVERT JUMPDEST POP PUSH2 0x1AD PUSH1 0x5 SLOAD DUP2 JUMP JUMPDEST ADDRESS CALLER EQ PUSH2 0x34D JUMPI PUSH1 0x40 MLOAD PUSH3 0x461BCD PUSH1 0xE5 SHL DUP2 MSTORE PUSH1 0x4 ADD PUSH2 0x344 SWAP1 PUSH2 0x989 JUMP JUMPDEST PUSH1 0x40 MLOAD DUP1 SWAP2 SUB SWAP1 REVERT JUMPDEST PUSH1 0x3 DUP1 SLOAD PUSH1 0xFF PUSH1 0xA0 SHL NOT AND SWAP1 SSTORE PUSH1 0x40 MLOAD PUSH32 0x2A9FC0F54E60B24A2383EE7BC79F061B7D628C0252A3E10F58686AF9981C3BE5 SWAP1 PUSH1 0x0 SWAP1 LOG1 JUMP JUMPDEST ADDRESS CALLER EQ PUSH2 0x3A4 JUMPI PUSH1 0x40 MLOAD PUSH3 0x461BCD PUSH1 0xE5 SHL DUP2 MSTORE PUSH1 0x4 ADD PUSH2 0x344 SWAP1 PUSH2 0x989 JUMP JUMPDEST PUSH1 0x3 SLOAD PUSH1 0x1 PUSH1 0xA0 SHL SWAP1 DIV PUSH1 0xFF AND ISZERO PUSH2 0x3CE JUMPI PUSH1 0x40 MLOAD PUSH3 0x461BCD PUSH1 0xE5 SHL DUP2 MSTORE PUSH1 0x4 ADD PUSH2 0x344 SWAP1 PUSH2 0x9C0 JUMP JUMPDEST PUSH1 0x1 SLOAD PUSH1 0x1 PUSH1 0x1 PUSH1 0xA0 SHL SUB AND PUSH2 0x3EA PUSH1 0x40 DUP4 ADD PUSH1 0x20 DUP5 ADD PUSH2 0x96C JUMP JUMPDEST PUSH1 0x1 PUSH1 0x1 PUSH1 0xA0 SHL SUB AND EQ DUP1 PUSH2 0x421 JUMPI POP PUSH1 0x2 SLOAD PUSH1 0x1 PUSH1 0x1 PUSH1 0xA0 SHL SUB AND PUSH2 0x416 PUSH1 0x40 DUP4 ADD PUSH1 0x20 DUP5 ADD PUSH2 0x96C JUMP JUMPDEST PUSH1 0x1 PUSH1 0x1 PUSH1 0xA0 SHL SUB AND EQ JUMPDEST ISZERO PUSH2 0x42E JUMPI PUSH2 0x42E PUSH2 0x52C JUMP JUMPDEST POP JUMP JUMPDEST PUSH1 0x3 SLOAD PUSH1 0x1 PUSH1 0xA0 SHL SWAP1 DIV PUSH1 0xFF AND ISZERO PUSH2 0x45B JUMPI PUSH1 0x40 MLOAD PUSH3 0x461BCD PUSH1 0xE5 SHL DUP2 MSTORE PUSH1 0x4 ADD PUSH2 0x344 SWAP1 PUSH2 0x9C0 JUMP JUMPDEST PUSH2 0x463 PUSH2 0x52C JUMP JUMPDEST JUMP JUMPDEST ADDRESS CALLER EQ PUSH2 0x484 JUMPI PUSH1 0x40 MLOAD PUSH3 0x461BCD PUSH1 0xE5 SHL DUP2 MSTORE PUSH1 0x4 ADD PUSH2 0x344 SWAP1 PUSH2 0x989 JUMP JUMPDEST PUSH1 0x3 DUP1 SLOAD PUSH1 0xFF PUSH1 0xA0 SHL NOT AND PUSH1 0x1 PUSH1 0xA0 SHL OR SWAP1 SSTORE PUSH1 0x40 MLOAD PUSH32 0x13EEC0552086416C3E09381B21148FF64916A0BA39D91D6F9A37C47E0D261A0D SWAP1 PUSH1 0x0 SWAP1 LOG1 JUMP JUMPDEST PUSH1 0x40 MLOAD CALLER SWAP1 DUP3 ISZERO PUSH2 0x8FC MUL SWAP1 DUP4 SWAP1 PUSH1 0x0 DUP2 DUP2 DUP2 DUP6 DUP9 DUP9 CALL SWAP4 POP POP POP POP ISZERO DUP1 ISZERO PUSH2 0x4EF JUMPI RETURNDATASIZE PUSH1 0x0 DUP1 RETURNDATACOPY RETURNDATASIZE PUSH1 0x0 REVERT JUMPDEST POP POP JUMP JUMPDEST PUSH1 0x0 DUP1 PUSH1 0x0 PUSH2 0x500 PUSH2 0x5C7 JUMP JUMPDEST SWAP1 SWAP4 POP SWAP2 POP DUP2 DUP4 GT PUSH2 0x51B JUMPI PUSH2 0x516 DUP4 DUP4 PUSH2 0xA18 JUMP JUMPDEST PUSH2 0x525 JUMP JUMPDEST PUSH2 0x525 DUP3 DUP5 PUSH2 0xA18 JUMP JUMPDEST SWAP1 POP SWAP1 SWAP2 SWAP3 JUMP JUMPDEST PUSH1 0x0 DUP1 PUSH2 0x537 PUSH2 0x5C7 JUMP JUMPDEST PUSH1 0x4 DUP3 SWAP1 SSTORE PUSH1 0x5 DUP2 SWAP1 SSTORE NUMBER PUSH1 0x6 SSTORE SWAP1 SWAP3 POP SWAP1 POP PUSH1 0x0 DUP2 DUP4 GT PUSH2 0x562 JUMPI PUSH2 0x55D DUP4 DUP4 PUSH2 0xA18 JUMP JUMPDEST PUSH2 0x56C JUMP JUMPDEST PUSH2 0x56C DUP3 DUP5 PUSH2 0xA18 JUMP JUMPDEST PUSH1 0x40 DUP1 MLOAD DUP6 DUP2 MSTORE PUSH1 0x20 DUP2 ADD DUP6 SWAP1 MSTORE SWAP1 DUP2 ADD DUP3 SWAP1 MSTORE SWAP1 SWAP2 POP PUSH32 0x875894A489DE1B1B13BF2E6C03981E3DDABCF1794B4B94DC5BA5D8E855A1E2F9 SWAP1 PUSH1 0x60 ADD PUSH1 0x40 MLOAD DUP1 SWAP2 SUB SWAP1 LOG1 PUSH1 0x32 DUP2 LT PUSH2 0x5C2 JUMPI PUSH2 0x5C2 DUP4 DUP4 PUSH2 0x6E4 JUMP JUMPDEST POP POP POP JUMP JUMPDEST PUSH1 0x1 SLOAD PUSH1 0x3 SLOAD PUSH1 0x40 MLOAD PUSH4 0x35EA6A75 PUSH1 0xE0 SHL DUP2 MSTORE PUSH1 0x1 PUSH1 0x1 PUSH1 0xA0 SHL SUB SWAP2 DUP3 AND PUSH1 0x4 DUP3 ADD MSTORE PUSH1 0x0 SWAP3 DUP4 SWAP3 AND SWAP1 DUP3 SWAP1 DUP3 SWAP1 PUSH4 0x35EA6A75 SWAP1 PUSH1 0x24 ADD PUSH2 0x180 PUSH1 0x40 MLOAD DUP1 DUP4 SUB DUP2 DUP7 GAS STATICCALL ISZERO DUP1 ISZERO PUSH2 0x61C JUMPI RETURNDATASIZE PUSH1 0x0 DUP1 RETURNDATACOPY RETURNDATASIZE PUSH1 0x0 REVERT JUMPDEST POP POP POP POP PUSH1 0x40 MLOAD RETURNDATASIZE PUSH1 0x1F NOT PUSH1 0x1F DUP3 ADD AND DUP3 ADD DUP1 PUSH1 0x40 MSTORE POP DUP2 ADD SWAP1 PUSH2 0x640 SWAP2 SWAP1 PUSH2 0xA73 JUMP JUMPDEST SWAP1 POP PUSH2 0x64F DUP2 PUSH1 0x0 ADD MLOAD PUSH2 0x84B JUMP JUMPDEST SWAP4 POP PUSH1 0x0 PUSH1 0x2 PUSH1 0x0 SWAP1 SLOAD SWAP1 PUSH2 0x100 EXP SWAP1 DIV PUSH1 0x1 PUSH1 0x1 PUSH1 0xA0 SHL SUB AND SWAP1 POP PUSH1 0x0 DUP2 PUSH1 0x1 PUSH1 0x1 PUSH1 0xA0 SHL SUB AND PUSH4 0xAE9D70B0 PUSH1 0x40 MLOAD DUP2 PUSH4 0xFFFFFFFF AND PUSH1 0xE0 SHL DUP2 MSTORE PUSH1 0x4 ADD PUSH1 0x20 PUSH1 0x40 MLOAD DUP1 DUP4 SUB DUP2 DUP7 GAS STATICCALL ISZERO DUP1 ISZERO PUSH2 0x6AB JUMPI RETURNDATASIZE PUSH1 0x0 DUP1 RETURNDATACOPY RETURNDATASIZE PUSH1 0x0 REVERT JUMPDEST POP POP POP POP PUSH1 0x40 MLOAD RETURNDATASIZE PUSH1 0x1F NOT PUSH1 0x1F DUP3 ADD AND DUP3 ADD DUP1 PUSH1 0x40 MSTORE POP DUP2 ADD SWAP1 PUSH2 0x6CF SWAP2 SWAP1 PUSH2 0xB22 JUMP JUMPDEST SWAP1 POP PUSH2 0x6DA DUP2 PUSH2 0x8B0 JUMP JUMPDEST SWAP5 POP POP POP POP POP SWAP1 SWAP2 JUMP JUMPDEST PUSH1 0x0 DUP2 DUP4 GT PUSH2 0x6FE JUMPI PUSH1 0x1 SLOAD PUSH1 0x1 PUSH1 0x1 PUSH1 0xA0 SHL SUB AND PUSH2 0x70B JUMP JUMPDEST PUSH1 0x2 SLOAD PUSH1 0x1 PUSH1 0x1 PUSH1 0xA0 SHL SUB AND JUMPDEST SWAP1 POP PUSH1 0x0 DUP3 DUP5 GT PUSH2 0x727 JUMPI PUSH1 0x2 SLOAD PUSH1 0x1 PUSH1 0x1 PUSH1 0xA0 SHL SUB AND PUSH2 0x734 JUMP JUMPDEST PUSH1 0x1 SLOAD PUSH1 0x1 PUSH1 0x1 PUSH1 0xA0 SHL SUB AND JUMPDEST SWAP1 POP PUSH1 0x0 PUSH2 0x742 DUP4 DUP4 PUSH2 0x8E8 JUMP JUMPDEST SWAP1 POP DUP1 ISZERO PUSH2 0x844 JUMPI PUSH1 0x40 MLOAD PUSH1 0x0 PUSH1 0x24 DUP3 ADD DUP2 SWAP1 MSTORE PUSH1 0x1 PUSH1 0x1 PUSH1 0xA0 SHL SUB DUP1 DUP7 AND PUSH1 0x44 DUP5 ADD MSTORE DUP5 AND PUSH1 0x64 DUP4 ADD MSTORE PUSH1 0x84 DUP3 ADD DUP4 SWAP1 MSTORE SWAP1 PUSH1 0xA4 ADD PUSH1 0x40 DUP1 MLOAD PUSH1 0x1F NOT DUP2 DUP5 SUB ADD DUP2 MSTORE SWAP2 DUP2 MSTORE PUSH1 0x20 DUP3 ADD DUP1 MLOAD PUSH1 0x1 PUSH1 0x1 PUSH1 0xE0 SHL SUB AND PUSH4 0xB3F865F7 PUSH1 0xE0 SHL OR SWAP1 MSTORE PUSH1 0x0 SLOAD SWAP1 MLOAD SWAP2 SWAP3 POP PUSH3 0x30D40 SWAP2 PUSH1 0x1 PUSH1 0x1 PUSH1 0xA0 SHL SUB SWAP1 SWAP2 AND SWAP1 PUSH3 0xAA36A7 SWAP1 PUSH32 0x8DD725FA9D6CD150017AB9E60318D40616439424E2FADE9C1C58854950917DFC SWAP1 PUSH2 0x7ED SWAP1 DUP7 SWAP1 PUSH2 0xB3B JUMP JUMPDEST PUSH1 0x40 MLOAD DUP1 SWAP2 SUB SWAP1 LOG4 DUP3 PUSH1 0x1 PUSH1 0x1 PUSH1 0xA0 SHL SUB AND DUP5 PUSH1 0x1 PUSH1 0x1 PUSH1 0xA0 SHL SUB AND PUSH32 0xFDDA45E966FF112496244BE5352B7733C9A992C78BA3E05E468531FB3EB9791D DUP5 PUSH1 0x40 MLOAD PUSH2 0x83A SWAP2 DUP2 MSTORE PUSH1 0x20 ADD SWAP1 JUMP JUMPDEST PUSH1 0x40 MLOAD DUP1 SWAP2 SUB SWAP1 LOG3 POP JUMPDEST POP POP POP POP POP JUMP JUMPDEST PUSH1 0x0 DUP2 PUSH1 0x0 SUB PUSH2 0x85D JUMPI POP PUSH1 0x0 SWAP2 SWAP1 POP JUMP JUMPDEST PUSH1 0x0 PUSH12 0x33B2E3C9FD0803CE8000000 PUSH2 0x87A PUSH4 0x1E13380 DUP6 PUSH2 0xB89 JUMP JUMPDEST PUSH2 0x884 SWAP2 SWAP1 PUSH2 0xBA0 JUMP JUMPDEST SWAP1 POP PUSH12 0x33B2E3C9FD0803CE8000000 PUSH2 0x89F DUP3 PUSH2 0x2710 PUSH2 0xB89 JUMP JUMPDEST PUSH2 0x8A9 SWAP2 SWAP1 PUSH2 0xBA0 JUMP JUMPDEST SWAP4 SWAP3 POP POP POP JUMP JUMPDEST PUSH1 0x0 DUP2 PUSH1 0x0 SUB PUSH2 0x8C2 JUMPI POP PUSH1 0x0 SWAP2 SWAP1 POP JUMP JUMPDEST PUSH1 0x0 PUSH2 0x8D1 PUSH3 0x201480 DUP5 PUSH2 0xB89 JUMP JUMPDEST SWAP1 POP PUSH8 0xDE0B6B3A7640000 PUSH2 0x89F DUP3 PUSH2 0x2710 PUSH2 0xB89 JUMP JUMPDEST PUSH1 0x0 PUSH1 0xA PUSH1 0x7 SLOAD PUSH2 0x8F9 SWAP2 SWAP1 PUSH2 0xBA0 JUMP JUMPDEST SWAP1 POP JUMPDEST SWAP3 SWAP2 POP POP JUMP JUMPDEST PUSH1 0x0 PUSH1 0x20 DUP3 DUP5 SUB SLT ISZERO PUSH2 0x914 JUMPI PUSH1 0x0 DUP1 REVERT JUMPDEST DUP2 CALLDATALOAD PUSH8 0xFFFFFFFFFFFFFFFF DUP2 GT ISZERO PUSH2 0x92B JUMPI PUSH1 0x0 DUP1 REVERT JUMPDEST DUP3 ADD PUSH2 0x180 DUP2 DUP6 SUB SLT ISZERO PUSH2 0x8A9 JUMPI PUSH1 0x0 DUP1 REVERT JUMPDEST PUSH1 0x0 PUSH1 0x20 DUP3 DUP5 SUB SLT ISZERO PUSH2 0x950 JUMPI PUSH1 0x0 DUP1 REVERT JUMPDEST POP CALLDATALOAD SWAP2 SWAP1 POP JUMP JUMPDEST PUSH1 0x1 PUSH1 0x1 PUSH1 0xA0 SHL SUB DUP2 AND DUP2 EQ PUSH2 0x42E JUMPI PUSH1 0x0 DUP1 REVERT JUMPDEST PUSH1 0x0 PUSH1 0x20 DUP3 DUP5 SUB SLT ISZERO PUSH2 0x97E JUMPI PUSH1 0x0 DUP1 REVERT JUMPDEST DUP2 CALLDATALOAD PUSH2 0x8A9 DUP2 PUSH2 0x957 JUMP JUMPDEST PUSH1 0x20 DUP1 DUP3 MSTORE PUSH1 0x1E SWAP1 DUP3 ADD MSTORE PUSH32 0x766D4F6E6C793A2063616C6C6572206D757374206265205265616374564D0000 PUSH1 0x40 DUP3 ADD MSTORE PUSH1 0x60 ADD SWAP1 JUMP JUMPDEST PUSH1 0x20 DUP1 DUP3 MSTORE PUSH1 0x22 SWAP1 DUP3 ADD MSTORE PUSH32 0x5969656C644D6F6E69746F723A204D6F6E69746F72696E672069732070617573 PUSH1 0x40 DUP3 ADD MSTORE PUSH2 0x1959 PUSH1 0xF2 SHL PUSH1 0x60 DUP3 ADD MSTORE PUSH1 0x80 ADD SWAP1 JUMP JUMPDEST PUSH4 0x4E487B71 PUSH1 0xE0 SHL PUSH1 0x0 MSTORE PUSH1 0x11 PUSH1 0x4 MSTORE PUSH1 0x24 PUSH1 0x0 REVERT JUMPDEST DUP2 DUP2 SUB DUP2 DUP2 GT ISZERO PUSH2 0x8FC JUMPI PUSH2 0x8FC PUSH2 0xA02 JUMP JUMPDEST PUSH1 0x40 MLOAD PUSH2 0x180 DUP2 ADD PUSH8 0xFFFFFFFFFFFFFFFF DUP2 GT DUP3 DUP3 LT OR ISZERO PUSH2 0xA5D JUMPI PUSH4 0x4E487B71 PUSH1 0xE0 SHL PUSH1 0x0 MSTORE PUSH1 0x41 PUSH1 0x4 MSTORE PUSH1 0x24 PUSH1 0x0 REVERT JUMPDEST PUSH1 0x40 MSTORE SWAP1 JUMP JUMPDEST DUP1 MLOAD PUSH2 0xA6E DUP2 PUSH2 0x957 JUMP JUMPDEST SWAP2 SWAP1 POP JUMP JUMPDEST PUSH1 0x0 PUSH2 0x180 DUP3 DUP5 SUB SLT ISZERO PUSH2 0xA86 JUMPI PUSH1 0x0 DUP1 REVERT JUMPDEST PUSH2 0xA8E PUSH2 0xA2B JUMP JUMPDEST DUP3 MLOAD DUP2 MSTORE PUSH1 0x20 DUP4 ADD MLOAD PUSH1 0x20 DUP3 ADD MSTORE PUSH1 0x40 DUP4 ADD MLOAD PUSH1 0x40 DUP3 ADD MSTORE PUSH1 0x60 DUP4 ADD MLOAD PUSH1 0x60 DUP3 ADD MSTORE PUSH1 0x80 DUP4 ADD MLOAD PUSH1 0x80 DUP3 ADD MSTORE PUSH1 0xA0 DUP4 ADD MLOAD PUSH1 0xA0 DUP3 ADD MSTORE PUSH1 0xC0 DUP4 ADD MLOAD PUSH1 0xC0 DUP3 ADD MSTORE PUSH1 0xE0 DUP4 ADD MLOAD PUSH1 0xE0 DUP3 ADD MSTORE PUSH2 0x100 PUSH2 0xAE6 DUP2 DUP6 ADD PUSH2 0xA63 JUMP JUMPDEST SWAP1 DUP3 ADD MSTORE PUSH2 0x120 PUSH2 0xAF8 DUP5 DUP3 ADD PUSH2 0xA63 JUMP JUMPDEST SWAP1 DUP3 ADD MSTORE PUSH2 0x140 PUSH2 0xB0A DUP5 DUP3 ADD PUSH2 0xA63 JUMP JUMPDEST SWAP1 DUP3 ADD MSTORE PUSH2 0x160 SWAP3 DUP4 ADD MLOAD SWAP3 DUP2 ADD SWAP3 SWAP1 SWAP3 MSTORE POP SWAP2 SWAP1 POP JUMP JUMPDEST PUSH1 0x0 PUSH1 0x20 DUP3 DUP5 SUB SLT ISZERO PUSH2 0xB34 JUMPI PUSH1 0x0 DUP1 REVERT JUMPDEST POP MLOAD SWAP2 SWAP1 POP JUMP JUMPDEST PUSH1 0x0 PUSH1 0x20 DUP1 DUP4 MSTORE DUP4 MLOAD DUP1 DUP3 DUP6 ADD MSTORE PUSH1 0x0 JUMPDEST DUP2 DUP2 LT ISZERO PUSH2 0xB68 JUMPI DUP6 DUP2 ADD DUP4 ADD MLOAD DUP6 DUP3 ADD PUSH1 0x40 ADD MSTORE DUP3 ADD PUSH2 0xB4C JUMP JUMPDEST POP PUSH1 0x0 PUSH1 0x40 DUP3 DUP7 ADD ADD MSTORE PUSH1 0x40 PUSH1 0x1F NOT PUSH1 0x1F DUP4 ADD AND DUP6 ADD ADD SWAP3 POP POP POP SWAP3 SWAP2 POP POP JUMP JUMPDEST DUP1 DUP3 MUL DUP2 ISZERO DUP3 DUP3 DIV DUP5 EQ OR PUSH2 0x8FC JUMPI PUSH2 0x8FC PUSH2 0xA02 JUMP JUMPDEST PUSH1 0x0 DUP3 PUSH2 0xBBD JUMPI PUSH4 0x4E487B71 PUSH1 0xE0 SHL PUSH1 0x0 MSTORE PUSH1 0x12 PUSH1 0x4 MSTORE PUSH1 0x24 PUSH1 0x0 REVERT JUMPDEST POP DIV SWAP1 JUMP INVALID LOG2 PUSH5 0x6970667358 0x22 SLT KECCAK256 0x2A 0x1E DELEGATECALL SDIV SLOAD 0xAE MOD 0x4E MOD SWAP4 0x5D 0xD7 0xED 0xD8 SWAP10 0x29 0x2D 0xAA PUSH32 0x12A19CD964C2AF94DDFAC9573064736F6C634300081400330000000000000000 "},"methodIdentifiers":{"asset()":"38d52e0f","checkYieldRates()":"79be5d22","getCurrentYieldData()":"e96279ce","isPaused()":"b187bd26","lastPoolA_Apy()":"ec7568db","lastPoolB_Apy()":"f7b02097","lastUpdateBlock()":"a218141b","pause()":"8456cb59","pay(uint256)":"c290d691","poolA()":"cbbf425f","poolB()":"d4a2aa33","react((uint256,address,uint256,uint256,uint256,uint256,bytes,uint256,uint256,uint256,uint256,uint256))":"0d152c2c","resume()":"046f7da2","totalAllocated()":"45f7f249","updateVaultAddress(address)":"d2de2f85","vaultAddress()":"430bf08a"}}}}}