{"src/mocks/MockAavePool.sol":{"MockAavePool":{"abi":[{"inputs":[{"internalType":"address","name":"_asset","type":"address"}],"stateMutability":"nonpayable","type":"constructor"},{"anonymous":false,"inputs":[{"indexed":true,"internalType":"address","name":"reserve","type":"address"},{"indexed":false,"internalType":"uint256","name":"liquidityRate","type":"uint256"},{"indexed":false,"internalType":"uint256","name":"stableBorrowRate","type":"uint256"},{"indexed":false,"internalType":"uint256","name":"variableBorrowRate","type":"uint256"}],"name":"InterestRateUpdated","type":"event"},{"anonymous":false,"inputs":[{"indexed":true,"internalType":"address","name":"reserve","type":"address"},{"indexed":false,"internalType":"address","name":"user","type":"address"},{"indexed":true,"internalType":"address","name":"onBehalfOf","type":"address"},{"indexed":false,"internalType":"uint256","name":"amount","type":"uint256"},{"indexed":true,"internalType":"uint16","name":"referralCode","type":"uint16"}],"name":"Supply","type":"event"},{"anonymous":false,"inputs":[{"indexed":true,"internalType":"address","name":"reserve","type":"address"},{"indexed":false,"internalType":"address","name":"user","type":"address"},{"indexed":true,"internalType":"address","name":"to","type":"address"},{"indexed":false,"internalType":"uint256","name":"amount","type":"uint256"}],"name":"Withdraw","type":"event"},{"inputs":[],"name":"REFERRAL_CODE","outputs":[{"internalType":"uint256","name":"","type":"uint256"}],"stateMutability":"view","type":"function"},{"inputs":[],"name":"asset","outputs":[{"internalType":"address","name":"","type":"address"}],"stateMutability":"view","type":"function"},{"inputs":[{"internalType":"address","name":"account","type":"address"}],"name":"balanceOf","outputs":[{"internalType":"uint256","name":"","type":"uint256"}],"stateMutability":"view","type":"function"},{"inputs":[],"name":"borrowRatePerBlock","outputs":[{"internalType":"uint256","name":"","type":"uint256"}],"stateMutability":"pure","type":"function"},{"inputs":[],"name":"exchangeRateCurrent","outputs":[{"internalType":"uint256","name":"","type":"uint256"}],"stateMutability":"pure","type":"function"},{"inputs":[{"internalType":"address","name":"_asset","type":"address"}],"name":"getReserveData","outputs":[{"components":[{"internalType":"uint256","name":"currentLiquidityRate","type":"uint256"},{"internalType":"uint256","name":"currentStableBorrowRate","type":"uint256"},{"internalType":"uint256","name":"currentVariableBorrowRate","type":"uint256"},{"internalType":"uint256","name":"liquidityIndex","type":"uint256"},{"internalType":"uint256","name":"variableBorrowIndex","type":"uint256"},{"internalType":"uint256","name":"totalLiquidity","type":"uint256"},{"internalType":"uint256","name":"totalStableDebt","type":"uint256"},{"internalType":"uint256","name":"totalVariableDebt","type":"uint256"},{"internalType":"address","name":"aTokenAddress","type":"address"},{"internalType":"address","name":"stableDebtTokenAddress","type":"address"},{"internalType":"address","name":"variableDebtTokenAddress","type":"address"},{"internalType":"uint256","name":"lastUpdateTimestamp","type":"uint256"}],"internalType":"struct ILendingPool.ReserveData","name":"","type":"tuple"}],"stateMutability":"view","type":"function"},{"inputs":[{"internalType":"address","name":"_asset","type":"address"}],"name":"getReserveNormalizedIncome","outputs":[{"internalType":"uint256","name":"","type":"uint256"}],"stateMutability":"view","type":"function"},{"inputs":[{"internalType":"uint256","name":"newRate","type":"uint256"}],"name":"setLiquidityRate","outputs":[],"stateMutability":"nonpayable","type":"function"},{"inputs":[{"internalType":"address","name":"_asset","type":"address"},{"internalType":"uint256","name":"amount","type":"uint256"},{"internalType":"address","name":"onBehalfOf","type":"address"},{"internalType":"uint16","name":"referralCode","type":"uint16"}],"name":"supply","outputs":[],"stateMutability":"nonpayable","type":"function"},{"inputs":[],"name":"supplyRatePerBlock","outputs":[{"internalType":"uint256","name":"","type":"uint256"}],"stateMutability":"pure","type":"function"},{"inputs":[{"internalType":"address","name":"_asset","type":"address"},{"internalType":"uint256","name":"amount","type":"uint256"},{"internalType":"address","name":"to","type":"address"}],"name":"withdraw","outputs":[{"internalType":"uint256","name":"","type":"uint256"}],"stateMutability":"nonpayable","type":"function"}],"evm":{"bytecode":{"linkReferences":{},"object":"60a060405234801561001057600080fd5b5060405161095b38038061095b83398101604081905261002f9161005c565b6001600160a01b03166080526a295be96e64066972000000600055683635c9adc5dea0000060015561008c565b60006020828403121561006e57600080fd5b81516001600160a01b038116811461008557600080fd5b9392505050565b6080516108926100c96000396000818160ee0152818161023501528181610356015281816103b2015281816104a001526105eb01526108926000f3fe608060405234801561001057600080fd5b50600436106100a95760003560e01c806369328dec1161007157806369328dec1461015057806370a0823114610163578063ae9d70b01461018c578063bd6d894d14610193578063d15e0053146101a1578063f8f9da281461018c57600080fd5b80633583849a146100ae57806335ea6a75146100c957806338d52e0f146100e95780633a244adf14610128578063617ba0371461013d575b600080fd5b6100b6600081565b6040519081526020015b60405180910390f35b6100dc6100d7366004610669565b6101b4565b6040516100c0919061068b565b6101107f000000000000000000000000000000000000000000000000000000000000000081565b6040516001600160a01b0390911681526020016100c0565b61013b610136366004610738565b61032d565b005b61013b61014b366004610751565b6103b0565b6100b661015e3660046107a7565b61049c565b6100b6610171366004610669565b6001600160a01b031660009081526002602052604090205490565b60006100b6565b670de0b6b3a76400006100b6565b6100b66101af366004610669565b6105e7565b610233604051806101800160405280600081526020016000815260200160008152602001600081526020016000815260200160008152602001600081526020016000815260200160006001600160a01b0316815260200160006001600160a01b0316815260200160006001600160a01b03168152602001600081525090565b7f00000000000000000000000000000000000000000000000000000000000000006001600160a01b0316826001600160a01b03161461028d5760405162461bcd60e51b8152600401610284906107e3565b60405180910390fd5b6040518061018001604052806000548152602001600081526020016a31a17e847807b1bc00000081526020016b033b2e3c9fd0803ce800000081526020016b033b2e3c9fd0803ce8000000815260200160015481526020016000815260200160008152602001306001600160a01b0316815260200160006001600160a01b0316815260200160006001600160a01b03168152602001428152509050919050565b600080548282556040805184815260208101939093526a31a17e847807b1bc00000090830152907f00000000000000000000000000000000000000000000000000000000000000006001600160a01b0316907ffe6503c3ffa4f15f70414cb7846d0be83ef955bddd428112d917adc8d3a06ec39060600160405180910390a25050565b7f00000000000000000000000000000000000000000000000000000000000000006001600160a01b0316846001600160a01b0316146104015760405162461bcd60e51b8152600401610284906107e3565b6001600160a01b03821660009081526002602052604081208054859290610429908490610830565b9250508190555082600160008282546104429190610830565b9091555050604080513381526020810185905261ffff8316916001600160a01b0380861692908816917f2b627736bca15cd5381dcf80b0bf11fd197d01a037c52b927a881a10fb73ba61910160405180910390a450505050565b60007f00000000000000000000000000000000000000000000000000000000000000006001600160a01b0316846001600160a01b0316146104ef5760405162461bcd60e51b8152600401610284906107e3565b336000908152600260205260409020548311156105595760405162461bcd60e51b815260206004820152602260248201527f4d6f636b41617665506f6f6c3a20496e73756666696369656e742062616c616e604482015261636560f01b6064820152608401610284565b3360009081526002602052604081208054859290610578908490610849565b9250508190555082600160008282546105919190610849565b909155505060408051338152602081018590526001600160a01b0380851692908716917f3115d1449a7b732c986cba18244e897a450f61e1bb8d589cd2e69e6c8924f9f7910160405180910390a3509092915050565b60007f00000000000000000000000000000000000000000000000000000000000000006001600160a01b0316826001600160a01b03161461063a5760405162461bcd60e51b8152600401610284906107e3565b506b033b2e3c9fd0803ce8000000919050565b80356001600160a01b038116811461066457600080fd5b919050565b60006020828403121561067b57600080fd5b6106848261064d565b9392505050565b600061018082019050825182526020830151602083015260408301516040830152606083015160608301526080830151608083015260a083015160a083015260c083015160c083015260e083015160e0830152610100808401516106f9828501826001600160a01b03169052565b5050610120838101516001600160a01b038116848301525050610140838101516001600160a01b03811684830152505061016092830151919092015290565b60006020828403121561074a57600080fd5b5035919050565b6000806000806080858703121561076757600080fd5b6107708561064d565b9350602085013592506107856040860161064d565b9150606085013561ffff8116811461079c57600080fd5b939692955090935050565b6000806000606084860312156107bc57600080fd5b6107c58461064d565b9250602084013591506107da6040850161064d565b90509250925092565b6020808252601b908201527f4d6f636b41617665506f6f6c3a20496e76616c69642061737365740000000000604082015260600190565b634e487b7160e01b600052601160045260246000fd5b808201808211156108435761084361081a565b92915050565b818103818111156108435761084361081a56fea264697066735822122099225d2483de071404c9c15a18e97eaf04274897f6adb5f4bbfea300bc217a4064736f6c63430008140033","opcodes":"PUSH1 0xA0 PUSH1 0x40 MSTORE CALLVALUE DUP1 ISZERO PUSH2 0x10 JUMPI PUSH1 0x0 DUP1 REVERT JUMPDEST POP PUSH1 0x40 MLOAD PUSH2 0x95B CODESIZE SUB DUP1 PUSH2 0x95B DUP4 CODECOPY DUP2 ADD PUSH1 0x40 DUP2 SWAP1 MSTORE PUSH2 0x2F SWAP2 PUSH2 0x5C JUMP JUMPDEST PUSH1 0x1 PUSH1 0x1 PUSH1 0xA0 SHL SUB AND PUSH1 0x80 MSTORE PUSH11 0x295BE96E64066972000000 PUSH1 0x0 SSTORE PUSH9 0x3635C9ADC5DEA00000 PUSH1 0x1 SSTORE PUSH2 0x8C JUMP JUMPDEST PUSH1 0x0 PUSH1 0x20 DUP3 DUP5 SUB SLT ISZERO PUSH2 0x6E JUMPI PUSH1 0x0 DUP1 REVERT JUMPDEST DUP2 MLOAD PUSH1 0x1 PUSH1 0x1 PUSH1 0xA0 SHL SUB DUP2 AND DUP2 EQ PUSH2 0x85 JUMPI PUSH1 0x0 DUP1 REVERT JUMPDEST SWAP4 SWAP3 POP POP POP JUMP JUMPDEST PUSH1 0x80 MLOAD PUSH2 0x892 PUSH2 0xC9 PUSH1 0x0 CODECOPY PUSH1 0x0 DUP2 DUP2 PUSH1 0xEE ADD MSTORE DUP2 DUP2 PUSH2 0x235 ADD MSTORE DUP2 DUP2 PUSH2 0x356 ADD MSTORE DUP2 DUP2 PUSH2 0x3B2 ADD MSTORE DUP2 DUP2 PUSH2 0x4A0 ADD MSTORE PUSH2 0x5EB ADD MSTORE PUSH2 0x892 PUSH1 0x0 RETURN INVALID PUSH1 0x80 PUSH1 0x40 MSTORE CALLVALUE DUP1 ISZERO PUSH2 0x10 JUMPI PUSH1 0x0 DUP1 REVERT JUMPDEST POP PUSH1 0x4 CALLDATASIZE LT PUSH2 0xA9 JUMPI PUSH1 0x0 CALLDATALOAD PUSH1 0xE0 SHR DUP1 PUSH4 0x69328DEC GT PUSH2 0x71 JUMPI DUP1 PUSH4 0x69328DEC EQ PUSH2 0x150 JUMPI DUP1 PUSH4 0x70A08231 EQ PUSH2 0x163 JUMPI DUP1 PUSH4 0xAE9D70B0 EQ PUSH2 0x18C JUMPI DUP1 PUSH4 0xBD6D894D EQ PUSH2 0x193 JUMPI DUP1 PUSH4 0xD15E0053 EQ PUSH2 0x1A1 JUMPI DUP1 PUSH4 0xF8F9DA28 EQ PUSH2 0x18C JUMPI PUSH1 0x0 DUP1 REVERT JUMPDEST DUP1 PUSH4 0x3583849A EQ PUSH2 0xAE JUMPI DUP1 PUSH4 0x35EA6A75 EQ PUSH2 0xC9 JUMPI DUP1 PUSH4 0x38D52E0F EQ PUSH2 0xE9 JUMPI DUP1 PUSH4 0x3A244ADF EQ PUSH2 0x128 JUMPI DUP1 PUSH4 0x617BA037 EQ PUSH2 0x13D JUMPI JUMPDEST PUSH1 0x0 DUP1 REVERT JUMPDEST PUSH2 0xB6 PUSH1 0x0 DUP2 JUMP JUMPDEST PUSH1 0x40 MLOAD SWAP1 DUP2 MSTORE PUSH1 0x20 ADD JUMPDEST PUSH1 0x40 MLOAD DUP1 SWAP2 SUB SWAP1 RETURN JUMPDEST PUSH2 0xDC PUSH2 0xD7 CALLDATASIZE PUSH1 0x4 PUSH2 0x669 JUMP JUMPDEST PUSH2 0x1B4 JUMP JUMPDEST PUSH1 0x40 MLOAD PUSH2 0xC0 SWAP2 SWAP1 PUSH2 0x68B JUMP JUMPDEST PUSH2 0x110 PUSH32 0x0 DUP2 JUMP JUMPDEST PUSH1 0x40 MLOAD PUSH1 0x1 PUSH1 0x1 PUSH1 0xA0 SHL SUB SWAP1 SWAP2 AND DUP2 MSTORE PUSH1 0x20 ADD PUSH2 0xC0 JUMP JUMPDEST PUSH2 0x13B PUSH2 0x136 CALLDATASIZE PUSH1 0x4 PUSH2 0x738 JUMP JUMPDEST PUSH2 0x32D JUMP JUMPDEST STOP JUMPDEST PUSH2 0x13B PUSH2 0x14B CALLDATASIZE PUSH1 0x4 PUSH2 0x751 JUMP JUMPDEST PUSH2 0x3B0 JUMP JUMPDEST PUSH2 0xB6 PUSH2 0x15E CALLDATASIZE PUSH1 0x4 PUSH2 0x7A7 JUMP JUMPDEST PUSH2 0x49C JUMP JUMPDEST PUSH2 0xB6 PUSH2 0x171 CALLDATASIZE PUSH1 0x4 PUSH2 0x669 JUMP JUMPDEST PUSH1 0x1 PUSH1 0x1 PUSH1 0xA0 SHL SUB AND PUSH1 0x0 SWAP1 DUP2 MSTORE PUSH1 0x2 PUSH1 0x20 MSTORE PUSH1 0x40 SWAP1 KECCAK256 SLOAD SWAP1 JUMP JUMPDEST PUSH1 0x0 PUSH2 0xB6 JUMP JUMPDEST PUSH8 0xDE0B6B3A7640000 PUSH2 0xB6 JUMP JUMPDEST PUSH2 0xB6 PUSH2 0x1AF CALLDATASIZE PUSH1 0x4 PUSH2 0x669 JUMP JUMPDEST PUSH2 0x5E7 JUMP JUMPDEST PUSH2 0x233 PUSH1 0x40 MLOAD DUP1 PUSH2 0x180 ADD PUSH1 0x40 MSTORE DUP1 PUSH1 0x0 DUP2 MSTORE PUSH1 0x20 ADD PUSH1 0x0 DUP2 MSTORE PUSH1 0x20 ADD PUSH1 0x0 DUP2 MSTORE PUSH1 0x20 ADD PUSH1 0x0 DUP2 MSTORE PUSH1 0x20 ADD PUSH1 0x0 DUP2 MSTORE PUSH1 0x20 ADD PUSH1 0x0 DUP2 MSTORE PUSH1 0x20 ADD PUSH1 0x0 DUP2 MSTORE PUSH1 0x20 ADD PUSH1 0x0 DUP2 MSTORE PUSH1 0x20 ADD PUSH1 0x0 PUSH1 0x1 PUSH1 0x1 PUSH1 0xA0 SHL SUB AND DUP2 MSTORE PUSH1 0x20 ADD PUSH1 0x0 PUSH1 0x1 PUSH1 0x1 PUSH1 0xA0 SHL SUB AND DUP2 MSTORE PUSH1 0x20 ADD PUSH1 0x0 PUSH1 0x1 PUSH1 0x1 PUSH1 0xA0 SHL SUB AND DUP2 MSTORE PUSH1 0x20 ADD PUSH1 0x0 DUP2 MSTORE POP SWAP1 JUMP JUMPDEST PUSH32 0x0 PUSH1 0x1 PUSH1 0x1 PUSH1 0xA0 SHL SUB AND DUP3 PUSH1 0x1 PUSH1 0x1 PUSH1 0xA0 SHL SUB AND EQ PUSH2 0x28D JUMPI PUSH1 0x40 MLOAD PUSH3 0x461BCD PUSH1 0xE5 SHL DUP2 MSTORE PUSH1 0x4 ADD PUSH2 0x284 SWAP1 PUSH2 0x7E3 JUMP JUMPDEST PUSH1 0x40 MLOAD DUP1 SWAP2 SUB SWAP1 REVERT JUMPDEST PUSH1 0x40 MLOAD DUP1 PUSH2 0x180 ADD PUSH1 0x40 MSTORE DUP1 PUSH1 0x0 SLOAD DUP2 MSTORE PUSH1 0x20 ADD PUSH1 0x0 DUP2 MSTORE PUSH1 0x20 ADD PUSH11 0x31A17E847807B1BC000000 DUP2 MSTORE PUSH1 0x20 ADD PUSH12 0x33B2E3C9FD0803CE8000000 DUP2 MSTORE PUSH1 0x20 ADD PUSH12 0x33B2E3C9FD0803CE8000000 DUP2 MSTORE PUSH1 0x20 ADD PUSH1 0x1 SLOAD DUP2 MSTORE PUSH1 0x20 ADD PUSH1 0x0 DUP2 MSTORE PUSH1 0x20 ADD PUSH1 0x0 DUP2 MSTORE PUSH1 0x20 ADD ADDRESS PUSH1 0x1 PUSH1 0x1 PUSH1 0xA0 SHL SUB AND DUP2 MSTORE PUSH1 0x20 ADD PUSH1 0x0 PUSH1 0x1 PUSH1 0x1 PUSH1 0xA0 SHL SUB AND DUP2 MSTORE PUSH1 0x20 ADD PUSH1 0x0 PUSH1 0x1 PUSH1 0x1 PUSH1 0xA0 SHL SUB AND DUP2 MSTORE PUSH1 0x20 ADD TIMESTAMP DUP2 MSTORE POP SWAP1 POP SWAP2 SWAP1 POP JUMP JUMPDEST PUSH1 0x0 DUP1 SLOAD DUP3 DUP3 SSTORE PUSH1 0x40 DUP1 MLOAD DUP5 DUP2 MSTORE PUSH1 0x20 DUP2 ADD SWAP4 SWAP1 SWAP4 MSTORE PUSH11 0x31A17E847807B1BC000000 SWAP1 DUP4 ADD MSTORE SWAP1 PUSH32 0x0 PUSH1 0x1 PUSH1 0x1 PUSH1 0xA0 SHL SUB AND SWAP1 PUSH32 0xFE6503C3FFA4F15F70414CB7846D0BE83EF955BDDD428112D917ADC8D3A06EC3 SWAP1 PUSH1 0x60 ADD PUSH1 0x40 MLOAD DUP1 SWAP2 SUB SWAP1 LOG2 POP POP JUMP JUMPDEST PUSH32 0x0 PUSH1 0x1 PUSH1 0x1 PUSH1 0xA0 SHL SUB AND DUP5 PUSH1 0x1 PUSH1 0x1 PUSH1 0xA0 SHL SUB AND EQ PUSH2 0x401 JUMPI PUSH1 0x40 MLOAD PUSH3 0x461BCD PUSH1 0xE5 SHL DUP2 MSTORE PUSH1 0x4 ADD PUSH2 0x284 SWAP1 PUSH2 0x7E3 JUMP JUMPDEST PUSH1 0x1 PUSH1 0x1 PUSH1 0xA0 SHL SUB DUP3 AND PUSH1 0x0 SWAP1 DUP2 MSTORE PUSH1 0x2 PUSH1 0x20 MSTORE PUSH1 0x40 DUP2 KECCAK256 DUP1 SLOAD DUP6 SWAP3 SWAP1 PUSH2 0x429 SWAP1 DUP5 SWAP1 PUSH2 0x830 JUMP JUMPDEST SWAP3 POP POP DUP2 SWAP1 SSTORE POP DUP3 PUSH1 0x1 PUSH1 0x0 DUP3 DUP3 SLOAD PUSH2 0x442 SWAP2 SWAP1 PUSH2 0x830 JUMP JUMPDEST SWAP1 SWAP2 SSTORE POP POP PUSH1 0x40 DUP1 MLOAD CALLER DUP2 MSTORE PUSH1 0x20 DUP2 ADD DUP6 SWAP1 MSTORE PUSH2 0xFFFF DUP4 AND SWAP2 PUSH1 0x1 PUSH1 0x1 PUSH1 0xA0 SHL SUB DUP1 DUP7 AND SWAP3 SWAP1 DUP9 AND SWAP2 PUSH32 0x2B627736BCA15CD5381DCF80B0BF11FD197D01A037C52B927A881A10FB73BA61 SWAP2 ADD PUSH1 0x40 MLOAD DUP1 SWAP2 SUB SWAP1 LOG4 POP POP POP POP JUMP JUMPDEST PUSH1 0x0 PUSH32 0x0 PUSH1 0x1 PUSH1 0x1 PUSH1 0xA0 SHL SUB AND DUP5 PUSH1 0x1 PUSH1 0x1 PUSH1 0xA0 SHL SUB AND EQ PUSH2 0x4EF JUMPI PUSH1 0x40 MLOAD PUSH3 0x461BCD PUSH1 0xE5 SHL DUP2 MSTORE PUSH1 0x4 ADD PUSH2 0x284 SWAP1 PUSH2 0x7E3 JUMP JUMPDEST CALLER PUSH1 0x0 SWAP1 DUP2 MSTORE PUSH1 0x2 PUSH1 0x20 MSTORE PUSH1 0x40 SWAP1 KECCAK256 SLOAD DUP4 GT ISZERO PUSH2 0x559 JUMPI PUSH1 0x40 MLOAD PUSH3 0x461BCD PUSH1 0xE5 SHL DUP2 MSTORE PUSH1 0x20 PUSH1 0x4 DUP3 ADD MSTORE PUSH1 0x22 PUSH1 0x24 DUP3 ADD MSTORE PUSH32 0x4D6F636B41617665506F6F6C3A20496E73756666696369656E742062616C616E PUSH1 0x44 DUP3 ADD MSTORE PUSH2 0x6365 PUSH1 0xF0 SHL PUSH1 0x64 DUP3 ADD MSTORE PUSH1 0x84 ADD PUSH2 0x284 JUMP JUMPDEST CALLER PUSH1 0x0 SWAP1 DUP2 MSTORE PUSH1 0x2 PUSH1 0x20 MSTORE PUSH1 0x40 DUP2 KECCAK256 DUP1 SLOAD DUP6 SWAP3 SWAP1 PUSH2 0x578 SWAP1 DUP5 SWAP1 PUSH2 0x849 JUMP JUMPDEST SWAP3 POP POP DUP2 SWAP1 SSTORE POP DUP3 PUSH1 0x1 PUSH1 0x0 DUP3 DUP3 SLOAD PUSH2 0x591 SWAP2 SWAP1 PUSH2 0x849 JUMP JUMPDEST SWAP1 SWAP2 SSTORE POP POP PUSH1 0x40 DUP1 MLOAD CALLER DUP2 MSTORE PUSH1 0x20 DUP2 ADD DUP6 SWAP1 MSTORE PUSH1 0x1 PUSH1 0x1 PUSH1 0xA0 SHL SUB DUP1 DUP6 AND SWAP3 SWAP1 DUP8 AND SWAP2 PUSH32 0x3115D1449A7B732C986CBA18244E897A450F61E1BB8D589CD2E69E6C8924F9F7 SWAP2 ADD PUSH1 0x40 MLOAD DUP1 SWAP2 SUB SWAP1 LOG3 POP SWAP1 SWAP3 SWAP2 POP POP JUMP JUMPDEST PUSH1 0x0 PUSH32 0x0 PUSH1 0x1 PUSH1 0x1 PUSH1 0xA0 SHL SUB AND DUP3 PUSH1 0x1 PUSH1 0x1 PUSH1 0xA0 SHL SUB AND EQ PUSH2 0x63A JUMPI PUSH1 0x40 MLOAD PUSH3 0x461BCD PUSH1 0xE5 SHL DUP2 MSTORE PUSH1 0x4 ADD PUSH2 0x284 SWAP1 PUSH2 0x7E3 JUMP JUMPDEST POP PUSH12 0x33B2E3C9FD0803CE8000000 SWAP2 SWAP1 POP JUMP JUMPDEST DUP1 CALLDATALOAD PUSH1 0x1 PUSH1 0x1 PUSH1 0xA0 SHL SUB DUP2 AND DUP2 EQ PUSH2 0x664 JUMPI PUSH1 0x0 DUP1 REVERT JUMPDEST SWAP2 SWAP1 POP JUMP JUMPDEST PUSH1 0x0 PUSH1 0x20 DUP3 DUP5 SUB SLT ISZERO PUSH2 0x67B JUMPI PUSH1 0x0 DUP1 REVERT JUMPDEST PUSH2 0x684 DUP3 PUSH2 0x64D JUMP JUMPDEST SWAP4 SWAP3 POP POP POP JUMP JUMPDEST PUSH1 0x0 PUSH2 0x180 DUP3 ADD SWAP1 POP DUP3 MLOAD DUP3 MSTORE PUSH1 0x20 DUP4 ADD MLOAD PUSH1 0x20 DUP4 ADD MSTORE PUSH1 0x40 DUP4 ADD MLOAD PUSH1 0x40 DUP4 ADD MSTORE PUSH1 0x60 DUP4 ADD MLOAD PUSH1 0x60 DUP4 ADD MSTORE PUSH1 0x80 DUP4 ADD MLOAD PUSH1 0x80 DUP4 ADD MSTORE PUSH1 0xA0 DUP4 ADD MLOAD PUSH1 0xA0 DUP4 ADD MSTORE PUSH1 0xC0 DUP4 ADD MLOAD PUSH1 0xC0 DUP4 ADD MSTORE PUSH1 0xE0 DUP4 ADD MLOAD PUSH1 0xE0 DUP4 ADD MSTORE PUSH2 0x100 DUP1 DUP5 ADD MLOAD PUSH2 0x6F9 DUP3 DUP6 ADD DUP3 PUSH1 0x1 PUSH1 0x1 PUSH1 0xA0 SHL SUB AND SWAP1 MSTORE JUMP JUMPDEST POP POP PUSH2 0x120 DUP4 DUP2 ADD MLOAD PUSH1 0x1 PUSH1 0x1 PUSH1 0xA0 SHL SUB DUP2 AND DUP5 DUP4 ADD MSTORE POP POP PUSH2 0x140 DUP4 DUP2 ADD MLOAD PUSH1 0x1 PUSH1 0x1 PUSH1 0xA0 SHL SUB DUP2 AND DUP5 DUP4 ADD MSTORE POP POP PUSH2 0x160 SWAP3 DUP4 ADD MLOAD SWAP2 SWAP1 SWAP3 ADD MSTORE SWAP1 JUMP JUMPDEST PUSH1 0x0 PUSH1 0x20 DUP3 DUP5 SUB SLT ISZERO PUSH2 0x74A JUMPI PUSH1 0x0 DUP1 REVERT JUMPDEST POP CALLDATALOAD SWAP2 SWAP1 POP JUMP JUMPDEST PUSH1 0x0 DUP1 PUSH1 0x0 DUP1 PUSH1 0x80 DUP6 DUP8 SUB SLT ISZERO PUSH2 0x767 JUMPI PUSH1 0x0 DUP1 REVERT JUMPDEST PUSH2 0x770 DUP6 PUSH2 0x64D JUMP JUMPDEST SWAP4 POP PUSH1 0x20 DUP6 ADD CALLDATALOAD SWAP3 POP PUSH2 0x785 PUSH1 0x40 DUP7 ADD PUSH2 0x64D JUMP JUMPDEST SWAP2 POP PUSH1 0x60 DUP6 ADD CALLDATALOAD PUSH2 0xFFFF DUP2 AND DUP2 EQ PUSH2 0x79C JUMPI PUSH1 0x0 DUP1 REVERT JUMPDEST SWAP4 SWAP7 SWAP3 SWAP6 POP SWAP1 SWAP4 POP POP JUMP JUMPDEST PUSH1 0x0 DUP1 PUSH1 0x0 PUSH1 0x60 DUP5 DUP7 SUB SLT ISZERO PUSH2 0x7BC JUMPI PUSH1 0x0 DUP1 REVERT JUMPDEST PUSH2 0x7C5 DUP5 PUSH2 0x64D JUMP JUMPDEST SWAP3 POP PUSH1 0x20 DUP5 ADD CALLDATALOAD SWAP2 POP PUSH2 0x7DA PUSH1 0x40 DUP6 ADD PUSH2 0x64D JUMP JUMPDEST SWAP1 POP SWAP3 POP SWAP3 POP SWAP3 JUMP JUMPDEST PUSH1 0x20 DUP1 DUP3 MSTORE PUSH1 0x1B SWAP1 DUP3 ADD MSTORE PUSH32 0x4D6F636B41617665506F6F6C3A20496E76616C69642061737365740000000000 PUSH1 0x40 DUP3 ADD MSTORE PUSH1 0x60 ADD SWAP1 JUMP JUMPDEST PUSH4 0x4E487B71 PUSH1 0xE0 SHL PUSH1 0x0 MSTORE PUSH1 0x11 PUSH1 0x4 MSTORE PUSH1 0x24 PUSH1 0x0 REVERT JUMPDEST DUP1 DUP3 ADD DUP1 DUP3 GT ISZERO PUSH2 0x843 JUMPI PUSH2 0x843 PUSH2 0x81A JUMP JUMPDEST SWAP3 SWAP2 POP POP JUMP JUMPDEST DUP2 DUP2 SUB DUP2 DUP2 GT ISZERO PUSH2 0x843 JUMPI PUSH2 0x843 PUSH2 0x81A JUMP INVALID LOG2 PUSH5 0x6970667358 0x22 SLT KECCAK256 SWAP10 0x22 0x5D 0x24 DUP4 0xDE SMOD EQ DIV 0xC9 0xC1 GAS XOR 0xE9 PUSH31 0xAF04274897F6ADB5F4BBFEA300BC217A4064736F6C63430008140033000000 "},"methodIdentifiers":{"REFERRAL_CODE()":"3583849a","asset()":"38d52e0f","balanceOf(address)":"70a08231","borrowRatePerBlock()":"f8f9da28","exchangeRateCurrent()":"bd6d894d","getReserveData(address)":"35ea6a75","getReserveNormalizedIncome(address)":"d15e0053","setLiquidityRate(uint256)":"3a244adf","supply(address,uint256,address,uint16)":"617ba037","supplyRatePerBlock()":"ae9d70b0","withdraw(address,uint256,address)":"69328dec"}}}}}