{"abi":[{"type":"constructor","inputs":[{"name":"_vault","type":"address","internalType":"address"}],"stateMutability":"nonpayable"},{"type":"function","name":"authorizeUser","inputs":[{"name":"user","type":"address","internalType":"address"}],"outputs":[],"stateMutability":"nonpayable"},{"type":"function","name":"authorizedUsers","inputs":[{"name":"","type":"address","internalType":"address"}],"outputs":[{"name":"","type":"bool","internalType":"bool"}],"stateMutability":"view"},{"type":"function","name":"config","inputs":[],"outputs":[{"name":"rebalanceThreshold","type":"uint256","internalType":"uint256"},{"name":"rebalancePercentage","type":"uint256","internalType":"uint256"},{"name":"maxAllocationPercentage","type":"uint256","internalType":"uint256"},{"name":"minDepositAmount","type":"uint256","internalType":"uint256"},{"name":"emergencyWithdrawFee","type":"uint256","internalType":"uint256"},{"name":"autoRebalanceEnabled","type":"bool","internalType":"bool"},{"name":"paused","type":"bool","internalType":"bool"}],"stateMutability":"view"},{"type":"function","name":"deauthorizeUser","inputs":[{"name":"user","type":"address","internalType":"address"}],"outputs":[],"stateMutability":"nonpayable"},{"type":"function","name":"getConfig","inputs":[],"outputs":[{"name":"","type":"tuple","internalType":"struct ConfigManager.StrategyConfig","components":[{"name":"rebalanceThreshold","type":"uint256","internalType":"uint256"},{"name":"rebalancePercentage","type":"uint256","internalType":"uint256"},{"name":"maxAllocationPercentage","type":"uint256","internalType":"uint256"},{"name":"minDepositAmount","type":"uint256","internalType":"uint256"},{"name":"emergencyWithdrawFee","type":"uint256","internalType":"uint256"},{"name":"autoRebalanceEnabled","type":"bool","internalType":"bool"},{"name":"paused","type":"bool","internalType":"bool"}]}],"stateMutability":"view"},{"type":"function","name":"isAuthorized","inputs":[{"name":"user","type":"address","internalType":"address"}],"outputs":[{"name":"","type":"bool","internalType":"bool"}],"stateMutability":"view"},{"type":"function","name":"owner","inputs":[],"outputs":[{"name":"","type":"address","internalType":"address"}],"stateMutability":"view"},{"type":"function","name":"pause","inputs":[],"outputs":[],"stateMutability":"nonpayable"},{"type":"function","name":"renounceOwnership","inputs":[],"outputs":[],"stateMutability":"nonpayable"},{"type":"function","name":"toggleAutoRebalance","inputs":[],"outputs":[],"stateMutability":"nonpayable"},{"type":"function","name":"transferOwnership","inputs":[{"name":"newOwner","type":"address","internalType":"address"}],"outputs":[],"stateMutability":"nonpayable"},{"type":"function","name":"unpause","inputs":[],"outputs":[],"stateMutability":"nonpayable"},{"type":"function","name":"updateEmergencyWithdrawFee","inputs":[{"name":"newFee","type":"uint256","internalType":"uint256"}],"outputs":[],"stateMutability":"nonpayable"},{"type":"function","name":"updateMaxAllocationPercentage","inputs":[{"name":"newMaxAllocation","type":"uint256","internalType":"uint256"}],"outputs":[],"stateMutability":"nonpayable"},{"type":"function","name":"updateMinDepositAmount","inputs":[{"name":"newMinDeposit","type":"uint256","internalType":"uint256"}],"outputs":[],"stateMutability":"nonpayable"},{"type":"function","name":"updateRebalancePercentage","inputs":[{"name":"newPercentage","type":"uint256","internalType":"uint256"}],"outputs":[],"stateMutability":"nonpayable"},{"type":"function","name":"updateRebalanceThreshold","inputs":[{"name":"newThreshold","type":"uint256","internalType":"uint256"}],"outputs":[],"stateMutability":"nonpayable"},{"type":"function","name":"updateVaultAddress","inputs":[{"name":"newVault","type":"address","internalType":"address"}],"outputs":[],"stateMutability":"nonpayable"},{"type":"function","name":"vaultAddress","inputs":[],"outputs":[{"name":"","type":"address","internalType":"address"}],"stateMutability":"view"},{"type":"event","name":"ConfigUpdated","inputs":[{"name":"parameter","type":"string","indexed":false,"internalType":"string"},{"name":"oldValue","type":"uint256","indexed":false,"internalType":"uint256"},{"name":"newValue","type":"uint256","indexed":false,"internalType":"uint256"}],"anonymous":false},{"type":"event","name":"ConfigUpdatedBool","inputs":[{"name":"parameter","type":"string","indexed":false,"internalType":"string"},{"name":"oldValue","type":"bool","indexed":false,"internalType":"bool"},{"name":"newValue","type":"bool","indexed":false,"internalType":"bool"}],"anonymous":false},{"type":"event","name":"OwnershipTransferred","inputs":[{"name":"previousOwner","type":"address","indexed":true,"internalType":"address"},{"name":"newOwner","type":"address","indexed":true,"internalType":"address"}],"anonymous":false},{"type":"event","name":"UserAuthorized","inputs":[{"name":"user","type":"address","indexed":true,"internalType":"address"}],"anonymous":false},{"type":"event","name":"UserDeauthorized","inputs":[{"name":"user","type":"address","indexed":true,"internalType":"address"}],"anonymous":false},{"type":"event","name":"VaultUpdated","inputs":[{"name":"oldVault","type":"address","indexed":true,"internalType":"address"},{"name":"newVault","type":"address","indexed":true,"internalType":"address"}],"anonymous":false},{"type":"error","name":"OwnableInvalidOwner","inputs":[{"name":"owner","type":"address","internalType":"address"}]},{"type":"error","name":"OwnableUnauthorizedAccount","inputs":[{"name":"account","type":"address","internalType":"address"}]}],"bytecode":{"object":"0x608060405234801561000f575f5ffd5b50604051611fc7380380611fc7833981810160405281019061003191906102d0565b335f73ffffffffffffffffffffffffffffffffffffffff168173ffffffffffffffffffffffffffffffffffffffff16036100a2575f6040517f1e4fbdf7000000000000000000000000000000000000000000000000000000008152600401610099919061030a565b60405180910390fd5b6100b1816101b160201b60201c565b508060075f6101000a81548173ffffffffffffffffffffffffffffffffffffffff021916908373ffffffffffffffffffffffffffffffffffffffff1602179055506040518060e00160405280603281526020016103e881526020016123288152602001662386f26fc100008152602001606481526020016001151581526020015f151581525060015f820151815f01556020820151816001015560408201518160020155606082015181600301556080820151816004015560a0820151816005015f6101000a81548160ff02191690831515021790555060c08201518160050160016101000a81548160ff02191690831515021790555090505050610323565b5f5f5f9054906101000a900473ffffffffffffffffffffffffffffffffffffffff169050815f5f6101000a81548173ffffffffffffffffffffffffffffffffffffffff021916908373ffffffffffffffffffffffffffffffffffffffff1602179055508173ffffffffffffffffffffffffffffffffffffffff168173ffffffffffffffffffffffffffffffffffffffff167f8be0079c531659141344cd1fd0a4f28419497f9722a3daafe3b4186f6b6457e060405160405180910390a35050565b5f5ffd5b5f73ffffffffffffffffffffffffffffffffffffffff82169050919050565b5f61029f82610276565b9050919050565b6102af81610295565b81146102b9575f5ffd5b50565b5f815190506102ca816102a6565b92915050565b5f602082840312156102e5576102e4610272565b5b5f6102f2848285016102bc565b91505092915050565b61030481610295565b82525050565b5f60208201905061031d5f8301846102fb565b92915050565b611c97806103305f395ff3fe608060405234801561000f575f5ffd5b506004361061011f575f3560e01c80638456cb59116100ab578063caa11c591161006f578063caa11c5914610297578063d2de2f85146102b3578063f2fde38b146102cf578063f9e521b2146102eb578063fe9fbb80146102f55761011f565b80638456cb591461021957806384780205146102235780638da5cb5b1461023f578063c3f909d41461025d578063c4f111f71461027b5761011f565b8063430bf08a116100f2578063430bf08a146101955780635f121b52146101b357806367c2a360146101cf578063715018a6146101eb57806379502c55146101f55761011f565b806312ddbc4f146101235780631828983a1461013f5780632d7530721461016f5780633f4ba83a1461018b575b5f5ffd5b61013d600480360381019061013891906110ae565b610325565b005b61015960048036038101906101549190611133565b6103c0565b6040516101669190611178565b60405180910390f35b610189600480360381019061018491906110ae565b6103dd565b005b61019361047a565b005b61019d61058f565b6040516101aa91906111a0565b60405180910390f35b6101cd60048036038101906101c89190611133565b6105b4565b005b6101e960048036038101906101e49190611133565b6106df565b005b6101f361080c565b005b6101fd61081f565b60405161021097969594939291906111c8565b60405180910390f35b610221610867565b005b61023d600480360381019061023891906110ae565b61097d565b005b610247610a1f565b60405161025491906111a0565b60405180910390f35b610265610a46565b60405161027291906112df565b60405180910390f35b610295600480360381019061029091906110ae565b610ac6565b005b6102b160048036038101906102ac91906110ae565b610b61565b005b6102cd60048036038101906102c89190611133565b610bfe565b005b6102e960048036038101906102e49190611133565b610cc9565b005b6102f3610d4d565b005b61030f600480360381019061030a9190611133565b610dd4565b60405161031c9190611178565b60405180910390f35b61032d610e26565b6101f4811115610372576040517f08c379a000000000000000000000000000000000000000000000000000000000815260040161036990611378565b60405180910390fd5b5f60015f015490508160015f01819055507fd7474166e78731bc168caca1fe1ccebbd6f3c95baee64997902e6b48f442b81a81836040516103b49291906113e0565b60405180910390a15050565b6008602052805f5260405f205f915054906101000a900460ff1681565b6103e5610e26565b61251c81111561042a576040517f08c379a00000000000000000000000000000000000000000000000000000000081526004016104219061148a565b60405180910390fd5b5f6001600201549050816001600201819055507fd7474166e78731bc168caca1fe1ccebbd6f3c95baee64997902e6b48f442b81a818360405161046e9291906114f2565b60405180910390a15050565b610482610eee565b600160050160019054906101000a900460ff166104d4576040517f08c379a00000000000000000000000000000000000000000000000000000000081526004016104cb90611576565b60405180910390fd5b5f600160050160019054906101000a900460ff1690505f600160050160016101000a81548160ff0219169083151502179055507fb56b945ac23dbdd24a8b055d56dad610f9be508849debd1adcf31dacc23e71d281600160050160019054906101000a900460ff1660405161054a9291906115de565b60405180910390a17fd7474166e78731bc168caca1fe1ccebbd6f3c95baee64997902e6b48f442b81a60015f604051610584929190611693565b60405180910390a150565b60075f9054906101000a900473ffffffffffffffffffffffffffffffffffffffff1681565b6105bc610eee565b60085f8273ffffffffffffffffffffffffffffffffffffffff1673ffffffffffffffffffffffffffffffffffffffff1681526020019081526020015f205f9054906101000a900460ff16610645576040517f08c379a000000000000000000000000000000000000000000000000000000000815260040161063c9061173d565b60405180910390fd5b5f60085f8373ffffffffffffffffffffffffffffffffffffffff1673ffffffffffffffffffffffffffffffffffffffff1681526020019081526020015f205f6101000a81548160ff0219169083151502179055508073ffffffffffffffffffffffffffffffffffffffff167f4c83ba4c13e2371ee10551a330ea9c9ec7effa65ad94aa608aa13df3e24d0c2f60405160405180910390a250565b6106e7610eee565b60085f8273ffffffffffffffffffffffffffffffffffffffff1673ffffffffffffffffffffffffffffffffffffffff1681526020019081526020015f205f9054906101000a900460ff1615610771576040517f08c379a0000000000000000000000000000000000000000000000000000000008152600401610768906117cb565b60405180910390fd5b600160085f8373ffffffffffffffffffffffffffffffffffffffff1673ffffffffffffffffffffffffffffffffffffffff1681526020019081526020015f205f6101000a81548160ff0219169083151502179055508073ffffffffffffffffffffffffffffffffffffffff167fb0be505cf6e26533f3066ac7722c3f8a5e8a123f43187c7832d333c49603b14660405160405180910390a250565b610814610eee565b61081d5f610f75565b565b6001805f015490806001015490806002015490806003015490806004015490806005015f9054906101000a900460ff16908060050160019054906101000a900460ff16905087565b61086f610eee565b600160050160019054906101000a900460ff16156108c2576040517f08c379a00000000000000000000000000000000000000000000000000000000081526004016108b990611833565b60405180910390fd5b5f600160050160019054906101000a900460ff16905060018060050160016101000a81548160ff0219169083151502179055507fb56b945ac23dbdd24a8b055d56dad610f9be508849debd1adcf31dacc23e71d281600160050160019054906101000a900460ff166040516109389291906115de565b60405180910390a17fd7474166e78731bc168caca1fe1ccebbd6f3c95baee64997902e6b48f442b81a5f6001604051610972929190611851565b60405180910390a150565b610985610e26565b66038d7ea4c680008110156109cf576040517f08c379a00000000000000000000000000000000000000000000000000000000081526004016109c6906118d5565b60405180910390fd5b5f6001600301549050816001600301819055507fd7474166e78731bc168caca1fe1ccebbd6f3c95baee64997902e6b48f442b81a8183604051610a1392919061193d565b60405180910390a15050565b5f5f5f9054906101000a900473ffffffffffffffffffffffffffffffffffffffff16905090565b610a4e61103d565b60016040518060e00160405290815f820154815260200160018201548152602001600282015481526020016003820154815260200160048201548152602001600582015f9054906101000a900460ff161515151581526020016005820160019054906101000a900460ff161515151581525050905090565b610ace610e26565b611388811115610b13576040517f08c379a0000000000000000000000000000000000000000000000000000000008152600401610b0a906119e7565b60405180910390fd5b5f600180015490508160018001819055507fd7474166e78731bc168caca1fe1ccebbd6f3c95baee64997902e6b48f442b81a8183604051610b55929190611a4f565b60405180910390a15050565b610b69610e26565b6101f4811115610bae576040517f08c379a0000000000000000000000000000000000000000000000000000000008152600401610ba590611ad3565b60405180910390fd5b5f6001600401549050816001600401819055507fd7474166e78731bc168caca1fe1ccebbd6f3c95baee64997902e6b48f442b81a8183604051610bf2929190611b3b565b60405180910390a15050565b610c06610eee565b5f60075f9054906101000a900473ffffffffffffffffffffffffffffffffffffffff1690508160075f6101000a81548173ffffffffffffffffffffffffffffffffffffffff021916908373ffffffffffffffffffffffffffffffffffffffff1602179055508173ffffffffffffffffffffffffffffffffffffffff168173ffffffffffffffffffffffffffffffffffffffff167f483bdedaaf23706a9800ac1af0d852b34927780d79f9d6ba60a80c7cad75ea3960405160405180910390a35050565b610cd1610eee565b5f73ffffffffffffffffffffffffffffffffffffffff168173ffffffffffffffffffffffffffffffffffffffff1603610d41575f6040517f1e4fbdf7000000000000000000000000000000000000000000000000000000008152600401610d3891906111a0565b60405180910390fd5b610d4a81610f75565b50565b610d55610e26565b5f60016005015f9054906101000a900460ff169050801560016005015f6101000a81548160ff0219169083151502179055507fb56b945ac23dbdd24a8b055d56dad610f9be508849debd1adcf31dacc23e71d28160016005015f9054906101000a900460ff16604051610dc9929190611bbf565b60405180910390a150565b5f60085f8373ffffffffffffffffffffffffffffffffffffffff1673ffffffffffffffffffffffffffffffffffffffff1681526020019081526020015f205f9054906101000a900460ff169050919050565b610e2e610a1f565b73ffffffffffffffffffffffffffffffffffffffff163373ffffffffffffffffffffffffffffffffffffffff161480610ead575060085f3373ffffffffffffffffffffffffffffffffffffffff1673ffffffffffffffffffffffffffffffffffffffff1681526020019081526020015f205f9054906101000a900460ff165b610eec576040517f08c379a0000000000000000000000000000000000000000000000000000000008152600401610ee390611c43565b60405180910390fd5b565b610ef6611036565b73ffffffffffffffffffffffffffffffffffffffff16610f14610a1f565b73ffffffffffffffffffffffffffffffffffffffff1614610f7357610f37611036565b6040517f118cdaa7000000000000000000000000000000000000000000000000000000008152600401610f6a91906111a0565b60405180910390fd5b565b5f5f5f9054906101000a900473ffffffffffffffffffffffffffffffffffffffff169050815f5f6101000a81548173ffffffffffffffffffffffffffffffffffffffff021916908373ffffffffffffffffffffffffffffffffffffffff1602179055508173ffffffffffffffffffffffffffffffffffffffff168173ffffffffffffffffffffffffffffffffffffffff167f8be0079c531659141344cd1fd0a4f28419497f9722a3daafe3b4186f6b6457e060405160405180910390a35050565b5f33905090565b6040518060e001604052805f81526020015f81526020015f81526020015f81526020015f81526020015f151581526020015f151581525090565b5f5ffd5b5f819050919050565b61108d8161107b565b8114611097575f5ffd5b50565b5f813590506110a881611084565b92915050565b5f602082840312156110c3576110c2611077565b5b5f6110d08482850161109a565b91505092915050565b5f73ffffffffffffffffffffffffffffffffffffffff82169050919050565b5f611102826110d9565b9050919050565b611112816110f8565b811461111c575f5ffd5b50565b5f8135905061112d81611109565b92915050565b5f6020828403121561114857611147611077565b5b5f6111558482850161111f565b91505092915050565b5f8115159050919050565b6111728161115e565b82525050565b5f60208201905061118b5f830184611169565b92915050565b61119a816110f8565b82525050565b5f6020820190506111b35f830184611191565b92915050565b6111c28161107b565b82525050565b5f60e0820190506111db5f83018a6111b9565b6111e860208301896111b9565b6111f560408301886111b9565b61120260608301876111b9565b61120f60808301866111b9565b61121c60a0830185611169565b61122960c0830184611169565b98975050505050505050565b61123e8161107b565b82525050565b61124d8161115e565b82525050565b60e082015f8201516112675f850182611235565b50602082015161127a6020850182611235565b50604082015161128d6040850182611235565b5060608201516112a06060850182611235565b5060808201516112b36080850182611235565b5060a08201516112c660a0850182611244565b5060c08201516112d960c0850182611244565b50505050565b5f60e0820190506112f25f830184611253565b92915050565b5f82825260208201905092915050565b7f436f6e6669674d616e616765723a205468726573686f6c6420746f6f206869675f8201527f6800000000000000000000000000000000000000000000000000000000000000602082015250565b5f6113626021836112f8565b915061136d82611308565b604082019050919050565b5f6020820190508181035f83015261138f81611356565b9050919050565b7f726562616c616e63655468726573686f6c6400000000000000000000000000005f82015250565b5f6113ca6012836112f8565b91506113d582611396565b602082019050919050565b5f6060820190508181035f8301526113f7816113be565b905061140660208301856111b9565b61141360408301846111b9565b9392505050565b7f436f6e6669674d616e616765723a204d617820616c6c6f636174696f6e20746f5f8201527f6f20686967680000000000000000000000000000000000000000000000000000602082015250565b5f6114746026836112f8565b915061147f8261141a565b604082019050919050565b5f6020820190508181035f8301526114a181611468565b9050919050565b7f6d6178416c6c6f636174696f6e50657263656e746167650000000000000000005f82015250565b5f6114dc6017836112f8565b91506114e7826114a8565b602082019050919050565b5f6060820190508181035f830152611509816114d0565b905061151860208301856111b9565b61152560408301846111b9565b9392505050565b7f436f6e6669674d616e616765723a204e6f7420706175736564000000000000005f82015250565b5f6115606019836112f8565b915061156b8261152c565b602082019050919050565b5f6020820190508181035f83015261158d81611554565b9050919050565b7f70617573656400000000000000000000000000000000000000000000000000005f82015250565b5f6115c86006836112f8565b91506115d382611594565b602082019050919050565b5f6060820190508181035f8301526115f5816115bc565b90506116046020830185611169565b6116116040830184611169565b9392505050565b5f819050919050565b5f819050919050565b5f61164461163f61163a84611618565b611621565b61107b565b9050919050565b6116548161162a565b82525050565b5f819050919050565b5f61167d6116786116738461165a565b611621565b61107b565b9050919050565b61168d81611663565b82525050565b5f6060820190508181035f8301526116aa816115bc565b90506116b9602083018561164b565b6116c66040830184611684565b9392505050565b7f436f6e6669674d616e616765723a2055736572206e6f7420617574686f72697a5f8201527f6564000000000000000000000000000000000000000000000000000000000000602082015250565b5f6117276022836112f8565b9150611732826116cd565b604082019050919050565b5f6020820190508181035f8301526117548161171b565b9050919050565b7f436f6e6669674d616e616765723a205573657220616c726561647920617574685f8201527f6f72697a65640000000000000000000000000000000000000000000000000000602082015250565b5f6117b56026836112f8565b91506117c08261175b565b604082019050919050565b5f6020820190508181035f8301526117e2816117a9565b9050919050565b7f436f6e6669674d616e616765723a20416c7265616479207061757365640000005f82015250565b5f61181d601d836112f8565b9150611828826117e9565b602082019050919050565b5f6020820190508181035f83015261184a81611811565b9050919050565b5f6060820190508181035f830152611868816115bc565b90506118776020830185611684565b611884604083018461164b565b9392505050565b7f436f6e6669674d616e616765723a204d696e696d756d20746f6f206c6f7700005f82015250565b5f6118bf601e836112f8565b91506118ca8261188b565b602082019050919050565b5f6020820190508181035f8301526118ec816118b3565b9050919050565b7f6d696e4465706f736974416d6f756e74000000000000000000000000000000005f82015250565b5f6119276010836112f8565b9150611932826118f3565b602082019050919050565b5f6060820190508181035f8301526119548161191b565b905061196360208301856111b9565b61197060408301846111b9565b9392505050565b7f436f6e6669674d616e616765723a2050657263656e7461676520746f6f2068695f8201527f6768000000000000000000000000000000000000000000000000000000000000602082015250565b5f6119d16022836112f8565b91506119dc82611977565b604082019050919050565b5f6020820190508181035f8301526119fe816119c5565b9050919050565b7f726562616c616e636550657263656e74616765000000000000000000000000005f82015250565b5f611a396013836112f8565b9150611a4482611a05565b602082019050919050565b5f6060820190508181035f830152611a6681611a2d565b9050611a7560208301856111b9565b611a8260408301846111b9565b9392505050565b7f436f6e6669674d616e616765723a2046656520746f6f206869676800000000005f82015250565b5f611abd601b836112f8565b9150611ac882611a89565b602082019050919050565b5f6020820190508181035f830152611aea81611ab1565b9050919050565b7f656d657267656e637957697468647261774665650000000000000000000000005f82015250565b5f611b256014836112f8565b9150611b3082611af1565b602082019050919050565b5f6060820190508181035f830152611b5281611b19565b9050611b6160208301856111b9565b611b6e60408301846111b9565b9392505050565b7f6175746f526562616c616e6365456e61626c65640000000000000000000000005f82015250565b5f611ba96014836112f8565b9150611bb482611b75565b602082019050919050565b5f6060820190508181035f830152611bd681611b9d565b9050611be56020830185611169565b611bf26040830184611169565b9392505050565b7f436f6e6669674d616e616765723a204e6f7420617574686f72697a65640000005f82015250565b5f611c2d601d836112f8565b9150611c3882611bf9565b602082019050919050565b5f6020820190508181035f830152611c5a81611c21565b905091905056fea2646970667358221220f4c5e5d24f46b3f585b4e8bbb6cd42f960083340b0e17bbda4d57f40f1af324864736f6c634300081e0033","linkReferences":{}},"methodIdentifiers":{"authorizeUser(address)":"67c2a360","authorizedUsers(address)":"1828983a","config()":"79502c55","deauthorizeUser(address)":"5f121b52","getConfig()":"c3f909d4","isAuthorized(address)":"fe9fbb80","owner()":"8da5cb5b","pause()":"8456cb59","renounceOwnership()":"715018a6","toggleAutoRebalance()":"f9e521b2","transferOwnership(address)":"f2fde38b","unpause()":"3f4ba83a","updateEmergencyWithdrawFee(uint256)":"caa11c59","updateMaxAllocationPercentage(uint256)":"2d753072","updateMinDepositAmount(uint256)":"84780205","updateRebalancePercentage(uint256)":"c4f111f7","updateRebalanceThreshold(uint256)":"12ddbc4f","updateVaultAddress(address)":"d2de2f85","vaultAddress()":"430bf08a"},"id":58}