{"abi":[{"type":"constructor","inputs":[{"name":"_asset","type":"address","internalType":"address"}],"stateMutability":"nonpayable"},{"type":"function","name":"ASSET","inputs":[],"outputs":[{"name":"","type":"address","internalType":"contract ERC20"}],"stateMutability":"view"},{"type":"function","name":"allowance","inputs":[{"name":"owner","type":"address","internalType":"address"},{"name":"spender","type":"address","internalType":"address"}],"outputs":[{"name":"","type":"uint256","internalType":"uint256"}],"stateMutability":"view"},{"type":"function","name":"approve","inputs":[{"name":"spender","type":"address","internalType":"address"},{"name":"value","type":"uint256","internalType":"uint256"}],"outputs":[{"name":"","type":"bool","internalType":"bool"}],"stateMutability":"nonpayable"},{"type":"function","name":"balanceOf","inputs":[{"name":"account","type":"address","internalType":"address"}],"outputs":[{"name":"","type":"uint256","internalType":"uint256"}],"stateMutability":"view"},{"type":"function","name":"borrowRatePerBlock","inputs":[],"outputs":[{"name":"","type":"uint256","internalType":"uint256"}],"stateMutability":"view"},{"type":"function","name":"decimals","inputs":[],"outputs":[{"name":"","type":"uint8","internalType":"uint8"}],"stateMutability":"view"},{"type":"function","name":"exchangeRateCurrent","inputs":[],"outputs":[{"name":"","type":"uint256","internalType":"uint256"}],"stateMutability":"view"},{"type":"function","name":"mint","inputs":[{"name":"mintAmount","type":"uint256","internalType":"uint256"}],"outputs":[{"name":"","type":"uint256","internalType":"uint256"}],"stateMutability":"nonpayable"},{"type":"function","name":"name","inputs":[],"outputs":[{"name":"","type":"string","internalType":"string"}],"stateMutability":"view"},{"type":"function","name":"redeem","inputs":[{"name":"redeemTokens","type":"uint256","internalType":"uint256"}],"outputs":[{"name":"","type":"uint256","internalType":"uint256"}],"stateMutability":"nonpayable"},{"type":"function","name":"redeemUnderlying","inputs":[{"name":"redeemAmount","type":"uint256","internalType":"uint256"}],"outputs":[{"name":"","type":"uint256","internalType":"uint256"}],"stateMutability":"nonpayable"},{"type":"function","name":"setExchangeRate","inputs":[{"name":"newRate","type":"uint256","internalType":"uint256"}],"outputs":[],"stateMutability":"nonpayable"},{"type":"function","name":"setSupplyRatePerBlock","inputs":[{"name":"newRate","type":"uint256","internalType":"uint256"}],"outputs":[],"stateMutability":"nonpayable"},{"type":"function","name":"supplyRatePerBlock","inputs":[],"outputs":[{"name":"","type":"uint256","internalType":"uint256"}],"stateMutability":"view"},{"type":"function","name":"symbol","inputs":[],"outputs":[{"name":"","type":"string","internalType":"string"}],"stateMutability":"view"},{"type":"function","name":"totalSupply","inputs":[],"outputs":[{"name":"","type":"uint256","internalType":"uint256"}],"stateMutability":"view"},{"type":"function","name":"transfer","inputs":[{"name":"to","type":"address","internalType":"address"},{"name":"value","type":"uint256","internalType":"uint256"}],"outputs":[{"name":"","type":"bool","internalType":"bool"}],"stateMutability":"nonpayable"},{"type":"function","name":"transferFrom","inputs":[{"name":"from","type":"address","internalType":"address"},{"name":"to","type":"address","internalType":"address"},{"name":"value","type":"uint256","internalType":"uint256"}],"outputs":[{"name":"","type":"bool","internalType":"bool"}],"stateMutability":"nonpayable"},{"type":"event","name":"Approval","inputs":[{"name":"owner","type":"address","indexed":true,"internalType":"address"},{"name":"spender","type":"address","indexed":true,"internalType":"address"},{"name":"value","type":"uint256","indexed":false,"internalType":"uint256"}],"anonymous":false},{"type":"event","name":"Mint","inputs":[{"name":"minter","type":"address","indexed":true,"internalType":"address"},{"name":"mintAmount","type":"uint256","indexed":false,"internalType":"uint256"},{"name":"mintTokens","type":"uint256","indexed":false,"internalType":"uint256"}],"anonymous":false},{"type":"event","name":"Redeem","inputs":[{"name":"redeemer","type":"address","indexed":true,"internalType":"address"},{"name":"redeemAmount","type":"uint256","indexed":false,"internalType":"uint256"},{"name":"redeemTokens","type":"uint256","indexed":false,"internalType":"uint256"}],"anonymous":false},{"type":"event","name":"Transfer","inputs":[{"name":"from","type":"address","indexed":true,"internalType":"address"},{"name":"to","type":"address","indexed":true,"internalType":"address"},{"name":"value","type":"uint256","indexed":false,"internalType":"uint256"}],"anonymous":false},{"type":"error","name":"ERC20InsufficientAllowance","inputs":[{"name":"spender","type":"address","internalType":"address"},{"name":"allowance","type":"uint256","internalType":"uint256"},{"name":"needed","type":"uint256","internalType":"uint256"}]},{"type":"error","name":"ERC20InsufficientBalance","inputs":[{"name":"sender","type":"address","internalType":"address"},{"name":"balance","type":"uint256","internalType":"uint256"},{"name":"needed","type":"uint256","internalType":"uint256"}]},{"type":"error","name":"ERC20InvalidApprover","inputs":[{"name":"approver","type":"address","internalType":"address"}]},{"type":"error","name":"ERC20InvalidReceiver","inputs":[{"name":"receiver","type":"address","internalType":"address"}]},{"type":"error","name":"ERC20InvalidSender","inputs":[{"name":"sender","type":"address","internalType":"address"}]},{"type":"error","name":"ERC20InvalidSpender","inputs":[{"name":"spender","type":"address","internalType":"address"}]}],"bytecode":{"object":"0x60a060405234801561000f575f5ffd5b50604051611eab380380611eab83398181016040528101906100319190610184565b6040518060400160405280601381526020017f4d6f636b20436f6d706f756e6420546f6b656e000000000000000000000000008152506040518060400160405280600581526020017f6d434f4d5000000000000000000000000000000000000000000000000000000081525081600390816100ac91906103ec565b5080600490816100bc91906103ec565b5050508073ffffffffffffffffffffffffffffffffffffffff1660808173ffffffffffffffffffffffffffffffffffffffff1681525050670de0b6b3a76400006006819055505f60058190555064058989c5346007819055506302b5da46600881905550506104bb565b5f5ffd5b5f73ffffffffffffffffffffffffffffffffffffffff82169050919050565b5f6101538261012a565b9050919050565b61016381610149565b811461016d575f5ffd5b50565b5f8151905061017e8161015a565b92915050565b5f6020828403121561019957610198610126565b5b5f6101a684828501610170565b91505092915050565b5f81519050919050565b7f4e487b71000000000000000000000000000000000000000000000000000000005f52604160045260245ffd5b7f4e487b71000000000000000000000000000000000000000000000000000000005f52602260045260245ffd5b5f600282049050600182168061022a57607f821691505b60208210810361023d5761023c6101e6565b5b50919050565b5f819050815f5260205f209050919050565b5f6020601f8301049050919050565b5f82821b905092915050565b5f6008830261029f7fffffffffffffffffffffffffffffffffffffffffffffffffffffffffffffffff82610264565b6102a98683610264565b95508019841693508086168417925050509392505050565b5f819050919050565b5f819050919050565b5f6102ed6102e86102e3846102c1565b6102ca565b6102c1565b9050919050565b5f819050919050565b610306836102d3565b61031a610312826102f4565b848454610270565b825550505050565b5f5f905090565b610331610322565b61033c8184846102fd565b505050565b5b8181101561035f576103545f82610329565b600181019050610342565b5050565b601f8211156103a45761037581610243565b61037e84610255565b8101602085101561038d578190505b6103a161039985610255565b830182610341565b50505b505050565b5f82821c905092915050565b5f6103c45f19846008026103a9565b1980831691505092915050565b5f6103dc83836103b5565b9150826002028217905092915050565b6103f5826101af565b67ffffffffffffffff81111561040e5761040d6101b9565b5b6104188254610213565b610423828285610363565b5f60209050601f831160018114610454575f8415610442578287015190505b61044c85826103d1565b8655506104b3565b601f19841661046286610243565b5f5b8281101561048957848901518255600182019150602085019450602081019050610464565b868310156104a657848901516104a2601f8916826103b5565b8355505b6001600288020188555050505b505050505050565b6080516119c36104e85f395f81816104b30152818161057b01528181610744015261094901526119c35ff3fe608060405234801561000f575f5ffd5b5060043610610114575f3560e01c8063a0712d68116100a0578063c7437e211161006f578063c7437e211461030a578063db006a7514610326578063db068e0e14610356578063dd62ed3e14610372578063f8f9da28146103a257610114565b8063a0712d681461026e578063a9059cbb1461029e578063ae9d70b0146102ce578063bd6d894d146102ec57610114565b8063313ce567116100e7578063313ce567146101b45780634800d97f146101d257806370a08231146101f0578063852a12e31461022057806395d89b411461025057610114565b806306fdde0314610118578063095ea7b31461013657806318160ddd1461016657806323b872dd14610184575b5f5ffd5b6101206103c0565b60405161012d919061124a565b60405180910390f35b610150600480360381019061014b91906112fb565b610450565b60405161015d9190611353565b60405180910390f35b61016e610472565b60405161017b919061137b565b60405180910390f35b61019e60048036038101906101999190611394565b61047b565b6040516101ab9190611353565b60405180910390f35b6101bc6104a9565b6040516101c991906113ff565b60405180910390f35b6101da6104b1565b6040516101e79190611473565b60405180910390f35b61020a6004803603810190610205919061148c565b6104d5565b604051610217919061137b565b60405180910390f35b61023a600480360381019061023591906114b7565b6104e6565b604051610247919061137b565b60405180910390f35b6102586106b0565b604051610265919061124a565b60405180910390f35b610288600480360381019061028391906114b7565b610740565b604051610295919061137b565b60405180910390f35b6102b860048036038101906102b391906112fb565b6108c1565b6040516102c59190611353565b60405180910390f35b6102d66108e3565b6040516102e3919061137b565b60405180910390f35b6102f46108ec565b604051610301919061137b565b60405180910390f35b610324600480360381019061031f91906114b7565b6108f5565b005b610340600480360381019061033b91906114b7565b6108ff565b60405161034d919061137b565b60405180910390f35b610370600480360381019061036b91906114b7565b610a7e565b005b61038c600480360381019061038791906114e2565b610a88565b604051610399919061137b565b60405180910390f35b6103aa610b0a565b6040516103b7919061137b565b60405180910390f35b6060600380546103cf9061154d565b80601f01602080910402602001604051908101604052809291908181526020018280546103fb9061154d565b80156104465780601f1061041d57610100808354040283529160200191610446565b820191905f5260205f20905b81548152906001019060200180831161042957829003601f168201915b5050505050905090565b5f5f61045a610b13565b9050610467818585610b1a565b600191505092915050565b5f600254905090565b5f5f610485610b13565b9050610492858285610b2c565b61049d858585610bbf565b60019150509392505050565b5f6012905090565b7f000000000000000000000000000000000000000000000000000000000000000081565b5f6104df82610caf565b9050919050565b5f5f600654670de0b6b3a7640000846104ff91906115aa565b6105099190611618565b905080610515336104d5565b1015610556576040517f08c379a000000000000000000000000000000000000000000000000000000000815260040161054d906116b8565b60405180910390fd5b6105603382610cf4565b8060055f82825461057191906116d6565b925050819055505f7f000000000000000000000000000000000000000000000000000000000000000073ffffffffffffffffffffffffffffffffffffffff1663a9059cbb33866040518363ffffffff1660e01b81526004016105d4929190611718565b6020604051808303815f875af11580156105f0573d5f5f3e3d5ffd5b505050506040513d601f19601f820116820180604052508101906106149190611769565b905080610656576040517f08c379a000000000000000000000000000000000000000000000000000000000815260040161064d90611804565b60405180910390fd5b3373ffffffffffffffffffffffffffffffffffffffff167fe5b754fb1abb7f01b499791d0b820ae3b6af3424ac1c59768edb53f4ec31a929858460405161069e929190611822565b60405180910390a25f92505050919050565b6060600480546106bf9061154d565b80601f01602080910402602001604051908101604052809291908181526020018280546106eb9061154d565b80156107365780601f1061070d57610100808354040283529160200191610736565b820191905f5260205f20905b81548152906001019060200180831161071957829003601f168201915b5050505050905090565b5f5f7f000000000000000000000000000000000000000000000000000000000000000073ffffffffffffffffffffffffffffffffffffffff166323b872dd3330866040518463ffffffff1660e01b815260040161079f93929190611849565b6020604051808303815f875af11580156107bb573d5f5f3e3d5ffd5b505050506040513d601f19601f820116820180604052508101906107df9190611769565b905080610821576040517f08c379a0000000000000000000000000000000000000000000000000000000008152600401610818906118ee565b60405180910390fd5b5f600654670de0b6b3a76400008561083991906115aa565b6108439190611618565b905061084f3382610d73565b8060055f828254610860919061190c565b925050819055503373ffffffffffffffffffffffffffffffffffffffff167f4c209b5fc8ad50758f13e2e1088ba56a560dff690a1c6fef26394f4c03821c4f85836040516108af929190611822565b60405180910390a25f92505050919050565b5f5f6108cb610b13565b90506108d8818585610bbf565b600191505092915050565b5f600754905090565b5f600654905090565b8060078190555050565b5f5f670de0b6b3a76400006006548461091891906115aa565b6109229190611618565b905061092e3384610cf4565b8260055f82825461093f91906116d6565b925050819055505f7f000000000000000000000000000000000000000000000000000000000000000073ffffffffffffffffffffffffffffffffffffffff1663a9059cbb33846040518363ffffffff1660e01b81526004016109a2929190611718565b6020604051808303815f875af11580156109be573d5f5f3e3d5ffd5b505050506040513d601f19601f820116820180604052508101906109e29190611769565b905080610a24576040517f08c379a0000000000000000000000000000000000000000000000000000000008152600401610a1b90611804565b60405180910390fd5b3373ffffffffffffffffffffffffffffffffffffffff167fe5b754fb1abb7f01b499791d0b820ae3b6af3424ac1c59768edb53f4ec31a9298386604051610a6c929190611822565b60405180910390a25f92505050919050565b8060068190555050565b5f60015f8473ffffffffffffffffffffffffffffffffffffffff1673ffffffffffffffffffffffffffffffffffffffff1681526020019081526020015f205f8373ffffffffffffffffffffffffffffffffffffffff1673ffffffffffffffffffffffffffffffffffffffff1681526020019081526020015f2054905092915050565b5f600854905090565b5f33905090565b610b278383836001610df2565b505050565b5f610b378484610a88565b90507fffffffffffffffffffffffffffffffffffffffffffffffffffffffffffffffff811015610bb95781811015610baa578281836040517ffb8f41b2000000000000000000000000000000000000000000000000000000008152600401610ba19392919061193f565b60405180910390fd5b610bb884848484035f610df2565b5b50505050565b5f73ffffffffffffffffffffffffffffffffffffffff168373ffffffffffffffffffffffffffffffffffffffff1603610c2f575f6040517f96c6fd1e000000000000000000000000000000000000000000000000000000008152600401610c269190611974565b60405180910390fd5b5f73ffffffffffffffffffffffffffffffffffffffff168273ffffffffffffffffffffffffffffffffffffffff1603610c9f575f6040517fec442f05000000000000000000000000000000000000000000000000000000008152600401610c969190611974565b60405180910390fd5b610caa838383610fc1565b505050565b5f5f5f8373ffffffffffffffffffffffffffffffffffffffff1673ffffffffffffffffffffffffffffffffffffffff1681526020019081526020015f20549050919050565b5f73ffffffffffffffffffffffffffffffffffffffff168273ffffffffffffffffffffffffffffffffffffffff1603610d64575f6040517f96c6fd1e000000000000000000000000000000000000000000000000000000008152600401610d5b9190611974565b60405180910390fd5b610d6f825f83610fc1565b5050565b5f73ffffffffffffffffffffffffffffffffffffffff168273ffffffffffffffffffffffffffffffffffffffff1603610de3575f6040517fec442f05000000000000000000000000000000000000000000000000000000008152600401610dda9190611974565b60405180910390fd5b610dee5f8383610fc1565b5050565b5f73ffffffffffffffffffffffffffffffffffffffff168473ffffffffffffffffffffffffffffffffffffffff1603610e62575f6040517fe602df05000000000000000000000000000000000000000000000000000000008152600401610e599190611974565b60405180910390fd5b5f73ffffffffffffffffffffffffffffffffffffffff168373ffffffffffffffffffffffffffffffffffffffff1603610ed2575f6040517f94280d62000000000000000000000000000000000000000000000000000000008152600401610ec99190611974565b60405180910390fd5b8160015f8673ffffffffffffffffffffffffffffffffffffffff1673ffffffffffffffffffffffffffffffffffffffff1681526020019081526020015f205f8573ffffffffffffffffffffffffffffffffffffffff1673ffffffffffffffffffffffffffffffffffffffff1681526020019081526020015f20819055508015610fbb578273ffffffffffffffffffffffffffffffffffffffff168473ffffffffffffffffffffffffffffffffffffffff167f8c5be1e5ebec7d5bd14f71427d1e84f3dd0314c0f7b2291e5b200ac8c7c3b92584604051610fb2919061137b565b60405180910390a35b50505050565b5f73ffffffffffffffffffffffffffffffffffffffff168373ffffffffffffffffffffffffffffffffffffffff1603611011578060025f828254611005919061190c565b925050819055506110df565b5f5f5f8573ffffffffffffffffffffffffffffffffffffffff1673ffffffffffffffffffffffffffffffffffffffff1681526020019081526020015f205490508181101561109a578381836040517fe450d38c0000000000000000000000000000000000000000000000000000000081526004016110919392919061193f565b60405180910390fd5b8181035f5f8673ffffffffffffffffffffffffffffffffffffffff1673ffffffffffffffffffffffffffffffffffffffff1681526020019081526020015f2081905550505b5f73ffffffffffffffffffffffffffffffffffffffff168273ffffffffffffffffffffffffffffffffffffffff1603611126578060025f8282540392505081905550611170565b805f5f8473ffffffffffffffffffffffffffffffffffffffff1673ffffffffffffffffffffffffffffffffffffffff1681526020019081526020015f205f82825401925050819055505b8173ffffffffffffffffffffffffffffffffffffffff168373ffffffffffffffffffffffffffffffffffffffff167fddf252ad1be2c89b69c2b068fc378daa952ba7f163c4a11628f55a4df523b3ef836040516111cd919061137b565b60405180910390a3505050565b5f81519050919050565b5f82825260208201905092915050565b8281835e5f83830152505050565b5f601f19601f8301169050919050565b5f61121c826111da565b61122681856111e4565b93506112368185602086016111f4565b61123f81611202565b840191505092915050565b5f6020820190508181035f8301526112628184611212565b905092915050565b5f5ffd5b5f73ffffffffffffffffffffffffffffffffffffffff82169050919050565b5f6112978261126e565b9050919050565b6112a78161128d565b81146112b1575f5ffd5b50565b5f813590506112c28161129e565b92915050565b5f819050919050565b6112da816112c8565b81146112e4575f5ffd5b50565b5f813590506112f5816112d1565b92915050565b5f5f604083850312156113115761131061126a565b5b5f61131e858286016112b4565b925050602061132f858286016112e7565b9150509250929050565b5f8115159050919050565b61134d81611339565b82525050565b5f6020820190506113665f830184611344565b92915050565b611375816112c8565b82525050565b5f60208201905061138e5f83018461136c565b92915050565b5f5f5f606084860312156113ab576113aa61126a565b5b5f6113b8868287016112b4565b93505060206113c9868287016112b4565b92505060406113da868287016112e7565b9150509250925092565b5f60ff82169050919050565b6113f9816113e4565b82525050565b5f6020820190506114125f8301846113f0565b92915050565b5f819050919050565b5f61143b6114366114318461126e565b611418565b61126e565b9050919050565b5f61144c82611421565b9050919050565b5f61145d82611442565b9050919050565b61146d81611453565b82525050565b5f6020820190506114865f830184611464565b92915050565b5f602082840312156114a1576114a061126a565b5b5f6114ae848285016112b4565b91505092915050565b5f602082840312156114cc576114cb61126a565b5b5f6114d9848285016112e7565b91505092915050565b5f5f604083850312156114f8576114f761126a565b5b5f611505858286016112b4565b9250506020611516858286016112b4565b9150509250929050565b7f4e487b71000000000000000000000000000000000000000000000000000000005f52602260045260245ffd5b5f600282049050600182168061156457607f821691505b60208210810361157757611576611520565b5b50919050565b7f4e487b71000000000000000000000000000000000000000000000000000000005f52601160045260245ffd5b5f6115b4826112c8565b91506115bf836112c8565b92508282026115cd816112c8565b915082820484148315176115e4576115e361157d565b5b5092915050565b7f4e487b71000000000000000000000000000000000000000000000000000000005f52601260045260245ffd5b5f611622826112c8565b915061162d836112c8565b92508261163d5761163c6115eb565b5b828204905092915050565b7f4d6f636b436f6d706f756e64506f6f6c3a20496e73756666696369656e7420625f8201527f616c616e63650000000000000000000000000000000000000000000000000000602082015250565b5f6116a26026836111e4565b91506116ad82611648565b604082019050919050565b5f6020820190508181035f8301526116cf81611696565b9050919050565b5f6116e0826112c8565b91506116eb836112c8565b92508282039050818111156117035761170261157d565b5b92915050565b6117128161128d565b82525050565b5f60408201905061172b5f830185611709565b611738602083018461136c565b9392505050565b61174881611339565b8114611752575f5ffd5b50565b5f815190506117638161173f565b92915050565b5f6020828403121561177e5761177d61126a565b5b5f61178b84828501611755565b91505092915050565b7f4d6f636b436f6d706f756e64506f6f6c3a205472616e73666572206661696c655f8201527f6400000000000000000000000000000000000000000000000000000000000000602082015250565b5f6117ee6021836111e4565b91506117f982611794565b604082019050919050565b5f6020820190508181035f83015261181b816117e2565b9050919050565b5f6040820190506118355f83018561136c565b611842602083018461136c565b9392505050565b5f60608201905061185c5f830186611709565b6118696020830185611709565b611876604083018461136c565b949350505050565b7f4d6f636b436f6d706f756e64506f6f6c3a207472616e7366657246726f6d20665f8201527f61696c6564000000000000000000000000000000000000000000000000000000602082015250565b5f6118d86025836111e4565b91506118e38261187e565b604082019050919050565b5f6020820190508181035f830152611905816118cc565b9050919050565b5f611916826112c8565b9150611921836112c8565b92508282019050808211156119395761193861157d565b5b92915050565b5f6060820190506119525f830186611709565b61195f602083018561136c565b61196c604083018461136c565b949350505050565b5f6020820190506119875f830184611709565b9291505056fea2646970667358221220ac54bd29e8697935a46e439f7a8439a69aa75c01160452549eaa6c936b4894ff64736f6c634300081e0033","linkReferences":{}},"methodIdentifiers":{"ASSET()":"4800d97f","allowance(address,address)":"dd62ed3e","approve(address,uint256)":"095ea7b3","balanceOf(address)":"70a08231","borrowRatePerBlock()":"f8f9da28","decimals()":"313ce567","exchangeRateCurrent()":"bd6d894d","mint(uint256)":"a0712d68","name()":"06fdde03","redeem(uint256)":"db006a75","redeemUnderlying(uint256)":"852a12e3","setExchangeRate(uint256)":"db068e0e","setSupplyRatePerBlock(uint256)":"c7437e21","supplyRatePerBlock()":"ae9d70b0","symbol()":"95d89b41","totalSupply()":"18160ddd","transfer(address,uint256)":"a9059cbb","transferFrom(address,address,uint256)":"23b872dd"},"id":67}