{"abi":[{"type":"constructor","inputs":[{"name":"_asset","type":"address","internalType":"address"}],"stateMutability":"nonpayable"},{"type":"function","name":"ASSET","inputs":[],"outputs":[{"name":"","type":"address","internalType":"contract ERC20"}],"stateMutability":"view"},{"type":"function","name":"accrueInterest","inputs":[],"outputs":[],"stateMutability":"nonpayable"},{"type":"function","name":"balanceOf","inputs":[{"name":"account","type":"address","internalType":"address"}],"outputs":[{"name":"","type":"uint256","internalType":"uint256"}],"stateMutability":"view"},{"type":"function","name":"borrowRatePerBlock","inputs":[],"outputs":[{"name":"","type":"uint256","internalType":"uint256"}],"stateMutability":"view"},{"type":"function","name":"exchangeRateCurrent","inputs":[],"outputs":[{"name":"","type":"uint256","internalType":"uint256"}],"stateMutability":"view"},{"type":"function","name":"mint","inputs":[{"name":"mintAmount","type":"uint256","internalType":"uint256"}],"outputs":[{"name":"","type":"uint256","internalType":"uint256"}],"stateMutability":"nonpayable"},{"type":"function","name":"redeem","inputs":[{"name":"redeemTokens","type":"uint256","internalType":"uint256"}],"outputs":[{"name":"","type":"uint256","internalType":"uint256"}],"stateMutability":"nonpayable"},{"type":"function","name":"redeemUnderlying","inputs":[{"name":"redeemAmount","type":"uint256","internalType":"uint256"}],"outputs":[{"name":"","type":"uint256","internalType":"uint256"}],"stateMutability":"nonpayable"},{"type":"function","name":"setBorrowRatePerBlock","inputs":[{"name":"newRate","type":"uint256","internalType":"uint256"}],"outputs":[],"stateMutability":"nonpayable"},{"type":"function","name":"setSupplyRatePerBlock","inputs":[{"name":"newRate","type":"uint256","internalType":"uint256"}],"outputs":[],"stateMutability":"nonpayable"},{"type":"function","name":"supplyRatePerBlock","inputs":[],"outputs":[{"name":"","type":"uint256","internalType":"uint256"}],"stateMutability":"view"},{"type":"event","name":"Mint","inputs":[{"name":"minter","type":"address","indexed":false,"internalType":"address"},{"name":"mintAmount","type":"uint256","indexed":false,"internalType":"uint256"},{"name":"mintTokens","type":"uint256","indexed":false,"internalType":"uint256"}],"anonymous":false},{"type":"event","name":"Redeem","inputs":[{"name":"redeemer","type":"address","indexed":false,"internalType":"address"},{"name":"redeemAmount","type":"uint256","indexed":false,"internalType":"uint256"},{"name":"redeemTokens","type":"uint256","indexed":false,"internalType":"uint256"}],"anonymous":false}],"bytecode":{"object":"0x60a060405234801561000f575f5ffd5b50604051610fa8380380610fa8833981810160405281019061003191906100f5565b8073ffffffffffffffffffffffffffffffffffffffff1660808173ffffffffffffffffffffffffffffffffffffffff1681525050670de0b6b3a76400006001819055505f5f8190555064058989c35f6003819055506302b5da4660048190555050610120565b5f5ffd5b5f73ffffffffffffffffffffffffffffffffffffffff82169050919050565b5f6100c48261009b565b9050919050565b6100d4816100ba565b81146100de575f5ffd5b50565b5f815190506100ef816100cb565b92915050565b5f6020828403121561010a57610109610097565b5b5f610117848285016100e1565b91505092915050565b608051610e5b61014d5f395f8181610227015281816103c1015281816104e5015261078e0152610e5b5ff3fe608060405234801561000f575f5ffd5b50600436106100a7575f3560e01c8063ae9d70b01161006f578063ae9d70b014610163578063bd6d894d14610181578063c7437e211461019f578063cbf4d877146101bb578063db006a75146101d7578063f8f9da2814610207576100a7565b80634800d97f146100ab57806370a08231146100c9578063852a12e3146100f9578063a0712d6814610129578063a6afed9514610159575b5f5ffd5b6100b3610225565b6040516100c09190610931565b60405180910390f35b6100e360048036038101906100de9190610989565b610249565b6040516100f091906109cc565b60405180910390f35b610113600480360381019061010e9190610a0f565b6102af565b60405161012091906109cc565b60405180910390f35b610143600480360381019061013e9190610a0f565b6104e1565b60405161015091906109cc565b60405180910390f35b610161610695565b005b61016b6106d6565b60405161017891906109cc565b60405180910390f35b6101896106df565b60405161019691906109cc565b60405180910390f35b6101b960048036038101906101b49190610a0f565b6106e8565b005b6101d560048036038101906101d09190610a0f565b6106f2565b005b6101f160048036038101906101ec9190610a0f565b6106fc565b6040516101fe91906109cc565b60405180910390f35b61020f6108ae565b60405161021c91906109cc565b60405180910390f35b7f000000000000000000000000000000000000000000000000000000000000000081565b5f670de0b6b3a764000060015460025f8573ffffffffffffffffffffffffffffffffffffffff1673ffffffffffffffffffffffffffffffffffffffff1681526020019081526020015f205461029e9190610a67565b6102a89190610ad5565b9050919050565b5f5f600154670de0b6b3a7640000846102c89190610a67565b6102d29190610ad5565b90508060025f3373ffffffffffffffffffffffffffffffffffffffff1673ffffffffffffffffffffffffffffffffffffffff1681526020019081526020015f20541015610354576040517f08c379a000000000000000000000000000000000000000000000000000000000815260040161034b90610b85565b60405180910390fd5b8060025f3373ffffffffffffffffffffffffffffffffffffffff1673ffffffffffffffffffffffffffffffffffffffff1681526020019081526020015f205f8282546103a09190610ba3565b92505081905550805f5f8282546103b79190610ba3565b925050819055505f7f000000000000000000000000000000000000000000000000000000000000000073ffffffffffffffffffffffffffffffffffffffff1663a9059cbb33866040518363ffffffff1660e01b815260040161041a929190610be5565b6020604051808303815f875af1158015610436573d5f5f3e3d5ffd5b505050506040513d601f19601f8201168201806040525081019061045a9190610c41565b90508061049c576040517f08c379a000000000000000000000000000000000000000000000000000000000815260040161049390610cdc565b60405180910390fd5b7fe5b754fb1abb7f01b499791d0b820ae3b6af3424ac1c59768edb53f4ec31a9293385846040516104cf93929190610cfa565b60405180910390a15f92505050919050565b5f5f7f000000000000000000000000000000000000000000000000000000000000000073ffffffffffffffffffffffffffffffffffffffff166323b872dd3330866040518463ffffffff1660e01b815260040161054093929190610d2f565b6020604051808303815f875af115801561055c573d5f5f3e3d5ffd5b505050506040513d601f19601f820116820180604052508101906105809190610c41565b9050806105c2576040517f08c379a00000000000000000000000000000000000000000000000000000000081526004016105b990610dd4565b60405180910390fd5b5f600154670de0b6b3a7640000856105da9190610a67565b6105e49190610ad5565b90508060025f3373ffffffffffffffffffffffffffffffffffffffff1673ffffffffffffffffffffffffffffffffffffffff1681526020019081526020015f205f8282546106329190610df2565b92505081905550805f5f8282546106499190610df2565b925050819055507f4c209b5fc8ad50758f13e2e1088ba56a560dff690a1c6fef26394f4c03821c4f33858360405161068393929190610cfa565b60405180910390a15f92505050919050565b5f6003549050670de0b6b3a7640000600154826106b29190610a67565b6106bc9190610ad5565b60015f8282546106cc9190610df2565b9250508190555050565b5f600354905090565b5f600154905090565b8060038190555050565b8060048190555050565b5f5f670de0b6b3a7640000600154846107159190610a67565b61071f9190610ad5565b90508260025f3373ffffffffffffffffffffffffffffffffffffffff1673ffffffffffffffffffffffffffffffffffffffff1681526020019081526020015f205f82825461076d9190610ba3565b92505081905550825f5f8282546107849190610ba3565b925050819055505f7f000000000000000000000000000000000000000000000000000000000000000073ffffffffffffffffffffffffffffffffffffffff1663a9059cbb33846040518363ffffffff1660e01b81526004016107e7929190610be5565b6020604051808303815f875af1158015610803573d5f5f3e3d5ffd5b505050506040513d601f19601f820116820180604052508101906108279190610c41565b905080610869576040517f08c379a000000000000000000000000000000000000000000000000000000000815260040161086090610cdc565b60405180910390fd5b7fe5b754fb1abb7f01b499791d0b820ae3b6af3424ac1c59768edb53f4ec31a92933838660405161089c93929190610cfa565b60405180910390a15f92505050919050565b5f600454905090565b5f73ffffffffffffffffffffffffffffffffffffffff82169050919050565b5f819050919050565b5f6108f96108f46108ef846108b7565b6108d6565b6108b7565b9050919050565b5f61090a826108df565b9050919050565b5f61091b82610900565b9050919050565b61092b81610911565b82525050565b5f6020820190506109445f830184610922565b92915050565b5f5ffd5b5f610958826108b7565b9050919050565b6109688161094e565b8114610972575f5ffd5b50565b5f813590506109838161095f565b92915050565b5f6020828403121561099e5761099d61094a565b5b5f6109ab84828501610975565b91505092915050565b5f819050919050565b6109c6816109b4565b82525050565b5f6020820190506109df5f8301846109bd565b92915050565b6109ee816109b4565b81146109f8575f5ffd5b50565b5f81359050610a09816109e5565b92915050565b5f60208284031215610a2457610a2361094a565b5b5f610a31848285016109fb565b91505092915050565b7f4e487b71000000000000000000000000000000000000000000000000000000005f52601160045260245ffd5b5f610a71826109b4565b9150610a7c836109b4565b9250828202610a8a816109b4565b91508282048414831517610aa157610aa0610a3a565b5b5092915050565b7f4e487b71000000000000000000000000000000000000000000000000000000005f52601260045260245ffd5b5f610adf826109b4565b9150610aea836109b4565b925082610afa57610af9610aa8565b5b828204905092915050565b5f82825260208201905092915050565b7f4d6f636b436f6d706f756e64506f6f6c3a20496e73756666696369656e7420625f8201527f616c616e63650000000000000000000000000000000000000000000000000000602082015250565b5f610b6f602683610b05565b9150610b7a82610b15565b604082019050919050565b5f6020820190508181035f830152610b9c81610b63565b9050919050565b5f610bad826109b4565b9150610bb8836109b4565b9250828203905081811115610bd057610bcf610a3a565b5b92915050565b610bdf8161094e565b82525050565b5f604082019050610bf85f830185610bd6565b610c0560208301846109bd565b9392505050565b5f8115159050919050565b610c2081610c0c565b8114610c2a575f5ffd5b50565b5f81519050610c3b81610c17565b92915050565b5f60208284031215610c5657610c5561094a565b5b5f610c6384828501610c2d565b91505092915050565b7f4d6f636b436f6d706f756e64506f6f6c3a205472616e73666572206661696c655f8201527f6400000000000000000000000000000000000000000000000000000000000000602082015250565b5f610cc6602183610b05565b9150610cd182610c6c565b604082019050919050565b5f6020820190508181035f830152610cf381610cba565b9050919050565b5f606082019050610d0d5f830186610bd6565b610d1a60208301856109bd565b610d2760408301846109bd565b949350505050565b5f606082019050610d425f830186610bd6565b610d4f6020830185610bd6565b610d5c60408301846109bd565b949350505050565b7f4d6f636b436f6d706f756e64506f6f6c3a207472616e7366657246726f6d20665f8201527f61696c6564000000000000000000000000000000000000000000000000000000602082015250565b5f610dbe602583610b05565b9150610dc982610d64565b604082019050919050565b5f6020820190508181035f830152610deb81610db2565b9050919050565b5f610dfc826109b4565b9150610e07836109b4565b9250828201905080821115610e1f57610e1e610a3a565b5b9291505056fea26469706673582212201cd09ed5f0fa712e79a4bd0220668afad1b5174601e79bb5898981454332d88d64736f6c634300081e0033","linkReferences":{}},"methodIdentifiers":{"ASSET()":"4800d97f","accrueInterest()":"a6afed95","balanceOf(address)":"70a08231","borrowRatePerBlock()":"f8f9da28","exchangeRateCurrent()":"bd6d894d","mint(uint256)":"a0712d68","redeem(uint256)":"db006a75","redeemUnderlying(uint256)":"852a12e3","setBorrowRatePerBlock(uint256)":"cbf4d877","setSupplyRatePerBlock(uint256)":"c7437e21","supplyRatePerBlock()":"ae9d70b0"},"id":50}