{"abi":[{"type":"constructor","inputs":[{"name":"_asset","type":"address","internalType":"address"}],"stateMutability":"nonpayable"},{"type":"function","name":"ASSET","inputs":[],"outputs":[{"name":"","type":"address","internalType":"contract ERC20"}],"stateMutability":"view"},{"type":"function","name":"allowance","inputs":[{"name":"owner","type":"address","internalType":"address"},{"name":"spender","type":"address","internalType":"address"}],"outputs":[{"name":"","type":"uint256","internalType":"uint256"}],"stateMutability":"view"},{"type":"function","name":"approve","inputs":[{"name":"spender","type":"address","internalType":"address"},{"name":"value","type":"uint256","internalType":"uint256"}],"outputs":[{"name":"","type":"bool","internalType":"bool"}],"stateMutability":"nonpayable"},{"type":"function","name":"balanceOf","inputs":[{"name":"account","type":"address","internalType":"address"}],"outputs":[{"name":"","type":"uint256","internalType":"uint256"}],"stateMutability":"view"},{"type":"function","name":"decimals","inputs":[],"outputs":[{"name":"","type":"uint8","internalType":"uint8"}],"stateMutability":"view"},{"type":"function","name":"getReserveData","inputs":[{"name":"_asset","type":"address","internalType":"address"}],"outputs":[{"name":"","type":"tuple","internalType":"struct IAaveLendingPool.ReserveData","components":[{"name":"currentLiquidityRate","type":"uint256","internalType":"uint256"},{"name":"currentStableBorrowRate","type":"uint256","internalType":"uint256"},{"name":"currentVariableBorrowRate","type":"uint256","internalType":"uint256"},{"name":"liquidityIndex","type":"uint256","internalType":"uint256"},{"name":"variableBorrowIndex","type":"uint256","internalType":"uint256"},{"name":"lastUpdateTimestamp","type":"uint256","internalType":"uint256"},{"name":"aTokenAddress","type":"address","internalType":"address"},{"name":"stableDebtTokenAddress","type":"address","internalType":"address"},{"name":"variableDebtTokenAddress","type":"address","internalType":"address"},{"name":"interestRateStrategyAddress","type":"address","internalType":"address"},{"name":"id","type":"uint8","internalType":"uint8"}]}],"stateMutability":"view"},{"type":"function","name":"getReserveNormalizedIncome","inputs":[{"name":"_asset","type":"address","internalType":"address"}],"outputs":[{"name":"","type":"uint256","internalType":"uint256"}],"stateMutability":"view"},{"type":"function","name":"name","inputs":[],"outputs":[{"name":"","type":"string","internalType":"string"}],"stateMutability":"view"},{"type":"function","name":"setLiquidityRate","inputs":[{"name":"newRate","type":"uint256","internalType":"uint256"}],"outputs":[],"stateMutability":"nonpayable"},{"type":"function","name":"supply","inputs":[{"name":"_asset","type":"address","internalType":"address"},{"name":"amount","type":"uint256","internalType":"uint256"},{"name":"onBehalfOf","type":"address","internalType":"address"},{"name":"referralCode","type":"uint16","internalType":"uint16"}],"outputs":[],"stateMutability":"nonpayable"},{"type":"function","name":"symbol","inputs":[],"outputs":[{"name":"","type":"string","internalType":"string"}],"stateMutability":"view"},{"type":"function","name":"totalSupply","inputs":[],"outputs":[{"name":"","type":"uint256","internalType":"uint256"}],"stateMutability":"view"},{"type":"function","name":"transfer","inputs":[{"name":"to","type":"address","internalType":"address"},{"name":"value","type":"uint256","internalType":"uint256"}],"outputs":[{"name":"","type":"bool","internalType":"bool"}],"stateMutability":"nonpayable"},{"type":"function","name":"transferFrom","inputs":[{"name":"from","type":"address","internalType":"address"},{"name":"to","type":"address","internalType":"address"},{"name":"value","type":"uint256","internalType":"uint256"}],"outputs":[{"name":"","type":"bool","internalType":"bool"}],"stateMutability":"nonpayable"},{"type":"function","name":"withdraw","inputs":[{"name":"_asset","type":"address","internalType":"address"},{"name":"amount","type":"uint256","internalType":"uint256"},{"name":"to","type":"address","internalType":"address"}],"outputs":[{"name":"","type":"uint256","internalType":"uint256"}],"stateMutability":"nonpayable"},{"type":"event","name":"Approval","inputs":[{"name":"owner","type":"address","indexed":true,"internalType":"address"},{"name":"spender","type":"address","indexed":true,"internalType":"address"},{"name":"value","type":"uint256","indexed":false,"internalType":"uint256"}],"anonymous":false},{"type":"event","name":"ReserveDataUpdated","inputs":[{"name":"reserve","type":"address","indexed":true,"internalType":"address"},{"name":"liquidityRate","type":"uint256","indexed":false,"internalType":"uint256"},{"name":"stableBorrowRate","type":"uint256","indexed":false,"internalType":"uint256"},{"name":"variableBorrowRate","type":"uint256","indexed":false,"internalType":"uint256"},{"name":"liquidityIndex","type":"uint256","indexed":false,"internalType":"uint256"},{"name":"variableBorrowIndex","type":"uint256","indexed":false,"internalType":"uint256"}],"anonymous":false},{"type":"event","name":"Supply","inputs":[{"name":"reserve","type":"address","indexed":true,"internalType":"address"},{"name":"user","type":"address","indexed":false,"internalType":"address"},{"name":"onBehalfOf","type":"address","indexed":true,"internalType":"address"},{"name":"amount","type":"uint256","indexed":false,"internalType":"uint256"},{"name":"referralCode","type":"uint16","indexed":true,"internalType":"uint16"}],"anonymous":false},{"type":"event","name":"Transfer","inputs":[{"name":"from","type":"address","indexed":true,"internalType":"address"},{"name":"to","type":"address","indexed":true,"internalType":"address"},{"name":"value","type":"uint256","indexed":false,"internalType":"uint256"}],"anonymous":false},{"type":"event","name":"Withdraw","inputs":[{"name":"reserve","type":"address","indexed":true,"internalType":"address"},{"name":"user","type":"address","indexed":false,"internalType":"address"},{"name":"to","type":"address","indexed":true,"internalType":"address"},{"name":"amount","type":"uint256","indexed":false,"internalType":"uint256"}],"anonymous":false},{"type":"error","name":"ERC20InsufficientAllowance","inputs":[{"name":"spender","type":"address","internalType":"address"},{"name":"allowance","type":"uint256","internalType":"uint256"},{"name":"needed","type":"uint256","internalType":"uint256"}]},{"type":"error","name":"ERC20InsufficientBalance","inputs":[{"name":"sender","type":"address","internalType":"address"},{"name":"balance","type":"uint256","internalType":"uint256"},{"name":"needed","type":"uint256","internalType":"uint256"}]},{"type":"error","name":"ERC20InvalidApprover","inputs":[{"name":"approver","type":"address","internalType":"address"}]},{"type":"error","name":"ERC20InvalidReceiver","inputs":[{"name":"receiver","type":"address","internalType":"address"}]},{"type":"error","name":"ERC20InvalidSender","inputs":[{"name":"sender","type":"address","internalType":"address"}]},{"type":"error","name":"ERC20InvalidSpender","inputs":[{"name":"spender","type":"address","internalType":"address"}]}],"bytecode":{"object":"0x60a060405234801561000f575f5ffd5b5060405161230e38038061230e83398181016040528101906100319190610179565b6040518060400160405280600f81526020017f4d6f636b204161766520546f6b656e00000000000000000000000000000000008152506040518060400160405280600581526020017f6d4141564500000000000000000000000000000000000000000000000000000081525081600390816100ac91906103e1565b5080600490816100bc91906103e1565b5050508073ffffffffffffffffffffffffffffffffffffffff1660808173ffffffffffffffffffffffffffffffffffffffff16815250506a295be96e64066972000000600581905550683635c9adc5dea00000600681905550506104b0565b5f5ffd5b5f73ffffffffffffffffffffffffffffffffffffffff82169050919050565b5f6101488261011f565b9050919050565b6101588161013e565b8114610162575f5ffd5b50565b5f815190506101738161014f565b92915050565b5f6020828403121561018e5761018d61011b565b5b5f61019b84828501610165565b91505092915050565b5f81519050919050565b7f4e487b71000000000000000000000000000000000000000000000000000000005f52604160045260245ffd5b7f4e487b71000000000000000000000000000000000000000000000000000000005f52602260045260245ffd5b5f600282049050600182168061021f57607f821691505b602082108103610232576102316101db565b5b50919050565b5f819050815f5260205f209050919050565b5f6020601f8301049050919050565b5f82821b905092915050565b5f600883026102947fffffffffffffffffffffffffffffffffffffffffffffffffffffffffffffffff82610259565b61029e8683610259565b95508019841693508086168417925050509392505050565b5f819050919050565b5f819050919050565b5f6102e26102dd6102d8846102b6565b6102bf565b6102b6565b9050919050565b5f819050919050565b6102fb836102c8565b61030f610307826102e9565b848454610265565b825550505050565b5f5f905090565b610326610317565b6103318184846102f2565b505050565b5b81811015610354576103495f8261031e565b600181019050610337565b5050565b601f8211156103995761036a81610238565b6103738461024a565b81016020851015610382578190505b61039661038e8561024a565b830182610336565b50505b505050565b5f82821c905092915050565b5f6103b95f198460080261039e565b1980831691505092915050565b5f6103d183836103aa565b9150826002028217905092915050565b6103ea826101a4565b67ffffffffffffffff811115610403576104026101ae565b5b61040d8254610208565b610418828285610358565b5f60209050601f831160018114610449575f8415610437578287015190505b61044185826103c6565b8655506104a8565b601f19841661045786610238565b5f5b8281101561047e57848901518255600182019150602085019450602081019050610459565b8683101561049b5784890151610497601f8916826103aa565b8355505b6001600288020188555050505b505050505050565b608051611e156104f95f395f81816104400152818161059d0152818161062201528181610646015281816106d50152818161084a015281816109460152610b8d0152611e155ff3fe608060405234801561000f575f5ffd5b50600436106100f3575f3560e01c80634800d97f1161009557806395d89b411161006457806395d89b4114610297578063a9059cbb146102b5578063d15e0053146102e5578063dd62ed3e14610315576100f3565b80634800d97f146101fd578063617ba0371461021b57806369328dec1461023757806370a0823114610267576100f3565b806323b872dd116100d157806323b872dd14610163578063313ce5671461019357806335ea6a75146101b15780633a244adf146101e1576100f3565b806306fdde03146100f7578063095ea7b31461011557806318160ddd14610145575b5f5ffd5b6100ff610345565b60405161010c919061144b565b60405180910390f35b61012f600480360381019061012a91906114fc565b6103d5565b60405161013c9190611554565b60405180910390f35b61014d6103f7565b60405161015a919061157c565b60405180910390f35b61017d60048036038101906101789190611595565b610400565b60405161018a9190611554565b60405180910390f35b61019b61042e565b6040516101a89190611600565b60405180910390f35b6101cb60048036038101906101c69190611619565b610436565b6040516101d89190611750565b60405180910390f35b6101fb60048036038101906101f6919061176a565b610594565b005b610205610620565b60405161021291906117f0565b60405180910390f35b61023560048036038101906102309190611840565b610644565b005b610251600480360381019061024c91906118a4565b610847565b60405161025e919061157c565b60405180910390f35b610281600480360381019061027c9190611619565b610a93565b60405161028e919061157c565b60405180910390f35b61029f610ad8565b6040516102ac919061144b565b60405180910390f35b6102cf60048036038101906102ca91906114fc565b610b68565b6040516102dc9190611554565b60405180910390f35b6102ff60048036038101906102fa9190611619565b610b8a565b60405161030c919061157c565b60405180910390f35b61032f600480360381019061032a91906118f4565b610c2d565b60405161033c919061157c565b60405180910390f35b6060600380546103549061195f565b80601f01602080910402602001604051908101604052809291908181526020018280546103809061195f565b80156103cb5780601f106103a2576101008083540402835291602001916103cb565b820191905f5260205f20905b8154815290600101906020018083116103ae57829003601f168201915b5050505050905090565b5f5f6103df610caf565b90506103ec818585610cb6565b600191505092915050565b5f600254905090565b5f5f61040a610caf565b9050610417858285610cc8565b610422858585610d5b565b60019150509392505050565b5f6012905090565b61043e611331565b7f000000000000000000000000000000000000000000000000000000000000000073ffffffffffffffffffffffffffffffffffffffff168273ffffffffffffffffffffffffffffffffffffffff16146104cc576040517f08c379a00000000000000000000000000000000000000000000000000000000081526004016104c3906119d9565b60405180910390fd5b60405180610160016040528060055481526020015f81526020015f81526020016b033b2e3c9fd0803ce800000081526020016b033b2e3c9fd0803ce800000081526020014281526020013073ffffffffffffffffffffffffffffffffffffffff1681526020015f73ffffffffffffffffffffffffffffffffffffffff1681526020015f73ffffffffffffffffffffffffffffffffffffffff1681526020015f73ffffffffffffffffffffffffffffffffffffffff1681526020015f60ff168152509050919050565b806005819055507f000000000000000000000000000000000000000000000000000000000000000073ffffffffffffffffffffffffffffffffffffffff167f804c9b842b2748a22bb64b345453a3de7ca54a6ca45ce00d415894979e22897a825f5f6b033b2e3c9fd0803ce800000080604051610615959493929190611a69565b60405180910390a250565b7f000000000000000000000000000000000000000000000000000000000000000081565b7f000000000000000000000000000000000000000000000000000000000000000073ffffffffffffffffffffffffffffffffffffffff168473ffffffffffffffffffffffffffffffffffffffff16146106d2576040517f08c379a00000000000000000000000000000000000000000000000000000000081526004016106c9906119d9565b60405180910390fd5b5f7f000000000000000000000000000000000000000000000000000000000000000073ffffffffffffffffffffffffffffffffffffffff166323b872dd8430876040518463ffffffff1660e01b815260040161073093929190611ac9565b6020604051808303815f875af115801561074c573d5f5f3e3d5ffd5b505050506040513d601f19601f820116820180604052508101906107709190611b28565b9050806107b2576040517f08c379a00000000000000000000000000000000000000000000000000000000081526004016107a990611bc3565b60405180910390fd5b6107bc8385610e4b565b8360065f8282546107cd9190611c0e565b925050819055508161ffff168373ffffffffffffffffffffffffffffffffffffffff168673ffffffffffffffffffffffffffffffffffffffff167f2b627736bca15cd5381dcf80b0bf11fd197d01a037c52b927a881a10fb73ba618688604051610838929190611c41565b60405180910390a45050505050565b5f7f000000000000000000000000000000000000000000000000000000000000000073ffffffffffffffffffffffffffffffffffffffff168473ffffffffffffffffffffffffffffffffffffffff16146108d6576040517f08c379a00000000000000000000000000000000000000000000000000000000081526004016108cd906119d9565b60405180910390fd5b826108e033610a93565b1015610921576040517f08c379a000000000000000000000000000000000000000000000000000000000815260040161091890611cd8565b60405180910390fd5b61092b3384610eca565b8260065f82825461093c9190611cf6565b925050819055505f7f000000000000000000000000000000000000000000000000000000000000000073ffffffffffffffffffffffffffffffffffffffff1663a9059cbb84866040518363ffffffff1660e01b815260040161099f929190611c41565b6020604051808303815f875af11580156109bb573d5f5f3e3d5ffd5b505050506040513d601f19601f820116820180604052508101906109df9190611b28565b905080610a21576040517f08c379a0000000000000000000000000000000000000000000000000000000008152600401610a1890611d73565b60405180910390fd5b8273ffffffffffffffffffffffffffffffffffffffff168573ffffffffffffffffffffffffffffffffffffffff167f3115d1449a7b732c986cba18244e897a450f61e1bb8d589cd2e69e6c8924f9f73387604051610a80929190611c41565b60405180910390a3839150509392505050565b5f5f5f8373ffffffffffffffffffffffffffffffffffffffff1673ffffffffffffffffffffffffffffffffffffffff1681526020019081526020015f20549050919050565b606060048054610ae79061195f565b80601f0160208091040260200160405190810160405280929190818152602001828054610b139061195f565b8015610b5e5780601f10610b3557610100808354040283529160200191610b5e565b820191905f5260205f20905b815481529060010190602001808311610b4157829003601f168201915b5050505050905090565b5f5f610b72610caf565b9050610b7f818585610d5b565b600191505092915050565b5f7f000000000000000000000000000000000000000000000000000000000000000073ffffffffffffffffffffffffffffffffffffffff168273ffffffffffffffffffffffffffffffffffffffff1614610c19576040517f08c379a0000000000000000000000000000000000000000000000000000000008152600401610c10906119d9565b60405180910390fd5b6b033b2e3c9fd0803ce80000009050919050565b5f60015f8473ffffffffffffffffffffffffffffffffffffffff1673ffffffffffffffffffffffffffffffffffffffff1681526020019081526020015f205f8373ffffffffffffffffffffffffffffffffffffffff1673ffffffffffffffffffffffffffffffffffffffff1681526020019081526020015f2054905092915050565b5f33905090565b610cc38383836001610f49565b505050565b5f610cd38484610c2d565b90507fffffffffffffffffffffffffffffffffffffffffffffffffffffffffffffffff811015610d555781811015610d46578281836040517ffb8f41b2000000000000000000000000000000000000000000000000000000008152600401610d3d93929190611d91565b60405180910390fd5b610d5484848484035f610f49565b5b50505050565b5f73ffffffffffffffffffffffffffffffffffffffff168373ffffffffffffffffffffffffffffffffffffffff1603610dcb575f6040517f96c6fd1e000000000000000000000000000000000000000000000000000000008152600401610dc29190611dc6565b60405180910390fd5b5f73ffffffffffffffffffffffffffffffffffffffff168273ffffffffffffffffffffffffffffffffffffffff1603610e3b575f6040517fec442f05000000000000000000000000000000000000000000000000000000008152600401610e329190611dc6565b60405180910390fd5b610e46838383611118565b505050565b5f73ffffffffffffffffffffffffffffffffffffffff168273ffffffffffffffffffffffffffffffffffffffff1603610ebb575f6040517fec442f05000000000000000000000000000000000000000000000000000000008152600401610eb29190611dc6565b60405180910390fd5b610ec65f8383611118565b5050565b5f73ffffffffffffffffffffffffffffffffffffffff168273ffffffffffffffffffffffffffffffffffffffff1603610f3a575f6040517f96c6fd1e000000000000000000000000000000000000000000000000000000008152600401610f319190611dc6565b60405180910390fd5b610f45825f83611118565b5050565b5f73ffffffffffffffffffffffffffffffffffffffff168473ffffffffffffffffffffffffffffffffffffffff1603610fb9575f6040517fe602df05000000000000000000000000000000000000000000000000000000008152600401610fb09190611dc6565b60405180910390fd5b5f73ffffffffffffffffffffffffffffffffffffffff168373ffffffffffffffffffffffffffffffffffffffff1603611029575f6040517f94280d620000000000000000000000000000000000000000000000000000000081526004016110209190611dc6565b60405180910390fd5b8160015f8673ffffffffffffffffffffffffffffffffffffffff1673ffffffffffffffffffffffffffffffffffffffff1681526020019081526020015f205f8573ffffffffffffffffffffffffffffffffffffffff1673ffffffffffffffffffffffffffffffffffffffff1681526020019081526020015f20819055508015611112578273ffffffffffffffffffffffffffffffffffffffff168473ffffffffffffffffffffffffffffffffffffffff167f8c5be1e5ebec7d5bd14f71427d1e84f3dd0314c0f7b2291e5b200ac8c7c3b92584604051611109919061157c565b60405180910390a35b50505050565b5f73ffffffffffffffffffffffffffffffffffffffff168373ffffffffffffffffffffffffffffffffffffffff1603611168578060025f82825461115c9190611c0e565b92505081905550611236565b5f5f5f8573ffffffffffffffffffffffffffffffffffffffff1673ffffffffffffffffffffffffffffffffffffffff1681526020019081526020015f20549050818110156111f1578381836040517fe450d38c0000000000000000000000000000000000000000000000000000000081526004016111e893929190611d91565b60405180910390fd5b8181035f5f8673ffffffffffffffffffffffffffffffffffffffff1673ffffffffffffffffffffffffffffffffffffffff1681526020019081526020015f2081905550505b5f73ffffffffffffffffffffffffffffffffffffffff168273ffffffffffffffffffffffffffffffffffffffff160361127d578060025f82825403925050819055506112c7565b805f5f8473ffffffffffffffffffffffffffffffffffffffff1673ffffffffffffffffffffffffffffffffffffffff1681526020019081526020015f205f82825401925050819055505b8173ffffffffffffffffffffffffffffffffffffffff168373ffffffffffffffffffffffffffffffffffffffff167fddf252ad1be2c89b69c2b068fc378daa952ba7f163c4a11628f55a4df523b3ef83604051611324919061157c565b60405180910390a3505050565b6040518061016001604052805f81526020015f81526020015f81526020015f81526020015f81526020015f81526020015f73ffffffffffffffffffffffffffffffffffffffff1681526020015f73ffffffffffffffffffffffffffffffffffffffff1681526020015f73ffffffffffffffffffffffffffffffffffffffff1681526020015f73ffffffffffffffffffffffffffffffffffffffff1681526020015f60ff1681525090565b5f81519050919050565b5f82825260208201905092915050565b8281835e5f83830152505050565b5f601f19601f8301169050919050565b5f61141d826113db565b61142781856113e5565b93506114378185602086016113f5565b61144081611403565b840191505092915050565b5f6020820190508181035f8301526114638184611413565b905092915050565b5f5ffd5b5f73ffffffffffffffffffffffffffffffffffffffff82169050919050565b5f6114988261146f565b9050919050565b6114a88161148e565b81146114b2575f5ffd5b50565b5f813590506114c38161149f565b92915050565b5f819050919050565b6114db816114c9565b81146114e5575f5ffd5b50565b5f813590506114f6816114d2565b92915050565b5f5f604083850312156115125761151161146b565b5b5f61151f858286016114b5565b9250506020611530858286016114e8565b9150509250929050565b5f8115159050919050565b61154e8161153a565b82525050565b5f6020820190506115675f830184611545565b92915050565b611576816114c9565b82525050565b5f60208201905061158f5f83018461156d565b92915050565b5f5f5f606084860312156115ac576115ab61146b565b5b5f6115b9868287016114b5565b93505060206115ca868287016114b5565b92505060406115db868287016114e8565b9150509250925092565b5f60ff82169050919050565b6115fa816115e5565b82525050565b5f6020820190506116135f8301846115f1565b92915050565b5f6020828403121561162e5761162d61146b565b5b5f61163b848285016114b5565b91505092915050565b61164d816114c9565b82525050565b61165c8161148e565b82525050565b61166b816115e5565b82525050565b61016082015f8201516116865f850182611644565b5060208201516116996020850182611644565b5060408201516116ac6040850182611644565b5060608201516116bf6060850182611644565b5060808201516116d26080850182611644565b5060a08201516116e560a0850182611644565b5060c08201516116f860c0850182611653565b5060e082015161170b60e0850182611653565b50610100820151611720610100850182611653565b50610120820151611735610120850182611653565b5061014082015161174a610140850182611662565b50505050565b5f610160820190506117645f830184611671565b92915050565b5f6020828403121561177f5761177e61146b565b5b5f61178c848285016114e8565b91505092915050565b5f819050919050565b5f6117b86117b36117ae8461146f565b611795565b61146f565b9050919050565b5f6117c98261179e565b9050919050565b5f6117da826117bf565b9050919050565b6117ea816117d0565b82525050565b5f6020820190506118035f8301846117e1565b92915050565b5f61ffff82169050919050565b61181f81611809565b8114611829575f5ffd5b50565b5f8135905061183a81611816565b92915050565b5f5f5f5f608085870312156118585761185761146b565b5b5f611865878288016114b5565b9450506020611876878288016114e8565b9350506040611887878288016114b5565b92505060606118988782880161182c565b91505092959194509250565b5f5f5f606084860312156118bb576118ba61146b565b5b5f6118c8868287016114b5565b93505060206118d9868287016114e8565b92505060406118ea868287016114b5565b9150509250925092565b5f5f6040838503121561190a5761190961146b565b5b5f611917858286016114b5565b9250506020611928858286016114b5565b9150509250929050565b7f4e487b71000000000000000000000000000000000000000000000000000000005f52602260045260245ffd5b5f600282049050600182168061197657607f821691505b60208210810361198957611988611932565b5b50919050565b7f4d6f636b41617665506f6f6c3a20496e76616c696420617373657400000000005f82015250565b5f6119c3601b836113e5565b91506119ce8261198f565b602082019050919050565b5f6020820190508181035f8301526119f0816119b7565b9050919050565b5f819050919050565b5f611a1a611a15611a10846119f7565b611795565b6114c9565b9050919050565b611a2a81611a00565b82525050565b5f819050919050565b5f611a53611a4e611a4984611a30565b611795565b6114c9565b9050919050565b611a6381611a39565b82525050565b5f60a082019050611a7c5f83018861156d565b611a896020830187611a21565b611a966040830186611a21565b611aa36060830185611a5a565b611ab06080830184611a5a565b9695505050505050565b611ac38161148e565b82525050565b5f606082019050611adc5f830186611aba565b611ae96020830185611aba565b611af6604083018461156d565b949350505050565b611b078161153a565b8114611b11575f5ffd5b50565b5f81519050611b2281611afe565b92915050565b5f60208284031215611b3d57611b3c61146b565b5b5f611b4a84828501611b14565b91505092915050565b7f4d6f636b41617665506f6f6c3a207472616e7366657246726f6d206661696c655f8201527f6400000000000000000000000000000000000000000000000000000000000000602082015250565b5f611bad6021836113e5565b9150611bb882611b53565b604082019050919050565b5f6020820190508181035f830152611bda81611ba1565b9050919050565b7f4e487b71000000000000000000000000000000000000000000000000000000005f52601160045260245ffd5b5f611c18826114c9565b9150611c23836114c9565b9250828201905080821115611c3b57611c3a611be1565b5b92915050565b5f604082019050611c545f830185611aba565b611c61602083018461156d565b9392505050565b7f4d6f636b41617665506f6f6c3a20496e73756666696369656e742062616c616e5f8201527f6365000000000000000000000000000000000000000000000000000000000000602082015250565b5f611cc26022836113e5565b9150611ccd82611c68565b604082019050919050565b5f6020820190508181035f830152611cef81611cb6565b9050919050565b5f611d00826114c9565b9150611d0b836114c9565b9250828203905081811115611d2357611d22611be1565b5b92915050565b7f4d6f636b41617665506f6f6c3a205472616e73666572206661696c65640000005f82015250565b5f611d5d601d836113e5565b9150611d6882611d29565b602082019050919050565b5f6020820190508181035f830152611d8a81611d51565b9050919050565b5f606082019050611da45f830186611aba565b611db1602083018561156d565b611dbe604083018461156d565b949350505050565b5f602082019050611dd95f830184611aba565b9291505056fea264697066735822122082f0b09d535e4c363caebf00271288951d43dbee1be0c5d8efd16bd95ab0380b64736f6c634300081e0033","linkReferences":{}},"methodIdentifiers":{"ASSET()":"4800d97f","allowance(address,address)":"dd62ed3e","approve(address,uint256)":"095ea7b3","balanceOf(address)":"70a08231","decimals()":"313ce567","getReserveData(address)":"35ea6a75","getReserveNormalizedIncome(address)":"d15e0053","name()":"06fdde03","setLiquidityRate(uint256)":"3a244adf","supply(address,uint256,address,uint16)":"617ba037","symbol()":"95d89b41","totalSupply()":"18160ddd","transfer(address,uint256)":"a9059cbb","transferFrom(address,address,uint256)":"23b872dd","withdraw(address,uint256,address)":"69328dec"},"id":66}