{"abi":[{"type":"constructor","inputs":[{"name":"_asset","type":"address","internalType":"address"}],"stateMutability":"nonpayable"},{"type":"function","name":"ASSET","inputs":[],"outputs":[{"name":"","type":"address","internalType":"contract ERC20"}],"stateMutability":"view"},{"type":"function","name":"balanceOf","inputs":[{"name":"account","type":"address","internalType":"address"}],"outputs":[{"name":"","type":"uint256","internalType":"uint256"}],"stateMutability":"view"},{"type":"function","name":"getReserveData","inputs":[{"name":"_asset","type":"address","internalType":"address"}],"outputs":[{"name":"","type":"tuple","internalType":"struct IAaveLendingPool.ReserveData","components":[{"name":"currentLiquidityRate","type":"uint256","internalType":"uint256"},{"name":"currentStableBorrowRate","type":"uint256","internalType":"uint256"},{"name":"currentVariableBorrowRate","type":"uint256","internalType":"uint256"},{"name":"liquidityIndex","type":"uint256","internalType":"uint256"},{"name":"variableBorrowIndex","type":"uint256","internalType":"uint256"},{"name":"lastUpdateTimestamp","type":"uint256","internalType":"uint256"},{"name":"aTokenAddress","type":"address","internalType":"address"},{"name":"stableDebtTokenAddress","type":"address","internalType":"address"},{"name":"variableDebtTokenAddress","type":"address","internalType":"address"},{"name":"interestRateStrategyAddress","type":"address","internalType":"address"},{"name":"id","type":"uint8","internalType":"uint8"}]}],"stateMutability":"view"},{"type":"function","name":"getReserveNormalizedIncome","inputs":[{"name":"_asset","type":"address","internalType":"address"}],"outputs":[{"name":"","type":"uint256","internalType":"uint256"}],"stateMutability":"view"},{"type":"function","name":"setLiquidityRate","inputs":[{"name":"newRate","type":"uint256","internalType":"uint256"}],"outputs":[],"stateMutability":"nonpayable"},{"type":"function","name":"supply","inputs":[{"name":"_asset","type":"address","internalType":"address"},{"name":"amount","type":"uint256","internalType":"uint256"},{"name":"onBehalfOf","type":"address","internalType":"address"},{"name":"referralCode","type":"uint16","internalType":"uint16"}],"outputs":[],"stateMutability":"nonpayable"},{"type":"function","name":"withdraw","inputs":[{"name":"_asset","type":"address","internalType":"address"},{"name":"amount","type":"uint256","internalType":"uint256"},{"name":"to","type":"address","internalType":"address"}],"outputs":[{"name":"","type":"uint256","internalType":"uint256"}],"stateMutability":"nonpayable"},{"type":"event","name":"Supply","inputs":[{"name":"reserve","type":"address","indexed":true,"internalType":"address"},{"name":"user","type":"address","indexed":false,"internalType":"address"},{"name":"onBehalfOf","type":"address","indexed":true,"internalType":"address"},{"name":"amount","type":"uint256","indexed":false,"internalType":"uint256"},{"name":"referralCode","type":"uint16","indexed":true,"internalType":"uint16"}],"anonymous":false},{"type":"event","name":"Withdraw","inputs":[{"name":"reserve","type":"address","indexed":true,"internalType":"address"},{"name":"user","type":"address","indexed":false,"internalType":"address"},{"name":"to","type":"address","indexed":true,"internalType":"address"},{"name":"amount","type":"uint256","indexed":false,"internalType":"uint256"}],"anonymous":false}],"bytecode":{"object":"0x60a060405234801561000f575f5ffd5b50604051611141380380611141833981810160405281019061003191906100ea565b8073ffffffffffffffffffffffffffffffffffffffff1660808173ffffffffffffffffffffffffffffffffffffffff16815250506a295be96e640669720000005f81905550683635c9adc5dea0000060018190555050610115565b5f5ffd5b5f73ffffffffffffffffffffffffffffffffffffffff82169050919050565b5f6100b982610090565b9050919050565b6100c9816100af565b81146100d3575f5ffd5b50565b5f815190506100e4816100c0565b92915050565b5f602082840312156100ff576100fe61008c565b5b5f61010c848285016100d6565b91505092915050565b608051610fea6101575f395f818161019f015281816102fd01528181610321015281816103b00152818161056e0152818161066801526107fe0152610fea5ff3fe608060405234801561000f575f5ffd5b506004361061007b575f3560e01c8063617ba03711610059578063617ba037146100e957806369328dec1461010557806370a0823114610135578063d15e0053146101655761007b565b806335ea6a751461007f5780633a244adf146100af5780634800d97f146100cb575b5f5ffd5b610099600480360381019061009491906109a6565b610195565b6040516100a69190610af2565b60405180910390f35b6100c960048036038101906100c49190610b36565b6102f2565b005b6100d36102fb565b6040516100e09190610bbc565b60405180910390f35b61010360048036038101906100fe9190610c0c565b61031f565b005b61011f600480360381019061011a9190610c70565b61056b565b60405161012c9190610ccf565b60405180910390f35b61014f600480360381019061014a91906109a6565b6107b5565b60405161015c9190610ccf565b60405180910390f35b61017f600480360381019061017a91906109a6565b6107fb565b60405161018c9190610ccf565b60405180910390f35b61019d61089e565b7f000000000000000000000000000000000000000000000000000000000000000073ffffffffffffffffffffffffffffffffffffffff168273ffffffffffffffffffffffffffffffffffffffff161461022b576040517f08c379a000000000000000000000000000000000000000000000000000000000815260040161022290610d42565b60405180910390fd5b6040518061016001604052805f5481526020015f81526020015f81526020016b033b2e3c9fd0803ce800000081526020016b033b2e3c9fd0803ce800000081526020014281526020013073ffffffffffffffffffffffffffffffffffffffff1681526020015f73ffffffffffffffffffffffffffffffffffffffff1681526020015f73ffffffffffffffffffffffffffffffffffffffff1681526020015f73ffffffffffffffffffffffffffffffffffffffff1681526020015f60ff168152509050919050565b805f8190555050565b7f000000000000000000000000000000000000000000000000000000000000000081565b7f000000000000000000000000000000000000000000000000000000000000000073ffffffffffffffffffffffffffffffffffffffff168473ffffffffffffffffffffffffffffffffffffffff16146103ad576040517f08c379a00000000000000000000000000000000000000000000000000000000081526004016103a490610d42565b60405180910390fd5b5f7f000000000000000000000000000000000000000000000000000000000000000073ffffffffffffffffffffffffffffffffffffffff166323b872dd8430876040518463ffffffff1660e01b815260040161040b93929190610d6f565b6020604051808303815f875af1158015610427573d5f5f3e3d5ffd5b505050506040513d601f19601f8201168201806040525081019061044b9190610dd9565b90508061048d576040517f08c379a000000000000000000000000000000000000000000000000000000000815260040161048490610e74565b60405180910390fd5b8360025f8573ffffffffffffffffffffffffffffffffffffffff1673ffffffffffffffffffffffffffffffffffffffff1681526020019081526020015f205f8282546104d99190610ebf565b925050819055508360015f8282546104f19190610ebf565b925050819055508161ffff168373ffffffffffffffffffffffffffffffffffffffff168673ffffffffffffffffffffffffffffffffffffffff167f2b627736bca15cd5381dcf80b0bf11fd197d01a037c52b927a881a10fb73ba61868860405161055c929190610ef2565b60405180910390a45050505050565b5f7f000000000000000000000000000000000000000000000000000000000000000073ffffffffffffffffffffffffffffffffffffffff168473ffffffffffffffffffffffffffffffffffffffff16146105fa576040517f08c379a00000000000000000000000000000000000000000000000000000000081526004016105f190610d42565b60405180910390fd5b8260025f3373ffffffffffffffffffffffffffffffffffffffff1673ffffffffffffffffffffffffffffffffffffffff1681526020019081526020015f205f8282546106469190610f19565b925050819055508260015f82825461065e9190610f19565b925050819055505f7f000000000000000000000000000000000000000000000000000000000000000073ffffffffffffffffffffffffffffffffffffffff1663a9059cbb84866040518363ffffffff1660e01b81526004016106c1929190610ef2565b6020604051808303815f875af11580156106dd573d5f5f3e3d5ffd5b505050506040513d601f19601f820116820180604052508101906107019190610dd9565b905080610743576040517f08c379a000000000000000000000000000000000000000000000000000000000815260040161073a90610f96565b60405180910390fd5b8273ffffffffffffffffffffffffffffffffffffffff168573ffffffffffffffffffffffffffffffffffffffff167f3115d1449a7b732c986cba18244e897a450f61e1bb8d589cd2e69e6c8924f9f733876040516107a2929190610ef2565b60405180910390a3839150509392505050565b5f60025f8373ffffffffffffffffffffffffffffffffffffffff1673ffffffffffffffffffffffffffffffffffffffff1681526020019081526020015f20549050919050565b5f7f000000000000000000000000000000000000000000000000000000000000000073ffffffffffffffffffffffffffffffffffffffff168273ffffffffffffffffffffffffffffffffffffffff161461088a576040517f08c379a000000000000000000000000000000000000000000000000000000000815260040161088190610d42565b60405180910390fd5b6b033b2e3c9fd0803ce80000009050919050565b6040518061016001604052805f81526020015f81526020015f81526020015f81526020015f81526020015f81526020015f73ffffffffffffffffffffffffffffffffffffffff1681526020015f73ffffffffffffffffffffffffffffffffffffffff1681526020015f73ffffffffffffffffffffffffffffffffffffffff1681526020015f73ffffffffffffffffffffffffffffffffffffffff1681526020015f60ff1681525090565b5f5ffd5b5f73ffffffffffffffffffffffffffffffffffffffff82169050919050565b5f6109758261094c565b9050919050565b6109858161096b565b811461098f575f5ffd5b50565b5f813590506109a08161097c565b92915050565b5f602082840312156109bb576109ba610948565b5b5f6109c884828501610992565b91505092915050565b5f819050919050565b6109e3816109d1565b82525050565b6109f28161096b565b82525050565b5f60ff82169050919050565b610a0d816109f8565b82525050565b61016082015f820151610a285f8501826109da565b506020820151610a3b60208501826109da565b506040820151610a4e60408501826109da565b506060820151610a6160608501826109da565b506080820151610a7460808501826109da565b5060a0820151610a8760a08501826109da565b5060c0820151610a9a60c08501826109e9565b5060e0820151610aad60e08501826109e9565b50610100820151610ac26101008501826109e9565b50610120820151610ad76101208501826109e9565b50610140820151610aec610140850182610a04565b50505050565b5f61016082019050610b065f830184610a13565b92915050565b610b15816109d1565b8114610b1f575f5ffd5b50565b5f81359050610b3081610b0c565b92915050565b5f60208284031215610b4b57610b4a610948565b5b5f610b5884828501610b22565b91505092915050565b5f819050919050565b5f610b84610b7f610b7a8461094c565b610b61565b61094c565b9050919050565b5f610b9582610b6a565b9050919050565b5f610ba682610b8b565b9050919050565b610bb681610b9c565b82525050565b5f602082019050610bcf5f830184610bad565b92915050565b5f61ffff82169050919050565b610beb81610bd5565b8114610bf5575f5ffd5b50565b5f81359050610c0681610be2565b92915050565b5f5f5f5f60808587031215610c2457610c23610948565b5b5f610c3187828801610992565b9450506020610c4287828801610b22565b9350506040610c5387828801610992565b9250506060610c6487828801610bf8565b91505092959194509250565b5f5f5f60608486031215610c8757610c86610948565b5b5f610c9486828701610992565b9350506020610ca586828701610b22565b9250506040610cb686828701610992565b9150509250925092565b610cc9816109d1565b82525050565b5f602082019050610ce25f830184610cc0565b92915050565b5f82825260208201905092915050565b7f4d6f636b41617665506f6f6c3a20496e76616c696420617373657400000000005f82015250565b5f610d2c601b83610ce8565b9150610d3782610cf8565b602082019050919050565b5f6020820190508181035f830152610d5981610d20565b9050919050565b610d698161096b565b82525050565b5f606082019050610d825f830186610d60565b610d8f6020830185610d60565b610d9c6040830184610cc0565b949350505050565b5f8115159050919050565b610db881610da4565b8114610dc2575f5ffd5b50565b5f81519050610dd381610daf565b92915050565b5f60208284031215610dee57610ded610948565b5b5f610dfb84828501610dc5565b91505092915050565b7f4d6f636b41617665506f6f6c3a207472616e7366657246726f6d206661696c655f8201527f6400000000000000000000000000000000000000000000000000000000000000602082015250565b5f610e5e602183610ce8565b9150610e6982610e04565b604082019050919050565b5f6020820190508181035f830152610e8b81610e52565b9050919050565b7f4e487b71000000000000000000000000000000000000000000000000000000005f52601160045260245ffd5b5f610ec9826109d1565b9150610ed4836109d1565b9250828201905080821115610eec57610eeb610e92565b5b92915050565b5f604082019050610f055f830185610d60565b610f126020830184610cc0565b9392505050565b5f610f23826109d1565b9150610f2e836109d1565b9250828203905081811115610f4657610f45610e92565b5b92915050565b7f4d6f636b41617665506f6f6c3a205472616e73666572206661696c65640000005f82015250565b5f610f80601d83610ce8565b9150610f8b82610f4c565b602082019050919050565b5f6020820190508181035f830152610fad81610f74565b905091905056fea2646970667358221220aeffe11727e16587a266c4490af290a10c1876d71e9c5511f9c074af3cc9fd4264736f6c634300081e0033","linkReferences":{}},"methodIdentifiers":{"ASSET()":"4800d97f","balanceOf(address)":"70a08231","getReserveData(address)":"35ea6a75","getReserveNormalizedIncome(address)":"d15e0053","setLiquidityRate(uint256)":"3a244adf","supply(address,uint256,address,uint16)":"617ba037","withdraw(address,uint256,address)":"69328dec"},"id":49}