{"abi":[{"type":"constructor","inputs":[{"name":"_poolA","type":"address","internalType":"address"},{"name":"_poolB","type":"address","internalType":"address"},{"name":"_asset","type":"address","internalType":"address"},{"name":"_vault","type":"address","internalType":"address"}],"stateMutability":"payable"},{"type":"receive","stateMutability":"payable"},{"type":"function","name":"asset","inputs":[],"outputs":[{"name":"","type":"address","internalType":"address"}],"stateMutability":"view"},{"type":"function","name":"coverDebt","inputs":[],"outputs":[],"stateMutability":"nonpayable"},{"type":"function","name":"getVmStatus","inputs":[],"outputs":[{"name":"","type":"bool","internalType":"bool"}],"stateMutability":"view"},{"type":"function","name":"isPaused","inputs":[],"outputs":[{"name":"","type":"bool","internalType":"bool"}],"stateMutability":"view"},{"type":"function","name":"lastPoolAApy","inputs":[],"outputs":[{"name":"","type":"uint256","internalType":"uint256"}],"stateMutability":"view"},{"type":"function","name":"lastPoolBApy","inputs":[],"outputs":[{"name":"","type":"uint256","internalType":"uint256"}],"stateMutability":"view"},{"type":"function","name":"lastUpdateBlock","inputs":[],"outputs":[{"name":"","type":"uint256","internalType":"uint256"}],"stateMutability":"view"},{"type":"function","name":"manualTrigger","inputs":[],"outputs":[],"stateMutability":"nonpayable"},{"type":"function","name":"owner","inputs":[],"outputs":[{"name":"","type":"address","internalType":"address"}],"stateMutability":"view"},{"type":"function","name":"pause","inputs":[],"outputs":[],"stateMutability":"nonpayable"},{"type":"function","name":"pay","inputs":[{"name":"amount","type":"uint256","internalType":"uint256"}],"outputs":[],"stateMutability":"nonpayable"},{"type":"function","name":"poolA","inputs":[],"outputs":[{"name":"","type":"address","internalType":"contract IAaveLendingPool"}],"stateMutability":"view"},{"type":"function","name":"poolB","inputs":[],"outputs":[{"name":"","type":"address","internalType":"contract ICompoundLendingPool"}],"stateMutability":"view"},{"type":"function","name":"react","inputs":[{"name":"log","type":"tuple","internalType":"struct IReactive.LogRecord","components":[{"name":"chain_id","type":"uint256","internalType":"uint256"},{"name":"_contract","type":"address","internalType":"address"},{"name":"topic_0","type":"uint256","internalType":"uint256"},{"name":"topic_1","type":"uint256","internalType":"uint256"},{"name":"topic_2","type":"uint256","internalType":"uint256"},{"name":"topic_3","type":"uint256","internalType":"uint256"},{"name":"data","type":"bytes","internalType":"bytes"},{"name":"block_number","type":"uint256","internalType":"uint256"},{"name":"op_code","type":"uint256","internalType":"uint256"},{"name":"block_hash","type":"uint256","internalType":"uint256"},{"name":"tx_hash","type":"uint256","internalType":"uint256"},{"name":"log_index","type":"uint256","internalType":"uint256"}]}],"outputs":[],"stateMutability":"nonpayable"},{"type":"function","name":"rebalanceThreshold","inputs":[],"outputs":[{"name":"","type":"uint256","internalType":"uint256"}],"stateMutability":"view"},{"type":"function","name":"renounceOwnership","inputs":[],"outputs":[],"stateMutability":"nonpayable"},{"type":"function","name":"rescueTokens","inputs":[{"name":"token","type":"address","internalType":"address"},{"name":"amount","type":"uint256","internalType":"uint256"}],"outputs":[],"stateMutability":"nonpayable"},{"type":"function","name":"resume","inputs":[],"outputs":[],"stateMutability":"nonpayable"},{"type":"function","name":"setRebalanceThreshold","inputs":[{"name":"newThreshold","type":"uint256","internalType":"uint256"}],"outputs":[],"stateMutability":"nonpayable"},{"type":"function","name":"setVaultAddress","inputs":[{"name":"newVault","type":"address","internalType":"address"}],"outputs":[],"stateMutability":"nonpayable"},{"type":"function","name":"totalAllocated","inputs":[],"outputs":[{"name":"","type":"uint256","internalType":"uint256"}],"stateMutability":"view"},{"type":"function","name":"transferOwnership","inputs":[{"name":"newOwner","type":"address","internalType":"address"}],"outputs":[],"stateMutability":"nonpayable"},{"type":"function","name":"updateTotalAllocated","inputs":[{"name":"amount","type":"uint256","internalType":"uint256"}],"outputs":[],"stateMutability":"nonpayable"},{"type":"function","name":"vaultAddress","inputs":[],"outputs":[{"name":"","type":"address","internalType":"address"}],"stateMutability":"view"},{"type":"event","name":"Callback","inputs":[{"name":"chain_id","type":"uint256","indexed":true,"internalType":"uint256"},{"name":"_contract","type":"address","indexed":true,"internalType":"address"},{"name":"gas_limit","type":"uint64","indexed":true,"internalType":"uint64"},{"name":"payload","type":"bytes","indexed":false,"internalType":"bytes"}],"anonymous":false},{"type":"event","name":"MonitorPaused","inputs":[],"anonymous":false},{"type":"event","name":"MonitorResumed","inputs":[],"anonymous":false},{"type":"event","name":"OwnershipTransferred","inputs":[{"name":"previousOwner","type":"address","indexed":true,"internalType":"address"},{"name":"newOwner","type":"address","indexed":true,"internalType":"address"}],"anonymous":false},{"type":"event","name":"RebalanceTriggered","inputs":[{"name":"fromPool","type":"address","indexed":true,"internalType":"address"},{"name":"toPool","type":"address","indexed":true,"internalType":"address"},{"name":"amount","type":"uint256","indexed":false,"internalType":"uint256"}],"anonymous":false},{"type":"event","name":"ThresholdUpdated","inputs":[{"name":"oldThreshold","type":"uint256","indexed":false,"internalType":"uint256"},{"name":"newThreshold","type":"uint256","indexed":false,"internalType":"uint256"}],"anonymous":false},{"type":"event","name":"TokensRescued","inputs":[{"name":"token","type":"address","indexed":false,"internalType":"address"},{"name":"amount","type":"uint256","indexed":false,"internalType":"uint256"}],"anonymous":false},{"type":"event","name":"YieldRateUpdated","inputs":[{"name":"poolAApy","type":"uint256","indexed":false,"internalType":"uint256"},{"name":"poolBApy","type":"uint256","indexed":false,"internalType":"uint256"},{"name":"difference","type":"uint256","indexed":false,"internalType":"uint256"}],"anonymous":false},{"type":"error","name":"OwnableInvalidOwner","inputs":[{"name":"owner","type":"address","internalType":"address"}]},{"type":"error","name":"OwnableUnauthorizedAccount","inputs":[{"name":"account","type":"address","internalType":"address"}]}],"bytecode":{"object":"0x6080604052604051611f74380380611f7483398181016040528101906100259190610657565b3362ffffff600260016101000a81548173ffffffffffffffffffffffffffffffffffffffff021916908373ffffffffffffffffffffffffffffffffffffffff16021790555f5f6101000a81548173ffffffffffffffffffffffffffffffffffffffff021916908373ffffffffffffffffffffffffffffffffffffffff1602179055506100b962ffffff6104b960201b60201c565b6100c761051060201b60201c565b5f73ffffffffffffffffffffffffffffffffffffffff168173ffffffffffffffffffffffffffffffffffffffff1603610137575f6040517f1e4fbdf700000000000000000000000000000000000000000000000000000000815260040161012e91906106ca565b60405180910390fd5b6101468161053660201b60201c565b508360055f6101000a81548173ffffffffffffffffffffffffffffffffffffffff021916908373ffffffffffffffffffffffffffffffffffffffff1602179055508260065f6101000a81548173ffffffffffffffffffffffffffffffffffffffff021916908373ffffffffffffffffffffffffffffffffffffffff1602179055508160075f6101000a81548173ffffffffffffffffffffffffffffffffffffffff021916908373ffffffffffffffffffffffffffffffffffffffff1602179055508060045f6101000a81548173ffffffffffffffffffffffffffffffffffffffff021916908373ffffffffffffffffffffffffffffffffffffffff1602179055505f600760146101000a81548160ff021916908315150217905550603260088190555043600b8190555060025f9054906101000a900460ff166104b057600260019054906101000a900473ffffffffffffffffffffffffffffffffffffffff1673ffffffffffffffffffffffffffffffffffffffff16635a6aced062aa36a760055f9054906101000a900473ffffffffffffffffffffffffffffffffffffffff167f804c9b842b2748a22bb64b345453a3de7ca54a6ca45ce00d415894979e22897a7fa65f96fc951c35ead38878e0f0b7a3c744a6f5ccc1476b313353ce31712313ad807fa65f96fc951c35ead38878e0f0b7a3c744a6f5ccc1476b313353ce31712313ad6040518763ffffffff1660e01b815260040161036c969594939291906106fb565b5f604051808303815f87803b158015610383575f5ffd5b505af1158015610395573d5f5f3e3d5ffd5b50505050600260019054906101000a900473ffffffffffffffffffffffffffffffffffffffff1673ffffffffffffffffffffffffffffffffffffffff16635a6aced062aa36a760065f9054906101000a900473ffffffffffffffffffffffffffffffffffffffff167f4c209b5fc8ad50758f13e2e1088ba56a560dff690a1c6fef26394f4c03821c4f7fa65f96fc951c35ead38878e0f0b7a3c744a6f5ccc1476b313353ce31712313ad807fa65f96fc951c35ead38878e0f0b7a3c744a6f5ccc1476b313353ce31712313ad6040518763ffffffff1660e01b8152600401610482969594939291906106fb565b5f604051808303815f87803b158015610499575f5ffd5b505af11580156104ab573d5f5f3e3d5ffd5b505050505b5050505061075a565b6001805f8373ffffffffffffffffffffffffffffffffffffffff1673ffffffffffffffffffffffffffffffffffffffff1681526020019081526020015f205f6101000a81548160ff02191690831515021790555050565b5f62ffffff3b90505f811460025f6101000a81548160ff02191690831515021790555050565b5f60035f9054906101000a900473ffffffffffffffffffffffffffffffffffffffff1690508160035f6101000a81548173ffffffffffffffffffffffffffffffffffffffff021916908373ffffffffffffffffffffffffffffffffffffffff1602179055508173ffffffffffffffffffffffffffffffffffffffff168173ffffffffffffffffffffffffffffffffffffffff167f8be0079c531659141344cd1fd0a4f28419497f9722a3daafe3b4186f6b6457e060405160405180910390a35050565b5f5ffd5b5f73ffffffffffffffffffffffffffffffffffffffff82169050919050565b5f610626826105fd565b9050919050565b6106368161061c565b8114610640575f5ffd5b50565b5f815190506106518161062d565b92915050565b5f5f5f5f6080858703121561066f5761066e6105f9565b5b5f61067c87828801610643565b945050602061068d87828801610643565b935050604061069e87828801610643565b92505060606106af87828801610643565b91505092959194509250565b6106c48161061c565b82525050565b5f6020820190506106dd5f8301846106bb565b92915050565b5f819050919050565b6106f5816106e3565b82525050565b5f60c08201905061070e5f8301896106ec565b61071b60208301886106bb565b61072860408301876106ec565b61073560608301866106ec565b61074260808301856106ec565b61074f60a08301846106ec565b979650505050505050565b61180d806107675f395ff3fe60806040526004361061014e575f3560e01c80637a90b990116100b5578063a218141b1161006e578063a218141b146103df578063b187bd2614610409578063c290d69114610433578063cbbf425f1461045b578063d4a2aa3314610485578063f2fde38b146104af57610155565b80637a90b9901461030f5780637e231cbc146103255780638456cb591461034f57806385535cc5146103655780638da5cb5b1461038d5780638f8b6515146103b757610155565b806345f7f2491161010757806345f7f2491461022b5780634a0c8c8d14610255578063573761981461027d578063691b00d1146102a5578063715018a6146102cf57806373fa9bd2146102e557610155565b8063022fe1eb14610159578063046f7da21461016f5780630d152c2c1461018557806338d52e0f146101ad5780633dfe9f6a146101d7578063430bf08a1461020157610155565b3661015557005b5f5ffd5b348015610164575f5ffd5b5061016d6104d7565b005b34801561017a575f5ffd5b506101836105e9565b005b348015610190575f5ffd5b506101ab60048036038101906101a69190611125565b610639565b005b3480156101b8575f5ffd5b506101c1610803565b6040516101ce91906111ab565b60405180910390f35b3480156101e2575f5ffd5b506101eb610828565b6040516101f891906111dc565b60405180910390f35b34801561020c575f5ffd5b5061021561082e565b60405161022291906111ab565b60405180910390f35b348015610236575f5ffd5b5061023f610853565b60405161024c91906111dc565b60405180910390f35b348015610260575f5ffd5b5061027b6004803603810190610276919061121f565b610859565b005b348015610288575f5ffd5b506102a3600480360381019061029e9190611274565b61086b565b005b3480156102b0575f5ffd5b506102b9610a65565b6040516102c691906112cc565b60405180910390f35b3480156102da575f5ffd5b506102e3610a7a565b005b3480156102f0575f5ffd5b506102f9610a8d565b60405161030691906111dc565b60405180910390f35b34801561031a575f5ffd5b50610323610a93565b005b348015610330575f5ffd5b50610339610b5b565b60405161034691906111dc565b60405180910390f35b34801561035a575f5ffd5b50610363610b61565b005b348015610370575f5ffd5b5061038b600480360381019061038691906112e5565b610bb2565b005b348015610398575f5ffd5b506103a1610c6b565b6040516103ae91906111ab565b60405180910390f35b3480156103c2575f5ffd5b506103dd60048036038101906103d8919061121f565b610c93565b005b3480156103ea575f5ffd5b506103f3610ce5565b60405161040091906111dc565b60405180910390f35b348015610414575f5ffd5b5061041d610ceb565b60405161042a91906112cc565b60405180910390f35b34801561043e575f5ffd5b506104596004803603810190610454919061121f565b610cfe565b005b348015610466575f5ffd5b5061046f610d94565b60405161047c919061136b565b60405180910390f35b348015610490575f5ffd5b50610499610db9565b6040516104a691906113a4565b60405180910390f35b3480156104ba575f5ffd5b506104d560048036038101906104d091906112e5565b610dde565b005b6104df610e62565b5f6040516024016040516020818303038152906040527f01e5ccc7000000000000000000000000000000000000000000000000000000007bffffffffffffffffffffffffffffffffffffffffffffffffffffffff19166020820180517bffffffffffffffffffffffffffffffffffffffffffffffffffffffff838183161783525050505090506207a12067ffffffffffffffff1660045f9054906101000a900473ffffffffffffffffffffffffffffffffffffffff1673ffffffffffffffffffffffffffffffffffffffff1662aa36a77f8dd725fa9d6cd150017ab9e60318d40616439424e2fade9c1c58854950917dfc846040516105de919061142d565b60405180910390a450565b6105f1610e62565b5f600760146101000a81548160ff0219169083151502179055507f2a9fc0f54e60b24a2383ee7bc79f061b7d628c0252a3e10f58686af9981c3be560405160405180910390a1565b60025f9054906101000a900460ff1615610688576040517f08c379a000000000000000000000000000000000000000000000000000000000815260040161067f906114a7565b60405180910390fd5b600760149054906101000a900460ff16610800577f804c9b842b2748a22bb64b345453a3de7ca54a6ca45ce00d415894979e22897a816040013514806106f157507f4c209b5fc8ad50758f13e2e1088ba56a560dff690a1c6fef26394f4c03821c4f8160400135145b156107ff575f6040516024016040516020818303038152906040527f01e5ccc7000000000000000000000000000000000000000000000000000000007bffffffffffffffffffffffffffffffffffffffffffffffffffffffff19166020820180517bffffffffffffffffffffffffffffffffffffffffffffffffffffffff838183161783525050505090506207a12067ffffffffffffffff1660045f9054906101000a900473ffffffffffffffffffffffffffffffffffffffff1673ffffffffffffffffffffffffffffffffffffffff1662aa36a77f8dd725fa9d6cd150017ab9e60318d40616439424e2fade9c1c58854950917dfc846040516107f5919061142d565b60405180910390a4505b5b50565b60075f9054906101000a900473ffffffffffffffffffffffffffffffffffffffff1681565b60085481565b60045f9054906101000a900473ffffffffffffffffffffffffffffffffffffffff1681565b600c5481565b610861610e62565b80600c8190555050565b610873610e62565b5f73ffffffffffffffffffffffffffffffffffffffff168273ffffffffffffffffffffffffffffffffffffffff16036108ef573373ffffffffffffffffffffffffffffffffffffffff166108fc8290811502906040515f60405180830381858888f193505050501580156108e9573d5f5f3e3d5ffd5b50610a28565b5f8273ffffffffffffffffffffffffffffffffffffffff16338360405160240161091a9291906114c5565b6040516020818303038152906040527fa9059cbb000000000000000000000000000000000000000000000000000000007bffffffffffffffffffffffffffffffffffffffffffffffffffffffff19166020820180517bffffffffffffffffffffffffffffffffffffffffffffffffffffffff83818316178352505050506040516109a49190611526565b5f604051808303815f865af19150503d805f81146109dd576040519150601f19603f3d011682016040523d82523d5f602084013e6109e2565b606091505b5050905080610a26576040517f08c379a0000000000000000000000000000000000000000000000000000000008152600401610a1d90611586565b60405180910390fd5b505b7f68f67de89e96b13a3ea058af5fd44cc125efceb528482d539c7b43db2faa066e8282604051610a599291906114c5565b60405180910390a15050565b5f60025f9054906101000a900460ff16905090565b610a82610e62565b610a8b5f610ee9565b565b60095481565b5f5f5f9054906101000a900473ffffffffffffffffffffffffffffffffffffffff1673ffffffffffffffffffffffffffffffffffffffff16639b6c56ec306040518263ffffffff1660e01b8152600401610aed91906111ab565b602060405180830381865afa158015610b08573d5f5f3e3d5ffd5b505050506040513d601f19601f82011682018060405250810190610b2c91906115b8565b9050610b585f5f9054906101000a900473ffffffffffffffffffffffffffffffffffffffff1682610fac565b50565b600a5481565b610b69610e62565b6001600760146101000a81548160ff0219169083151502179055507f13eec0552086416c3e09381b21148ff64916a0ba39d91d6f9a37c47e0d261a0d60405160405180910390a1565b610bba610e62565b5f73ffffffffffffffffffffffffffffffffffffffff168173ffffffffffffffffffffffffffffffffffffffff1603610c28576040517f08c379a0000000000000000000000000000000000000000000000000000000008152600401610c1f9061162d565b60405180910390fd5b8060045f6101000a81548173ffffffffffffffffffffffffffffffffffffffff021916908373ffffffffffffffffffffffffffffffffffffffff16021790555050565b5f60035f9054906101000a900473ffffffffffffffffffffffffffffffffffffffff16905090565b610c9b610e62565b5f6008549050816008819055507fb06a54caabe58475c86c2bf9df3f2f06dd1213e9e10659c293117fe4893b274b8183604051610cd992919061164b565b60405180910390a15050565b600b5481565b600760149054906101000a900460ff1681565b60015f3373ffffffffffffffffffffffffffffffffffffffff1673ffffffffffffffffffffffffffffffffffffffff1681526020019081526020015f205f9054906101000a900460ff16610d87576040517f08c379a0000000000000000000000000000000000000000000000000000000008152600401610d7e906116bc565b60405180910390fd5b610d913382610fac565b50565b60055f9054906101000a900473ffffffffffffffffffffffffffffffffffffffff1681565b60065f9054906101000a900473ffffffffffffffffffffffffffffffffffffffff1681565b610de6610e62565b5f73ffffffffffffffffffffffffffffffffffffffff168173ffffffffffffffffffffffffffffffffffffffff1603610e56575f6040517f1e4fbdf7000000000000000000000000000000000000000000000000000000008152600401610e4d91906111ab565b60405180910390fd5b610e5f81610ee9565b50565b610e6a6110f3565b73ffffffffffffffffffffffffffffffffffffffff16610e88610c6b565b73ffffffffffffffffffffffffffffffffffffffff1614610ee757610eab6110f3565b6040517f118cdaa7000000000000000000000000000000000000000000000000000000008152600401610ede91906111ab565b60405180910390fd5b565b5f60035f9054906101000a900473ffffffffffffffffffffffffffffffffffffffff1690508160035f6101000a81548173ffffffffffffffffffffffffffffffffffffffff021916908373ffffffffffffffffffffffffffffffffffffffff1602179055508173ffffffffffffffffffffffffffffffffffffffff168173ffffffffffffffffffffffffffffffffffffffff167f8be0079c531659141344cd1fd0a4f28419497f9722a3daafe3b4186f6b6457e060405160405180910390a35050565b80471015610fef576040517f08c379a0000000000000000000000000000000000000000000000000000000008152600401610fe690611724565b60405180910390fd5b5f8111156110ef575f8273ffffffffffffffffffffffffffffffffffffffff16825f67ffffffffffffffff81111561102a57611029611742565b5b6040519080825280601f01601f19166020018201604052801561105c5781602001600182028036833780820191505090505b5060405161106a9190611526565b5f6040518083038185875af1925050503d805f81146110a4576040519150601f19603f3d011682016040523d82523d5f602084013e6110a9565b606091505b50509050806110ed576040517f08c379a00000000000000000000000000000000000000000000000000000000081526004016110e4906117b9565b60405180910390fd5b505b5050565b5f33905090565b5f5ffd5b5f5ffd5b5f5ffd5b5f610180828403121561111c5761111b611102565b5b81905092915050565b5f6020828403121561113a576111396110fa565b5b5f82013567ffffffffffffffff811115611157576111566110fe565b5b61116384828501611106565b91505092915050565b5f73ffffffffffffffffffffffffffffffffffffffff82169050919050565b5f6111958261116c565b9050919050565b6111a58161118b565b82525050565b5f6020820190506111be5f83018461119c565b92915050565b5f819050919050565b6111d6816111c4565b82525050565b5f6020820190506111ef5f8301846111cd565b92915050565b6111fe816111c4565b8114611208575f5ffd5b50565b5f81359050611219816111f5565b92915050565b5f60208284031215611234576112336110fa565b5b5f6112418482850161120b565b91505092915050565b6112538161118b565b811461125d575f5ffd5b50565b5f8135905061126e8161124a565b92915050565b5f5f6040838503121561128a576112896110fa565b5b5f61129785828601611260565b92505060206112a88582860161120b565b9150509250929050565b5f8115159050919050565b6112c6816112b2565b82525050565b5f6020820190506112df5f8301846112bd565b92915050565b5f602082840312156112fa576112f96110fa565b5b5f61130784828501611260565b91505092915050565b5f819050919050565b5f61133361132e6113298461116c565b611310565b61116c565b9050919050565b5f61134482611319565b9050919050565b5f6113558261133a565b9050919050565b6113658161134b565b82525050565b5f60208201905061137e5f83018461135c565b92915050565b5f61138e8261133a565b9050919050565b61139e81611384565b82525050565b5f6020820190506113b75f830184611395565b92915050565b5f81519050919050565b5f82825260208201905092915050565b8281835e5f83830152505050565b5f601f19601f8301169050919050565b5f6113ff826113bd565b61140981856113c7565b93506114198185602086016113d7565b611422816113e5565b840191505092915050565b5f6020820190508181035f83015261144581846113f5565b905092915050565b5f82825260208201905092915050565b7f5265616374697665204e6574776f726b206f6e6c7900000000000000000000005f82015250565b5f61149160158361144d565b915061149c8261145d565b602082019050919050565b5f6020820190508181035f8301526114be81611485565b9050919050565b5f6040820190506114d85f83018561119c565b6114e560208301846111cd565b9392505050565b5f81905092915050565b5f611500826113bd565b61150a81856114ec565b935061151a8185602086016113d7565b80840191505092915050565b5f61153182846114f6565b915081905092915050565b7f546f6b656e20726573637565206661696c6564000000000000000000000000005f82015250565b5f61157060138361144d565b915061157b8261153c565b602082019050919050565b5f6020820190508181035f83015261159d81611564565b9050919050565b5f815190506115b2816111f5565b92915050565b5f602082840312156115cd576115cc6110fa565b5b5f6115da848285016115a4565b91505092915050565b7f496e76616c6964207661756c74206164647265737300000000000000000000005f82015250565b5f61161760158361144d565b9150611622826115e3565b602082019050919050565b5f6020820190508181035f8301526116448161160b565b9050919050565b5f60408201905061165e5f8301856111cd565b61166b60208301846111cd565b9392505050565b7f417574686f72697a65642073656e646572206f6e6c79000000000000000000005f82015250565b5f6116a660168361144d565b91506116b182611672565b602082019050919050565b5f6020820190508181035f8301526116d38161169a565b9050919050565b7f496e73756666696369656e742066756e647300000000000000000000000000005f82015250565b5f61170e60128361144d565b9150611719826116da565b602082019050919050565b5f6020820190508181035f83015261173b81611702565b9050919050565b7f4e487b71000000000000000000000000000000000000000000000000000000005f52604160045260245ffd5b7f5472616e73666572206661696c656400000000000000000000000000000000005f82015250565b5f6117a3600f8361144d565b91506117ae8261176f565b602082019050919050565b5f6020820190508181035f8301526117d081611797565b905091905056fea264697066735822122023154312416244d963773e8528777887e5bd426b927075ea0fd3d0c9431b21af64736f6c634300081e0033","linkReferences":{}},"methodIdentifiers":{"asset()":"38d52e0f","coverDebt()":"7a90b990","getVmStatus()":"691b00d1","isPaused()":"b187bd26","lastPoolAApy()":"73fa9bd2","lastPoolBApy()":"7e231cbc","lastUpdateBlock()":"a218141b","manualTrigger()":"022fe1eb","owner()":"8da5cb5b","pause()":"8456cb59","pay(uint256)":"c290d691","poolA()":"cbbf425f","poolB()":"d4a2aa33","react((uint256,address,uint256,uint256,uint256,uint256,bytes,uint256,uint256,uint256,uint256,uint256))":"0d152c2c","rebalanceThreshold()":"3dfe9f6a","renounceOwnership()":"715018a6","rescueTokens(address,uint256)":"57376198","resume()":"046f7da2","setRebalanceThreshold(uint256)":"8f8b6515","setVaultAddress(address)":"85535cc5","totalAllocated()":"45f7f249","transferOwnership(address)":"f2fde38b","updateTotalAllocated(uint256)":"4a0c8c8d","vaultAddress()":"430bf08a"},"id":11}