{"abi":[{"type":"constructor","inputs":[{"name":"_poolA","type":"address","internalType":"address"},{"name":"_poolB","type":"address","internalType":"address"},{"name":"_asset","type":"address","internalType":"address"},{"name":"_vault","type":"address","internalType":"address"}],"stateMutability":"nonpayable"},{"type":"receive","stateMutability":"payable"},{"type":"function","name":"asset","inputs":[],"outputs":[{"name":"","type":"address","internalType":"address"}],"stateMutability":"view"},{"type":"function","name":"checkYieldRates","inputs":[],"outputs":[],"stateMutability":"nonpayable"},{"type":"function","name":"getCurrentYieldData","inputs":[],"outputs":[{"name":"poolAApy","type":"uint256","internalType":"uint256"},{"name":"poolBApy","type":"uint256","internalType":"uint256"},{"name":"difference","type":"uint256","internalType":"uint256"}],"stateMutability":"view"},{"type":"function","name":"isPaused","inputs":[],"outputs":[{"name":"","type":"bool","internalType":"bool"}],"stateMutability":"view"},{"type":"function","name":"lastPoolAApy","inputs":[],"outputs":[{"name":"","type":"uint256","internalType":"uint256"}],"stateMutability":"view"},{"type":"function","name":"lastPoolBApy","inputs":[],"outputs":[{"name":"","type":"uint256","internalType":"uint256"}],"stateMutability":"view"},{"type":"function","name":"lastUpdateBlock","inputs":[],"outputs":[{"name":"","type":"uint256","internalType":"uint256"}],"stateMutability":"view"},{"type":"function","name":"owner","inputs":[],"outputs":[{"name":"","type":"address","internalType":"address"}],"stateMutability":"view"},{"type":"function","name":"ownerPause","inputs":[{"name":"paused","type":"bool","internalType":"bool"}],"outputs":[],"stateMutability":"nonpayable"},{"type":"function","name":"pause","inputs":[],"outputs":[],"stateMutability":"nonpayable"},{"type":"function","name":"pay","inputs":[{"name":"amount","type":"uint256","internalType":"uint256"}],"outputs":[],"stateMutability":"nonpayable"},{"type":"function","name":"poolA","inputs":[],"outputs":[{"name":"","type":"address","internalType":"contract IAaveLendingPool"}],"stateMutability":"view"},{"type":"function","name":"poolB","inputs":[],"outputs":[{"name":"","type":"address","internalType":"contract ICompoundLendingPool"}],"stateMutability":"view"},{"type":"function","name":"react","inputs":[{"name":"log","type":"tuple","internalType":"struct IReactive.LogRecord","components":[{"name":"chainId","type":"uint256","internalType":"uint256"},{"name":"_contract","type":"address","internalType":"address"},{"name":"topic0","type":"uint256","internalType":"uint256"},{"name":"topic1","type":"uint256","internalType":"uint256"},{"name":"topic2","type":"uint256","internalType":"uint256"},{"name":"topic3","type":"uint256","internalType":"uint256"},{"name":"data","type":"bytes","internalType":"bytes"},{"name":"blockNumber","type":"uint256","internalType":"uint256"},{"name":"opCode","type":"uint256","internalType":"uint256"},{"name":"blockHash","type":"uint256","internalType":"uint256"},{"name":"txHash","type":"uint256","internalType":"uint256"},{"name":"logIndex","type":"uint256","internalType":"uint256"}]}],"outputs":[],"stateMutability":"nonpayable"},{"type":"function","name":"renounceOwnership","inputs":[],"outputs":[],"stateMutability":"nonpayable"},{"type":"function","name":"resume","inputs":[],"outputs":[],"stateMutability":"nonpayable"},{"type":"function","name":"setTotalAllocated","inputs":[{"name":"amount","type":"uint256","internalType":"uint256"}],"outputs":[],"stateMutability":"nonpayable"},{"type":"function","name":"totalAllocated","inputs":[],"outputs":[{"name":"","type":"uint256","internalType":"uint256"}],"stateMutability":"view"},{"type":"function","name":"transferOwnership","inputs":[{"name":"newOwner","type":"address","internalType":"address"}],"outputs":[],"stateMutability":"nonpayable"},{"type":"function","name":"updateVaultAddress","inputs":[{"name":"newVault","type":"address","internalType":"address"}],"outputs":[],"stateMutability":"nonpayable"},{"type":"function","name":"vaultAddress","inputs":[],"outputs":[{"name":"","type":"address","internalType":"address"}],"stateMutability":"view"},{"type":"event","name":"Callback","inputs":[{"name":"chainId","type":"uint256","indexed":true,"internalType":"uint256"},{"name":"_contract","type":"address","indexed":true,"internalType":"address"},{"name":"gasLimit","type":"uint64","indexed":true,"internalType":"uint64"},{"name":"payload","type":"bytes","indexed":false,"internalType":"bytes"}],"anonymous":false},{"type":"event","name":"MonitorPaused","inputs":[],"anonymous":false},{"type":"event","name":"MonitorResumed","inputs":[],"anonymous":false},{"type":"event","name":"OwnershipTransferred","inputs":[{"name":"previousOwner","type":"address","indexed":true,"internalType":"address"},{"name":"newOwner","type":"address","indexed":true,"internalType":"address"}],"anonymous":false},{"type":"event","name":"RebalanceTriggered","inputs":[{"name":"fromPool","type":"address","indexed":true,"internalType":"address"},{"name":"toPool","type":"address","indexed":true,"internalType":"address"},{"name":"amount","type":"uint256","indexed":false,"internalType":"uint256"}],"anonymous":false},{"type":"event","name":"YieldRateUpdated","inputs":[{"name":"poolAApy","type":"uint256","indexed":false,"internalType":"uint256"},{"name":"poolBApy","type":"uint256","indexed":false,"internalType":"uint256"},{"name":"difference","type":"uint256","indexed":false,"internalType":"uint256"}],"anonymous":false},{"type":"error","name":"OwnableInvalidOwner","inputs":[{"name":"owner","type":"address","internalType":"address"}]},{"type":"error","name":"OwnableUnauthorizedAccount","inputs":[{"name":"account","type":"address","internalType":"address"}]}],"bytecode":{"object":"0x608060405234801561000f575f5ffd5b50604051611ad7380380611ad7833981810160405281019061003191906102fb565b335f73ffffffffffffffffffffffffffffffffffffffff168173ffffffffffffffffffffffffffffffffffffffff16036100a2575f6040517f1e4fbdf7000000000000000000000000000000000000000000000000000000008152600401610099919061036e565b60405180910390fd5b6100b1816101dc60201b60201c565b508360025f6101000a81548173ffffffffffffffffffffffffffffffffffffffff021916908373ffffffffffffffffffffffffffffffffffffffff1602179055508260035f6101000a81548173ffffffffffffffffffffffffffffffffffffffff021916908373ffffffffffffffffffffffffffffffffffffffff1602179055508160045f6101000a81548173ffffffffffffffffffffffffffffffffffffffff021916908373ffffffffffffffffffffffffffffffffffffffff1602179055508060015f6101000a81548173ffffffffffffffffffffffffffffffffffffffff021916908373ffffffffffffffffffffffffffffffffffffffff1602179055505f600460146101000a81548160ff0219169083151502179055504360078190555050505050610387565b5f5f5f9054906101000a900473ffffffffffffffffffffffffffffffffffffffff169050815f5f6101000a81548173ffffffffffffffffffffffffffffffffffffffff021916908373ffffffffffffffffffffffffffffffffffffffff1602179055508173ffffffffffffffffffffffffffffffffffffffff168173ffffffffffffffffffffffffffffffffffffffff167f8be0079c531659141344cd1fd0a4f28419497f9722a3daafe3b4186f6b6457e060405160405180910390a35050565b5f5ffd5b5f73ffffffffffffffffffffffffffffffffffffffff82169050919050565b5f6102ca826102a1565b9050919050565b6102da816102c0565b81146102e4575f5ffd5b50565b5f815190506102f5816102d1565b92915050565b5f5f5f5f608085870312156103135761031261029d565b5b5f610320878288016102e7565b9450506020610331878288016102e7565b9350506040610342878288016102e7565b9250506060610353878288016102e7565b91505092959194509250565b610368816102c0565b82525050565b5f6020820190506103815f83018461035f565b92915050565b611743806103945f395ff3fe60806040526004361061012d575f3560e01c80638456cb59116100aa578063cbbf425f1161006e578063cbbf425f14610358578063d2de2f8514610382578063d4a2aa33146103aa578063e96279ce146103d4578063f2fde38b14610400578063fdb1cdf91461042857610134565b80638456cb591461029c5780638da5cb5b146102b2578063a218141b146102dc578063b187bd2614610306578063c290d6911461033057610134565b806345f7f249116100f157806345f7f249146101f2578063715018a61461021c57806373fa9bd21461023257806379be5d221461025c5780637e231cbc1461027257610134565b8063046f7da2146101385780630d152c2c1461014e5780631f4e0c231461017657806338d52e0f1461019e578063430bf08a146101c857610134565b3661013457005b5f5ffd5b348015610143575f5ffd5b5061014c610450565b005b348015610159575f5ffd5b50610174600480360381019061016f9190610f8e565b610498565b005b348015610181575f5ffd5b5061019c6004803603810190610197919061100a565b6105c4565b005b3480156101a9575f5ffd5b506101b261064d565b6040516101bf9190611074565b60405180910390f35b3480156101d3575f5ffd5b506101dc610672565b6040516101e99190611074565b60405180910390f35b3480156101fd575f5ffd5b50610206610697565b60405161021391906110a5565b60405180910390f35b348015610227575f5ffd5b5061023061069d565b005b34801561023d575f5ffd5b506102466106b0565b60405161025391906110a5565b60405180910390f35b348015610267575f5ffd5b506102706106b6565b005b34801561027d575f5ffd5b50610286610710565b60405161029391906110a5565b60405180910390f35b3480156102a7575f5ffd5b506102b0610716565b005b3480156102bd575f5ffd5b506102c661075f565b6040516102d39190611074565b60405180910390f35b3480156102e7575f5ffd5b506102f0610786565b6040516102fd91906110a5565b60405180910390f35b348015610311575f5ffd5b5061031a61078c565b60405161032791906110cd565b60405180910390f35b34801561033b575f5ffd5b5061035660048036038101906103519190611110565b61079f565b005b348015610363575f5ffd5b5061036c6107e6565b6040516103799190611196565b60405180910390f35b34801561038d575f5ffd5b506103a860048036038101906103a391906111d9565b61080b565b005b3480156103b5575f5ffd5b506103be610856565b6040516103cb9190611224565b60405180910390f35b3480156103df575f5ffd5b506103e861087b565b6040516103f79392919061123d565b60405180910390f35b34801561040b575f5ffd5b50610426600480360381019061042191906111d9565b6108ba565b005b348015610433575f5ffd5b5061044e60048036038101906104499190611110565b61093e565b005b5f600460146101000a81548160ff0219169083151502179055507f2a9fc0f54e60b24a2383ee7bc79f061b7d628c0252a3e10f58686af9981c3be560405160405180910390a1565b600460149054906101000a900460ff16156104e8576040517f08c379a00000000000000000000000000000000000000000000000000000000081526004016104df906112f2565b60405180910390fd5b60025f9054906101000a900473ffffffffffffffffffffffffffffffffffffffff1673ffffffffffffffffffffffffffffffffffffffff1681602001602081019061053391906111d9565b73ffffffffffffffffffffffffffffffffffffffff1614806105b3575060035f9054906101000a900473ffffffffffffffffffffffffffffffffffffffff1673ffffffffffffffffffffffffffffffffffffffff1681602001602081019061059b91906111d9565b73ffffffffffffffffffffffffffffffffffffffff16145b156105c1576105c0610950565b5b50565b6105cc6109ee565b80600460146101000a81548160ff021916908315150217905550801561061d577f13eec0552086416c3e09381b21148ff64916a0ba39d91d6f9a37c47e0d261a0d60405160405180910390a161064a565b7f2a9fc0f54e60b24a2383ee7bc79f061b7d628c0252a3e10f58686af9981c3be560405160405180910390a15b50565b60045f9054906101000a900473ffffffffffffffffffffffffffffffffffffffff1681565b60015f9054906101000a900473ffffffffffffffffffffffffffffffffffffffff1681565b60085481565b6106a56109ee565b6106ae5f610a75565b565b60055481565b600460149054906101000a900460ff1615610706576040517f08c379a00000000000000000000000000000000000000000000000000000000081526004016106fd906112f2565b60405180910390fd5b61070e610950565b565b60065481565b6001600460146101000a81548160ff0219169083151502179055507f13eec0552086416c3e09381b21148ff64916a0ba39d91d6f9a37c47e0d261a0d60405160405180910390a1565b5f5f5f9054906101000a900473ffffffffffffffffffffffffffffffffffffffff16905090565b60075481565b600460149054906101000a900460ff1681565b3373ffffffffffffffffffffffffffffffffffffffff166108fc8290811502906040515f60405180830381858888f193505050501580156107e2573d5f5f3e3d5ffd5b5050565b60025f9054906101000a900473ffffffffffffffffffffffffffffffffffffffff1681565b6108136109ee565b8060015f6101000a81548173ffffffffffffffffffffffffffffffffffffffff021916908373ffffffffffffffffffffffffffffffffffffffff16021790555050565b60035f9054906101000a900473ffffffffffffffffffffffffffffffffffffffff1681565b5f5f5f610886610b36565b80935081945050508183116108a65782826108a1919061133d565b6108b3565b81836108b2919061133d565b5b9050909192565b6108c26109ee565b5f73ffffffffffffffffffffffffffffffffffffffff168173ffffffffffffffffffffffffffffffffffffffff1603610932575f6040517f1e4fbdf70000000000000000000000000000000000000000000000000000000081526004016109299190611074565b60405180910390fd5b61093b81610a75565b50565b6109466109ee565b8060088190555050565b5f5f61095a610b36565b915091508160058190555080600681905550436007819055505f81831161098c578282610987919061133d565b610999565b8183610998919061133d565b5b90507f875894a489de1b1b13bf2e6c03981e3ddabcf1794b4b94dc5ba5d8e855a1e2f98383836040516109ce9392919061123d565b60405180910390a1603281106109e9576109e88383610ca6565b5b505050565b6109f6610ee7565b73ffffffffffffffffffffffffffffffffffffffff16610a1461075f565b73ffffffffffffffffffffffffffffffffffffffff1614610a7357610a37610ee7565b6040517f118cdaa7000000000000000000000000000000000000000000000000000000008152600401610a6a9190611074565b60405180910390fd5b565b5f5f5f9054906101000a900473ffffffffffffffffffffffffffffffffffffffff169050815f5f6101000a81548173ffffffffffffffffffffffffffffffffffffffff021916908373ffffffffffffffffffffffffffffffffffffffff1602179055508173ffffffffffffffffffffffffffffffffffffffff168173ffffffffffffffffffffffffffffffffffffffff167f8be0079c531659141344cd1fd0a4f28419497f9722a3daafe3b4186f6b6457e060405160405180910390a35050565b5f5f5f60025f9054906101000a900473ffffffffffffffffffffffffffffffffffffffff1673ffffffffffffffffffffffffffffffffffffffff166335ea6a7560045f9054906101000a900473ffffffffffffffffffffffffffffffffffffffff166040518263ffffffff1660e01b8152600401610bb49190611074565b61016060405180830381865afa158015610bd0573d5f5f3e3d5ffd5b505050506040513d601f19601f82011682018060405250810190610bf49190611563565b9050610c02815f0151610eee565b92505f60035f9054906101000a900473ffffffffffffffffffffffffffffffffffffffff1673ffffffffffffffffffffffffffffffffffffffff1663ae9d70b06040518163ffffffff1660e01b8152600401602060405180830381865afa158015610c6f573d5f5f3e3d5ffd5b505050506040513d601f19601f82011682018060405250810190610c93919061158f565b9050610c9e81610f0b565b925050509091565b5f818311610cd55760025f9054906101000a900473ffffffffffffffffffffffffffffffffffffffff16610cf8565b60035f9054906101000a900473ffffffffffffffffffffffffffffffffffffffff165b90505f828411610d295760035f9054906101000a900473ffffffffffffffffffffffffffffffffffffffff16610d4c565b60025f9054906101000a900473ffffffffffffffffffffffffffffffffffffffff165b90505f610d598383610f42565b90505f811115610ee0575f838383604051602401610d79939291906115ba565b6040516020818303038152906040527fb3f865f7000000000000000000000000000000000000000000000000000000007bffffffffffffffffffffffffffffffffffffffffffffffffffffffff19166020820180517bffffffffffffffffffffffffffffffffffffffffffffffffffffffff8381831617835250505050905062030d4067ffffffffffffffff1660015f9054906101000a900473ffffffffffffffffffffffffffffffffffffffff1673ffffffffffffffffffffffffffffffffffffffff1662aa36a77f8dd725fa9d6cd150017ab9e60318d40616439424e2fade9c1c58854950917dfc84604051610e71919061164f565b60405180910390a48273ffffffffffffffffffffffffffffffffffffffff168473ffffffffffffffffffffffffffffffffffffffff167ffdda45e966ff112496244be5352b7733c9a992c78ba3e05e468531fb3eb9791d84604051610ed691906110a5565b60405180910390a3505b5050505050565b5f33905090565b5f683635c9adc5dea0000082610f04919061169c565b9050919050565b5f670de0b6b3a76400006127106220148084610f2791906116cc565b610f3191906116cc565b610f3b919061169c565b9050919050565b5f600a600854610f52919061169c565b905092915050565b5f604051905090565b5f5ffd5b5f5ffd5b5f5ffd5b5f6101808284031215610f8557610f84610f6b565b5b81905092915050565b5f60208284031215610fa357610fa2610f63565b5b5f82013567ffffffffffffffff811115610fc057610fbf610f67565b5b610fcc84828501610f6f565b91505092915050565b5f8115159050919050565b610fe981610fd5565b8114610ff3575f5ffd5b50565b5f8135905061100481610fe0565b92915050565b5f6020828403121561101f5761101e610f63565b5b5f61102c84828501610ff6565b91505092915050565b5f73ffffffffffffffffffffffffffffffffffffffff82169050919050565b5f61105e82611035565b9050919050565b61106e81611054565b82525050565b5f6020820190506110875f830184611065565b92915050565b5f819050919050565b61109f8161108d565b82525050565b5f6020820190506110b85f830184611096565b92915050565b6110c781610fd5565b82525050565b5f6020820190506110e05f8301846110be565b92915050565b6110ef8161108d565b81146110f9575f5ffd5b50565b5f8135905061110a816110e6565b92915050565b5f6020828403121561112557611124610f63565b5b5f611132848285016110fc565b91505092915050565b5f819050919050565b5f61115e61115961115484611035565b61113b565b611035565b9050919050565b5f61116f82611144565b9050919050565b5f61118082611165565b9050919050565b61119081611176565b82525050565b5f6020820190506111a95f830184611187565b92915050565b6111b881611054565b81146111c2575f5ffd5b50565b5f813590506111d3816111af565b92915050565b5f602082840312156111ee576111ed610f63565b5b5f6111fb848285016111c5565b91505092915050565b5f61120e82611165565b9050919050565b61121e81611204565b82525050565b5f6020820190506112375f830184611215565b92915050565b5f6060820190506112505f830186611096565b61125d6020830185611096565b61126a6040830184611096565b949350505050565b5f82825260208201905092915050565b7f5969656c644d6f6e69746f723a204d6f6e69746f72696e6720697320706175735f8201527f6564000000000000000000000000000000000000000000000000000000000000602082015250565b5f6112dc602283611272565b91506112e782611282565b604082019050919050565b5f6020820190508181035f830152611309816112d0565b9050919050565b7f4e487b71000000000000000000000000000000000000000000000000000000005f52601160045260245ffd5b5f6113478261108d565b91506113528361108d565b925082820390508181111561136a57611369611310565b5b92915050565b5f5ffd5b5f601f19601f8301169050919050565b7f4e487b71000000000000000000000000000000000000000000000000000000005f52604160045260245ffd5b6113ba82611374565b810181811067ffffffffffffffff821117156113d9576113d8611384565b5b80604052505050565b5f6113eb610f5a565b90506113f782826113b1565b919050565b5f8151905061140a816110e6565b92915050565b5f8151905061141e816111af565b92915050565b5f60ff82169050919050565b61143981611424565b8114611443575f5ffd5b50565b5f8151905061145481611430565b92915050565b5f61016082840312156114705761146f611370565b5b61147b6101606113e2565b90505f61148a848285016113fc565b5f83015250602061149d848285016113fc565b60208301525060406114b1848285016113fc565b60408301525060606114c5848285016113fc565b60608301525060806114d9848285016113fc565b60808301525060a06114ed848285016113fc565b60a08301525060c061150184828501611410565b60c08301525060e061151584828501611410565b60e08301525061010061152a84828501611410565b6101008301525061012061154084828501611410565b6101208301525061014061155684828501611446565b6101408301525092915050565b5f610160828403121561157957611578610f63565b5b5f6115868482850161145a565b91505092915050565b5f602082840312156115a4576115a3610f63565b5b5f6115b1848285016113fc565b91505092915050565b5f6060820190506115cd5f830186611065565b6115da6020830185611065565b6115e76040830184611096565b949350505050565b5f81519050919050565b5f82825260208201905092915050565b8281835e5f83830152505050565b5f611621826115ef565b61162b81856115f9565b935061163b818560208601611609565b61164481611374565b840191505092915050565b5f6020820190508181035f8301526116678184611617565b905092915050565b7f4e487b71000000000000000000000000000000000000000000000000000000005f52601260045260245ffd5b5f6116a68261108d565b91506116b18361108d565b9250826116c1576116c061166f565b5b828204905092915050565b5f6116d68261108d565b91506116e18361108d565b92508282026116ef8161108d565b9150828204841483151761170657611705611310565b5b509291505056fea264697066735822122037cab2fc4fcd0cde93719a019e08b4d60649a157a7e277321adec823f88d69c064736f6c634300081e0033","linkReferences":{}},"methodIdentifiers":{"asset()":"38d52e0f","checkYieldRates()":"79be5d22","getCurrentYieldData()":"e96279ce","isPaused()":"b187bd26","lastPoolAApy()":"73fa9bd2","lastPoolBApy()":"7e231cbc","lastUpdateBlock()":"a218141b","owner()":"8da5cb5b","ownerPause(bool)":"1f4e0c23","pause()":"8456cb59","pay(uint256)":"c290d691","poolA()":"cbbf425f","poolB()":"d4a2aa33","react((uint256,address,uint256,uint256,uint256,uint256,bytes,uint256,uint256,uint256,uint256,uint256))":"0d152c2c","renounceOwnership()":"715018a6","resume()":"046f7da2","setTotalAllocated(uint256)":"fdb1cdf9","totalAllocated()":"45f7f249","transferOwnership(address)":"f2fde38b","updateVaultAddress(address)":"d2de2f85","vaultAddress()":"430bf08a"},"id":51}