{"abi":[{"type":"constructor","inputs":[{"name":"","type":"address","internalType":"address"},{"name":"_poolA","type":"address","internalType":"address"},{"name":"_poolB","type":"address","internalType":"address"},{"name":"_asset","type":"address","internalType":"address"},{"name":"_vault","type":"address","internalType":"address"}],"stateMutability":"payable"},{"type":"receive","stateMutability":"payable"},{"type":"function","name":"asset","inputs":[],"outputs":[{"name":"","type":"address","internalType":"address"}],"stateMutability":"view"},{"type":"function","name":"coverDebt","inputs":[],"outputs":[],"stateMutability":"nonpayable"},{"type":"function","name":"getVmStatus","inputs":[],"outputs":[{"name":"","type":"bool","internalType":"bool"}],"stateMutability":"view"},{"type":"function","name":"isPaused","inputs":[],"outputs":[{"name":"","type":"bool","internalType":"bool"}],"stateMutability":"view"},{"type":"function","name":"lastPoolAApy","inputs":[],"outputs":[{"name":"","type":"uint256","internalType":"uint256"}],"stateMutability":"view"},{"type":"function","name":"lastPoolBApy","inputs":[],"outputs":[{"name":"","type":"uint256","internalType":"uint256"}],"stateMutability":"view"},{"type":"function","name":"lastUpdateBlock","inputs":[],"outputs":[{"name":"","type":"uint256","internalType":"uint256"}],"stateMutability":"view"},{"type":"function","name":"manualTrigger","inputs":[],"outputs":[],"stateMutability":"nonpayable"},{"type":"function","name":"owner","inputs":[],"outputs":[{"name":"","type":"address","internalType":"address"}],"stateMutability":"view"},{"type":"function","name":"pause","inputs":[],"outputs":[],"stateMutability":"nonpayable"},{"type":"function","name":"pay","inputs":[{"name":"amount","type":"uint256","internalType":"uint256"}],"outputs":[],"stateMutability":"nonpayable"},{"type":"function","name":"poolA","inputs":[],"outputs":[{"name":"","type":"address","internalType":"contract IAaveLendingPool"}],"stateMutability":"view"},{"type":"function","name":"poolB","inputs":[],"outputs":[{"name":"","type":"address","internalType":"contract ICompoundLendingPool"}],"stateMutability":"view"},{"type":"function","name":"react","inputs":[{"name":"log","type":"tuple","internalType":"struct IReactive.LogRecord","components":[{"name":"chain_id","type":"uint256","internalType":"uint256"},{"name":"_contract","type":"address","internalType":"address"},{"name":"topic_0","type":"uint256","internalType":"uint256"},{"name":"topic_1","type":"uint256","internalType":"uint256"},{"name":"topic_2","type":"uint256","internalType":"uint256"},{"name":"topic_3","type":"uint256","internalType":"uint256"},{"name":"data","type":"bytes","internalType":"bytes"},{"name":"block_number","type":"uint256","internalType":"uint256"},{"name":"op_code","type":"uint256","internalType":"uint256"},{"name":"block_hash","type":"uint256","internalType":"uint256"},{"name":"tx_hash","type":"uint256","internalType":"uint256"},{"name":"log_index","type":"uint256","internalType":"uint256"}]}],"outputs":[],"stateMutability":"nonpayable"},{"type":"function","name":"rebalanceThreshold","inputs":[],"outputs":[{"name":"","type":"uint256","internalType":"uint256"}],"stateMutability":"view"},{"type":"function","name":"renounceOwnership","inputs":[],"outputs":[],"stateMutability":"nonpayable"},{"type":"function","name":"rescueTokens","inputs":[{"name":"token","type":"address","internalType":"address"},{"name":"amount","type":"uint256","internalType":"uint256"}],"outputs":[],"stateMutability":"nonpayable"},{"type":"function","name":"resume","inputs":[],"outputs":[],"stateMutability":"nonpayable"},{"type":"function","name":"setRebalanceThreshold","inputs":[{"name":"newThreshold","type":"uint256","internalType":"uint256"}],"outputs":[],"stateMutability":"nonpayable"},{"type":"function","name":"setVaultAddress","inputs":[{"name":"newVault","type":"address","internalType":"address"}],"outputs":[],"stateMutability":"nonpayable"},{"type":"function","name":"totalAllocated","inputs":[],"outputs":[{"name":"","type":"uint256","internalType":"uint256"}],"stateMutability":"view"},{"type":"function","name":"transferOwnership","inputs":[{"name":"newOwner","type":"address","internalType":"address"}],"outputs":[],"stateMutability":"nonpayable"},{"type":"function","name":"updateTotalAllocated","inputs":[{"name":"amount","type":"uint256","internalType":"uint256"}],"outputs":[],"stateMutability":"nonpayable"},{"type":"function","name":"vaultAddress","inputs":[],"outputs":[{"name":"","type":"address","internalType":"address"}],"stateMutability":"view"},{"type":"event","name":"Callback","inputs":[{"name":"chain_id","type":"uint256","indexed":true,"internalType":"uint256"},{"name":"_contract","type":"address","indexed":true,"internalType":"address"},{"name":"gas_limit","type":"uint64","indexed":true,"internalType":"uint64"},{"name":"payload","type":"bytes","indexed":false,"internalType":"bytes"}],"anonymous":false},{"type":"event","name":"MonitorPaused","inputs":[],"anonymous":false},{"type":"event","name":"MonitorResumed","inputs":[],"anonymous":false},{"type":"event","name":"OwnershipTransferred","inputs":[{"name":"previousOwner","type":"address","indexed":true,"internalType":"address"},{"name":"newOwner","type":"address","indexed":true,"internalType":"address"}],"anonymous":false},{"type":"event","name":"RebalanceTriggered","inputs":[{"name":"fromPool","type":"address","indexed":true,"internalType":"address"},{"name":"toPool","type":"address","indexed":true,"internalType":"address"},{"name":"amount","type":"uint256","indexed":false,"internalType":"uint256"}],"anonymous":false},{"type":"event","name":"ThresholdUpdated","inputs":[{"name":"oldThreshold","type":"uint256","indexed":false,"internalType":"uint256"},{"name":"newThreshold","type":"uint256","indexed":false,"internalType":"uint256"}],"anonymous":false},{"type":"event","name":"TokensRescued","inputs":[{"name":"token","type":"address","indexed":false,"internalType":"address"},{"name":"amount","type":"uint256","indexed":false,"internalType":"uint256"}],"anonymous":false},{"type":"event","name":"YieldRateUpdated","inputs":[{"name":"poolAApy","type":"uint256","indexed":false,"internalType":"uint256"},{"name":"poolBApy","type":"uint256","indexed":false,"internalType":"uint256"},{"name":"difference","type":"uint256","indexed":false,"internalType":"uint256"}],"anonymous":false},{"type":"error","name":"OwnableInvalidOwner","inputs":[{"name":"owner","type":"address","internalType":"address"}]},{"type":"error","name":"OwnableUnauthorizedAccount","inputs":[{"name":"account","type":"address","internalType":"address"}]}],"bytecode":{"object":"0x6080604052604051611ed1380380611ed183398181016040528101906100259190610658565b3362ffffff600260016101000a81548173ffffffffffffffffffffffffffffffffffffffff021916908373ffffffffffffffffffffffffffffffffffffffff16021790555f5f6101000a81548173ffffffffffffffffffffffffffffffffffffffff021916908373ffffffffffffffffffffffffffffffffffffffff1602179055506100b962ffffff6104ba60201b60201c565b6100c761051160201b60201c565b5f73ffffffffffffffffffffffffffffffffffffffff168173ffffffffffffffffffffffffffffffffffffffff1603610137575f6040517f1e4fbdf700000000000000000000000000000000000000000000000000000000815260040161012e91906106de565b60405180910390fd5b6101468161053760201b60201c565b508360055f6101000a81548173ffffffffffffffffffffffffffffffffffffffff021916908373ffffffffffffffffffffffffffffffffffffffff1602179055508260065f6101000a81548173ffffffffffffffffffffffffffffffffffffffff021916908373ffffffffffffffffffffffffffffffffffffffff1602179055508160075f6101000a81548173ffffffffffffffffffffffffffffffffffffffff021916908373ffffffffffffffffffffffffffffffffffffffff1602179055508060045f6101000a81548173ffffffffffffffffffffffffffffffffffffffff021916908373ffffffffffffffffffffffffffffffffffffffff1602179055505f600760146101000a81548160ff021916908315150217905550603260088190555043600b8190555060025f9054906101000a900460ff166104b057600260019054906101000a900473ffffffffffffffffffffffffffffffffffffffff1673ffffffffffffffffffffffffffffffffffffffff16635a6aced062aa36a760055f9054906101000a900473ffffffffffffffffffffffffffffffffffffffff167f804c9b842b2748a22bb64b345453a3de7ca54a6ca45ce00d415894979e22897a7fa65f96fc951c35ead38878e0f0b7a3c744a6f5ccc1476b313353ce31712313ad807fa65f96fc951c35ead38878e0f0b7a3c744a6f5ccc1476b313353ce31712313ad6040518763ffffffff1660e01b815260040161036c9695949392919061070f565b5f604051808303815f87803b158015610383575f5ffd5b505af1158015610395573d5f5f3e3d5ffd5b50505050600260019054906101000a900473ffffffffffffffffffffffffffffffffffffffff1673ffffffffffffffffffffffffffffffffffffffff16635a6aced062aa36a760065f9054906101000a900473ffffffffffffffffffffffffffffffffffffffff167f4c209b5fc8ad50758f13e2e1088ba56a560dff690a1c6fef26394f4c03821c4f7fa65f96fc951c35ead38878e0f0b7a3c744a6f5ccc1476b313353ce31712313ad807fa65f96fc951c35ead38878e0f0b7a3c744a6f5ccc1476b313353ce31712313ad6040518763ffffffff1660e01b81526004016104829695949392919061070f565b5f604051808303815f87803b158015610499575f5ffd5b505af11580156104ab573d5f5f3e3d5ffd5b505050505b505050505061076e565b6001805f8373ffffffffffffffffffffffffffffffffffffffff1673ffffffffffffffffffffffffffffffffffffffff1681526020019081526020015f205f6101000a81548160ff02191690831515021790555050565b5f62ffffff3b90505f811460025f6101000a81548160ff02191690831515021790555050565b5f60035f9054906101000a900473ffffffffffffffffffffffffffffffffffffffff1690508160035f6101000a81548173ffffffffffffffffffffffffffffffffffffffff021916908373ffffffffffffffffffffffffffffffffffffffff1602179055508173ffffffffffffffffffffffffffffffffffffffff168173ffffffffffffffffffffffffffffffffffffffff167f8be0079c531659141344cd1fd0a4f28419497f9722a3daafe3b4186f6b6457e060405160405180910390a35050565b5f5ffd5b5f73ffffffffffffffffffffffffffffffffffffffff82169050919050565b5f610627826105fe565b9050919050565b6106378161061d565b8114610641575f5ffd5b50565b5f815190506106528161062e565b92915050565b5f5f5f5f5f60a08688031215610671576106706105fa565b5b5f61067e88828901610644565b955050602061068f88828901610644565b94505060406106a088828901610644565b93505060606106b188828901610644565b92505060806106c288828901610644565b9150509295509295909350565b6106d88161061d565b82525050565b5f6020820190506106f15f8301846106cf565b92915050565b5f819050919050565b610709816106f7565b82525050565b5f60c0820190506107225f830189610700565b61072f60208301886106cf565b61073c6040830187610700565b6107496060830186610700565b6107566080830185610700565b61076360a0830184610700565b979650505050505050565b6117568061077b5f395ff3fe60806040526004361061014e575f3560e01c80637a90b990116100b5578063a218141b1161006e578063a218141b146103df578063b187bd2614610409578063c290d69114610433578063cbbf425f1461045b578063d4a2aa3314610485578063f2fde38b146104af57610155565b80637a90b9901461030f5780637e231cbc146103255780638456cb591461034f57806385535cc5146103655780638da5cb5b1461038d5780638f8b6515146103b757610155565b806345f7f2491161010757806345f7f2491461022b5780634a0c8c8d14610255578063573761981461027d578063691b00d1146102a5578063715018a6146102cf57806373fa9bd2146102e557610155565b8063022fe1eb14610159578063046f7da21461016f5780630d152c2c1461018557806338d52e0f146101ad5780633dfe9f6a146101d7578063430bf08a1461020157610155565b3661015557005b5f5ffd5b348015610164575f5ffd5b5061016d6104d7565b005b34801561017a575f5ffd5b506101836105e9565b005b348015610190575f5ffd5b506101ab60048036038101906101a691906110d6565b610639565b005b3480156101b8575f5ffd5b506101c16107b4565b6040516101ce919061115c565b60405180910390f35b3480156101e2575f5ffd5b506101eb6107d9565b6040516101f8919061118d565b60405180910390f35b34801561020c575f5ffd5b506102156107df565b604051610222919061115c565b60405180910390f35b348015610236575f5ffd5b5061023f610804565b60405161024c919061118d565b60405180910390f35b348015610260575f5ffd5b5061027b600480360381019061027691906111d0565b61080a565b005b348015610288575f5ffd5b506102a3600480360381019061029e9190611225565b61081c565b005b3480156102b0575f5ffd5b506102b9610a16565b6040516102c6919061127d565b60405180910390f35b3480156102da575f5ffd5b506102e3610a2b565b005b3480156102f0575f5ffd5b506102f9610a3e565b604051610306919061118d565b60405180910390f35b34801561031a575f5ffd5b50610323610a44565b005b348015610330575f5ffd5b50610339610b0c565b604051610346919061118d565b60405180910390f35b34801561035a575f5ffd5b50610363610b12565b005b348015610370575f5ffd5b5061038b60048036038101906103869190611296565b610b63565b005b348015610398575f5ffd5b506103a1610c1c565b6040516103ae919061115c565b60405180910390f35b3480156103c2575f5ffd5b506103dd60048036038101906103d891906111d0565b610c44565b005b3480156103ea575f5ffd5b506103f3610c96565b604051610400919061118d565b60405180910390f35b348015610414575f5ffd5b5061041d610c9c565b60405161042a919061127d565b60405180910390f35b34801561043e575f5ffd5b50610459600480360381019061045491906111d0565b610caf565b005b348015610466575f5ffd5b5061046f610d45565b60405161047c919061131c565b60405180910390f35b348015610490575f5ffd5b50610499610d6a565b6040516104a69190611355565b60405180910390f35b3480156104ba575f5ffd5b506104d560048036038101906104d09190611296565b610d8f565b005b6104df610e13565b5f6040516024016040516020818303038152906040527f01e5ccc7000000000000000000000000000000000000000000000000000000007bffffffffffffffffffffffffffffffffffffffffffffffffffffffff19166020820180517bffffffffffffffffffffffffffffffffffffffffffffffffffffffff838183161783525050505090506207a12067ffffffffffffffff1660045f9054906101000a900473ffffffffffffffffffffffffffffffffffffffff1673ffffffffffffffffffffffffffffffffffffffff1662aa36a77f8dd725fa9d6cd150017ab9e60318d40616439424e2fade9c1c58854950917dfc846040516105de91906113de565b60405180910390a450565b6105f1610e13565b5f600760146101000a81548160ff0219169083151502179055507f2a9fc0f54e60b24a2383ee7bc79f061b7d628c0252a3e10f58686af9981c3be560405160405180910390a1565b600760149054906101000a900460ff166107b1577f804c9b842b2748a22bb64b345453a3de7ca54a6ca45ce00d415894979e22897a816040013514806106a257507f4c209b5fc8ad50758f13e2e1088ba56a560dff690a1c6fef26394f4c03821c4f8160400135145b156107b0575f6040516024016040516020818303038152906040527f01e5ccc7000000000000000000000000000000000000000000000000000000007bffffffffffffffffffffffffffffffffffffffffffffffffffffffff19166020820180517bffffffffffffffffffffffffffffffffffffffffffffffffffffffff838183161783525050505090506207a12067ffffffffffffffff1660045f9054906101000a900473ffffffffffffffffffffffffffffffffffffffff1673ffffffffffffffffffffffffffffffffffffffff1662aa36a77f8dd725fa9d6cd150017ab9e60318d40616439424e2fade9c1c58854950917dfc846040516107a691906113de565b60405180910390a4505b5b50565b60075f9054906101000a900473ffffffffffffffffffffffffffffffffffffffff1681565b60085481565b60045f9054906101000a900473ffffffffffffffffffffffffffffffffffffffff1681565b600c5481565b610812610e13565b80600c8190555050565b610824610e13565b5f73ffffffffffffffffffffffffffffffffffffffff168273ffffffffffffffffffffffffffffffffffffffff16036108a0573373ffffffffffffffffffffffffffffffffffffffff166108fc8290811502906040515f60405180830381858888f1935050505015801561089a573d5f5f3e3d5ffd5b506109d9565b5f8273ffffffffffffffffffffffffffffffffffffffff1633836040516024016108cb9291906113fe565b6040516020818303038152906040527fa9059cbb000000000000000000000000000000000000000000000000000000007bffffffffffffffffffffffffffffffffffffffffffffffffffffffff19166020820180517bffffffffffffffffffffffffffffffffffffffffffffffffffffffff8381831617835250505050604051610955919061145f565b5f604051808303815f865af19150503d805f811461098e576040519150601f19603f3d011682016040523d82523d5f602084013e610993565b606091505b50509050806109d7576040517f08c379a00000000000000000000000000000000000000000000000000000000081526004016109ce906114cf565b60405180910390fd5b505b7f68f67de89e96b13a3ea058af5fd44cc125efceb528482d539c7b43db2faa066e8282604051610a0a9291906113fe565b60405180910390a15050565b5f60025f9054906101000a900460ff16905090565b610a33610e13565b610a3c5f610e9a565b565b60095481565b5f5f5f9054906101000a900473ffffffffffffffffffffffffffffffffffffffff1673ffffffffffffffffffffffffffffffffffffffff16639b6c56ec306040518263ffffffff1660e01b8152600401610a9e919061115c565b602060405180830381865afa158015610ab9573d5f5f3e3d5ffd5b505050506040513d601f19601f82011682018060405250810190610add9190611501565b9050610b095f5f9054906101000a900473ffffffffffffffffffffffffffffffffffffffff1682610f5d565b50565b600a5481565b610b1a610e13565b6001600760146101000a81548160ff0219169083151502179055507f13eec0552086416c3e09381b21148ff64916a0ba39d91d6f9a37c47e0d261a0d60405160405180910390a1565b610b6b610e13565b5f73ffffffffffffffffffffffffffffffffffffffff168173ffffffffffffffffffffffffffffffffffffffff1603610bd9576040517f08c379a0000000000000000000000000000000000000000000000000000000008152600401610bd090611576565b60405180910390fd5b8060045f6101000a81548173ffffffffffffffffffffffffffffffffffffffff021916908373ffffffffffffffffffffffffffffffffffffffff16021790555050565b5f60035f9054906101000a900473ffffffffffffffffffffffffffffffffffffffff16905090565b610c4c610e13565b5f6008549050816008819055507fb06a54caabe58475c86c2bf9df3f2f06dd1213e9e10659c293117fe4893b274b8183604051610c8a929190611594565b60405180910390a15050565b600b5481565b600760149054906101000a900460ff1681565b60015f3373ffffffffffffffffffffffffffffffffffffffff1673ffffffffffffffffffffffffffffffffffffffff1681526020019081526020015f205f9054906101000a900460ff16610d38576040517f08c379a0000000000000000000000000000000000000000000000000000000008152600401610d2f90611605565b60405180910390fd5b610d423382610f5d565b50565b60055f9054906101000a900473ffffffffffffffffffffffffffffffffffffffff1681565b60065f9054906101000a900473ffffffffffffffffffffffffffffffffffffffff1681565b610d97610e13565b5f73ffffffffffffffffffffffffffffffffffffffff168173ffffffffffffffffffffffffffffffffffffffff1603610e07575f6040517f1e4fbdf7000000000000000000000000000000000000000000000000000000008152600401610dfe919061115c565b60405180910390fd5b610e1081610e9a565b50565b610e1b6110a4565b73ffffffffffffffffffffffffffffffffffffffff16610e39610c1c565b73ffffffffffffffffffffffffffffffffffffffff1614610e9857610e5c6110a4565b6040517f118cdaa7000000000000000000000000000000000000000000000000000000008152600401610e8f919061115c565b60405180910390fd5b565b5f60035f9054906101000a900473ffffffffffffffffffffffffffffffffffffffff1690508160035f6101000a81548173ffffffffffffffffffffffffffffffffffffffff021916908373ffffffffffffffffffffffffffffffffffffffff1602179055508173ffffffffffffffffffffffffffffffffffffffff168173ffffffffffffffffffffffffffffffffffffffff167f8be0079c531659141344cd1fd0a4f28419497f9722a3daafe3b4186f6b6457e060405160405180910390a35050565b80471015610fa0576040517f08c379a0000000000000000000000000000000000000000000000000000000008152600401610f979061166d565b60405180910390fd5b5f8111156110a0575f8273ffffffffffffffffffffffffffffffffffffffff16825f67ffffffffffffffff811115610fdb57610fda61168b565b5b6040519080825280601f01601f19166020018201604052801561100d5781602001600182028036833780820191505090505b5060405161101b919061145f565b5f6040518083038185875af1925050503d805f8114611055576040519150601f19603f3d011682016040523d82523d5f602084013e61105a565b606091505b505090508061109e576040517f08c379a000000000000000000000000000000000000000000000000000000000815260040161109590611702565b60405180910390fd5b505b5050565b5f33905090565b5f5ffd5b5f5ffd5b5f5ffd5b5f61018082840312156110cd576110cc6110b3565b5b81905092915050565b5f602082840312156110eb576110ea6110ab565b5b5f82013567ffffffffffffffff811115611108576111076110af565b5b611114848285016110b7565b91505092915050565b5f73ffffffffffffffffffffffffffffffffffffffff82169050919050565b5f6111468261111d565b9050919050565b6111568161113c565b82525050565b5f60208201905061116f5f83018461114d565b92915050565b5f819050919050565b61118781611175565b82525050565b5f6020820190506111a05f83018461117e565b92915050565b6111af81611175565b81146111b9575f5ffd5b50565b5f813590506111ca816111a6565b92915050565b5f602082840312156111e5576111e46110ab565b5b5f6111f2848285016111bc565b91505092915050565b6112048161113c565b811461120e575f5ffd5b50565b5f8135905061121f816111fb565b92915050565b5f5f6040838503121561123b5761123a6110ab565b5b5f61124885828601611211565b9250506020611259858286016111bc565b9150509250929050565b5f8115159050919050565b61127781611263565b82525050565b5f6020820190506112905f83018461126e565b92915050565b5f602082840312156112ab576112aa6110ab565b5b5f6112b884828501611211565b91505092915050565b5f819050919050565b5f6112e46112df6112da8461111d565b6112c1565b61111d565b9050919050565b5f6112f5826112ca565b9050919050565b5f611306826112eb565b9050919050565b611316816112fc565b82525050565b5f60208201905061132f5f83018461130d565b92915050565b5f61133f826112eb565b9050919050565b61134f81611335565b82525050565b5f6020820190506113685f830184611346565b92915050565b5f81519050919050565b5f82825260208201905092915050565b8281835e5f83830152505050565b5f601f19601f8301169050919050565b5f6113b08261136e565b6113ba8185611378565b93506113ca818560208601611388565b6113d381611396565b840191505092915050565b5f6020820190508181035f8301526113f681846113a6565b905092915050565b5f6040820190506114115f83018561114d565b61141e602083018461117e565b9392505050565b5f81905092915050565b5f6114398261136e565b6114438185611425565b9350611453818560208601611388565b80840191505092915050565b5f61146a828461142f565b915081905092915050565b5f82825260208201905092915050565b7f546f6b656e20726573637565206661696c6564000000000000000000000000005f82015250565b5f6114b9601383611475565b91506114c482611485565b602082019050919050565b5f6020820190508181035f8301526114e6816114ad565b9050919050565b5f815190506114fb816111a6565b92915050565b5f60208284031215611516576115156110ab565b5b5f611523848285016114ed565b91505092915050565b7f496e76616c6964207661756c74206164647265737300000000000000000000005f82015250565b5f611560601583611475565b915061156b8261152c565b602082019050919050565b5f6020820190508181035f83015261158d81611554565b9050919050565b5f6040820190506115a75f83018561117e565b6115b4602083018461117e565b9392505050565b7f417574686f72697a65642073656e646572206f6e6c79000000000000000000005f82015250565b5f6115ef601683611475565b91506115fa826115bb565b602082019050919050565b5f6020820190508181035f83015261161c816115e3565b9050919050565b7f496e73756666696369656e742066756e647300000000000000000000000000005f82015250565b5f611657601283611475565b915061166282611623565b602082019050919050565b5f6020820190508181035f8301526116848161164b565b9050919050565b7f4e487b71000000000000000000000000000000000000000000000000000000005f52604160045260245ffd5b7f5472616e73666572206661696c656400000000000000000000000000000000005f82015250565b5f6116ec600f83611475565b91506116f7826116b8565b602082019050919050565b5f6020820190508181035f830152611719816116e0565b905091905056fea26469706673582212204f41f30adbe0e17453e827e84b40ae1a2fe15dbd741fc5795c3b1845f69ebe0564736f6c634300081e0033","linkReferences":{}},"methodIdentifiers":{"asset()":"38d52e0f","coverDebt()":"7a90b990","getVmStatus()":"691b00d1","isPaused()":"b187bd26","lastPoolAApy()":"73fa9bd2","lastPoolBApy()":"7e231cbc","lastUpdateBlock()":"a218141b","manualTrigger()":"022fe1eb","owner()":"8da5cb5b","pause()":"8456cb59","pay(uint256)":"c290d691","poolA()":"cbbf425f","poolB()":"d4a2aa33","react((uint256,address,uint256,uint256,uint256,uint256,bytes,uint256,uint256,uint256,uint256,uint256))":"0d152c2c","rebalanceThreshold()":"3dfe9f6a","renounceOwnership()":"715018a6","rescueTokens(address,uint256)":"57376198","resume()":"046f7da2","setRebalanceThreshold(uint256)":"8f8b6515","setVaultAddress(address)":"85535cc5","totalAllocated()":"45f7f249","transferOwnership(address)":"f2fde38b","updateTotalAllocated(uint256)":"4a0c8c8d","vaultAddress()":"430bf08a"},"id":67}