{
  "_format": "hh-sol-artifact-1",
  "contractName": "MockAavePool",
  "sourceName": "src/mocks/MockAavePool.sol",
  "abi": [
    {
      "inputs": [
        {
          "internalType": "address",
          "name": "_asset",
          "type": "address"
        }
      ],
      "stateMutability": "nonpayable",
      "type": "constructor"
    },
    {
      "anonymous": false,
      "inputs": [
        {
          "indexed": true,
          "internalType": "address",
          "name": "reserve",
          "type": "address"
        },
        {
          "indexed": false,
          "internalType": "uint256",
          "name": "liquidityRate",
          "type": "uint256"
        },
        {
          "indexed": false,
          "internalType": "uint256",
          "name": "stableBorrowRate",
          "type": "uint256"
        },
        {
          "indexed": false,
          "internalType": "uint256",
          "name": "variableBorrowRate",
          "type": "uint256"
        }
      ],
      "name": "InterestRateUpdated",
      "type": "event"
    },
    {
      "anonymous": false,
      "inputs": [
        {
          "indexed": true,
          "internalType": "address",
          "name": "reserve",
          "type": "address"
        },
        {
          "indexed": false,
          "internalType": "address",
          "name": "user",
          "type": "address"
        },
        {
          "indexed": true,
          "internalType": "address",
          "name": "onBehalfOf",
          "type": "address"
        },
        {
          "indexed": false,
          "internalType": "uint256",
          "name": "amount",
          "type": "uint256"
        },
        {
          "indexed": true,
          "internalType": "uint16",
          "name": "referralCode",
          "type": "uint16"
        }
      ],
      "name": "Supply",
      "type": "event"
    },
    {
      "anonymous": false,
      "inputs": [
        {
          "indexed": true,
          "internalType": "address",
          "name": "reserve",
          "type": "address"
        },
        {
          "indexed": false,
          "internalType": "address",
          "name": "user",
          "type": "address"
        },
        {
          "indexed": true,
          "internalType": "address",
          "name": "to",
          "type": "address"
        },
        {
          "indexed": false,
          "internalType": "uint256",
          "name": "amount",
          "type": "uint256"
        }
      ],
      "name": "Withdraw",
      "type": "event"
    },
    {
      "inputs": [],
      "name": "REFERRAL_CODE",
      "outputs": [
        {
          "internalType": "uint256",
          "name": "",
          "type": "uint256"
        }
      ],
      "stateMutability": "view",
      "type": "function"
    },
    {
      "inputs": [],
      "name": "asset",
      "outputs": [
        {
          "internalType": "address",
          "name": "",
          "type": "address"
        }
      ],
      "stateMutability": "view",
      "type": "function"
    },
    {
      "inputs": [
        {
          "internalType": "address",
          "name": "account",
          "type": "address"
        }
      ],
      "name": "balanceOf",
      "outputs": [
        {
          "internalType": "uint256",
          "name": "",
          "type": "uint256"
        }
      ],
      "stateMutability": "view",
      "type": "function"
    },
    {
      "inputs": [],
      "name": "borrowRatePerBlock",
      "outputs": [
        {
          "internalType": "uint256",
          "name": "",
          "type": "uint256"
        }
      ],
      "stateMutability": "pure",
      "type": "function"
    },
    {
      "inputs": [],
      "name": "exchangeRateCurrent",
      "outputs": [
        {
          "internalType": "uint256",
          "name": "",
          "type": "uint256"
        }
      ],
      "stateMutability": "pure",
      "type": "function"
    },
    {
      "inputs": [
        {
          "internalType": "address",
          "name": "_asset",
          "type": "address"
        }
      ],
      "name": "getReserveData",
      "outputs": [
        {
          "components": [
            {
              "internalType": "uint256",
              "name": "currentLiquidityRate",
              "type": "uint256"
            },
            {
              "internalType": "uint256",
              "name": "currentStableBorrowRate",
              "type": "uint256"
            },
            {
              "internalType": "uint256",
              "name": "currentVariableBorrowRate",
              "type": "uint256"
            },
            {
              "internalType": "uint256",
              "name": "liquidityIndex",
              "type": "uint256"
            },
            {
              "internalType": "uint256",
              "name": "variableBorrowIndex",
              "type": "uint256"
            },
            {
              "internalType": "uint256",
              "name": "totalLiquidity",
              "type": "uint256"
            },
            {
              "internalType": "uint256",
              "name": "totalStableDebt",
              "type": "uint256"
            },
            {
              "internalType": "uint256",
              "name": "totalVariableDebt",
              "type": "uint256"
            },
            {
              "internalType": "address",
              "name": "aTokenAddress",
              "type": "address"
            },
            {
              "internalType": "address",
              "name": "stableDebtTokenAddress",
              "type": "address"
            },
            {
              "internalType": "address",
              "name": "variableDebtTokenAddress",
              "type": "address"
            },
            {
              "internalType": "uint256",
              "name": "lastUpdateTimestamp",
              "type": "uint256"
            }
          ],
          "internalType": "struct ILendingPool.ReserveData",
          "name": "",
          "type": "tuple"
        }
      ],
      "stateMutability": "view",
      "type": "function"
    },
    {
      "inputs": [
        {
          "internalType": "address",
          "name": "_asset",
          "type": "address"
        }
      ],
      "name": "getReserveNormalizedIncome",
      "outputs": [
        {
          "internalType": "uint256",
          "name": "",
          "type": "uint256"
        }
      ],
      "stateMutability": "view",
      "type": "function"
    },
    {
      "inputs": [
        {
          "internalType": "uint256",
          "name": "newRate",
          "type": "uint256"
        }
      ],
      "name": "setLiquidityRate",
      "outputs": [],
      "stateMutability": "nonpayable",
      "type": "function"
    },
    {
      "inputs": [
        {
          "internalType": "address",
          "name": "_asset",
          "type": "address"
        },
        {
          "internalType": "uint256",
          "name": "amount",
          "type": "uint256"
        },
        {
          "internalType": "address",
          "name": "onBehalfOf",
          "type": "address"
        },
        {
          "internalType": "uint16",
          "name": "referralCode",
          "type": "uint16"
        }
      ],
      "name": "supply",
      "outputs": [],
      "stateMutability": "nonpayable",
      "type": "function"
    },
    {
      "inputs": [],
      "name": "supplyRatePerBlock",
      "outputs": [
        {
          "internalType": "uint256",
          "name": "",
          "type": "uint256"
        }
      ],
      "stateMutability": "view",
      "type": "function"
    },
    {
      "inputs": [
        {
          "internalType": "address",
          "name": "_asset",
          "type": "address"
        },
        {
          "internalType": "uint256",
          "name": "amount",
          "type": "uint256"
        },
        {
          "internalType": "address",
          "name": "to",
          "type": "address"
        }
      ],
      "name": "withdraw",
      "outputs": [
        {
          "internalType": "uint256",
          "name": "",
          "type": "uint256"
        }
      ],
      "stateMutability": "nonpayable",
      "type": "function"
    }
  ],
  "bytecode": "0x60a060405234801561001057600080fd5b5060405161092538038061092583398101604081905261002f9161005c565b6001600160a01b03166080526a295be96e64066972000000600055683635c9adc5dea0000060015561008c565b60006020828403121561006e57600080fd5b81516001600160a01b038116811461008557600080fd5b9392505050565b6080516108636100c26000396000818160ee0152818161023d015281816103830152818161047101526105bc01526108636000f3fe608060405234801561001057600080fd5b50600436106100a95760003560e01c806369328dec1161007157806369328dec1461015057806370a0823114610163578063ae9d70b01461018c578063bd6d894d14610194578063d15e0053146101a2578063f8f9da28146101b557600080fd5b80633583849a146100ae57806335ea6a75146100c957806338d52e0f146100e95780633a244adf14610128578063617ba0371461013d575b600080fd5b6100b6600081565b6040519081526020015b60405180910390f35b6100dc6100d736600461063a565b6101bc565b6040516100c0919061065c565b6101107f000000000000000000000000000000000000000000000000000000000000000081565b6040516001600160a01b0390911681526020016100c0565b61013b610136366004610709565b610335565b005b61013b61014b366004610722565b610381565b6100b661015e366004610778565b61046d565b6100b661017136600461063a565b6001600160a01b031660009081526002602052604090205490565b6000546100b6565b670de0b6b3a76400006100b6565b6100b66101b036600461063a565b6105b8565b60006100b6565b61023b604051806101800160405280600081526020016000815260200160008152602001600081526020016000815260200160008152602001600081526020016000815260200160006001600160a01b0316815260200160006001600160a01b0316815260200160006001600160a01b03168152602001600081525090565b7f00000000000000000000000000000000000000000000000000000000000000006001600160a01b0316826001600160a01b0316146102955760405162461bcd60e51b815260040161028c906107b4565b60405180910390fd5b6040518061018001604052806000548152602001600081526020016a31a17e847807b1bc00000081526020016b033b2e3c9fd0803ce800000081526020016b033b2e3c9fd0803ce8000000815260200160015481526020016000815260200160008152602001306001600160a01b0316815260200160006001600160a01b0316815260200160006001600160a01b03168152602001428152509050919050565b600081815560408051838152602081018390529081019190915230907ffe6503c3ffa4f15f70414cb7846d0be83ef955bddd428112d917adc8d3a06ec39060600160405180910390a250565b7f00000000000000000000000000000000000000000000000000000000000000006001600160a01b0316846001600160a01b0316146103d25760405162461bcd60e51b815260040161028c906107b4565b6001600160a01b038216600090815260026020526040812080548592906103fa908490610801565b9250508190555082600160008282546104139190610801565b9091555050604080513381526020810185905261ffff8316916001600160a01b0380861692908816917f2b627736bca15cd5381dcf80b0bf11fd197d01a037c52b927a881a10fb73ba61910160405180910390a450505050565b60007f00000000000000000000000000000000000000000000000000000000000000006001600160a01b0316846001600160a01b0316146104c05760405162461bcd60e51b815260040161028c906107b4565b3360009081526002602052604090205483111561052a5760405162461bcd60e51b815260206004820152602260248201527f4d6f636b41617665506f6f6c3a20496e73756666696369656e742062616c616e604482015261636560f01b606482015260840161028c565b336000908152600260205260408120805485929061054990849061081a565b925050819055508260016000828254610562919061081a565b909155505060408051338152602081018590526001600160a01b0380851692908716917f3115d1449a7b732c986cba18244e897a450f61e1bb8d589cd2e69e6c8924f9f7910160405180910390a3509092915050565b60007f00000000000000000000000000000000000000000000000000000000000000006001600160a01b0316826001600160a01b03161461060b5760405162461bcd60e51b815260040161028c906107b4565b506b033b2e3c9fd0803ce8000000919050565b80356001600160a01b038116811461063557600080fd5b919050565b60006020828403121561064c57600080fd5b6106558261061e565b9392505050565b600061018082019050825182526020830151602083015260408301516040830152606083015160608301526080830151608083015260a083015160a083015260c083015160c083015260e083015160e0830152610100808401516106ca828501826001600160a01b03169052565b5050610120838101516001600160a01b038116848301525050610140838101516001600160a01b03811684830152505061016092830151919092015290565b60006020828403121561071b57600080fd5b5035919050565b6000806000806080858703121561073857600080fd5b6107418561061e565b9350602085013592506107566040860161061e565b9150606085013561ffff8116811461076d57600080fd5b939692955090935050565b60008060006060848603121561078d57600080fd5b6107968461061e565b9250602084013591506107ab6040850161061e565b90509250925092565b6020808252601b908201527f4d6f636b41617665506f6f6c3a20496e76616c69642061737365740000000000604082015260600190565b634e487b7160e01b600052601160045260246000fd5b80820180821115610814576108146107eb565b92915050565b81810381811115610814576108146107eb56fea26469706673582212200c9db99a80d10a0541d737af93da69c7bcd6679f3b7e51d190fdac26ede37d4764736f6c63430008140033",
  "linkReferences": {},
  "deployedLinkReferences": {}
}