{
  "_format": "hh-sol-artifact-1",
  "contractName": "YieldMonitor",
  "sourceName": "src/reactive/YieldMonitor.sol",
  "abi": [
    {
      "inputs": [
        {
          "internalType": "address",
          "name": "_poolA",
          "type": "address"
        },
        {
          "internalType": "address",
          "name": "_poolB",
          "type": "address"
        },
        {
          "internalType": "address",
          "name": "_asset",
          "type": "address"
        },
        {
          "internalType": "address",
          "name": "_vault",
          "type": "address"
        }
      ],
      "stateMutability": "nonpayable",
      "type": "constructor"
    },
    {
      "inputs": [
        {
          "internalType": "address",
          "name": "owner",
          "type": "address"
        }
      ],
      "name": "OwnableInvalidOwner",
      "type": "error"
    },
    {
      "inputs": [
        {
          "internalType": "address",
          "name": "account",
          "type": "address"
        }
      ],
      "name": "OwnableUnauthorizedAccount",
      "type": "error"
    },
    {
      "anonymous": false,
      "inputs": [
        {
          "indexed": true,
          "internalType": "uint256",
          "name": "chain_id",
          "type": "uint256"
        },
        {
          "indexed": true,
          "internalType": "address",
          "name": "_contract",
          "type": "address"
        },
        {
          "indexed": true,
          "internalType": "uint64",
          "name": "gas_limit",
          "type": "uint64"
        },
        {
          "indexed": false,
          "internalType": "bytes",
          "name": "payload",
          "type": "bytes"
        }
      ],
      "name": "Callback",
      "type": "event"
    },
    {
      "anonymous": false,
      "inputs": [],
      "name": "MonitorPaused",
      "type": "event"
    },
    {
      "anonymous": false,
      "inputs": [],
      "name": "MonitorResumed",
      "type": "event"
    },
    {
      "anonymous": false,
      "inputs": [
        {
          "indexed": true,
          "internalType": "address",
          "name": "previousOwner",
          "type": "address"
        },
        {
          "indexed": true,
          "internalType": "address",
          "name": "newOwner",
          "type": "address"
        }
      ],
      "name": "OwnershipTransferred",
      "type": "event"
    },
    {
      "anonymous": false,
      "inputs": [
        {
          "indexed": true,
          "internalType": "address",
          "name": "fromPool",
          "type": "address"
        },
        {
          "indexed": true,
          "internalType": "address",
          "name": "toPool",
          "type": "address"
        },
        {
          "indexed": false,
          "internalType": "uint256",
          "name": "amount",
          "type": "uint256"
        }
      ],
      "name": "RebalanceTriggered",
      "type": "event"
    },
    {
      "anonymous": false,
      "inputs": [
        {
          "indexed": false,
          "internalType": "uint256",
          "name": "poolA_Apy",
          "type": "uint256"
        },
        {
          "indexed": false,
          "internalType": "uint256",
          "name": "poolB_Apy",
          "type": "uint256"
        },
        {
          "indexed": false,
          "internalType": "uint256",
          "name": "difference",
          "type": "uint256"
        }
      ],
      "name": "YieldRateUpdated",
      "type": "event"
    },
    {
      "inputs": [],
      "name": "asset",
      "outputs": [
        {
          "internalType": "address",
          "name": "",
          "type": "address"
        }
      ],
      "stateMutability": "view",
      "type": "function"
    },
    {
      "inputs": [],
      "name": "checkYieldRates",
      "outputs": [],
      "stateMutability": "nonpayable",
      "type": "function"
    },
    {
      "inputs": [],
      "name": "getCurrentYieldData",
      "outputs": [
        {
          "internalType": "uint256",
          "name": "poolA_Apy",
          "type": "uint256"
        },
        {
          "internalType": "uint256",
          "name": "poolB_Apy",
          "type": "uint256"
        },
        {
          "internalType": "uint256",
          "name": "difference",
          "type": "uint256"
        }
      ],
      "stateMutability": "view",
      "type": "function"
    },
    {
      "inputs": [],
      "name": "isPaused",
      "outputs": [
        {
          "internalType": "bool",
          "name": "",
          "type": "bool"
        }
      ],
      "stateMutability": "view",
      "type": "function"
    },
    {
      "inputs": [],
      "name": "lastPoolA_Apy",
      "outputs": [
        {
          "internalType": "uint256",
          "name": "",
          "type": "uint256"
        }
      ],
      "stateMutability": "view",
      "type": "function"
    },
    {
      "inputs": [],
      "name": "lastPoolB_Apy",
      "outputs": [
        {
          "internalType": "uint256",
          "name": "",
          "type": "uint256"
        }
      ],
      "stateMutability": "view",
      "type": "function"
    },
    {
      "inputs": [],
      "name": "lastUpdateBlock",
      "outputs": [
        {
          "internalType": "uint256",
          "name": "",
          "type": "uint256"
        }
      ],
      "stateMutability": "view",
      "type": "function"
    },
    {
      "inputs": [],
      "name": "owner",
      "outputs": [
        {
          "internalType": "address",
          "name": "",
          "type": "address"
        }
      ],
      "stateMutability": "view",
      "type": "function"
    },
    {
      "inputs": [
        {
          "internalType": "bool",
          "name": "paused",
          "type": "bool"
        }
      ],
      "name": "ownerPause",
      "outputs": [],
      "stateMutability": "nonpayable",
      "type": "function"
    },
    {
      "inputs": [],
      "name": "pause",
      "outputs": [],
      "stateMutability": "nonpayable",
      "type": "function"
    },
    {
      "inputs": [
        {
          "internalType": "uint256",
          "name": "amount",
          "type": "uint256"
        }
      ],
      "name": "pay",
      "outputs": [],
      "stateMutability": "nonpayable",
      "type": "function"
    },
    {
      "inputs": [],
      "name": "poolA",
      "outputs": [
        {
          "internalType": "address",
          "name": "",
          "type": "address"
        }
      ],
      "stateMutability": "view",
      "type": "function"
    },
    {
      "inputs": [],
      "name": "poolB",
      "outputs": [
        {
          "internalType": "address",
          "name": "",
          "type": "address"
        }
      ],
      "stateMutability": "view",
      "type": "function"
    },
    {
      "inputs": [
        {
          "components": [
            {
              "internalType": "uint256",
              "name": "chain_id",
              "type": "uint256"
            },
            {
              "internalType": "address",
              "name": "_contract",
              "type": "address"
            },
            {
              "internalType": "uint256",
              "name": "topic_0",
              "type": "uint256"
            },
            {
              "internalType": "uint256",
              "name": "topic_1",
              "type": "uint256"
            },
            {
              "internalType": "uint256",
              "name": "topic_2",
              "type": "uint256"
            },
            {
              "internalType": "uint256",
              "name": "topic_3",
              "type": "uint256"
            },
            {
              "internalType": "bytes",
              "name": "data",
              "type": "bytes"
            },
            {
              "internalType": "uint256",
              "name": "block_number",
              "type": "uint256"
            },
            {
              "internalType": "uint256",
              "name": "op_code",
              "type": "uint256"
            },
            {
              "internalType": "uint256",
              "name": "block_hash",
              "type": "uint256"
            },
            {
              "internalType": "uint256",
              "name": "tx_hash",
              "type": "uint256"
            },
            {
              "internalType": "uint256",
              "name": "log_index",
              "type": "uint256"
            }
          ],
          "internalType": "struct IReactive.LogRecord",
          "name": "log",
          "type": "tuple"
        }
      ],
      "name": "react",
      "outputs": [],
      "stateMutability": "nonpayable",
      "type": "function"
    },
    {
      "inputs": [],
      "name": "renounceOwnership",
      "outputs": [],
      "stateMutability": "nonpayable",
      "type": "function"
    },
    {
      "inputs": [],
      "name": "resume",
      "outputs": [],
      "stateMutability": "nonpayable",
      "type": "function"
    },
    {
      "inputs": [
        {
          "internalType": "uint256",
          "name": "amount",
          "type": "uint256"
        }
      ],
      "name": "setTotalAllocated",
      "outputs": [],
      "stateMutability": "nonpayable",
      "type": "function"
    },
    {
      "inputs": [],
      "name": "totalAllocated",
      "outputs": [
        {
          "internalType": "uint256",
          "name": "",
          "type": "uint256"
        }
      ],
      "stateMutability": "view",
      "type": "function"
    },
    {
      "inputs": [
        {
          "internalType": "address",
          "name": "newOwner",
          "type": "address"
        }
      ],
      "name": "transferOwnership",
      "outputs": [],
      "stateMutability": "nonpayable",
      "type": "function"
    },
    {
      "inputs": [
        {
          "internalType": "address",
          "name": "newVault",
          "type": "address"
        }
      ],
      "name": "updateVaultAddress",
      "outputs": [],
      "stateMutability": "nonpayable",
      "type": "function"
    },
    {
      "inputs": [],
      "name": "vaultAddress",
      "outputs": [
        {
          "internalType": "address",
          "name": "",
          "type": "address"
        }
      ],
      "stateMutability": "view",
      "type": "function"
    },
    {
      "stateMutability": "payable",
      "type": "receive"
    }
  ],
  "bytecode": "0x608060405234801561001057600080fd5b50604051610f1e380380610f1e83398101604081905261002f9161012c565b338061005557604051631e4fbdf760e01b81526000600482015260240160405180910390fd5b61005e816100c0565b50600280546001600160a01b039586166001600160a01b0319918216179091556003805494861694821694909417909355600480546001805493871693909516929092179093556001600160a81b031916921691909117905543600755610180565b600080546001600160a01b038381166001600160a01b0319831681178455604051919092169283917f8be0079c531659141344cd1fd0a4f28419497f9722a3daafe3b4186f6b6457e09190a35050565b80516001600160a01b038116811461012757600080fd5b919050565b6000806000806080858703121561014257600080fd5b61014b85610110565b935061015960208601610110565b925061016760408601610110565b915061017560608601610110565b905092959194509250565b610d8f8061018f6000396000f3fe60806040526004361061012e5760003560e01c8063a218141b116100ab578063d4a2aa331161006f578063d4a2aa3314610316578063e96279ce14610336578063ec7568db14610366578063f2fde38b1461037c578063f7b020971461039c578063fdb1cdf9146103b257600080fd5b8063a218141b1461026f578063b187bd2614610285578063c290d691146102b6578063cbbf425f146102d6578063d2de2f85146102f657600080fd5b806345f7f249116100f257806345f7f249146101ee578063715018a61461021257806379be5d22146102275780638456cb591461023c5780638da5cb5b1461025157600080fd5b8063046f7da21461013a5780630d152c2c146101515780631f4e0c231461017157806338d52e0f14610191578063430bf08a146101ce57600080fd5b3661013557005b600080fd5b34801561014657600080fd5b5061014f6103d2565b005b34801561015d57600080fd5b5061014f61016c366004610aaf565b610432565b34801561017d57600080fd5b5061014f61018c366004610aeb565b6104de565b34801561019d57600080fd5b506004546101b1906001600160a01b031681565b6040516001600160a01b0390911681526020015b60405180910390f35b3480156101da57600080fd5b506001546101b1906001600160a01b031681565b3480156101fa57600080fd5b5061020460085481565b6040519081526020016101c5565b34801561021e57600080fd5b5061014f610560565b34801561023357600080fd5b5061014f610574565b34801561024857600080fd5b5061014f6105a6565b34801561025d57600080fd5b506000546001600160a01b03166101b1565b34801561027b57600080fd5b5061020460075481565b34801561029157600080fd5b506004546102a690600160a01b900460ff1681565b60405190151581526020016101c5565b3480156102c257600080fd5b5061014f6102d1366004610b0d565b610603565b3480156102e257600080fd5b506002546101b1906001600160a01b031681565b34801561030257600080fd5b5061014f610311366004610b3b565b610634565b34801561032257600080fd5b506003546101b1906001600160a01b031681565b34801561034257600080fd5b5061034b61065e565b604080519384526020840192909252908201526060016101c5565b34801561037257600080fd5b5061020460055481565b34801561038857600080fd5b5061014f610397366004610b3b565b610697565b3480156103a857600080fd5b5061020460065481565b3480156103be57600080fd5b5061014f6103cd366004610b0d565b6106d2565b3033146103fa5760405162461bcd60e51b81526004016103f190610b58565b60405180910390fd5b6004805460ff60a01b191690556040517f2a9fc0f54e60b24a2383ee7bc79f061b7d628c0252a3e10f58686af9981c3be590600090a1565b3033146104515760405162461bcd60e51b81526004016103f190610b58565b600454600160a01b900460ff161561047b5760405162461bcd60e51b81526004016103f190610b8f565b6002546001600160a01b03166104976040830160208401610b3b565b6001600160a01b031614806104ce57506003546001600160a01b03166104c36040830160208401610b3b565b6001600160a01b0316145b156104db576104db6106df565b50565b6104e661077a565b6004805482158015600160a01b0260ff60a01b1990921691909117909155610534576040517f13eec0552086416c3e09381b21148ff64916a0ba39d91d6f9a37c47e0d261a0d90600090a150565b6040517f2a9fc0f54e60b24a2383ee7bc79f061b7d628c0252a3e10f58686af9981c3be590600090a150565b61056861077a565b61057260006107a7565b565b600454600160a01b900460ff161561059e5760405162461bcd60e51b81526004016103f190610b8f565b6105726106df565b3033146105c55760405162461bcd60e51b81526004016103f190610b58565b6004805460ff60a01b1916600160a01b1790556040517f13eec0552086416c3e09381b21148ff64916a0ba39d91d6f9a37c47e0d261a0d90600090a1565b604051339082156108fc029083906000818181858888f19350505050158015610630573d6000803e3d6000fd5b5050565b61063c61077a565b600180546001600160a01b0319166001600160a01b0392909216919091179055565b600080600061066b6107f7565b9093509150818311610686576106818383610bd1565b610690565b6106908284610bd1565b9050909192565b61069f61077a565b6001600160a01b0381166106c957604051631e4fbdf760e01b8152600060048201526024016103f1565b6104db816107a7565b6106da61077a565b600855565b6000806106ea6107f7565b600582905560068190554360075590925090506000818311610715576107108383610bd1565b61071f565b61071f8284610bd1565b60408051858152602081018590529081018290529091507f875894a489de1b1b13bf2e6c03981e3ddabcf1794b4b94dc5ba5d8e855a1e2f99060600160405180910390a160328110610775576107758383610914565b505050565b6000546001600160a01b031633146105725760405163118cdaa760e01b81523360048201526024016103f1565b600080546001600160a01b038381166001600160a01b0319831681178455604051919092169283917f8be0079c531659141344cd1fd0a4f28419497f9722a3daafe3b4186f6b6457e09190a35050565b600254600480546040516335ea6a7560e01b81526001600160a01b039182169281019290925260009283928392909116906335ea6a759060240161018060405180830381865afa15801561084f573d6000803e3d6000fd5b505050506040513d601f19601f820116820180604052508101906108739190610c3a565b90506108828160000151610a7b565b600354600480546040516335ea6a7560e01b81526001600160a01b0391821692810192909252929550600092909116906335ea6a759060240161018060405180830381865afa1580156108d9573d6000803e3d6000fd5b505050506040513d601f19601f820116820180604052508101906108fd9190610c3a565b905061090c8160000151610a7b565b925050509091565b600081831161092e576002546001600160a01b031661093b565b6003546001600160a01b03165b90506000828411610957576003546001600160a01b0316610964565b6002546001600160a01b03165b905060006109728383610a97565b90508015610a74576040516000602482018190526001600160a01b03808616604484015284166064830152608482018390529060a40160408051601f198184030181529181526020820180516001600160e01b031663b3f865f760e01b179052600154905191925062030d40916001600160a01b039091169062aa36a7907f8dd725fa9d6cd150017ab9e60318d40616439424e2fade9c1c58854950917dfc90610a1d908690610ce9565b60405180910390a4826001600160a01b0316846001600160a01b03167ffdda45e966ff112496244be5352b7733c9a992c78ba3e05e468531fb3eb9791d84604051610a6a91815260200190565b60405180910390a3505b5050505050565b6000610a9169152d02c7e14af680000083610d37565b92915050565b6000600a600854610aa89190610d37565b9392505050565b600060208284031215610ac157600080fd5b813567ffffffffffffffff811115610ad857600080fd5b82016101808185031215610aa857600080fd5b600060208284031215610afd57600080fd5b81358015158114610aa857600080fd5b600060208284031215610b1f57600080fd5b5035919050565b6001600160a01b03811681146104db57600080fd5b600060208284031215610b4d57600080fd5b8135610aa881610b26565b6020808252601e908201527f766d4f6e6c793a2063616c6c6572206d757374206265205265616374564d0000604082015260600190565b60208082526022908201527f5969656c644d6f6e69746f723a204d6f6e69746f72696e672069732070617573604082015261195960f21b606082015260800190565b81810381811115610a9157634e487b7160e01b600052601160045260246000fd5b604051610180810167ffffffffffffffff81118282101715610c2457634e487b7160e01b600052604160045260246000fd5b60405290565b8051610c3581610b26565b919050565b60006101808284031215610c4d57600080fd5b610c55610bf2565b825181526020830151602082015260408301516040820152606083015160608201526080830151608082015260a083015160a082015260c083015160c082015260e083015160e0820152610100610cad818501610c2a565b90820152610120610cbf848201610c2a565b90820152610140610cd1848201610c2a565b90820152610160928301519281019290925250919050565b600060208083528351808285015260005b81811015610d1657858101830151858201604001528201610cfa565b506000604082860101526040601f19601f8301168501019250505092915050565b600082610d5457634e487b7160e01b600052601260045260246000fd5b50049056fea264697066735822122005df9b9608a87435a3777327e9ae2d9adc01141da1af412da26d321f9a94dc7064736f6c63430008140033",
  "linkReferences": {},
  "deployedLinkReferences": {}
}