{
  "_format": "hh-sol-artifact-1",
  "contractName": "CrossChainLendingVault",
  "sourceName": "src/core/CrossChainLendingVault.sol",
  "abi": [
    {
      "inputs": [
        {
          "internalType": "address",
          "name": "_asset",
          "type": "address"
        },
        {
          "internalType": "address",
          "name": "_poolA",
          "type": "address"
        },
        {
          "internalType": "address",
          "name": "_poolB",
          "type": "address"
        },
        {
          "internalType": "address",
          "name": "_yieldMonitor",
          "type": "address"
        }
      ],
      "stateMutability": "nonpayable",
      "type": "constructor"
    },
    {
      "inputs": [
        {
          "internalType": "address",
          "name": "owner",
          "type": "address"
        }
      ],
      "name": "OwnableInvalidOwner",
      "type": "error"
    },
    {
      "inputs": [
        {
          "internalType": "address",
          "name": "account",
          "type": "address"
        }
      ],
      "name": "OwnableUnauthorizedAccount",
      "type": "error"
    },
    {
      "inputs": [],
      "name": "ReentrancyGuardReentrantCall",
      "type": "error"
    },
    {
      "inputs": [
        {
          "internalType": "address",
          "name": "token",
          "type": "address"
        }
      ],
      "name": "SafeERC20FailedOperation",
      "type": "error"
    },
    {
      "anonymous": false,
      "inputs": [
        {
          "indexed": false,
          "internalType": "string",
          "name": "parameter",
          "type": "string"
        },
        {
          "indexed": false,
          "internalType": "uint256",
          "name": "oldValue",
          "type": "uint256"
        },
        {
          "indexed": false,
          "internalType": "uint256",
          "name": "newValue",
          "type": "uint256"
        }
      ],
      "name": "ConfigurationUpdated",
      "type": "event"
    },
    {
      "anonymous": false,
      "inputs": [
        {
          "indexed": true,
          "internalType": "address",
          "name": "user",
          "type": "address"
        },
        {
          "indexed": false,
          "internalType": "uint256",
          "name": "amount",
          "type": "uint256"
        },
        {
          "indexed": false,
          "internalType": "uint256",
          "name": "shares",
          "type": "uint256"
        }
      ],
      "name": "Deposited",
      "type": "event"
    },
    {
      "anonymous": false,
      "inputs": [
        {
          "indexed": true,
          "internalType": "address",
          "name": "user",
          "type": "address"
        },
        {
          "indexed": false,
          "internalType": "uint256",
          "name": "amount",
          "type": "uint256"
        }
      ],
      "name": "EmergencyWithdraw",
      "type": "event"
    },
    {
      "anonymous": false,
      "inputs": [
        {
          "indexed": true,
          "internalType": "address",
          "name": "previousOwner",
          "type": "address"
        },
        {
          "indexed": true,
          "internalType": "address",
          "name": "newOwner",
          "type": "address"
        }
      ],
      "name": "OwnershipTransferred",
      "type": "event"
    },
    {
      "anonymous": false,
      "inputs": [
        {
          "indexed": true,
          "internalType": "address",
          "name": "fromPool",
          "type": "address"
        },
        {
          "indexed": true,
          "internalType": "address",
          "name": "toPool",
          "type": "address"
        },
        {
          "indexed": false,
          "internalType": "uint256",
          "name": "amount",
          "type": "uint256"
        }
      ],
      "name": "Rebalanced",
      "type": "event"
    },
    {
      "anonymous": false,
      "inputs": [
        {
          "indexed": true,
          "internalType": "address",
          "name": "user",
          "type": "address"
        },
        {
          "indexed": false,
          "internalType": "uint256",
          "name": "amount",
          "type": "uint256"
        },
        {
          "indexed": false,
          "internalType": "uint256",
          "name": "shares",
          "type": "uint256"
        }
      ],
      "name": "Withdrawn",
      "type": "event"
    },
    {
      "anonymous": false,
      "inputs": [
        {
          "indexed": true,
          "internalType": "address",
          "name": "oldMonitor",
          "type": "address"
        },
        {
          "indexed": true,
          "internalType": "address",
          "name": "newMonitor",
          "type": "address"
        }
      ],
      "name": "YieldMonitorUpdated",
      "type": "event"
    },
    {
      "anonymous": false,
      "inputs": [
        {
          "indexed": false,
          "internalType": "uint256",
          "name": "poolA_Apy",
          "type": "uint256"
        },
        {
          "indexed": false,
          "internalType": "uint256",
          "name": "poolB_Apy",
          "type": "uint256"
        },
        {
          "indexed": false,
          "internalType": "uint256",
          "name": "difference",
          "type": "uint256"
        }
      ],
      "name": "YieldUpdated",
      "type": "event"
    },
    {
      "inputs": [],
      "name": "asset",
      "outputs": [
        {
          "internalType": "contract IERC20",
          "name": "",
          "type": "address"
        }
      ],
      "stateMutability": "view",
      "type": "function"
    },
    {
      "inputs": [],
      "name": "autoRebalanceEnabled",
      "outputs": [
        {
          "internalType": "bool",
          "name": "",
          "type": "bool"
        }
      ],
      "stateMutability": "view",
      "type": "function"
    },
    {
      "inputs": [
        {
          "internalType": "uint256",
          "name": "amount",
          "type": "uint256"
        }
      ],
      "name": "deposit",
      "outputs": [],
      "stateMutability": "nonpayable",
      "type": "function"
    },
    {
      "inputs": [],
      "name": "emergencyWithdraw",
      "outputs": [],
      "stateMutability": "nonpayable",
      "type": "function"
    },
    {
      "inputs": [],
      "name": "getCurrentYieldData",
      "outputs": [
        {
          "components": [
            {
              "internalType": "uint256",
              "name": "poolA_Apy",
              "type": "uint256"
            },
            {
              "internalType": "uint256",
              "name": "poolB_Apy",
              "type": "uint256"
            },
            {
              "internalType": "uint256",
              "name": "lastUpdate",
              "type": "uint256"
            },
            {
              "internalType": "uint256",
              "name": "yieldDifference",
              "type": "uint256"
            }
          ],
          "internalType": "struct IVault.YieldData",
          "name": "",
          "type": "tuple"
        }
      ],
      "stateMutability": "view",
      "type": "function"
    },
    {
      "inputs": [],
      "name": "getPoolAllocations",
      "outputs": [
        {
          "components": [
            {
              "internalType": "address",
              "name": "poolAddress",
              "type": "address"
            },
            {
              "internalType": "uint256",
              "name": "percentage",
              "type": "uint256"
            },
            {
              "internalType": "bool",
              "name": "isActive",
              "type": "bool"
            }
          ],
          "internalType": "struct IVault.PoolAllocation[]",
          "name": "",
          "type": "tuple[]"
        }
      ],
      "stateMutability": "view",
      "type": "function"
    },
    {
      "inputs": [
        {
          "internalType": "address",
          "name": "user",
          "type": "address"
        }
      ],
      "name": "getUserShares",
      "outputs": [
        {
          "internalType": "uint256",
          "name": "",
          "type": "uint256"
        }
      ],
      "stateMutability": "view",
      "type": "function"
    },
    {
      "inputs": [],
      "name": "getVaultBalance",
      "outputs": [
        {
          "internalType": "uint256",
          "name": "",
          "type": "uint256"
        }
      ],
      "stateMutability": "view",
      "type": "function"
    },
    {
      "inputs": [],
      "name": "owner",
      "outputs": [
        {
          "internalType": "address",
          "name": "",
          "type": "address"
        }
      ],
      "stateMutability": "view",
      "type": "function"
    },
    {
      "inputs": [],
      "name": "poolA",
      "outputs": [
        {
          "internalType": "contract ILendingPool",
          "name": "",
          "type": "address"
        }
      ],
      "stateMutability": "view",
      "type": "function"
    },
    {
      "inputs": [
        {
          "internalType": "uint256",
          "name": "",
          "type": "uint256"
        }
      ],
      "name": "poolAllocations",
      "outputs": [
        {
          "internalType": "address",
          "name": "poolAddress",
          "type": "address"
        },
        {
          "internalType": "uint256",
          "name": "percentage",
          "type": "uint256"
        },
        {
          "internalType": "bool",
          "name": "isActive",
          "type": "bool"
        }
      ],
      "stateMutability": "view",
      "type": "function"
    },
    {
      "inputs": [],
      "name": "poolB",
      "outputs": [
        {
          "internalType": "contract ILendingPool",
          "name": "",
          "type": "address"
        }
      ],
      "stateMutability": "view",
      "type": "function"
    },
    {
      "inputs": [
        {
          "internalType": "address",
          "name": "",
          "type": "address"
        },
        {
          "internalType": "address",
          "name": "fromPool",
          "type": "address"
        },
        {
          "internalType": "address",
          "name": "toPool",
          "type": "address"
        },
        {
          "internalType": "uint256",
          "name": "amount",
          "type": "uint256"
        }
      ],
      "name": "rebalance",
      "outputs": [],
      "stateMutability": "nonpayable",
      "type": "function"
    },
    {
      "inputs": [],
      "name": "rebalancePercentage",
      "outputs": [
        {
          "internalType": "uint256",
          "name": "",
          "type": "uint256"
        }
      ],
      "stateMutability": "view",
      "type": "function"
    },
    {
      "inputs": [],
      "name": "rebalanceThreshold",
      "outputs": [
        {
          "internalType": "uint256",
          "name": "",
          "type": "uint256"
        }
      ],
      "stateMutability": "view",
      "type": "function"
    },
    {
      "inputs": [],
      "name": "renounceOwnership",
      "outputs": [],
      "stateMutability": "nonpayable",
      "type": "function"
    },
    {
      "inputs": [],
      "name": "sharesPerToken",
      "outputs": [
        {
          "internalType": "uint256",
          "name": "",
          "type": "uint256"
        }
      ],
      "stateMutability": "view",
      "type": "function"
    },
    {
      "inputs": [],
      "name": "toggleAutoRebalance",
      "outputs": [],
      "stateMutability": "nonpayable",
      "type": "function"
    },
    {
      "inputs": [],
      "name": "totalDeposits",
      "outputs": [
        {
          "internalType": "uint256",
          "name": "",
          "type": "uint256"
        }
      ],
      "stateMutability": "view",
      "type": "function"
    },
    {
      "inputs": [],
      "name": "totalShares",
      "outputs": [
        {
          "internalType": "uint256",
          "name": "",
          "type": "uint256"
        }
      ],
      "stateMutability": "view",
      "type": "function"
    },
    {
      "inputs": [
        {
          "internalType": "address",
          "name": "newOwner",
          "type": "address"
        }
      ],
      "name": "transferOwnership",
      "outputs": [],
      "stateMutability": "nonpayable",
      "type": "function"
    },
    {
      "inputs": [
        {
          "internalType": "uint256",
          "name": "newPercentage",
          "type": "uint256"
        }
      ],
      "name": "updateRebalancePercentage",
      "outputs": [],
      "stateMutability": "nonpayable",
      "type": "function"
    },
    {
      "inputs": [
        {
          "internalType": "uint256",
          "name": "newThreshold",
          "type": "uint256"
        }
      ],
      "name": "updateRebalanceThreshold",
      "outputs": [],
      "stateMutability": "nonpayable",
      "type": "function"
    },
    {
      "inputs": [
        {
          "internalType": "address",
          "name": "newMonitor",
          "type": "address"
        }
      ],
      "name": "updateYieldMonitor",
      "outputs": [],
      "stateMutability": "nonpayable",
      "type": "function"
    },
    {
      "inputs": [
        {
          "internalType": "address",
          "name": "",
          "type": "address"
        }
      ],
      "name": "users",
      "outputs": [
        {
          "internalType": "uint256",
          "name": "depositedAmount",
          "type": "uint256"
        },
        {
          "internalType": "uint256",
          "name": "vaultShares",
          "type": "uint256"
        },
        {
          "internalType": "uint256",
          "name": "lastDepositTime",
          "type": "uint256"
        }
      ],
      "stateMutability": "view",
      "type": "function"
    },
    {
      "inputs": [
        {
          "internalType": "uint256",
          "name": "sharesAmount",
          "type": "uint256"
        }
      ],
      "name": "withdraw",
      "outputs": [],
      "stateMutability": "nonpayable",
      "type": "function"
    },
    {
      "inputs": [],
      "name": "yieldMonitor",
      "outputs": [
        {
          "internalType": "address",
          "name": "",
          "type": "address"
        }
      ],
      "stateMutability": "view",
      "type": "function"
    }
  ],
  "bytecode": "0x60a06040523480156200001157600080fd5b5060405162001d5a38038062001d5a833981016040819052620000349162000309565b33806200005b57604051631e4fbdf760e01b81526000600482015260240160405180910390fd5b62000066816200029c565b5060018081905550836001600160a01b03166080816001600160a01b03168152505082600260006101000a8154816001600160a01b0302191690836001600160a01b0316021790555081600360006101000a8154816001600160a01b0302191690836001600160a01b0316021790555080600460006101000a8154816001600160a01b0302191690836001600160a01b0316021790555060096040518060600160405280856001600160a01b03168152602001611388815260200160011515815250908060018154018082558091505060019003906000526020600020906003020160009091909190915060008201518160000160006101000a8154816001600160a01b0302191690836001600160a01b031602179055506020820151816001015560408201518160020160006101000a81548160ff021916908315150217905550505060096040518060600160405280846001600160a01b03168152602001611388815260200160011515815250908060018154018082558091505060019003906000526020600020906003020160009091909190915060008201518160000160006101000a8154816001600160a01b0302191690836001600160a01b031602179055506020820151816001015560408201518160020160006101000a81548160ff02191690831515021790555050506032600a819055506103e8600b819055506001600c60006101000a81548160ff021916908315150217905550670de0b6b3a76400006007819055505050505062000366565b600080546001600160a01b038381166001600160a01b0319831681178455604051919092169283917f8be0079c531659141344cd1fd0a4f28419497f9722a3daafe3b4186f6b6457e09190a35050565b80516001600160a01b03811681146200030457600080fd5b919050565b600080600080608085870312156200032057600080fd5b6200032b85620002ec565b93506200033b60208601620002ec565b92506200034b60408601620002ec565b91506200035b60608601620002ec565b905092959194509250565b60805161198b620003cf600039600081816101ee01528181610511015281816105bf01528181610646015281816108d301528181610ae501528181610d4e015281816111340152818161138c01528181611411015281816114ba015261155f015261198b6000f3fe608060405234801561001057600080fd5b50600436106101a95760003560e01c8063945ba9c0116100f9578063cbbf425f11610097578063e96279ce11610071578063e96279ce146103dd578063ed12e8ef14610418578063f2fde38b14610420578063f9e521b21461043357600080fd5b8063cbbf425f146103af578063d4a2aa33146103c2578063db2e21bc146103d557600080fd5b8063b6b55f25116100d3578063b6b55f251461034a578063ba0cb22b1461035d578063bd28ceb414610389578063c4f111f71461039c57600080fd5b8063945ba9c0146102da578063a5ac4dd1146102e3578063a87430ba1461030057600080fd5b80634e8b354e116101665780637d882097116101405780637d8820971461027357806388960bf91461027c5780638da5cb5b1461028f5780638f6d1257146102a057600080fd5b80634e8b354e1461024d57806360538d1214610262578063715018a61461026b57600080fd5b806306e506cb146101ae57806312ddbc4f146101c35780632e1a7d4d146101d657806338d52e0f146101e95780633a98ef391461022d5780633dfe9f6a14610244575b600080fd5b6101c16101bc36600461168d565b61043b565b005b6101c16101d13660046116de565b610713565b6101c16101e43660046116de565b6107de565b6102107f000000000000000000000000000000000000000000000000000000000000000081565b6040516001600160a01b0390911681526020015b60405180910390f35b61023660065481565b604051908152602001610224565b610236600a5481565b610255610944565b60405161022491906116f7565b610236600b5481565b6101c16109cb565b61023660055481565b6101c161028a36600461175b565b6109df565b6000546001600160a01b0316610210565b6102b36102ae3660046116de565b610a39565b604080516001600160a01b0390941684526020840192909252151590820152606001610224565b61023660075481565b600c546102f09060ff1681565b6040519015158152602001610224565b61032f61030e36600461175b565b60086020526000908152604090208054600182015460029092015490919083565b60408051938452602084019290925290820152606001610224565b6101c16103583660046116de565b610a79565b61023661036b36600461175b565b6001600160a01b031660009081526008602052604090206001015490565b600454610210906001600160a01b031681565b6101c16103aa3660046116de565b610bd7565b600254610210906001600160a01b031681565b600354610210906001600160a01b031681565b6101c1610c9b565b6103e5610db5565b60405161022491908151815260208083015190820152604080830151908201526060918201519181019190915260800190565b610236610e39565b6101c161042e36600461175b565b610f2f565b6101c1610f6a565b6004546001600160a01b031633146104aa5760405162461bcd60e51b815260206004820152602760248201527f5661756c743a204f6e6c79207969656c64206d6f6e69746f722063616e20726560448201526662616c616e636560c81b60648201526084015b60405180910390fd5b600081116104fa5760405162461bcd60e51b815260206004820152601960248201527f5661756c743a20416d6f756e74206d757374206265203e20300000000000000060448201526064016104a1565b604051631a4ca37b60e21b81526001600160a01b037f000000000000000000000000000000000000000000000000000000000000000081166004830152602482018390523060448301528491908216906369328dec906064016020604051808303816000875af1158015610572573d6000803e3d6000fd5b505050506040513d601f19601f82011682018060405250810190610596919061177f565b5060405163095ea7b360e01b81526001600160a01b0380851660048301526024820184905284917f00000000000000000000000000000000000000000000000000000000000000009091169063095ea7b3906044016020604051808303816000875af115801561060a573d6000803e3d6000fd5b505050506040513d601f19601f8201168201806040525081019061062e9190611798565b5060405163617ba03760e01b81526001600160a01b037f000000000000000000000000000000000000000000000000000000000000000081166004830152602482018590523060448301526000606483015282169063617ba03790608401600060405180830381600087803b1580156106a657600080fd5b505af11580156106ba573d6000803e3d6000fd5b50505050836001600160a01b0316856001600160a01b03167f4ce94e8bd94f62017197ba464f629a366572732970f6fe47c76f97bb53f763038560405161070391815260200190565b60405180910390a3505050505050565b61071b611017565b6101f481111561076d5760405162461bcd60e51b815260206004820152601960248201527f5661756c743a205468726573686f6c6420746f6f20686967680000000000000060448201526064016104a1565b600a805490829055604080516060808252601290820152711c9958985b185b98d9551a1c995cda1bdb1960721b6080820152602081018390529081018390527f542d1e36f54195e4e918eaa06cf4f40e8861c8af6cf52111230f74bec3dbadfe9060a0015b60405180910390a15050565b6107e6611044565b33600090815260086020526040902060018101548211156108495760405162461bcd60e51b815260206004820152601a60248201527f5661756c743a20496e73756666696369656e742073686172657300000000000060448201526064016104a1565b60006108548361106e565b90508082600001600082825461086a91906117d0565b925050819055508282600101600082825461088591906117d0565b92505081905550806005600082825461089e91906117d0565b9250508190555082600660008282546108b791906117d0565b909155506108c69050816110a2565b6108fa6001600160a01b037f00000000000000000000000000000000000000000000000000000000000000001633836111d5565b604080518281526020810185905233917f92ccf450a286a957af52509bc1c9939d1a6a481783e142e41e2499f0bb66ebc691015b60405180910390a2505061094160018055565b50565b60606009805480602002602001604051908101604052809291908181526020016000905b828210156109c2576000848152602090819020604080516060810182526003860290920180546001600160a01b031683526001808201548486015260029091015460ff161515918301919091529083529092019101610968565b50505050905090565b6109d3611017565b6109dd6000611239565b565b6109e7611017565b600480546001600160a01b038381166001600160a01b0319831681179093556040519116919082907f48115ac6cad44c1d12250cb390b97ad126d4972895814008be033533af3de0be90600090a35050565b60098181548110610a4957600080fd5b60009182526020909120600390910201805460018201546002909201546001600160a01b03909116925060ff1683565b610a81611044565b662386f26fc10000811015610ad85760405162461bcd60e51b815260206004820152601b60248201527f5661756c743a20416d6f756e742062656c6f77206d696e696d756d000000000060448201526064016104a1565b610b0d6001600160a01b037f000000000000000000000000000000000000000000000000000000000000000016333084611289565b6000610b18826112c8565b33600090815260086020526040812080549293509184918391610b3c9084906117e3565b9250508190555081816001016000828254610b5791906117e3565b909155505042600282015560058054849190600090610b779084906117e3565b925050819055508160066000828254610b9091906117e3565b90915550610b9f9050836112e8565b604080518481526020810184905233917f73a19dd210f1a7f902193214c0ee91dd35ee5b4d920cba8d519eca65a7b488ca910161092e565b610bdf611017565b611388811115610c315760405162461bcd60e51b815260206004820152601a60248201527f5661756c743a2050657263656e7461676520746f6f206869676800000000000060448201526064016104a1565b600b80549082905560408051606080825260139082015272726562616c616e636550657263656e7461676560681b6080820152602081018390529081018390527f542d1e36f54195e4e918eaa06cf4f40e8861c8af6cf52111230f74bec3dbadfe9060a0016107d2565b610ca3611044565b336000908152600860205260409020805480610d015760405162461bcd60e51b815260206004820152601d60248201527f5661756c743a204e6f2062616c616e636520746f20776974686472617700000060448201526064016104a1565b60008083556001830181905560058054839290610d1f9084906117d0565b9091555050600182015460068054600090610d3b9084906117d0565b90915550610d7590506001600160a01b037f00000000000000000000000000000000000000000000000000000000000000001633836111d5565b60405181815233907f5fafa99d0643513820be26656b45130b01e1c03062e1266bf36f88cbd3bd96959060200160405180910390a250506109dd60018055565b610de06040518060800160405280600081526020016000815260200160008152602001600081525090565b600080610deb6114a0565b915091506000818311610e0757610e0283836117d0565b610e11565b610e1182846117d0565b6040805160808101825294855260208501939093524292840192909252506060820152919050565b6002546040516370a0823160e01b815230600482015260009182916001600160a01b03909116906370a0823190602401602060405180830381865afa158015610e86573d6000803e3d6000fd5b505050506040513d601f19601f82011682018060405250810190610eaa919061177f565b6003546040516370a0823160e01b81523060048201529192506000916001600160a01b03909116906370a0823190602401602060405180830381865afa158015610ef8573d6000803e3d6000fd5b505050506040513d601f19601f82011682018060405250810190610f1c919061177f565b9050610f2881836117e3565b9250505090565b610f37611017565b6001600160a01b038116610f6157604051631e4fbdf760e01b8152600060048201526024016104a1565b61094181611239565b610f72611017565b600c805460ff19811660ff918216159081179092557f542d1e36f54195e4e918eaa06cf4f40e8861c8af6cf52111230f74bec3dbadfe9116610fb5576001610fb8565b60005b600c5460ff16610fc9576000610fcc565b60015b60408051606080825260149082015273185d5d1bd49958985b185b98d9515b98589b195960621b608082015260ff9384166020820152929091169082015260a00160405180910390a1565b6000546001600160a01b031633146109dd5760405163118cdaa760e01b81523360048201526024016104a1565b60026001540361106757604051633ee5aeb560e01b815260040160405180910390fd5b6002600155565b600060065460000361108257506000919050565b60065460055461109290846117f6565b61109c919061180d565b92915050565b60005b6009548110156111d1576000600982815481106110c4576110c461182f565b60009182526020909120600390910201600281015490915060ff1680156110ef575060008160010154115b156111be57600061271082600101548561110991906117f6565b611113919061180d565b905080156111bc578154604051631a4ca37b60e21b81526001600160a01b037f000000000000000000000000000000000000000000000000000000000000000081166004830152602482018490523060448301529091169081906369328dec906064016020604051808303816000875af1158015611195573d6000803e3d6000fd5b505050506040513d601f19601f820116820180604052508101906111b9919061177f565b50505b505b50806111c981611845565b9150506110a5565b5050565b6040516001600160a01b0383811660248301526044820183905261123491859182169063a9059cbb906064015b604051602081830303815290604052915060e01b6020820180516001600160e01b0383818316178352505050506115f1565b505050565b600080546001600160a01b038381166001600160a01b0319831681178455604051919092169283917f8be0079c531659141344cd1fd0a4f28419497f9722a3daafe3b4186f6b6457e09190a35050565b6040516001600160a01b0384811660248301528381166044830152606482018390526112c29186918216906323b872dd90608401611202565b50505050565b60006006546000036112d8575090565b60055460065461109290846117f6565b60005b6009548110156111d15760006009828154811061130a5761130a61182f565b60009182526020909120600390910201600281015490915060ff168015611335575060008160010154115b1561148d57600061271082600101548561134f91906117f6565b611359919061180d565b9050801561148b57815460405163095ea7b360e01b81526001600160a01b039182166004820181905260248201849052917f0000000000000000000000000000000000000000000000000000000000000000169063095ea7b3906044016020604051808303816000875af11580156113d5573d6000803e3d6000fd5b505050506040513d601f19601f820116820180604052508101906113f99190611798565b5060405163617ba03760e01b81526001600160a01b037f000000000000000000000000000000000000000000000000000000000000000081166004830152602482018490523060448301526000606483015282169063617ba03790608401600060405180830381600087803b15801561147157600080fd5b505af1158015611485573d6000803e3d6000fd5b50505050505b505b508061149881611845565b9150506112eb565b6002546040516335ea6a7560e01b81526001600160a01b037f00000000000000000000000000000000000000000000000000000000000000008116600483015260009283928392909116906335ea6a759060240161018060405180830381865afa158015611512573d6000803e3d6000fd5b505050506040513d601f19601f8201168201806040525081019061153691906118a6565b90506115458160000151611662565b6003546040516335ea6a7560e01b81526001600160a01b037f000000000000000000000000000000000000000000000000000000000000000081166004830152929550600092909116906335ea6a759060240161018060405180830381865afa1580156115b6573d6000803e3d6000fd5b505050506040513d601f19601f820116820180604052508101906115da91906118a6565b90506115e98160000151611662565b925050509091565b600080602060008451602086016000885af180611614576040513d6000823e3d81fd5b50506000513d9150811561162c578060011415611639565b6001600160a01b0384163b155b156112c257604051635274afe760e01b81526001600160a01b03851660048201526024016104a1565b600061109c69152d02c7e14af68000008361180d565b6001600160a01b038116811461094157600080fd5b600080600080608085870312156116a357600080fd5b84356116ae81611678565b935060208501356116be81611678565b925060408501356116ce81611678565b9396929550929360600135925050565b6000602082840312156116f057600080fd5b5035919050565b602080825282518282018190526000919060409081850190868401855b8281101561174e57815180516001600160a01b03168552868101518786015285015115158585015260609093019290850190600101611714565b5091979650505050505050565b60006020828403121561176d57600080fd5b813561177881611678565b9392505050565b60006020828403121561179157600080fd5b5051919050565b6000602082840312156117aa57600080fd5b8151801515811461177857600080fd5b634e487b7160e01b600052601160045260246000fd5b8181038181111561109c5761109c6117ba565b8082018082111561109c5761109c6117ba565b808202811582820484141761109c5761109c6117ba565b60008261182a57634e487b7160e01b600052601260045260246000fd5b500490565b634e487b7160e01b600052603260045260246000fd5b600060018201611857576118576117ba565b5060010190565b604051610180810167ffffffffffffffff8111828210171561189057634e487b7160e01b600052604160045260246000fd5b60405290565b80516118a181611678565b919050565b600061018082840312156118b957600080fd5b6118c161185e565b825181526020830151602082015260408301516040820152606083015160608201526080830151608082015260a083015160a082015260c083015160c082015260e083015160e0820152610100611919818501611896565b9082015261012061192b848201611896565b9082015261014061193d848201611896565b9082015261016092830151928101929092525091905056fea264697066735822122042e095183ac2afb1c61d7374d30b850ac7ca4c782e3dfc69c61c76a28828406264736f6c63430008140033",
  "linkReferences": {},
  "deployedLinkReferences": {}
}