{"abi":[{"type":"constructor","inputs":[{"name":"_asset","type":"address","internalType":"address"},{"name":"_poolA","type":"address","internalType":"address"},{"name":"_poolB","type":"address","internalType":"address"},{"name":"_yieldMonitor","type":"address","internalType":"address"},{"name":"_name","type":"string","internalType":"string"},{"name":"_symbol","type":"string","internalType":"string"}],"stateMutability":"nonpayable"},{"type":"function","name":"allowance","inputs":[{"name":"owner","type":"address","internalType":"address"},{"name":"spender","type":"address","internalType":"address"}],"outputs":[{"name":"","type":"uint256","internalType":"uint256"}],"stateMutability":"view"},{"type":"function","name":"approve","inputs":[{"name":"spender","type":"address","internalType":"address"},{"name":"value","type":"uint256","internalType":"uint256"}],"outputs":[{"name":"","type":"bool","internalType":"bool"}],"stateMutability":"nonpayable"},{"type":"function","name":"asset","inputs":[],"outputs":[{"name":"","type":"address","internalType":"address"}],"stateMutability":"view"},{"type":"function","name":"autoRebalanceEnabled","inputs":[],"outputs":[{"name":"","type":"bool","internalType":"bool"}],"stateMutability":"view"},{"type":"function","name":"balanceOf","inputs":[{"name":"account","type":"address","internalType":"address"}],"outputs":[{"name":"","type":"uint256","internalType":"uint256"}],"stateMutability":"view"},{"type":"function","name":"checkYieldsAndRebalance","inputs":[],"outputs":[],"stateMutability":"nonpayable"},{"type":"function","name":"convertToAssets","inputs":[{"name":"shares","type":"uint256","internalType":"uint256"}],"outputs":[{"name":"","type":"uint256","internalType":"uint256"}],"stateMutability":"view"},{"type":"function","name":"convertToShares","inputs":[{"name":"assets","type":"uint256","internalType":"uint256"}],"outputs":[{"name":"","type":"uint256","internalType":"uint256"}],"stateMutability":"view"},{"type":"function","name":"decimals","inputs":[],"outputs":[{"name":"","type":"uint8","internalType":"uint8"}],"stateMutability":"view"},{"type":"function","name":"deposit","inputs":[{"name":"assets","type":"uint256","internalType":"uint256"},{"name":"receiver","type":"address","internalType":"address"}],"outputs":[{"name":"","type":"uint256","internalType":"uint256"}],"stateMutability":"nonpayable"},{"type":"function","name":"emergencyWithdraw","inputs":[],"outputs":[],"stateMutability":"nonpayable"},{"type":"function","name":"getPoolAllocations","inputs":[],"outputs":[{"name":"","type":"tuple[]","internalType":"struct IVault.PoolAllocation[]","components":[{"name":"poolAddress","type":"address","internalType":"address"},{"name":"percentage","type":"uint256","internalType":"uint256"},{"name":"isActive","type":"bool","internalType":"bool"}]}],"stateMutability":"view"},{"type":"function","name":"getYieldData","inputs":[],"outputs":[{"name":"","type":"tuple","internalType":"struct IVault.YieldData","components":[{"name":"poolAApy","type":"uint256","internalType":"uint256"},{"name":"poolBApy","type":"uint256","internalType":"uint256"},{"name":"lastUpdate","type":"uint256","internalType":"uint256"},{"name":"yieldDifference","type":"uint256","internalType":"uint256"}]}],"stateMutability":"view"},{"type":"function","name":"maxDeposit","inputs":[{"name":"","type":"address","internalType":"address"}],"outputs":[{"name":"","type":"uint256","internalType":"uint256"}],"stateMutability":"view"},{"type":"function","name":"maxMint","inputs":[{"name":"","type":"address","internalType":"address"}],"outputs":[{"name":"","type":"uint256","internalType":"uint256"}],"stateMutability":"view"},{"type":"function","name":"maxRedeem","inputs":[{"name":"owner","type":"address","internalType":"address"}],"outputs":[{"name":"","type":"uint256","internalType":"uint256"}],"stateMutability":"view"},{"type":"function","name":"maxWithdraw","inputs":[{"name":"owner","type":"address","internalType":"address"}],"outputs":[{"name":"","type":"uint256","internalType":"uint256"}],"stateMutability":"view"},{"type":"function","name":"mint","inputs":[{"name":"shares","type":"uint256","internalType":"uint256"},{"name":"receiver","type":"address","internalType":"address"}],"outputs":[{"name":"","type":"uint256","internalType":"uint256"}],"stateMutability":"nonpayable"},{"type":"function","name":"name","inputs":[],"outputs":[{"name":"","type":"string","internalType":"string"}],"stateMutability":"view"},{"type":"function","name":"owner","inputs":[],"outputs":[{"name":"","type":"address","internalType":"address"}],"stateMutability":"view"},{"type":"function","name":"pauseVault","inputs":[],"outputs":[],"stateMutability":"nonpayable"},{"type":"function","name":"paused","inputs":[],"outputs":[{"name":"","type":"bool","internalType":"bool"}],"stateMutability":"view"},{"type":"function","name":"poolA","inputs":[],"outputs":[{"name":"","type":"address","internalType":"contract IAaveLendingPool"}],"stateMutability":"view"},{"type":"function","name":"poolAllocations","inputs":[{"name":"","type":"uint256","internalType":"uint256"}],"outputs":[{"name":"poolAddress","type":"address","internalType":"address"},{"name":"percentage","type":"uint256","internalType":"uint256"},{"name":"isActive","type":"bool","internalType":"bool"}],"stateMutability":"view"},{"type":"function","name":"poolB","inputs":[],"outputs":[{"name":"","type":"address","internalType":"contract ICompoundLendingPool"}],"stateMutability":"view"},{"type":"function","name":"previewDeposit","inputs":[{"name":"assets","type":"uint256","internalType":"uint256"}],"outputs":[{"name":"","type":"uint256","internalType":"uint256"}],"stateMutability":"view"},{"type":"function","name":"previewMint","inputs":[{"name":"shares","type":"uint256","internalType":"uint256"}],"outputs":[{"name":"","type":"uint256","internalType":"uint256"}],"stateMutability":"view"},{"type":"function","name":"previewRedeem","inputs":[{"name":"shares","type":"uint256","internalType":"uint256"}],"outputs":[{"name":"","type":"uint256","internalType":"uint256"}],"stateMutability":"view"},{"type":"function","name":"previewWithdraw","inputs":[{"name":"assets","type":"uint256","internalType":"uint256"}],"outputs":[{"name":"","type":"uint256","internalType":"uint256"}],"stateMutability":"view"},{"type":"function","name":"rebalance","inputs":[{"name":"sender","type":"address","internalType":"address"},{"name":"fromPool","type":"address","internalType":"address"},{"name":"toPool","type":"address","internalType":"address"},{"name":"amount","type":"uint256","internalType":"uint256"}],"outputs":[],"stateMutability":"nonpayable"},{"type":"function","name":"rebalancePercentage","inputs":[],"outputs":[{"name":"","type":"uint256","internalType":"uint256"}],"stateMutability":"view"},{"type":"function","name":"rebalanceThreshold","inputs":[],"outputs":[{"name":"","type":"uint256","internalType":"uint256"}],"stateMutability":"view"},{"type":"function","name":"redeem","inputs":[{"name":"shares","type":"uint256","internalType":"uint256"},{"name":"receiver","type":"address","internalType":"address"},{"name":"owner","type":"address","internalType":"address"}],"outputs":[{"name":"","type":"uint256","internalType":"uint256"}],"stateMutability":"nonpayable"},{"type":"function","name":"renounceOwnership","inputs":[],"outputs":[],"stateMutability":"nonpayable"},{"type":"function","name":"rescueToken","inputs":[{"name":"token","type":"address","internalType":"address"},{"name":"amount","type":"uint256","internalType":"uint256"}],"outputs":[],"stateMutability":"nonpayable"},{"type":"function","name":"symbol","inputs":[],"outputs":[{"name":"","type":"string","internalType":"string"}],"stateMutability":"view"},{"type":"function","name":"toggleAutoRebalance","inputs":[],"outputs":[],"stateMutability":"nonpayable"},{"type":"function","name":"totalAssets","inputs":[],"outputs":[{"name":"","type":"uint256","internalType":"uint256"}],"stateMutability":"view"},{"type":"function","name":"totalSupply","inputs":[],"outputs":[{"name":"","type":"uint256","internalType":"uint256"}],"stateMutability":"view"},{"type":"function","name":"transfer","inputs":[{"name":"to","type":"address","internalType":"address"},{"name":"value","type":"uint256","internalType":"uint256"}],"outputs":[{"name":"","type":"bool","internalType":"bool"}],"stateMutability":"nonpayable"},{"type":"function","name":"transferFrom","inputs":[{"name":"from","type":"address","internalType":"address"},{"name":"to","type":"address","internalType":"address"},{"name":"value","type":"uint256","internalType":"uint256"}],"outputs":[{"name":"","type":"bool","internalType":"bool"}],"stateMutability":"nonpayable"},{"type":"function","name":"transferOwnership","inputs":[{"name":"newOwner","type":"address","internalType":"address"}],"outputs":[],"stateMutability":"nonpayable"},{"type":"function","name":"unpauseVault","inputs":[],"outputs":[],"stateMutability":"nonpayable"},{"type":"function","name":"updateRebalancePercentage","inputs":[{"name":"newPercentage","type":"uint256","internalType":"uint256"}],"outputs":[],"stateMutability":"nonpayable"},{"type":"function","name":"updateRebalanceThreshold","inputs":[{"name":"newThreshold","type":"uint256","internalType":"uint256"}],"outputs":[],"stateMutability":"nonpayable"},{"type":"function","name":"updateYieldMonitor","inputs":[{"name":"newMonitor","type":"address","internalType":"address"}],"outputs":[],"stateMutability":"nonpayable"},{"type":"function","name":"withdraw","inputs":[{"name":"assets","type":"uint256","internalType":"uint256"},{"name":"receiver","type":"address","internalType":"address"},{"name":"owner","type":"address","internalType":"address"}],"outputs":[{"name":"","type":"uint256","internalType":"uint256"}],"stateMutability":"nonpayable"},{"type":"function","name":"yieldMonitor","inputs":[],"outputs":[{"name":"","type":"address","internalType":"address"}],"stateMutability":"view"},{"type":"event","name":"Approval","inputs":[{"name":"owner","type":"address","indexed":true,"internalType":"address"},{"name":"spender","type":"address","indexed":true,"internalType":"address"},{"name":"value","type":"uint256","indexed":false,"internalType":"uint256"}],"anonymous":false},{"type":"event","name":"ConfigurationUpdated","inputs":[{"name":"parameter","type":"string","indexed":false,"internalType":"string"},{"name":"oldValue","type":"uint256","indexed":false,"internalType":"uint256"},{"name":"newValue","type":"uint256","indexed":false,"internalType":"uint256"}],"anonymous":false},{"type":"event","name":"Deposit","inputs":[{"name":"sender","type":"address","indexed":true,"internalType":"address"},{"name":"owner","type":"address","indexed":true,"internalType":"address"},{"name":"assets","type":"uint256","indexed":false,"internalType":"uint256"},{"name":"shares","type":"uint256","indexed":false,"internalType":"uint256"}],"anonymous":false},{"type":"event","name":"Deposited","inputs":[{"name":"user","type":"address","indexed":true,"internalType":"address"},{"name":"amount","type":"uint256","indexed":false,"internalType":"uint256"},{"name":"shares","type":"uint256","indexed":false,"internalType":"uint256"}],"anonymous":false},{"type":"event","name":"EmergencyWithdraw","inputs":[{"name":"user","type":"address","indexed":true,"internalType":"address"},{"name":"amount","type":"uint256","indexed":false,"internalType":"uint256"}],"anonymous":false},{"type":"event","name":"OwnershipTransferred","inputs":[{"name":"previousOwner","type":"address","indexed":true,"internalType":"address"},{"name":"newOwner","type":"address","indexed":true,"internalType":"address"}],"anonymous":false},{"type":"event","name":"Paused","inputs":[{"name":"account","type":"address","indexed":false,"internalType":"address"}],"anonymous":false},{"type":"event","name":"Rebalanced","inputs":[{"name":"fromPool","type":"address","indexed":true,"internalType":"address"},{"name":"toPool","type":"address","indexed":true,"internalType":"address"},{"name":"amount","type":"uint256","indexed":false,"internalType":"uint256"}],"anonymous":false},{"type":"event","name":"Transfer","inputs":[{"name":"from","type":"address","indexed":true,"internalType":"address"},{"name":"to","type":"address","indexed":true,"internalType":"address"},{"name":"value","type":"uint256","indexed":false,"internalType":"uint256"}],"anonymous":false},{"type":"event","name":"Unpaused","inputs":[{"name":"account","type":"address","indexed":false,"internalType":"address"}],"anonymous":false},{"type":"event","name":"Withdraw","inputs":[{"name":"sender","type":"address","indexed":true,"internalType":"address"},{"name":"receiver","type":"address","indexed":true,"internalType":"address"},{"name":"owner","type":"address","indexed":true,"internalType":"address"},{"name":"assets","type":"uint256","indexed":false,"internalType":"uint256"},{"name":"shares","type":"uint256","indexed":false,"internalType":"uint256"}],"anonymous":false},{"type":"event","name":"Withdrawn","inputs":[{"name":"user","type":"address","indexed":true,"internalType":"address"},{"name":"amount","type":"uint256","indexed":false,"internalType":"uint256"},{"name":"shares","type":"uint256","indexed":false,"internalType":"uint256"}],"anonymous":false},{"type":"event","name":"YieldMonitorUpdated","inputs":[{"name":"oldMonitor","type":"address","indexed":true,"internalType":"address"},{"name":"newMonitor","type":"address","indexed":true,"internalType":"address"}],"anonymous":false},{"type":"event","name":"YieldUpdated","inputs":[{"name":"poolAApy","type":"uint256","indexed":false,"internalType":"uint256"},{"name":"poolBApy","type":"uint256","indexed":false,"internalType":"uint256"},{"name":"difference","type":"uint256","indexed":false,"internalType":"uint256"}],"anonymous":false},{"type":"error","name":"ERC20InsufficientAllowance","inputs":[{"name":"spender","type":"address","internalType":"address"},{"name":"allowance","type":"uint256","internalType":"uint256"},{"name":"needed","type":"uint256","internalType":"uint256"}]},{"type":"error","name":"ERC20InsufficientBalance","inputs":[{"name":"sender","type":"address","internalType":"address"},{"name":"balance","type":"uint256","internalType":"uint256"},{"name":"needed","type":"uint256","internalType":"uint256"}]},{"type":"error","name":"ERC20InvalidApprover","inputs":[{"name":"approver","type":"address","internalType":"address"}]},{"type":"error","name":"ERC20InvalidReceiver","inputs":[{"name":"receiver","type":"address","internalType":"address"}]},{"type":"error","name":"ERC20InvalidSender","inputs":[{"name":"sender","type":"address","internalType":"address"}]},{"type":"error","name":"ERC20InvalidSpender","inputs":[{"name":"spender","type":"address","internalType":"address"}]},{"type":"error","name":"ERC4626ExceededMaxDeposit","inputs":[{"name":"receiver","type":"address","internalType":"address"},{"name":"assets","type":"uint256","internalType":"uint256"},{"name":"max","type":"uint256","internalType":"uint256"}]},{"type":"error","name":"ERC4626ExceededMaxMint","inputs":[{"name":"receiver","type":"address","internalType":"address"},{"name":"shares","type":"uint256","internalType":"uint256"},{"name":"max","type":"uint256","internalType":"uint256"}]},{"type":"error","name":"ERC4626ExceededMaxRedeem","inputs":[{"name":"owner","type":"address","internalType":"address"},{"name":"shares","type":"uint256","internalType":"uint256"},{"name":"max","type":"uint256","internalType":"uint256"}]},{"type":"error","name":"ERC4626ExceededMaxWithdraw","inputs":[{"name":"owner","type":"address","internalType":"address"},{"name":"assets","type":"uint256","internalType":"uint256"},{"name":"max","type":"uint256","internalType":"uint256"}]},{"type":"error","name":"EnforcedPause","inputs":[]},{"type":"error","name":"ExpectedPause","inputs":[]},{"type":"error","name":"OwnableInvalidOwner","inputs":[{"name":"owner","type":"address","internalType":"address"}]},{"type":"error","name":"OwnableUnauthorizedAccount","inputs":[{"name":"account","type":"address","internalType":"address"}]},{"type":"error","name":"ReentrancyGuardReentrantCall","inputs":[]},{"type":"error","name":"SafeERC20FailedOperation","inputs":[{"name":"token","type":"address","internalType":"address"}]}],"bytecode":{"object":"0x60c060405234801561000f575f5ffd5b5060405161596138038061596183398181016040528101906100319190610792565b3386838381600390816100449190610a63565b5080600490816100549190610a63565b5050505f5f610068836103f260201b60201c565b915091508161007857601261007a565b805b60ff1660a08160ff16815250508273ffffffffffffffffffffffffffffffffffffffff1660808173ffffffffffffffffffffffffffffffffffffffff16815250505050505f73ffffffffffffffffffffffffffffffffffffffff168173ffffffffffffffffffffffffffffffffffffffff160361012e575f6040517f1e4fbdf70000000000000000000000000000000000000000000000000000000081526004016101259190610b41565b60405180910390fd5b61013d816104be60201b60201c565b50600161015c61015161058160201b60201c565b6105aa60201b60201c565b5f01819055508460065f6101000a81548173ffffffffffffffffffffffffffffffffffffffff021916908373ffffffffffffffffffffffffffffffffffffffff1602179055508360075f6101000a81548173ffffffffffffffffffffffffffffffffffffffff021916908373ffffffffffffffffffffffffffffffffffffffff1602179055508260085f6101000a81548173ffffffffffffffffffffffffffffffffffffffff021916908373ffffffffffffffffffffffffffffffffffffffff160217905550600960405180606001604052808773ffffffffffffffffffffffffffffffffffffffff168152602001611388815260200160011515815250908060018154018082558091505060019003905f5260205f2090600302015f909190919091505f820151815f015f6101000a81548173ffffffffffffffffffffffffffffffffffffffff021916908373ffffffffffffffffffffffffffffffffffffffff160217905550602082015181600101556040820151816002015f6101000a81548160ff0219169083151502179055505050600960405180606001604052808673ffffffffffffffffffffffffffffffffffffffff168152602001611388815260200160011515815250908060018154018082558091505060019003905f5260205f2090600302015f909190919091505f820151815f015f6101000a81548173ffffffffffffffffffffffffffffffffffffffff021916908373ffffffffffffffffffffffffffffffffffffffff160217905550602082015181600101556040820151816002015f6101000a81548160ff02191690831515021790555050506032600a819055506103e8600b819055506001600c5f6101000a81548160ff021916908315150217905550505050505050610b5a565b5f5f5f6104036105b360201b60201c565b90505f5f6104618660405160240160405160208183030381529060405263313ce56760e01b6020820180517bffffffffffffffffffffffffffffffffffffffffffffffffffffffff83818316178352505050506105bc60201b60201c565b5091509150610475836105dd60201b60201c565b8180156104905750602061048d6105e460201b60201c565b10155b80156104a1575060ff8016815f1c11155b6104ac575f5f6104b2565b6001815f1c5b94509450505050915091565b5f60055f9054906101000a900473ffffffffffffffffffffffffffffffffffffffff1690508160055f6101000a81548173ffffffffffffffffffffffffffffffffffffffff021916908373ffffffffffffffffffffffffffffffffffffffff1602179055508173ffffffffffffffffffffffffffffffffffffffff168173ffffffffffffffffffffffffffffffffffffffff167f8be0079c531659141344cd1fd0a4f28419497f9722a3daafe3b4186f6b6457e060405160405180910390a35050565b5f7f9b779b17422d0df92223018b32b4d1fa46e071723d6817e2486d003becc55f005f1b905090565b5f819050919050565b5f604051905090565b5f5f5f60405f855160208701885afa92505f51915060205190509250925092565b8060405250565b5f3d905090565b5f604051905090565b5f5ffd5b5f5ffd5b5f73ffffffffffffffffffffffffffffffffffffffff82169050919050565b5f610625826105fc565b9050919050565b6106358161061b565b811461063f575f5ffd5b50565b5f815190506106508161062c565b92915050565b5f5ffd5b5f5ffd5b5f601f19601f8301169050919050565b7f4e487b71000000000000000000000000000000000000000000000000000000005f52604160045260245ffd5b6106a48261065e565b810181811067ffffffffffffffff821117156106c3576106c261066e565b5b80604052505050565b5f6106d56105eb565b90506106e1828261069b565b919050565b5f67ffffffffffffffff821115610700576106ff61066e565b5b6107098261065e565b9050602081019050919050565b8281835e5f83830152505050565b5f610736610731846106e6565b6106cc565b9050828152602081018484840111156107525761075161065a565b5b61075d848285610716565b509392505050565b5f82601f83011261077957610778610656565b5b8151610789848260208601610724565b91505092915050565b5f5f5f5f5f5f60c087890312156107ac576107ab6105f4565b5b5f6107b989828a01610642565b96505060206107ca89828a01610642565b95505060406107db89828a01610642565b94505060606107ec89828a01610642565b935050608087015167ffffffffffffffff81111561080d5761080c6105f8565b5b61081989828a01610765565b92505060a087015167ffffffffffffffff81111561083a576108396105f8565b5b61084689828a01610765565b9150509295509295509295565b5f81519050919050565b7f4e487b71000000000000000000000000000000000000000000000000000000005f52602260045260245ffd5b5f60028204905060018216806108a157607f821691505b6020821081036108b4576108b361085d565b5b50919050565b5f819050815f5260205f209050919050565b5f6020601f8301049050919050565b5f82821b905092915050565b5f600883026109167fffffffffffffffffffffffffffffffffffffffffffffffffffffffffffffffff826108db565b61092086836108db565b95508019841693508086168417925050509392505050565b5f819050919050565b5f819050919050565b5f61096461095f61095a84610938565b610941565b610938565b9050919050565b5f819050919050565b61097d8361094a565b6109916109898261096b565b8484546108e7565b825550505050565b5f5f905090565b6109a8610999565b6109b3818484610974565b505050565b5b818110156109d6576109cb5f826109a0565b6001810190506109b9565b5050565b601f821115610a1b576109ec816108ba565b6109f5846108cc565b81016020851015610a04578190505b610a18610a10856108cc565b8301826109b8565b50505b505050565b5f82821c905092915050565b5f610a3b5f1984600802610a20565b1980831691505092915050565b5f610a538383610a2c565b9150826002028217905092915050565b610a6c82610853565b67ffffffffffffffff811115610a8557610a8461066e565b5b610a8f825461088a565b610a9a8282856109da565b5f60209050601f831160018114610acb575f8415610ab9578287015190505b610ac38582610a48565b865550610b2a565b601f198416610ad9866108ba565b5f5b82811015610b0057848901518255600182019150602085019450602081019050610adb565b86831015610b1d5784890151610b19601f891682610a2c565b8355505b6001600288020188555050505b505050505050565b610b3b8161061b565b82525050565b5f602082019050610b545f830184610b32565b92915050565b60805160a051614de6610b7b5f395f61144901525f61152d0152614de65ff3fe608060405234801561000f575f5ffd5b506004361061029e575f3560e01c806388960bf911610165578063c4f111f7116100cc578063d905777e11610085578063d905777e14610868578063db2e21bc14610898578063dd62ed3e146108a2578063ef8b30f7146108d2578063f2fde38b14610902578063f9e521b21461091e5761029e565b8063c4f111f714610780578063c63d75b61461079c578063c6e6f592146107cc578063cbbf425f146107fc578063ce96cb771461081a578063d4a2aa331461084a5761029e565b8063a5ac4dd11161011e578063a5ac4dd114610684578063a9059cbb146106a2578063b3d7f6b9146106d2578063b460af9414610702578063ba08765214610732578063bd28ceb4146107625761029e565b806388960bf9146105c05780638da5cb5b146105dc5780638f6d1257146105fa57806394bf804d1461062c57806395d89b411461065c5780639e0879c21461067a5761029e565b806333f3d628116102095780635c975abb116101c25780635c975abb146104fc57806360538d121461051a5780636ce0c521146105385780636e553f651461055657806370a0823114610586578063715018a6146105b65761029e565b806333f3d6281461042657806338d52e0f146104425780633dfe9f6a14610460578063402d267d1461047e5780634cdad506146104ae5780634e8b354e146104de5761029e565b80630a28a4771161025b5780630a28a477146103645780630b7562be1461039457806312ddbc4f1461039e57806318160ddd146103ba57806323b872dd146103d8578063313ce567146104085761029e565b806301e1d114146102a257806301e5ccc7146102c057806306e506cb146102ca57806306fdde03146102e657806307a2d13a14610304578063095ea7b314610334575b5f5ffd5b6102aa610928565b6040516102b79190613b3d565b60405180910390f35b6102c8610bb1565b005b6102e460048036038101906102df9190613be7565b610d2b565b005b6102ee611287565b6040516102fb9190613cbb565b60405180910390f35b61031e60048036038101906103199190613cdb565b611317565b60405161032b9190613b3d565b60405180910390f35b61034e60048036038101906103499190613d06565b611329565b60405161035b9190613d5e565b60405180910390f35b61037e60048036038101906103799190613cdb565b61134b565b60405161038b9190613b3d565b60405180910390f35b61039c61135e565b005b6103b860048036038101906103b39190613cdb565b611370565b005b6103c2611407565b6040516103cf9190613b3d565b60405180910390f35b6103f260048036038101906103ed9190613d77565b611410565b6040516103ff9190613d5e565b60405180910390f35b61041061143e565b60405161041d9190613de2565b60405180910390f35b610440600480360381019061043b9190613d06565b611477565b005b61044a61152a565b6040516104579190613e0a565b60405180910390f35b610468611551565b6040516104759190613b3d565b60405180910390f35b61049860048036038101906104939190613e23565b611557565b6040516104a59190613b3d565b60405180910390f35b6104c860048036038101906104c39190613cdb565b611580565b6040516104d59190613b3d565b60405180910390f35b6104e6611592565b6040516104f39190613f63565b60405180910390f35b610504611666565b6040516105119190613d5e565b60405180910390f35b61052261167c565b60405161052f9190613b3d565b60405180910390f35b610540611682565b60405161054d9190613fd6565b60405180910390f35b610570600480360381019061056b9190613fef565b6116e9565b60405161057d9190613b3d565b60405180910390f35b6105a0600480360381019061059b9190613e23565b611769565b6040516105ad9190613b3d565b60405180910390f35b6105be6117ae565b005b6105da60048036038101906105d59190613e23565b6117c1565b005b6105e461188c565b6040516105f19190613e0a565b60405180910390f35b610614600480360381019061060f9190613cdb565b6118b4565b6040516106239392919061402d565b60405180910390f35b61064660048036038101906106419190613fef565b611914565b6040516106539190613b3d565b60405180910390f35b610664611994565b6040516106719190613cbb565b60405180910390f35b610682611a24565b005b61068c611a36565b6040516106999190613d5e565b60405180910390f35b6106bc60048036038101906106b79190613d06565b611a48565b6040516106c99190613d5e565b60405180910390f35b6106ec60048036038101906106e79190613cdb565b611a6a565b6040516106f99190613b3d565b60405180910390f35b61071c60048036038101906107179190614062565b611a7d565b6040516107299190613b3d565b60405180910390f35b61074c60048036038101906107479190614062565b611aff565b6040516107599190613b3d565b60405180910390f35b61076a611b81565b6040516107779190613e0a565b60405180910390f35b61079a60048036038101906107959190613cdb565b611ba6565b005b6107b660048036038101906107b19190613e23565b611c3d565b6040516107c39190613b3d565b60405180910390f35b6107e660048036038101906107e19190613cdb565b611c66565b6040516107f39190613b3d565b60405180910390f35b610804611c78565b604051610811919061410d565b60405180910390f35b610834600480360381019061082f9190613e23565b611c9d565b6040516108419190613b3d565b60405180910390f35b610852611cb6565b60405161085f9190614146565b60405180910390f35b610882600480360381019061087d9190613e23565b611cdb565b60405161088f9190613b3d565b60405180910390f35b6108a0611cec565b005b6108bc60048036038101906108b7919061415f565b611dbd565b6040516108c99190613b3d565b60405180910390f35b6108ec60048036038101906108e79190613cdb565b611e3f565b6040516108f99190613b3d565b60405180910390f35b61091c60048036038101906109179190613e23565b611e51565b005b610926611ed5565b005b5f5f60065f9054906101000a900473ffffffffffffffffffffffffffffffffffffffff1673ffffffffffffffffffffffffffffffffffffffff166335ea6a7561096f61152a565b6040518263ffffffff1660e01b815260040161098b9190613e0a565b61016060405180830381865afa1580156109a7573d5f5f3e3d5ffd5b505050506040513d601f19601f820116820180604052508101906109cb9190614374565b60c0015190505f8173ffffffffffffffffffffffffffffffffffffffff166370a08231306040518263ffffffff1660e01b8152600401610a0b9190613e0a565b602060405180830381865afa158015610a26573d5f5f3e3d5ffd5b505050506040513d601f19601f82011682018060405250810190610a4a91906143a0565b90505f60075f9054906101000a900473ffffffffffffffffffffffffffffffffffffffff1673ffffffffffffffffffffffffffffffffffffffff166370a08231306040518263ffffffff1660e01b8152600401610aa79190613e0a565b602060405180830381865afa158015610ac2573d5f5f3e3d5ffd5b505050506040513d601f19601f82011682018060405250810190610ae691906143a0565b90505f60075f9054906101000a900473ffffffffffffffffffffffffffffffffffffffff1673ffffffffffffffffffffffffffffffffffffffff1663bd6d894d6040518163ffffffff1660e01b8152600401602060405180830381865afa158015610b53573d5f5f3e3d5ffd5b505050506040513d601f19601f82011682018060405250810190610b7791906143a0565b90505f670de0b6b3a76400008284610b8f91906143f8565b610b999190614466565b90508084610ba79190614496565b9550505050505090565b610bb9611f76565b600c5f9054906101000a900460ff16610c07576040517f08c379a0000000000000000000000000000000000000000000000000000000008152600401610bfe90614539565b60405180910390fd5b5f5f610c11611fb7565b915091505f81831115610c31578183610c2a9190614557565b9050610c40565b8282610c3d9190614557565b90505b600a548110610d26575f610c52610928565b90505f612710600b5483610c6691906143f8565b610c709190614466565b90505f811115610d235783851115610cd457610ccf60075f9054906101000a900473ffffffffffffffffffffffffffffffffffffffff1660065f9054906101000a900473ffffffffffffffffffffffffffffffffffffffff168361210d565b610d22565b610d2160065f9054906101000a900473ffffffffffffffffffffffffffffffffffffffff1660075f9054906101000a900473ffffffffffffffffffffffffffffffffffffffff168361210d565b5b5b50505b505050565b610d33611f76565b600c5f9054906101000a900460ff16610d81576040517f08c379a0000000000000000000000000000000000000000000000000000000008152600401610d7890614539565b60405180910390fd5b60085f9054906101000a900473ffffffffffffffffffffffffffffffffffffffff1673ffffffffffffffffffffffffffffffffffffffff168473ffffffffffffffffffffffffffffffffffffffff1614610e10576040517f08c379a0000000000000000000000000000000000000000000000000000000008152600401610e07906145fa565b60405180910390fd5b5f8111610e52576040517f08c379a0000000000000000000000000000000000000000000000000000000008152600401610e4990614662565b60405180910390fd5b60065f9054906101000a900473ffffffffffffffffffffffffffffffffffffffff1673ffffffffffffffffffffffffffffffffffffffff168373ffffffffffffffffffffffffffffffffffffffff1603610f515760065f9054906101000a900473ffffffffffffffffffffffffffffffffffffffff1673ffffffffffffffffffffffffffffffffffffffff166369328dec610eeb61152a565b83306040518463ffffffff1660e01b8152600401610f0b93929190614680565b6020604051808303815f875af1158015610f27573d5f5f3e3d5ffd5b505050506040513d601f19601f82011682018060405250810190610f4b91906143a0565b50610fed565b60075f9054906101000a900473ffffffffffffffffffffffffffffffffffffffff1673ffffffffffffffffffffffffffffffffffffffff1663852a12e3826040518263ffffffff1660e01b8152600401610fab9190613b3d565b6020604051808303815f875af1158015610fc7573d5f5f3e3d5ffd5b505050506040513d601f19601f82011682018060405250810190610feb91906143a0565b505b60065f9054906101000a900473ffffffffffffffffffffffffffffffffffffffff1673ffffffffffffffffffffffffffffffffffffffff168273ffffffffffffffffffffffffffffffffffffffff160361112d5761109460065f9054906101000a900473ffffffffffffffffffffffffffffffffffffffff168261106f61152a565b73ffffffffffffffffffffffffffffffffffffffff166125419092919063ffffffff16565b60065f9054906101000a900473ffffffffffffffffffffffffffffffffffffffff1673ffffffffffffffffffffffffffffffffffffffff1663617ba0376110d961152a565b83305f6040518563ffffffff1660e01b81526004016110fb94939291906146fb565b5f604051808303815f87803b158015611112575f5ffd5b505af1158015611124573d5f5f3e3d5ffd5b5050505061121c565b61118060075f9054906101000a900473ffffffffffffffffffffffffffffffffffffffff168261115b61152a565b73ffffffffffffffffffffffffffffffffffffffff166125419092919063ffffffff16565b60075f9054906101000a900473ffffffffffffffffffffffffffffffffffffffff1673ffffffffffffffffffffffffffffffffffffffff1663a0712d68826040518263ffffffff1660e01b81526004016111da9190613b3d565b6020604051808303815f875af11580156111f6573d5f5f3e3d5ffd5b505050506040513d601f19601f8201168201806040525081019061121a91906143a0565b505b8173ffffffffffffffffffffffffffffffffffffffff168373ffffffffffffffffffffffffffffffffffffffff167f4ce94e8bd94f62017197ba464f629a366572732970f6fe47c76f97bb53f76303836040516112799190613b3d565b60405180910390a350505050565b6060600380546112969061476b565b80601f01602080910402602001604051908101604052809291908181526020018280546112c29061476b565b801561130d5780601f106112e45761010080835404028352916020019161130d565b820191905f5260205f20905b8154815290600101906020018083116112f057829003601f168201915b5050505050905090565b5f611322825f6125f3565b9050919050565b5f5f61133361264b565b9050611340818585612652565b600191505092915050565b5f611357826001612664565b9050919050565b6113666126bc565b61136e612743565b565b6113786126bc565b6101f48111156113bd576040517f08c379a00000000000000000000000000000000000000000000000000000000081526004016113b4906147e5565b60405180910390fd5b5f600a54905081600a819055507f542d1e36f54195e4e918eaa06cf4f40e8861c8af6cf52111230f74bec3dbadfe81836040516113fb92919061484d565b60405180910390a15050565b5f600254905090565b5f5f61141a61264b565b90506114278582856127a5565b611432858585612838565b60019150509392505050565b5f611447612928565b7f00000000000000000000000000000000000000000000000000000000000000006114729190614887565b905090565b61147f6126bc565b61148761152a565b73ffffffffffffffffffffffffffffffffffffffff168273ffffffffffffffffffffffffffffffffffffffff16036114f4576040517f08c379a00000000000000000000000000000000000000000000000000000000081526004016114eb9061492b565b60405180910390fd5b6115266114ff61188c565b828473ffffffffffffffffffffffffffffffffffffffff1661292f9092919063ffffffff16565b5050565b5f7f0000000000000000000000000000000000000000000000000000000000000000905090565b600a5481565b5f7fffffffffffffffffffffffffffffffffffffffffffffffffffffffffffffffff9050919050565b5f61158b825f6125f3565b9050919050565b60606009805480602002602001604051908101604052809291908181526020015f905b8282101561165d578382905f5260205f2090600302016040518060600160405290815f82015f9054906101000a900473ffffffffffffffffffffffffffffffffffffffff1673ffffffffffffffffffffffffffffffffffffffff1673ffffffffffffffffffffffffffffffffffffffff16815260200160018201548152602001600282015f9054906101000a900460ff161515151581525050815260200190600101906115b5565b50505050905090565b5f600560149054906101000a900460ff16905090565b600b5481565b61168a613b01565b5f5f611694611fb7565b915091505f8183116116b15782826116ac9190614557565b6116be565b81836116bd9190614557565b5b9050604051806080016040528084815260200183815260200142815260200182815250935050505090565b5f5f6116f483611557565b90508084111561173f578284826040517f79012fb200000000000000000000000000000000000000000000000000000000815260040161173693929190614949565b60405180910390fd5b5f61174985611e3f565b905061175e61175661264b565b858784612982565b809250505092915050565b5f5f5f8373ffffffffffffffffffffffffffffffffffffffff1673ffffffffffffffffffffffffffffffffffffffff1681526020019081526020015f20549050919050565b6117b66126bc565b6117bf5f61299d565b565b6117c96126bc565b5f60085f9054906101000a900473ffffffffffffffffffffffffffffffffffffffff1690508160085f6101000a81548173ffffffffffffffffffffffffffffffffffffffff021916908373ffffffffffffffffffffffffffffffffffffffff1602179055508173ffffffffffffffffffffffffffffffffffffffff168173ffffffffffffffffffffffffffffffffffffffff167f48115ac6cad44c1d12250cb390b97ad126d4972895814008be033533af3de0be60405160405180910390a35050565b5f60055f9054906101000a900473ffffffffffffffffffffffffffffffffffffffff16905090565b600981815481106118c3575f80fd5b905f5260205f2090600302015f91509050805f015f9054906101000a900473ffffffffffffffffffffffffffffffffffffffff1690806001015490806002015f9054906101000a900460ff16905083565b5f5f61191f83611c3d565b90508084111561196a578284826040517f284ff66700000000000000000000000000000000000000000000000000000000815260040161196193929190614949565b60405180910390fd5b5f61197485611a6a565b905061198961198161264b565b858388612982565b809250505092915050565b6060600480546119a39061476b565b80601f01602080910402602001604051908101604052809291908181526020018280546119cf9061476b565b8015611a1a5780601f106119f157610100808354040283529160200191611a1a565b820191905f5260205f20905b8154815290600101906020018083116119fd57829003601f168201915b5050505050905090565b611a2c6126bc565b611a34612a60565b565b600c5f9054906101000a900460ff1681565b5f5f611a5261264b565b9050611a5f818585612838565b600191505092915050565b5f611a768260016125f3565b9050919050565b5f5f611a8883611c9d565b905080851115611ad3578285826040517ffe9cceec000000000000000000000000000000000000000000000000000000008152600401611aca93929190614949565b60405180910390fd5b5f611add8661134b565b9050611af3611aea61264b565b86868985612ac3565b80925050509392505050565b5f5f611b0a83611cdb565b905080851115611b55578285826040517fb94abeec000000000000000000000000000000000000000000000000000000008152600401611b4c93929190614949565b60405180910390fd5b5f611b5f86611580565b9050611b75611b6c61264b565b8686848a612ac3565b80925050509392505050565b60085f9054906101000a900473ffffffffffffffffffffffffffffffffffffffff1681565b611bae6126bc565b611388811115611bf3576040517f08c379a0000000000000000000000000000000000000000000000000000000008152600401611bea906149c8565b60405180910390fd5b5f600b54905081600b819055507f542d1e36f54195e4e918eaa06cf4f40e8861c8af6cf52111230f74bec3dbadfe8183604051611c31929190614a30565b60405180910390a15050565b5f7fffffffffffffffffffffffffffffffffffffffffffffffffffffffffffffffff9050919050565b5f611c71825f612664565b9050919050565b60065f9054906101000a900473ffffffffffffffffffffffffffffffffffffffff1681565b5f611caf611caa83611cdb565b611580565b9050919050565b60075f9054906101000a900473ffffffffffffffffffffffffffffffffffffffff1681565b5f611ce582611769565b9050919050565b611cf4612ae0565b5f611cfe33611769565b90505f8111611d42576040517f08c379a0000000000000000000000000000000000000000000000000000000008152600401611d3990614ab4565b60405180910390fd5b5f611d4c82611580565b9050611d5781612b02565b611d62823333611aff565b503373ffffffffffffffffffffffffffffffffffffffff167f5fafa99d0643513820be26656b45130b01e1c03062e1266bf36f88cbd3bd969582604051611da99190613b3d565b60405180910390a25050611dbb612d56565b565b5f60015f8473ffffffffffffffffffffffffffffffffffffffff1673ffffffffffffffffffffffffffffffffffffffff1681526020019081526020015f205f8373ffffffffffffffffffffffffffffffffffffffff1673ffffffffffffffffffffffffffffffffffffffff1681526020019081526020015f2054905092915050565b5f611e4a825f612664565b9050919050565b611e596126bc565b5f73ffffffffffffffffffffffffffffffffffffffff168173ffffffffffffffffffffffffffffffffffffffff1603611ec9575f6040517f1e4fbdf7000000000000000000000000000000000000000000000000000000008152600401611ec09190613e0a565b60405180910390fd5b611ed28161299d565b50565b611edd6126bc565b600c5f9054906101000a900460ff1615600c5f6101000a81548160ff0219169083151502179055507f542d1e36f54195e4e918eaa06cf4f40e8861c8af6cf52111230f74bec3dbadfe600c5f9054906101000a900460ff16611f40576001611f42565b5f5b600c5f9054906101000a900460ff16611f5b575f611f5e565b60015b604051611f6c929190614b4c565b60405180910390a1565b611f7e611666565b15611fb5576040517fd93c066500000000000000000000000000000000000000000000000000000000815260040160405180910390fd5b565b5f5f5f60065f9054906101000a900473ffffffffffffffffffffffffffffffffffffffff1673ffffffffffffffffffffffffffffffffffffffff166335ea6a75611fff61152a565b6040518263ffffffff1660e01b815260040161201b9190613e0a565b61016060405180830381865afa158015612037573d5f5f3e3d5ffd5b505050506040513d601f19601f8201168201806040525081019061205b9190614374565b9050612069815f0151612d70565b92505f60075f9054906101000a900473ffffffffffffffffffffffffffffffffffffffff1673ffffffffffffffffffffffffffffffffffffffff1663ae9d70b06040518163ffffffff1660e01b8152600401602060405180830381865afa1580156120d6573d5f5f3e3d5ffd5b505050506040513d601f19601f820116820180604052508101906120fa91906143a0565b905061210581612d8e565b925050509091565b60065f9054906101000a900473ffffffffffffffffffffffffffffffffffffffff1673ffffffffffffffffffffffffffffffffffffffff168373ffffffffffffffffffffffffffffffffffffffff160361220c5760065f9054906101000a900473ffffffffffffffffffffffffffffffffffffffff1673ffffffffffffffffffffffffffffffffffffffff166369328dec6121a661152a565b83306040518463ffffffff1660e01b81526004016121c693929190614680565b6020604051808303815f875af11580156121e2573d5f5f3e3d5ffd5b505050506040513d601f19601f8201168201806040525081019061220691906143a0565b506122a8565b60075f9054906101000a900473ffffffffffffffffffffffffffffffffffffffff1673ffffffffffffffffffffffffffffffffffffffff1663852a12e3826040518263ffffffff1660e01b81526004016122669190613b3d565b6020604051808303815f875af1158015612282573d5f5f3e3d5ffd5b505050506040513d601f19601f820116820180604052508101906122a691906143a0565b505b60065f9054906101000a900473ffffffffffffffffffffffffffffffffffffffff1673ffffffffffffffffffffffffffffffffffffffff168273ffffffffffffffffffffffffffffffffffffffff16036123e85761234f60065f9054906101000a900473ffffffffffffffffffffffffffffffffffffffff168261232a61152a565b73ffffffffffffffffffffffffffffffffffffffff166125419092919063ffffffff16565b60065f9054906101000a900473ffffffffffffffffffffffffffffffffffffffff1673ffffffffffffffffffffffffffffffffffffffff1663617ba03761239461152a565b83305f6040518563ffffffff1660e01b81526004016123b694939291906146fb565b5f604051808303815f87803b1580156123cd575f5ffd5b505af11580156123df573d5f5f3e3d5ffd5b505050506124d7565b61243b60075f9054906101000a900473ffffffffffffffffffffffffffffffffffffffff168261241661152a565b73ffffffffffffffffffffffffffffffffffffffff166125419092919063ffffffff16565b60075f9054906101000a900473ffffffffffffffffffffffffffffffffffffffff1673ffffffffffffffffffffffffffffffffffffffff1663a0712d68826040518263ffffffff1660e01b81526004016124959190613b3d565b6020604051808303815f875af11580156124b1573d5f5f3e3d5ffd5b505050506040513d601f19601f820116820180604052508101906124d591906143a0565b505b8173ffffffffffffffffffffffffffffffffffffffff168373ffffffffffffffffffffffffffffffffffffffff167f4ce94e8bd94f62017197ba464f629a366572732970f6fe47c76f97bb53f76303836040516125349190613b3d565b60405180910390a3505050565b61254d8383835f612dc5565b6125ee5761255e83835f6001612dc5565b61259f57826040517f5274afe70000000000000000000000000000000000000000000000000000000081526004016125969190613e0a565b60405180910390fd5b6125ac8383836001612dc5565b6125ed57826040517f5274afe70000000000000000000000000000000000000000000000000000000081526004016125e49190613e0a565b60405180910390fd5b5b505050565b5f6126436001612601610928565b61260b9190614496565b612613612928565b600a61261f9190614cb5565b612627611407565b6126319190614496565b8486612e27909392919063ffffffff16565b905092915050565b5f33905090565b61265f8383836001612e74565b505050565b5f6126b4612670612928565b600a61267c9190614cb5565b612684611407565b61268e9190614496565b6001612698610928565b6126a29190614496565b8486612e27909392919063ffffffff16565b905092915050565b6126c461264b565b73ffffffffffffffffffffffffffffffffffffffff166126e261188c565b73ffffffffffffffffffffffffffffffffffffffff16146127415761270561264b565b6040517f118cdaa70000000000000000000000000000000000000000000000000000000081526004016127389190613e0a565b60405180910390fd5b565b61274b613043565b5f600560146101000a81548160ff0219169083151502179055507f5db9ee0a495bf2e6ff9c91a7834c1ba4fdd244a5e8aa4e537bd38aeae4b073aa61278e61264b565b60405161279b9190613e0a565b60405180910390a1565b5f6127b08484611dbd565b90507fffffffffffffffffffffffffffffffffffffffffffffffffffffffffffffffff8110156128325781811015612823578281836040517ffb8f41b200000000000000000000000000000000000000000000000000000000815260040161281a93929190614949565b60405180910390fd5b61283184848484035f612e74565b5b50505050565b5f73ffffffffffffffffffffffffffffffffffffffff168373ffffffffffffffffffffffffffffffffffffffff16036128a8575f6040517f96c6fd1e00000000000000000000000000000000000000000000000000000000815260040161289f9190613e0a565b60405180910390fd5b5f73ffffffffffffffffffffffffffffffffffffffff168273ffffffffffffffffffffffffffffffffffffffff1603612918575f6040517fec442f0500000000000000000000000000000000000000000000000000000000815260040161290f9190613e0a565b60405180910390fd5b612923838383613083565b505050565b5f5f905090565b61293c838383600161329c565b61297d57826040517f5274afe70000000000000000000000000000000000000000000000000000000081526004016129749190613e0a565b60405180910390fd5b505050565b61298e848484846132fe565b61299782613388565b50505050565b5f60055f9054906101000a900473ffffffffffffffffffffffffffffffffffffffff1690508160055f6101000a81548173ffffffffffffffffffffffffffffffffffffffff021916908373ffffffffffffffffffffffffffffffffffffffff1602179055508173ffffffffffffffffffffffffffffffffffffffff168173ffffffffffffffffffffffffffffffffffffffff167f8be0079c531659141344cd1fd0a4f28419497f9722a3daafe3b4186f6b6457e060405160405180910390a35050565b612a68611f76565b6001600560146101000a81548160ff0219169083151502179055507f62e78cea01bee320cd4e420270b5ea74000d11b0c9f74754ebdbfc544b05a258612aac61264b565b604051612ab99190613e0a565b60405180910390a1565b612acc82612b02565b612ad98585858585613670565b5050505050565b612ae8613750565b6002612afa612af5613791565b6137ba565b5f0181905550565b5f5f90505b600980549050811015612d52575f60098281548110612b2957612b28614cff565b5b905f5260205f2090600302019050806002015f9054906101000a900460ff168015612b5757505f8160010154115b15612d44575f612710826001015485612b7091906143f8565b612b7a9190614466565b90505f811115612d425760065f9054906101000a900473ffffffffffffffffffffffffffffffffffffffff1673ffffffffffffffffffffffffffffffffffffffff16825f015f9054906101000a900473ffffffffffffffffffffffffffffffffffffffff1673ffffffffffffffffffffffffffffffffffffffff1603612ca55760065f9054906101000a900473ffffffffffffffffffffffffffffffffffffffff1673ffffffffffffffffffffffffffffffffffffffff166369328dec612c3f61152a565b83306040518463ffffffff1660e01b8152600401612c5f93929190614680565b6020604051808303815f875af1158015612c7b573d5f5f3e3d5ffd5b505050506040513d601f19601f82011682018060405250810190612c9f91906143a0565b50612d41565b60075f9054906101000a900473ffffffffffffffffffffffffffffffffffffffff1673ffffffffffffffffffffffffffffffffffffffff1663852a12e3826040518263ffffffff1660e01b8152600401612cff9190613b3d565b6020604051808303815f875af1158015612d1b573d5f5f3e3d5ffd5b505050506040513d601f19601f82011682018060405250810190612d3f91906143a0565b505b5b505b508080600101915050612b07565b5050565b6001612d68612d63613791565b6137ba565b5f0181905550565b5f69152d02c7e14af680000082612d879190614466565b9050919050565b5f670de0b6b3a76400006127106220148084612daa91906143f8565b612db491906143f8565b612dbe9190614466565b9050919050565b5f5f63095ea7b360e01b9050604051815f525f1960601c86166004528460245260205f60445f5f8b5af1925060015f51148316612e19578383151615612e0d573d5f823e3d81fd5b5f873b113d1516831692505b806040525050949350505050565b5f612e55612e34836137c3565b8015612e5057505f8480612e4b57612e4a614439565b5b868809115b6137f0565b612e608686866137fb565b612e6a9190614496565b9050949350505050565b5f73ffffffffffffffffffffffffffffffffffffffff168473ffffffffffffffffffffffffffffffffffffffff1603612ee4575f6040517fe602df05000000000000000000000000000000000000000000000000000000008152600401612edb9190613e0a565b60405180910390fd5b5f73ffffffffffffffffffffffffffffffffffffffff168373ffffffffffffffffffffffffffffffffffffffff1603612f54575f6040517f94280d62000000000000000000000000000000000000000000000000000000008152600401612f4b9190613e0a565b60405180910390fd5b8160015f8673ffffffffffffffffffffffffffffffffffffffff1673ffffffffffffffffffffffffffffffffffffffff1681526020019081526020015f205f8573ffffffffffffffffffffffffffffffffffffffff1673ffffffffffffffffffffffffffffffffffffffff1681526020019081526020015f2081905550801561303d578273ffffffffffffffffffffffffffffffffffffffff168473ffffffffffffffffffffffffffffffffffffffff167f8c5be1e5ebec7d5bd14f71427d1e84f3dd0314c0f7b2291e5b200ac8c7c3b925846040516130349190613b3d565b60405180910390a35b50505050565b61304b611666565b613081576040517f8dfc202b00000000000000000000000000000000000000000000000000000000815260040160405180910390fd5b565b5f73ffffffffffffffffffffffffffffffffffffffff168373ffffffffffffffffffffffffffffffffffffffff16036130d3578060025f8282546130c79190614496565b925050819055506131a1565b5f5f5f8573ffffffffffffffffffffffffffffffffffffffff1673ffffffffffffffffffffffffffffffffffffffff1681526020019081526020015f205490508181101561315c578381836040517fe450d38c00000000000000000000000000000000000000000000000000000000815260040161315393929190614949565b60405180910390fd5b8181035f5f8673ffffffffffffffffffffffffffffffffffffffff1673ffffffffffffffffffffffffffffffffffffffff1681526020019081526020015f2081905550505b5f73ffffffffffffffffffffffffffffffffffffffff168273ffffffffffffffffffffffffffffffffffffffff16036131e8578060025f8282540392505081905550613232565b805f5f8473ffffffffffffffffffffffffffffffffffffffff1673ffffffffffffffffffffffffffffffffffffffff1681526020019081526020015f205f82825401925050819055505b8173ffffffffffffffffffffffffffffffffffffffff168373ffffffffffffffffffffffffffffffffffffffff167fddf252ad1be2c89b69c2b068fc378daa952ba7f163c4a11628f55a4df523b3ef8360405161328f9190613b3d565b60405180910390a3505050565b5f5f63a9059cbb60e01b9050604051815f525f1960601c86166004528460245260205f60445f5f8b5af1925060015f511483166132f05783831516156132e4573d5f823e3d81fd5b5f873b113d1516831692505b806040525050949350505050565b61331161330961152a565b8530856138da565b61331b838261392f565b8273ffffffffffffffffffffffffffffffffffffffff168473ffffffffffffffffffffffffffffffffffffffff167fdcbc1c05240f31ff3ad067ef1ee35ce4997762752e3a095284754544f4c709d7848460405161337a929190614d2c565b60405180910390a350505050565b5f5f90505b60098054905081101561366c575f600982815481106133af576133ae614cff565b5b905f5260205f2090600302019050806002015f9054906101000a900460ff1680156133dd57505f8160010154115b1561365e575f6127108260010154856133f691906143f8565b6134009190614466565b90505f81111561365c5760065f9054906101000a900473ffffffffffffffffffffffffffffffffffffffff1673ffffffffffffffffffffffffffffffffffffffff16825f015f9054906101000a900473ffffffffffffffffffffffffffffffffffffffff1673ffffffffffffffffffffffffffffffffffffffff160361356c576134d360065f9054906101000a900473ffffffffffffffffffffffffffffffffffffffff16826134ae61152a565b73ffffffffffffffffffffffffffffffffffffffff166125419092919063ffffffff16565b60065f9054906101000a900473ffffffffffffffffffffffffffffffffffffffff1673ffffffffffffffffffffffffffffffffffffffff1663617ba03761351861152a565b83305f6040518563ffffffff1660e01b815260040161353a94939291906146fb565b5f604051808303815f87803b158015613551575f5ffd5b505af1158015613563573d5f5f3e3d5ffd5b5050505061365b565b6135bf60075f9054906101000a900473ffffffffffffffffffffffffffffffffffffffff168261359a61152a565b73ffffffffffffffffffffffffffffffffffffffff166125419092919063ffffffff16565b60075f9054906101000a900473ffffffffffffffffffffffffffffffffffffffff1673ffffffffffffffffffffffffffffffffffffffff1663a0712d68826040518263ffffffff1660e01b81526004016136199190613b3d565b6020604051808303815f875af1158015613635573d5f5f3e3d5ffd5b505050506040513d601f19601f8201168201806040525081019061365991906143a0565b505b5b505b50808060010191505061338d565b5050565b8273ffffffffffffffffffffffffffffffffffffffff168573ffffffffffffffffffffffffffffffffffffffff16146136af576136ae8386836127a5565b5b6136b983826139ae565b6136cb6136c461152a565b858461292f565b8273ffffffffffffffffffffffffffffffffffffffff168473ffffffffffffffffffffffffffffffffffffffff168673ffffffffffffffffffffffffffffffffffffffff167ffbde797d201c681b91056529119e0b02407c7bb96a4a2c75c01fc9667232c8db8585604051613741929190614d2c565b60405180910390a45050505050565b613758613a2d565b1561378f576040517f3ee5aeb500000000000000000000000000000000000000000000000000000000815260040160405180910390fd5b565b5f7f9b779b17422d0df92223018b32b4d1fa46e071723d6817e2486d003becc55f005f1b905090565b5f819050919050565b5f600160028360038111156137db576137da614d53565b5b6137e59190614d80565b60ff16149050919050565b5f8115159050919050565b5f5f5f6138088686613a49565b915091505f820361382d5783818161382357613822614439565b5b04925050506138d3565b81841161384c5761384b6138465f861460126011613a66565b613a7f565b5b5f8486880990508181118303925080820391505f855f038616905080860495508083049250600181825f0304019050808402831792505f600287600302189050808702600203810290508087026002038102905080870260020381029050808702600203810290508087026002038102905080870260020381029050808402955050505050505b9392505050565b6138e8848484846001613a90565b61392957836040517f5274afe70000000000000000000000000000000000000000000000000000000081526004016139209190613e0a565b60405180910390fd5b50505050565b5f73ffffffffffffffffffffffffffffffffffffffff168273ffffffffffffffffffffffffffffffffffffffff160361399f575f6040517fec442f050000000000000000000000000000000000000000000000000000000081526004016139969190613e0a565b60405180910390fd5b6139aa5f8383613083565b5050565b5f73ffffffffffffffffffffffffffffffffffffffff168273ffffffffffffffffffffffffffffffffffffffff1603613a1e575f6040517f96c6fd1e000000000000000000000000000000000000000000000000000000008152600401613a159190613e0a565b60405180910390fd5b613a29825f83613083565b5050565b5f6002613a40613a3b613791565b6137ba565b5f015414905090565b5f5f5f198385098385029150818110828203039250509250929050565b5f613a70846137f0565b82841802821890509392505050565b634e487b715f52806020526024601cfd5b5f5f6323b872dd60e01b9050604051815f525f1960601c87166004525f1960601c86166024528460445260205f60645f5f8c5af1925060015f51148316613aee578383151615613ae2573d5f823e3d81fd5b5f883b113d1516831692505b806040525f606052505095945050505050565b60405180608001604052805f81526020015f81526020015f81526020015f81525090565b5f819050919050565b613b3781613b25565b82525050565b5f602082019050613b505f830184613b2e565b92915050565b5f604051905090565b5f5ffd5b5f73ffffffffffffffffffffffffffffffffffffffff82169050919050565b5f613b8c82613b63565b9050919050565b613b9c81613b82565b8114613ba6575f5ffd5b50565b5f81359050613bb781613b93565b92915050565b613bc681613b25565b8114613bd0575f5ffd5b50565b5f81359050613be181613bbd565b92915050565b5f5f5f5f60808587031215613bff57613bfe613b5f565b5b5f613c0c87828801613ba9565b9450506020613c1d87828801613ba9565b9350506040613c2e87828801613ba9565b9250506060613c3f87828801613bd3565b91505092959194509250565b5f81519050919050565b5f82825260208201905092915050565b8281835e5f83830152505050565b5f601f19601f8301169050919050565b5f613c8d82613c4b565b613c978185613c55565b9350613ca7818560208601613c65565b613cb081613c73565b840191505092915050565b5f6020820190508181035f830152613cd38184613c83565b905092915050565b5f60208284031215613cf057613cef613b5f565b5b5f613cfd84828501613bd3565b91505092915050565b5f5f60408385031215613d1c57613d1b613b5f565b5b5f613d2985828601613ba9565b9250506020613d3a85828601613bd3565b9150509250929050565b5f8115159050919050565b613d5881613d44565b82525050565b5f602082019050613d715f830184613d4f565b92915050565b5f5f5f60608486031215613d8e57613d8d613b5f565b5b5f613d9b86828701613ba9565b9350506020613dac86828701613ba9565b9250506040613dbd86828701613bd3565b9150509250925092565b5f60ff82169050919050565b613ddc81613dc7565b82525050565b5f602082019050613df55f830184613dd3565b92915050565b613e0481613b82565b82525050565b5f602082019050613e1d5f830184613dfb565b92915050565b5f60208284031215613e3857613e37613b5f565b5b5f613e4584828501613ba9565b91505092915050565b5f81519050919050565b5f82825260208201905092915050565b5f819050602082019050919050565b613e8081613b82565b82525050565b613e8f81613b25565b82525050565b613e9e81613d44565b82525050565b606082015f820151613eb85f850182613e77565b506020820151613ecb6020850182613e86565b506040820151613ede6040850182613e95565b50505050565b5f613eef8383613ea4565b60608301905092915050565b5f602082019050919050565b5f613f1182613e4e565b613f1b8185613e58565b9350613f2683613e68565b805f5b83811015613f56578151613f3d8882613ee4565b9750613f4883613efb565b925050600181019050613f29565b5085935050505092915050565b5f6020820190508181035f830152613f7b8184613f07565b905092915050565b608082015f820151613f975f850182613e86565b506020820151613faa6020850182613e86565b506040820151613fbd6040850182613e86565b506060820151613fd06060850182613e86565b50505050565b5f608082019050613fe95f830184613f83565b92915050565b5f5f6040838503121561400557614004613b5f565b5b5f61401285828601613bd3565b925050602061402385828601613ba9565b9150509250929050565b5f6060820190506140405f830186613dfb565b61404d6020830185613b2e565b61405a6040830184613d4f565b949350505050565b5f5f5f6060848603121561407957614078613b5f565b5b5f61408686828701613bd3565b935050602061409786828701613ba9565b92505060406140a886828701613ba9565b9150509250925092565b5f819050919050565b5f6140d56140d06140cb84613b63565b6140b2565b613b63565b9050919050565b5f6140e6826140bb565b9050919050565b5f6140f7826140dc565b9050919050565b614107816140ed565b82525050565b5f6020820190506141205f8301846140fe565b92915050565b5f614130826140dc565b9050919050565b61414081614126565b82525050565b5f6020820190506141595f830184614137565b92915050565b5f5f6040838503121561417557614174613b5f565b5b5f61418285828601613ba9565b925050602061419385828601613ba9565b9150509250929050565b5f5ffd5b7f4e487b71000000000000000000000000000000000000000000000000000000005f52604160045260245ffd5b6141d782613c73565b810181811067ffffffffffffffff821117156141f6576141f56141a1565b5b80604052505050565b5f614208613b56565b905061421482826141ce565b919050565b5f8151905061422781613bbd565b92915050565b5f8151905061423b81613b93565b92915050565b61424a81613dc7565b8114614254575f5ffd5b50565b5f8151905061426581614241565b92915050565b5f61016082840312156142815761428061419d565b5b61428c6101606141ff565b90505f61429b84828501614219565b5f8301525060206142ae84828501614219565b60208301525060406142c284828501614219565b60408301525060606142d684828501614219565b60608301525060806142ea84828501614219565b60808301525060a06142fe84828501614219565b60a08301525060c06143128482850161422d565b60c08301525060e06143268482850161422d565b60e08301525061010061433b8482850161422d565b610100830152506101206143518482850161422d565b6101208301525061014061436784828501614257565b6101408301525092915050565b5f610160828403121561438a57614389613b5f565b5b5f6143978482850161426b565b91505092915050565b5f602082840312156143b5576143b4613b5f565b5b5f6143c284828501614219565b91505092915050565b7f4e487b71000000000000000000000000000000000000000000000000000000005f52601160045260245ffd5b5f61440282613b25565b915061440d83613b25565b925082820261441b81613b25565b91508282048414831517614432576144316143cb565b5b5092915050565b7f4e487b71000000000000000000000000000000000000000000000000000000005f52601260045260245ffd5b5f61447082613b25565b915061447b83613b25565b92508261448b5761448a614439565b5b828204905092915050565b5f6144a082613b25565b91506144ab83613b25565b92508282019050808211156144c3576144c26143cb565b5b92915050565b7f5661756c743a204175746f2d726562616c616e63652069732064697361626c655f8201527f6400000000000000000000000000000000000000000000000000000000000000602082015250565b5f614523602183613c55565b915061452e826144c9565b604082019050919050565b5f6020820190508181035f83015261455081614517565b9050919050565b5f61456182613b25565b915061456c83613b25565b9250828203905081811115614584576145836143cb565b5b92915050565b7f5661756c743a204f6e6c79207969656c64206d6f6e69746f722063616e2072655f8201527f62616c616e636500000000000000000000000000000000000000000000000000602082015250565b5f6145e4602783613c55565b91506145ef8261458a565b604082019050919050565b5f6020820190508181035f830152614611816145d8565b9050919050565b7f5661756c743a20416d6f756e74206d757374206265203e2030000000000000005f82015250565b5f61464c601983613c55565b915061465782614618565b602082019050919050565b5f6020820190508181035f83015261467981614640565b9050919050565b5f6060820190506146935f830186613dfb565b6146a06020830185613b2e565b6146ad6040830184613dfb565b949350505050565b5f819050919050565b5f61ffff82169050919050565b5f6146e56146e06146db846146b5565b6140b2565b6146be565b9050919050565b6146f5816146cb565b82525050565b5f60808201905061470e5f830187613dfb565b61471b6020830186613b2e565b6147286040830185613dfb565b61473560608301846146ec565b95945050505050565b7f4e487b71000000000000000000000000000000000000000000000000000000005f52602260045260245ffd5b5f600282049050600182168061478257607f821691505b6020821081036147955761479461473e565b5b50919050565b7f5661756c743a205468726573686f6c6420746f6f2068696768000000000000005f82015250565b5f6147cf601983613c55565b91506147da8261479b565b602082019050919050565b5f6020820190508181035f8301526147fc816147c3565b9050919050565b7f726562616c616e63655468726573686f6c6400000000000000000000000000005f82015250565b5f614837601283613c55565b915061484282614803565b602082019050919050565b5f6060820190508181035f8301526148648161482b565b90506148736020830185613b2e565b6148806040830184613b2e565b9392505050565b5f61489182613dc7565b915061489c83613dc7565b9250828201905060ff8111156148b5576148b46143cb565b5b92915050565b7f5661756c743a2043616e6e6f7420726573637565207072696d617279206173735f8201527f6574000000000000000000000000000000000000000000000000000000000000602082015250565b5f614915602283613c55565b9150614920826148bb565b604082019050919050565b5f6020820190508181035f83015261494281614909565b9050919050565b5f60608201905061495c5f830186613dfb565b6149696020830185613b2e565b6149766040830184613b2e565b949350505050565b7f5661756c743a2050657263656e7461676520746f6f20686967680000000000005f82015250565b5f6149b2601a83613c55565b91506149bd8261497e565b602082019050919050565b5f6020820190508181035f8301526149df816149a6565b9050919050565b7f726562616c616e636550657263656e74616765000000000000000000000000005f82015250565b5f614a1a601383613c55565b9150614a25826149e6565b602082019050919050565b5f6060820190508181035f830152614a4781614a0e565b9050614a566020830185613b2e565b614a636040830184613b2e565b9392505050565b7f5661756c743a204e6f2073686172657320746f207769746864726177000000005f82015250565b5f614a9e601c83613c55565b9150614aa982614a6a565b602082019050919050565b5f6020820190508181035f830152614acb81614a92565b9050919050565b7f6175746f526562616c616e6365456e61626c65640000000000000000000000005f82015250565b5f614b06601483613c55565b9150614b1182614ad2565b602082019050919050565b5f614b36614b31614b2c84613dc7565b6140b2565b613b25565b9050919050565b614b4681614b1c565b82525050565b5f6060820190508181035f830152614b6381614afa565b9050614b726020830185614b3d565b614b7f6040830184614b3d565b9392505050565b5f8160011c9050919050565b5f5f8291508390505b6001851115614bdb57808604811115614bb757614bb66143cb565b5b6001851615614bc65780820291505b8081029050614bd485614b86565b9450614b9b565b94509492505050565b5f82614bf35760019050614cae565b81614c00575f9050614cae565b8160018114614c165760028114614c2057614c4f565b6001915050614cae565b60ff841115614c3257614c316143cb565b5b8360020a915084821115614c4957614c486143cb565b5b50614cae565b5060208310610133831016604e8410600b8410161715614c845782820a905083811115614c7f57614c7e6143cb565b5b614cae565b614c918484846001614b92565b92509050818404811115614ca857614ca76143cb565b5b81810290505b9392505050565b5f614cbf82613b25565b9150614cca83613dc7565b9250614cf77fffffffffffffffffffffffffffffffffffffffffffffffffffffffffffffffff8484614be4565b905092915050565b7f4e487b71000000000000000000000000000000000000000000000000000000005f52603260045260245ffd5b5f604082019050614d3f5f830185613b2e565b614d4c6020830184613b2e565b9392505050565b7f4e487b71000000000000000000000000000000000000000000000000000000005f52602160045260245ffd5b5f614d8a82613dc7565b9150614d9583613dc7565b925082614da557614da4614439565b5b82820690509291505056fea2646970667358221220268a64d5093cf66b80e71c52f3a0737328368e28718ba18eecaab523c00daa7464736f6c634300081e0033","linkReferences":{}},"methodIdentifiers":{"allowance(address,address)":"dd62ed3e","approve(address,uint256)":"095ea7b3","asset()":"38d52e0f","autoRebalanceEnabled()":"a5ac4dd1","balanceOf(address)":"70a08231","checkYieldsAndRebalance()":"01e5ccc7","convertToAssets(uint256)":"07a2d13a","convertToShares(uint256)":"c6e6f592","decimals()":"313ce567","deposit(uint256,address)":"6e553f65","emergencyWithdraw()":"db2e21bc","getPoolAllocations()":"4e8b354e","getYieldData()":"6ce0c521","maxDeposit(address)":"402d267d","maxMint(address)":"c63d75b6","maxRedeem(address)":"d905777e","maxWithdraw(address)":"ce96cb77","mint(uint256,address)":"94bf804d","name()":"06fdde03","owner()":"8da5cb5b","pauseVault()":"9e0879c2","paused()":"5c975abb","poolA()":"cbbf425f","poolAllocations(uint256)":"8f6d1257","poolB()":"d4a2aa33","previewDeposit(uint256)":"ef8b30f7","previewMint(uint256)":"b3d7f6b9","previewRedeem(uint256)":"4cdad506","previewWithdraw(uint256)":"0a28a477","rebalance(address,address,address,uint256)":"06e506cb","rebalancePercentage()":"60538d12","rebalanceThreshold()":"3dfe9f6a","redeem(uint256,address,address)":"ba087652","renounceOwnership()":"715018a6","rescueToken(address,uint256)":"33f3d628","symbol()":"95d89b41","toggleAutoRebalance()":"f9e521b2","totalAssets()":"01e1d114","totalSupply()":"18160ddd","transfer(address,uint256)":"a9059cbb","transferFrom(address,address,uint256)":"23b872dd","transferOwnership(address)":"f2fde38b","unpauseVault()":"0b7562be","updateRebalancePercentage(uint256)":"c4f111f7","updateRebalanceThreshold(uint256)":"12ddbc4f","updateYieldMonitor(address)":"88960bf9","withdraw(uint256,address,address)":"b460af94","yieldMonitor()":"bd28ceb4"},"id":52}