{"abi":[{"type":"constructor","inputs":[{"name":"_asset","type":"address","internalType":"address"},{"name":"_poolA","type":"address","internalType":"address"},{"name":"_poolB","type":"address","internalType":"address"},{"name":"_yieldMonitor","type":"address","internalType":"address"},{"name":"_name","type":"string","internalType":"string"},{"name":"_symbol","type":"string","internalType":"string"}],"stateMutability":"nonpayable"},{"type":"function","name":"allowance","inputs":[{"name":"owner","type":"address","internalType":"address"},{"name":"spender","type":"address","internalType":"address"}],"outputs":[{"name":"","type":"uint256","internalType":"uint256"}],"stateMutability":"view"},{"type":"function","name":"approve","inputs":[{"name":"spender","type":"address","internalType":"address"},{"name":"value","type":"uint256","internalType":"uint256"}],"outputs":[{"name":"","type":"bool","internalType":"bool"}],"stateMutability":"nonpayable"},{"type":"function","name":"asset","inputs":[],"outputs":[{"name":"","type":"address","internalType":"address"}],"stateMutability":"view"},{"type":"function","name":"autoRebalanceEnabled","inputs":[],"outputs":[{"name":"","type":"bool","internalType":"bool"}],"stateMutability":"view"},{"type":"function","name":"balanceOf","inputs":[{"name":"account","type":"address","internalType":"address"}],"outputs":[{"name":"","type":"uint256","internalType":"uint256"}],"stateMutability":"view"},{"type":"function","name":"convertToAssets","inputs":[{"name":"shares","type":"uint256","internalType":"uint256"}],"outputs":[{"name":"","type":"uint256","internalType":"uint256"}],"stateMutability":"view"},{"type":"function","name":"convertToShares","inputs":[{"name":"assets","type":"uint256","internalType":"uint256"}],"outputs":[{"name":"","type":"uint256","internalType":"uint256"}],"stateMutability":"view"},{"type":"function","name":"decimals","inputs":[],"outputs":[{"name":"","type":"uint8","internalType":"uint8"}],"stateMutability":"view"},{"type":"function","name":"deposit","inputs":[{"name":"assets","type":"uint256","internalType":"uint256"},{"name":"receiver","type":"address","internalType":"address"}],"outputs":[{"name":"","type":"uint256","internalType":"uint256"}],"stateMutability":"nonpayable"},{"type":"function","name":"emergencyWithdraw","inputs":[],"outputs":[],"stateMutability":"nonpayable"},{"type":"function","name":"getPoolAllocations","inputs":[],"outputs":[{"name":"","type":"tuple[]","internalType":"struct IVault.PoolAllocation[]","components":[{"name":"poolAddress","type":"address","internalType":"address"},{"name":"percentage","type":"uint256","internalType":"uint256"},{"name":"isActive","type":"bool","internalType":"bool"}]}],"stateMutability":"view"},{"type":"function","name":"getYieldData","inputs":[],"outputs":[{"name":"","type":"tuple","internalType":"struct IVault.YieldData","components":[{"name":"poolAApy","type":"uint256","internalType":"uint256"},{"name":"poolBApy","type":"uint256","internalType":"uint256"},{"name":"lastUpdate","type":"uint256","internalType":"uint256"},{"name":"yieldDifference","type":"uint256","internalType":"uint256"}]}],"stateMutability":"view"},{"type":"function","name":"maxDeposit","inputs":[{"name":"","type":"address","internalType":"address"}],"outputs":[{"name":"","type":"uint256","internalType":"uint256"}],"stateMutability":"view"},{"type":"function","name":"maxMint","inputs":[{"name":"","type":"address","internalType":"address"}],"outputs":[{"name":"","type":"uint256","internalType":"uint256"}],"stateMutability":"view"},{"type":"function","name":"maxRedeem","inputs":[{"name":"owner","type":"address","internalType":"address"}],"outputs":[{"name":"","type":"uint256","internalType":"uint256"}],"stateMutability":"view"},{"type":"function","name":"maxWithdraw","inputs":[{"name":"owner","type":"address","internalType":"address"}],"outputs":[{"name":"","type":"uint256","internalType":"uint256"}],"stateMutability":"view"},{"type":"function","name":"mint","inputs":[{"name":"shares","type":"uint256","internalType":"uint256"},{"name":"receiver","type":"address","internalType":"address"}],"outputs":[{"name":"","type":"uint256","internalType":"uint256"}],"stateMutability":"nonpayable"},{"type":"function","name":"name","inputs":[],"outputs":[{"name":"","type":"string","internalType":"string"}],"stateMutability":"view"},{"type":"function","name":"owner","inputs":[],"outputs":[{"name":"","type":"address","internalType":"address"}],"stateMutability":"view"},{"type":"function","name":"poolA","inputs":[],"outputs":[{"name":"","type":"address","internalType":"contract IAaveLendingPool"}],"stateMutability":"view"},{"type":"function","name":"poolAllocations","inputs":[{"name":"","type":"uint256","internalType":"uint256"}],"outputs":[{"name":"poolAddress","type":"address","internalType":"address"},{"name":"percentage","type":"uint256","internalType":"uint256"},{"name":"isActive","type":"bool","internalType":"bool"}],"stateMutability":"view"},{"type":"function","name":"poolB","inputs":[],"outputs":[{"name":"","type":"address","internalType":"contract ICompoundLendingPool"}],"stateMutability":"view"},{"type":"function","name":"previewDeposit","inputs":[{"name":"assets","type":"uint256","internalType":"uint256"}],"outputs":[{"name":"","type":"uint256","internalType":"uint256"}],"stateMutability":"view"},{"type":"function","name":"previewMint","inputs":[{"name":"shares","type":"uint256","internalType":"uint256"}],"outputs":[{"name":"","type":"uint256","internalType":"uint256"}],"stateMutability":"view"},{"type":"function","name":"previewRedeem","inputs":[{"name":"shares","type":"uint256","internalType":"uint256"}],"outputs":[{"name":"","type":"uint256","internalType":"uint256"}],"stateMutability":"view"},{"type":"function","name":"previewWithdraw","inputs":[{"name":"assets","type":"uint256","internalType":"uint256"}],"outputs":[{"name":"","type":"uint256","internalType":"uint256"}],"stateMutability":"view"},{"type":"function","name":"rebalance","inputs":[{"name":"fromPool","type":"address","internalType":"address"},{"name":"toPool","type":"address","internalType":"address"},{"name":"amount","type":"uint256","internalType":"uint256"}],"outputs":[],"stateMutability":"nonpayable"},{"type":"function","name":"rebalancePercentage","inputs":[],"outputs":[{"name":"","type":"uint256","internalType":"uint256"}],"stateMutability":"view"},{"type":"function","name":"rebalanceThreshold","inputs":[],"outputs":[{"name":"","type":"uint256","internalType":"uint256"}],"stateMutability":"view"},{"type":"function","name":"redeem","inputs":[{"name":"shares","type":"uint256","internalType":"uint256"},{"name":"receiver","type":"address","internalType":"address"},{"name":"owner","type":"address","internalType":"address"}],"outputs":[{"name":"assets","type":"uint256","internalType":"uint256"}],"stateMutability":"nonpayable"},{"type":"function","name":"renounceOwnership","inputs":[],"outputs":[],"stateMutability":"nonpayable"},{"type":"function","name":"symbol","inputs":[],"outputs":[{"name":"","type":"string","internalType":"string"}],"stateMutability":"view"},{"type":"function","name":"toggleAutoRebalance","inputs":[],"outputs":[],"stateMutability":"nonpayable"},{"type":"function","name":"totalAssets","inputs":[],"outputs":[{"name":"","type":"uint256","internalType":"uint256"}],"stateMutability":"view"},{"type":"function","name":"totalSupply","inputs":[],"outputs":[{"name":"","type":"uint256","internalType":"uint256"}],"stateMutability":"view"},{"type":"function","name":"transfer","inputs":[{"name":"to","type":"address","internalType":"address"},{"name":"value","type":"uint256","internalType":"uint256"}],"outputs":[{"name":"","type":"bool","internalType":"bool"}],"stateMutability":"nonpayable"},{"type":"function","name":"transferFrom","inputs":[{"name":"from","type":"address","internalType":"address"},{"name":"to","type":"address","internalType":"address"},{"name":"value","type":"uint256","internalType":"uint256"}],"outputs":[{"name":"","type":"bool","internalType":"bool"}],"stateMutability":"nonpayable"},{"type":"function","name":"transferOwnership","inputs":[{"name":"newOwner","type":"address","internalType":"address"}],"outputs":[],"stateMutability":"nonpayable"},{"type":"function","name":"updateRebalancePercentage","inputs":[{"name":"newPercentage","type":"uint256","internalType":"uint256"}],"outputs":[],"stateMutability":"nonpayable"},{"type":"function","name":"updateRebalanceThreshold","inputs":[{"name":"newThreshold","type":"uint256","internalType":"uint256"}],"outputs":[],"stateMutability":"nonpayable"},{"type":"function","name":"updateYieldMonitor","inputs":[{"name":"newMonitor","type":"address","internalType":"address"}],"outputs":[],"stateMutability":"nonpayable"},{"type":"function","name":"withdraw","inputs":[{"name":"assets","type":"uint256","internalType":"uint256"},{"name":"receiver","type":"address","internalType":"address"},{"name":"owner","type":"address","internalType":"address"}],"outputs":[{"name":"","type":"uint256","internalType":"uint256"}],"stateMutability":"nonpayable"},{"type":"function","name":"yieldMonitor","inputs":[],"outputs":[{"name":"","type":"address","internalType":"address"}],"stateMutability":"view"},{"type":"event","name":"Approval","inputs":[{"name":"owner","type":"address","indexed":true,"internalType":"address"},{"name":"spender","type":"address","indexed":true,"internalType":"address"},{"name":"value","type":"uint256","indexed":false,"internalType":"uint256"}],"anonymous":false},{"type":"event","name":"ConfigurationUpdated","inputs":[{"name":"parameter","type":"string","indexed":false,"internalType":"string"},{"name":"oldValue","type":"uint256","indexed":false,"internalType":"uint256"},{"name":"newValue","type":"uint256","indexed":false,"internalType":"uint256"}],"anonymous":false},{"type":"event","name":"Deposit","inputs":[{"name":"sender","type":"address","indexed":true,"internalType":"address"},{"name":"owner","type":"address","indexed":true,"internalType":"address"},{"name":"assets","type":"uint256","indexed":false,"internalType":"uint256"},{"name":"shares","type":"uint256","indexed":false,"internalType":"uint256"}],"anonymous":false},{"type":"event","name":"Deposited","inputs":[{"name":"user","type":"address","indexed":true,"internalType":"address"},{"name":"amount","type":"uint256","indexed":false,"internalType":"uint256"},{"name":"shares","type":"uint256","indexed":false,"internalType":"uint256"}],"anonymous":false},{"type":"event","name":"EmergencyWithdraw","inputs":[{"name":"user","type":"address","indexed":true,"internalType":"address"},{"name":"amount","type":"uint256","indexed":false,"internalType":"uint256"}],"anonymous":false},{"type":"event","name":"OwnershipTransferred","inputs":[{"name":"previousOwner","type":"address","indexed":true,"internalType":"address"},{"name":"newOwner","type":"address","indexed":true,"internalType":"address"}],"anonymous":false},{"type":"event","name":"Rebalanced","inputs":[{"name":"fromPool","type":"address","indexed":true,"internalType":"address"},{"name":"toPool","type":"address","indexed":true,"internalType":"address"},{"name":"amount","type":"uint256","indexed":false,"internalType":"uint256"}],"anonymous":false},{"type":"event","name":"Transfer","inputs":[{"name":"from","type":"address","indexed":true,"internalType":"address"},{"name":"to","type":"address","indexed":true,"internalType":"address"},{"name":"value","type":"uint256","indexed":false,"internalType":"uint256"}],"anonymous":false},{"type":"event","name":"Withdraw","inputs":[{"name":"sender","type":"address","indexed":true,"internalType":"address"},{"name":"receiver","type":"address","indexed":true,"internalType":"address"},{"name":"owner","type":"address","indexed":true,"internalType":"address"},{"name":"assets","type":"uint256","indexed":false,"internalType":"uint256"},{"name":"shares","type":"uint256","indexed":false,"internalType":"uint256"}],"anonymous":false},{"type":"event","name":"Withdrawn","inputs":[{"name":"user","type":"address","indexed":true,"internalType":"address"},{"name":"amount","type":"uint256","indexed":false,"internalType":"uint256"},{"name":"shares","type":"uint256","indexed":false,"internalType":"uint256"}],"anonymous":false},{"type":"event","name":"YieldMonitorUpdated","inputs":[{"name":"oldMonitor","type":"address","indexed":true,"internalType":"address"},{"name":"newMonitor","type":"address","indexed":true,"internalType":"address"}],"anonymous":false},{"type":"event","name":"YieldUpdated","inputs":[{"name":"poolAApy","type":"uint256","indexed":false,"internalType":"uint256"},{"name":"poolBApy","type":"uint256","indexed":false,"internalType":"uint256"},{"name":"difference","type":"uint256","indexed":false,"internalType":"uint256"}],"anonymous":false},{"type":"error","name":"ERC20InsufficientAllowance","inputs":[{"name":"spender","type":"address","internalType":"address"},{"name":"allowance","type":"uint256","internalType":"uint256"},{"name":"needed","type":"uint256","internalType":"uint256"}]},{"type":"error","name":"ERC20InsufficientBalance","inputs":[{"name":"sender","type":"address","internalType":"address"},{"name":"balance","type":"uint256","internalType":"uint256"},{"name":"needed","type":"uint256","internalType":"uint256"}]},{"type":"error","name":"ERC20InvalidApprover","inputs":[{"name":"approver","type":"address","internalType":"address"}]},{"type":"error","name":"ERC20InvalidReceiver","inputs":[{"name":"receiver","type":"address","internalType":"address"}]},{"type":"error","name":"ERC20InvalidSender","inputs":[{"name":"sender","type":"address","internalType":"address"}]},{"type":"error","name":"ERC20InvalidSpender","inputs":[{"name":"spender","type":"address","internalType":"address"}]},{"type":"error","name":"ERC4626ExceededMaxDeposit","inputs":[{"name":"receiver","type":"address","internalType":"address"},{"name":"assets","type":"uint256","internalType":"uint256"},{"name":"max","type":"uint256","internalType":"uint256"}]},{"type":"error","name":"ERC4626ExceededMaxMint","inputs":[{"name":"receiver","type":"address","internalType":"address"},{"name":"shares","type":"uint256","internalType":"uint256"},{"name":"max","type":"uint256","internalType":"uint256"}]},{"type":"error","name":"ERC4626ExceededMaxRedeem","inputs":[{"name":"owner","type":"address","internalType":"address"},{"name":"shares","type":"uint256","internalType":"uint256"},{"name":"max","type":"uint256","internalType":"uint256"}]},{"type":"error","name":"ERC4626ExceededMaxWithdraw","inputs":[{"name":"owner","type":"address","internalType":"address"},{"name":"assets","type":"uint256","internalType":"uint256"},{"name":"max","type":"uint256","internalType":"uint256"}]},{"type":"error","name":"OwnableInvalidOwner","inputs":[{"name":"owner","type":"address","internalType":"address"}]},{"type":"error","name":"OwnableUnauthorizedAccount","inputs":[{"name":"account","type":"address","internalType":"address"}]},{"type":"error","name":"ReentrancyGuardReentrantCall","inputs":[]},{"type":"error","name":"SafeERC20FailedOperation","inputs":[{"name":"token","type":"address","internalType":"address"}]}],"bytecode":{"object":"0x60c060405234801561000f575f5ffd5b50604051614df7380380614df783398181016040528101906100319190610792565b3386838381600390816100449190610a63565b5080600490816100549190610a63565b5050505f5f610068836103f260201b60201c565b915091508161007857601261007a565b805b60ff1660a08160ff16815250508273ffffffffffffffffffffffffffffffffffffffff1660808173ffffffffffffffffffffffffffffffffffffffff16815250505050505f73ffffffffffffffffffffffffffffffffffffffff168173ffffffffffffffffffffffffffffffffffffffff160361012e575f6040517f1e4fbdf70000000000000000000000000000000000000000000000000000000081526004016101259190610b41565b60405180910390fd5b61013d816104be60201b60201c565b50600161015c61015161058160201b60201c565b6105aa60201b60201c565b5f01819055508460065f6101000a81548173ffffffffffffffffffffffffffffffffffffffff021916908373ffffffffffffffffffffffffffffffffffffffff1602179055508360075f6101000a81548173ffffffffffffffffffffffffffffffffffffffff021916908373ffffffffffffffffffffffffffffffffffffffff1602179055508260085f6101000a81548173ffffffffffffffffffffffffffffffffffffffff021916908373ffffffffffffffffffffffffffffffffffffffff160217905550600960405180606001604052808773ffffffffffffffffffffffffffffffffffffffff168152602001611388815260200160011515815250908060018154018082558091505060019003905f5260205f2090600302015f909190919091505f820151815f015f6101000a81548173ffffffffffffffffffffffffffffffffffffffff021916908373ffffffffffffffffffffffffffffffffffffffff160217905550602082015181600101556040820151816002015f6101000a81548160ff0219169083151502179055505050600960405180606001604052808673ffffffffffffffffffffffffffffffffffffffff168152602001611388815260200160011515815250908060018154018082558091505060019003905f5260205f2090600302015f909190919091505f820151815f015f6101000a81548173ffffffffffffffffffffffffffffffffffffffff021916908373ffffffffffffffffffffffffffffffffffffffff160217905550602082015181600101556040820151816002015f6101000a81548160ff02191690831515021790555050506032600a819055506103e8600b819055506001600c5f6101000a81548160ff021916908315150217905550505050505050610b5a565b5f5f5f6104036105b360201b60201c565b90505f5f6104618660405160240160405160208183030381529060405263313ce56760e01b6020820180517bffffffffffffffffffffffffffffffffffffffffffffffffffffffff83818316178352505050506105bc60201b60201c565b5091509150610475836105dd60201b60201c565b8180156104905750602061048d6105e460201b60201c565b10155b80156104a1575060ff8016815f1c11155b6104ac575f5f6104b2565b6001815f1c5b94509450505050915091565b5f60055f9054906101000a900473ffffffffffffffffffffffffffffffffffffffff1690508160055f6101000a81548173ffffffffffffffffffffffffffffffffffffffff021916908373ffffffffffffffffffffffffffffffffffffffff1602179055508173ffffffffffffffffffffffffffffffffffffffff168173ffffffffffffffffffffffffffffffffffffffff167f8be0079c531659141344cd1fd0a4f28419497f9722a3daafe3b4186f6b6457e060405160405180910390a35050565b5f7f9b779b17422d0df92223018b32b4d1fa46e071723d6817e2486d003becc55f005f1b905090565b5f819050919050565b5f604051905090565b5f5f5f60405f855160208701885afa92505f51915060205190509250925092565b8060405250565b5f3d905090565b5f604051905090565b5f5ffd5b5f5ffd5b5f73ffffffffffffffffffffffffffffffffffffffff82169050919050565b5f610625826105fc565b9050919050565b6106358161061b565b811461063f575f5ffd5b50565b5f815190506106508161062c565b92915050565b5f5ffd5b5f5ffd5b5f601f19601f8301169050919050565b7f4e487b71000000000000000000000000000000000000000000000000000000005f52604160045260245ffd5b6106a48261065e565b810181811067ffffffffffffffff821117156106c3576106c261066e565b5b80604052505050565b5f6106d56105eb565b90506106e1828261069b565b919050565b5f67ffffffffffffffff821115610700576106ff61066e565b5b6107098261065e565b9050602081019050919050565b8281835e5f83830152505050565b5f610736610731846106e6565b6106cc565b9050828152602081018484840111156107525761075161065a565b5b61075d848285610716565b509392505050565b5f82601f83011261077957610778610656565b5b8151610789848260208601610724565b91505092915050565b5f5f5f5f5f5f60c087890312156107ac576107ab6105f4565b5b5f6107b989828a01610642565b96505060206107ca89828a01610642565b95505060406107db89828a01610642565b94505060606107ec89828a01610642565b935050608087015167ffffffffffffffff81111561080d5761080c6105f8565b5b61081989828a01610765565b92505060a087015167ffffffffffffffff81111561083a576108396105f8565b5b61084689828a01610765565b9150509295509295509295565b5f81519050919050565b7f4e487b71000000000000000000000000000000000000000000000000000000005f52602260045260245ffd5b5f60028204905060018216806108a157607f821691505b6020821081036108b4576108b361085d565b5b50919050565b5f819050815f5260205f209050919050565b5f6020601f8301049050919050565b5f82821b905092915050565b5f600883026109167fffffffffffffffffffffffffffffffffffffffffffffffffffffffffffffffff826108db565b61092086836108db565b95508019841693508086168417925050509392505050565b5f819050919050565b5f819050919050565b5f61096461095f61095a84610938565b610941565b610938565b9050919050565b5f819050919050565b61097d8361094a565b6109916109898261096b565b8484546108e7565b825550505050565b5f5f905090565b6109a8610999565b6109b3818484610974565b505050565b5b818110156109d6576109cb5f826109a0565b6001810190506109b9565b5050565b601f821115610a1b576109ec816108ba565b6109f5846108cc565b81016020851015610a04578190505b610a18610a10856108cc565b8301826109b8565b50505b505050565b5f82821c905092915050565b5f610a3b5f1984600802610a20565b1980831691505092915050565b5f610a538383610a2c565b9150826002028217905092915050565b610a6c82610853565b67ffffffffffffffff811115610a8557610a8461066e565b5b610a8f825461088a565b610a9a8282856109da565b5f60209050601f831160018114610acb575f8415610ab9578287015190505b610ac38582610a48565b865550610b2a565b601f198416610ad9866108ba565b5f5b82811015610b0057848901518255600182019150602085019450602081019050610adb565b86831015610b1d5784890151610b19601f891682610a2c565b8355505b6001600288020188555050505b505050505050565b610b3b8161061b565b82525050565b5f602082019050610b545f830184610b32565b92915050565b60805160a05161427c610b7b5f395f610cd201525f610d03015261427c5ff3fe608060405234801561000f575f5ffd5b5060043610610267575f3560e01c80638f6d12571161014f578063c63d75b6116100c1578063d905777e11610085578063d905777e146107d9578063db2e21bc14610809578063dd62ed3e14610813578063ef8b30f714610843578063f2fde38b14610873578063f9e521b21461088f57610267565b8063c63d75b61461070d578063c6e6f5921461073d578063cbbf425f1461076d578063ce96cb771461078b578063d4a2aa33146107bb57610267565b8063b3d7f6b911610113578063b3d7f6b914610627578063b3f865f714610657578063b460af9414610673578063ba087652146106a3578063bd28ceb4146106d3578063c4f111f7146106f157610267565b80638f6d12571461055957806394bf804d1461058b57806395d89b41146105bb578063a5ac4dd1146105d9578063a9059cbb146105f757610267565b80633dfe9f6a116101e85780636ce0c521116101ac5780636ce0c521146104975780636e553f65146104b557806370a08231146104e5578063715018a61461051557806388960bf91461051f5780638da5cb5b1461053b57610267565b80633dfe9f6a146103dd578063402d267d146103fb5780634cdad5061461042b5780634e8b354e1461045b57806360538d121461047957610267565b806312ddbc4f1161022f57806312ddbc4f1461033757806318160ddd1461035357806323b872dd14610371578063313ce567146103a157806338d52e0f146103bf57610267565b806301e1d1141461026b57806306fdde031461028957806307a2d13a146102a7578063095ea7b3146102d75780630a28a47714610307575b5f5ffd5b610273610899565b60405161028091906130c5565b60405180910390f35b610291610b22565b60405161029e919061314e565b60405180910390f35b6102c160048036038101906102bc91906131a5565b610bb2565b6040516102ce91906130c5565b60405180910390f35b6102f160048036038101906102ec919061322a565b610bc4565b6040516102fe9190613282565b60405180910390f35b610321600480360381019061031c91906131a5565b610be6565b60405161032e91906130c5565b60405180910390f35b610351600480360381019061034c91906131a5565b610bf9565b005b61035b610c90565b60405161036891906130c5565b60405180910390f35b61038b6004803603810190610386919061329b565b610c99565b6040516103989190613282565b60405180910390f35b6103a9610cc7565b6040516103b69190613306565b60405180910390f35b6103c7610d00565b6040516103d4919061332e565b60405180910390f35b6103e5610d27565b6040516103f291906130c5565b60405180910390f35b61041560048036038101906104109190613347565b610d2d565b60405161042291906130c5565b60405180910390f35b610445600480360381019061044091906131a5565b610d56565b60405161045291906130c5565b60405180910390f35b610463610d68565b6040516104709190613487565b60405180910390f35b610481610e3c565b60405161048e91906130c5565b60405180910390f35b61049f610e42565b6040516104ac91906134fa565b60405180910390f35b6104cf60048036038101906104ca9190613513565b610ea9565b6040516104dc91906130c5565b60405180910390f35b6104ff60048036038101906104fa9190613347565b610f29565b60405161050c91906130c5565b60405180910390f35b61051d610f6e565b005b61053960048036038101906105349190613347565b610f81565b005b61054361104c565b604051610550919061332e565b60405180910390f35b610573600480360381019061056e91906131a5565b611074565b60405161058293929190613551565b60405180910390f35b6105a560048036038101906105a09190613513565b6110d4565b6040516105b291906130c5565b60405180910390f35b6105c3611154565b6040516105d0919061314e565b60405180910390f35b6105e16111e4565b6040516105ee9190613282565b60405180910390f35b610611600480360381019061060c919061322a565b6111f6565b60405161061e9190613282565b60405180910390f35b610641600480360381019061063c91906131a5565b611218565b60405161064e91906130c5565b60405180910390f35b610671600480360381019061066c919061329b565b61122b565b005b61068d60048036038101906106889190613586565b611730565b60405161069a91906130c5565b60405180910390f35b6106bd60048036038101906106b89190613586565b6117b2565b6040516106ca91906130c5565b60405180910390f35b6106db6119a4565b6040516106e8919061332e565b60405180910390f35b61070b600480360381019061070691906131a5565b6119c9565b005b61072760048036038101906107229190613347565b611a60565b60405161073491906130c5565b60405180910390f35b610757600480360381019061075291906131a5565b611a89565b60405161076491906130c5565b60405180910390f35b610775611a9b565b6040516107829190613631565b60405180910390f35b6107a560048036038101906107a09190613347565b611ac0565b6040516107b291906130c5565b60405180910390f35b6107c3611ad9565b6040516107d0919061366a565b60405180910390f35b6107f360048036038101906107ee9190613347565b611afe565b60405161080091906130c5565b60405180910390f35b610811611b0f565b005b61082d60048036038101906108289190613683565b611be0565b60405161083a91906130c5565b60405180910390f35b61085d600480360381019061085891906131a5565b611c62565b60405161086a91906130c5565b60405180910390f35b61088d60048036038101906108889190613347565b611c74565b005b610897611cf8565b005b5f5f60065f9054906101000a900473ffffffffffffffffffffffffffffffffffffffff1673ffffffffffffffffffffffffffffffffffffffff166335ea6a756108e0610d00565b6040518263ffffffff1660e01b81526004016108fc919061332e565b61016060405180830381865afa158015610918573d5f5f3e3d5ffd5b505050506040513d601f19601f8201168201806040525081019061093c9190613898565b60c0015190505f8173ffffffffffffffffffffffffffffffffffffffff166370a08231306040518263ffffffff1660e01b815260040161097c919061332e565b602060405180830381865afa158015610997573d5f5f3e3d5ffd5b505050506040513d601f19601f820116820180604052508101906109bb91906138c4565b90505f60075f9054906101000a900473ffffffffffffffffffffffffffffffffffffffff1673ffffffffffffffffffffffffffffffffffffffff166370a08231306040518263ffffffff1660e01b8152600401610a18919061332e565b602060405180830381865afa158015610a33573d5f5f3e3d5ffd5b505050506040513d601f19601f82011682018060405250810190610a5791906138c4565b90505f60075f9054906101000a900473ffffffffffffffffffffffffffffffffffffffff1673ffffffffffffffffffffffffffffffffffffffff1663bd6d894d6040518163ffffffff1660e01b8152600401602060405180830381865afa158015610ac4573d5f5f3e3d5ffd5b505050506040513d601f19601f82011682018060405250810190610ae891906138c4565b90505f670de0b6b3a76400008284610b00919061391c565b610b0a919061398a565b90508084610b1891906139ba565b9550505050505090565b606060038054610b3190613a1a565b80601f0160208091040260200160405190810160405280929190818152602001828054610b5d90613a1a565b8015610ba85780601f10610b7f57610100808354040283529160200191610ba8565b820191905f5260205f20905b815481529060010190602001808311610b8b57829003601f168201915b5050505050905090565b5f610bbd825f611d99565b9050919050565b5f5f610bce611df1565b9050610bdb818585611df8565b600191505092915050565b5f610bf2826001611e0a565b9050919050565b610c01611e62565b6101f4811115610c46576040517f08c379a0000000000000000000000000000000000000000000000000000000008152600401610c3d90613a94565b60405180910390fd5b5f600a54905081600a819055507f542d1e36f54195e4e918eaa06cf4f40e8861c8af6cf52111230f74bec3dbadfe8183604051610c84929190613afc565b60405180910390a15050565b5f600254905090565b5f5f610ca3611df1565b9050610cb0858285611ee9565b610cbb858585611f7c565b60019150509392505050565b5f610cd061206c565b7f0000000000000000000000000000000000000000000000000000000000000000610cfb9190613b36565b905090565b5f7f0000000000000000000000000000000000000000000000000000000000000000905090565b600a5481565b5f7fffffffffffffffffffffffffffffffffffffffffffffffffffffffffffffffff9050919050565b5f610d61825f611d99565b9050919050565b60606009805480602002602001604051908101604052809291908181526020015f905b82821015610e33578382905f5260205f2090600302016040518060600160405290815f82015f9054906101000a900473ffffffffffffffffffffffffffffffffffffffff1673ffffffffffffffffffffffffffffffffffffffff1673ffffffffffffffffffffffffffffffffffffffff16815260200160018201548152602001600282015f9054906101000a900460ff16151515158152505081526020019060010190610d8b565b50505050905090565b600b5481565b610e4a613089565b5f5f610e54612073565b915091505f818311610e71578282610e6c9190613b6a565b610e7e565b8183610e7d9190613b6a565b5b9050604051806080016040528084815260200183815260200142815260200182815250935050505090565b5f5f610eb483610d2d565b905080841115610eff578284826040517f79012fb2000000000000000000000000000000000000000000000000000000008152600401610ef693929190613b9d565b60405180910390fd5b5f610f0985611c62565b9050610f1e610f16611df1565b8587846121c9565b809250505092915050565b5f5f5f8373ffffffffffffffffffffffffffffffffffffffff1673ffffffffffffffffffffffffffffffffffffffff1681526020019081526020015f20549050919050565b610f76611e62565b610f7f5f612253565b565b610f89611e62565b5f60085f9054906101000a900473ffffffffffffffffffffffffffffffffffffffff1690508160085f6101000a81548173ffffffffffffffffffffffffffffffffffffffff021916908373ffffffffffffffffffffffffffffffffffffffff1602179055508173ffffffffffffffffffffffffffffffffffffffff168173ffffffffffffffffffffffffffffffffffffffff167f48115ac6cad44c1d12250cb390b97ad126d4972895814008be033533af3de0be60405160405180910390a35050565b5f60055f9054906101000a900473ffffffffffffffffffffffffffffffffffffffff16905090565b60098181548110611083575f80fd5b905f5260205f2090600302015f91509050805f015f9054906101000a900473ffffffffffffffffffffffffffffffffffffffff1690806001015490806002015f9054906101000a900460ff16905083565b5f5f6110df83611a60565b90508084111561112a578284826040517f284ff66700000000000000000000000000000000000000000000000000000000815260040161112193929190613b9d565b60405180910390fd5b5f61113485611218565b9050611149611141611df1565b8583886121c9565b809250505092915050565b60606004805461116390613a1a565b80601f016020809104026020016040519081016040528092919081815260200182805461118f90613a1a565b80156111da5780601f106111b1576101008083540402835291602001916111da565b820191905f5260205f20905b8154815290600101906020018083116111bd57829003601f168201915b5050505050905090565b600c5f9054906101000a900460ff1681565b5f5f611200611df1565b905061120d818585611f7c565b600191505092915050565b5f611224826001611d99565b9050919050565b60085f9054906101000a900473ffffffffffffffffffffffffffffffffffffffff1673ffffffffffffffffffffffffffffffffffffffff163373ffffffffffffffffffffffffffffffffffffffff16146112ba576040517f08c379a00000000000000000000000000000000000000000000000000000000081526004016112b190613c42565b60405180910390fd5b5f81116112fc576040517f08c379a00000000000000000000000000000000000000000000000000000000081526004016112f390613caa565b60405180910390fd5b60065f9054906101000a900473ffffffffffffffffffffffffffffffffffffffff1673ffffffffffffffffffffffffffffffffffffffff168373ffffffffffffffffffffffffffffffffffffffff16036113fb5760065f9054906101000a900473ffffffffffffffffffffffffffffffffffffffff1673ffffffffffffffffffffffffffffffffffffffff166369328dec611395610d00565b83306040518463ffffffff1660e01b81526004016113b593929190613cc8565b6020604051808303815f875af11580156113d1573d5f5f3e3d5ffd5b505050506040513d601f19601f820116820180604052508101906113f591906138c4565b50611497565b60075f9054906101000a900473ffffffffffffffffffffffffffffffffffffffff1673ffffffffffffffffffffffffffffffffffffffff1663852a12e3826040518263ffffffff1660e01b815260040161145591906130c5565b6020604051808303815f875af1158015611471573d5f5f3e3d5ffd5b505050506040513d601f19601f8201168201806040525081019061149591906138c4565b505b60065f9054906101000a900473ffffffffffffffffffffffffffffffffffffffff1673ffffffffffffffffffffffffffffffffffffffff168273ffffffffffffffffffffffffffffffffffffffff16036115d75761153e60065f9054906101000a900473ffffffffffffffffffffffffffffffffffffffff1682611519610d00565b73ffffffffffffffffffffffffffffffffffffffff166123169092919063ffffffff16565b60065f9054906101000a900473ffffffffffffffffffffffffffffffffffffffff1673ffffffffffffffffffffffffffffffffffffffff1663617ba037611583610d00565b83305f6040518563ffffffff1660e01b81526004016115a59493929190613d43565b5f604051808303815f87803b1580156115bc575f5ffd5b505af11580156115ce573d5f5f3e3d5ffd5b505050506116c6565b61162a60075f9054906101000a900473ffffffffffffffffffffffffffffffffffffffff1682611605610d00565b73ffffffffffffffffffffffffffffffffffffffff166123169092919063ffffffff16565b60075f9054906101000a900473ffffffffffffffffffffffffffffffffffffffff1673ffffffffffffffffffffffffffffffffffffffff1663a0712d68826040518263ffffffff1660e01b815260040161168491906130c5565b6020604051808303815f875af11580156116a0573d5f5f3e3d5ffd5b505050506040513d601f19601f820116820180604052508101906116c491906138c4565b505b8173ffffffffffffffffffffffffffffffffffffffff168373ffffffffffffffffffffffffffffffffffffffff167f4ce94e8bd94f62017197ba464f629a366572732970f6fe47c76f97bb53f763038360405161172391906130c5565b60405180910390a3505050565b5f5f61173b83611ac0565b905080851115611786578285826040517ffe9cceec00000000000000000000000000000000000000000000000000000000815260040161177d93929190613b9d565b60405180910390fd5b5f61179086610be6565b90506117a661179d611df1565b868689856123c8565b80925050509392505050565b5f5f73ffffffffffffffffffffffffffffffffffffffff168373ffffffffffffffffffffffffffffffffffffffff1603611821576040517f08c379a000000000000000000000000000000000000000000000000000000000815260040161181890613df6565b60405180910390fd5b5f73ffffffffffffffffffffffffffffffffffffffff168273ffffffffffffffffffffffffffffffffffffffff160361188f576040517f08c379a000000000000000000000000000000000000000000000000000000000815260040161188690613df6565b60405180910390fd5b61189884610d56565b90508173ffffffffffffffffffffffffffffffffffffffff163373ffffffffffffffffffffffffffffffffffffffff16146118d9576118d8823386611ee9565b5b6118e381856124a8565b6118ed82856124b5565b61191f83826118fa610d00565b73ffffffffffffffffffffffffffffffffffffffff166125349092919063ffffffff16565b8173ffffffffffffffffffffffffffffffffffffffff168373ffffffffffffffffffffffffffffffffffffffff163373ffffffffffffffffffffffffffffffffffffffff167ffbde797d201c681b91056529119e0b02407c7bb96a4a2c75c01fc9667232c8db8488604051611995929190613e14565b60405180910390a49392505050565b60085f9054906101000a900473ffffffffffffffffffffffffffffffffffffffff1681565b6119d1611e62565b611388811115611a16576040517f08c379a0000000000000000000000000000000000000000000000000000000008152600401611a0d90613e85565b60405180910390fd5b5f600b54905081600b819055507f542d1e36f54195e4e918eaa06cf4f40e8861c8af6cf52111230f74bec3dbadfe8183604051611a54929190613eed565b60405180910390a15050565b5f7fffffffffffffffffffffffffffffffffffffffffffffffffffffffffffffffff9050919050565b5f611a94825f611e0a565b9050919050565b60065f9054906101000a900473ffffffffffffffffffffffffffffffffffffffff1681565b5f611ad2611acd83611afe565b610d56565b9050919050565b60075f9054906101000a900473ffffffffffffffffffffffffffffffffffffffff1681565b5f611b0882610f29565b9050919050565b611b17612587565b5f611b2133610f29565b90505f8111611b65576040517f08c379a0000000000000000000000000000000000000000000000000000000008152600401611b5c90613f71565b60405180910390fd5b5f611b6f82610d56565b9050611b7a816125a9565b611b858233336117b2565b503373ffffffffffffffffffffffffffffffffffffffff167f5fafa99d0643513820be26656b45130b01e1c03062e1266bf36f88cbd3bd969582604051611bcc91906130c5565b60405180910390a25050611bde6127fd565b565b5f60015f8473ffffffffffffffffffffffffffffffffffffffff1673ffffffffffffffffffffffffffffffffffffffff1681526020019081526020015f205f8373ffffffffffffffffffffffffffffffffffffffff1673ffffffffffffffffffffffffffffffffffffffff1681526020019081526020015f2054905092915050565b5f611c6d825f611e0a565b9050919050565b611c7c611e62565b5f73ffffffffffffffffffffffffffffffffffffffff168173ffffffffffffffffffffffffffffffffffffffff1603611cec575f6040517f1e4fbdf7000000000000000000000000000000000000000000000000000000008152600401611ce3919061332e565b60405180910390fd5b611cf581612253565b50565b611d00611e62565b600c5f9054906101000a900460ff1615600c5f6101000a81548160ff0219169083151502179055507f542d1e36f54195e4e918eaa06cf4f40e8861c8af6cf52111230f74bec3dbadfe600c5f9054906101000a900460ff16611d63576001611d65565b5f5b600c5f9054906101000a900460ff16611d7e575f611d81565b60015b604051611d8f929190614009565b60405180910390a1565b5f611de96001611da7610899565b611db191906139ba565b611db961206c565b600a611dc59190614172565b611dcd610c90565b611dd791906139ba565b8486612817909392919063ffffffff16565b905092915050565b5f33905090565b611e058383836001612864565b505050565b5f611e5a611e1661206c565b600a611e229190614172565b611e2a610c90565b611e3491906139ba565b6001611e3e610899565b611e4891906139ba565b8486612817909392919063ffffffff16565b905092915050565b611e6a611df1565b73ffffffffffffffffffffffffffffffffffffffff16611e8861104c565b73ffffffffffffffffffffffffffffffffffffffff1614611ee757611eab611df1565b6040517f118cdaa7000000000000000000000000000000000000000000000000000000008152600401611ede919061332e565b60405180910390fd5b565b5f611ef48484611be0565b90507fffffffffffffffffffffffffffffffffffffffffffffffffffffffffffffffff811015611f765781811015611f67578281836040517ffb8f41b2000000000000000000000000000000000000000000000000000000008152600401611f5e93929190613b9d565b60405180910390fd5b611f7584848484035f612864565b5b50505050565b5f73ffffffffffffffffffffffffffffffffffffffff168373ffffffffffffffffffffffffffffffffffffffff1603611fec575f6040517f96c6fd1e000000000000000000000000000000000000000000000000000000008152600401611fe3919061332e565b60405180910390fd5b5f73ffffffffffffffffffffffffffffffffffffffff168273ffffffffffffffffffffffffffffffffffffffff160361205c575f6040517fec442f05000000000000000000000000000000000000000000000000000000008152600401612053919061332e565b60405180910390fd5b612067838383612a33565b505050565b5f5f905090565b5f5f5f60065f9054906101000a900473ffffffffffffffffffffffffffffffffffffffff1673ffffffffffffffffffffffffffffffffffffffff166335ea6a756120bb610d00565b6040518263ffffffff1660e01b81526004016120d7919061332e565b61016060405180830381865afa1580156120f3573d5f5f3e3d5ffd5b505050506040513d601f19601f820116820180604052508101906121179190613898565b9050612125815f0151612c4c565b92505f60075f9054906101000a900473ffffffffffffffffffffffffffffffffffffffff1673ffffffffffffffffffffffffffffffffffffffff1663ae9d70b06040518163ffffffff1660e01b8152600401602060405180830381865afa158015612192573d5f5f3e3d5ffd5b505050506040513d601f19601f820116820180604052508101906121b691906138c4565b90506121c181612c6a565b925050509091565b6121dc6121d4610d00565b853085612c93565b6121e68382612ce8565b8273ffffffffffffffffffffffffffffffffffffffff168473ffffffffffffffffffffffffffffffffffffffff167fdcbc1c05240f31ff3ad067ef1ee35ce4997762752e3a095284754544f4c709d78484604051612245929190613e14565b60405180910390a350505050565b5f60055f9054906101000a900473ffffffffffffffffffffffffffffffffffffffff1690508160055f6101000a81548173ffffffffffffffffffffffffffffffffffffffff021916908373ffffffffffffffffffffffffffffffffffffffff1602179055508173ffffffffffffffffffffffffffffffffffffffff168173ffffffffffffffffffffffffffffffffffffffff167f8be0079c531659141344cd1fd0a4f28419497f9722a3daafe3b4186f6b6457e060405160405180910390a35050565b6123228383835f612d67565b6123c35761233383835f6001612d67565b61237457826040517f5274afe700000000000000000000000000000000000000000000000000000000815260040161236b919061332e565b60405180910390fd5b6123818383836001612d67565b6123c257826040517f5274afe70000000000000000000000000000000000000000000000000000000081526004016123b9919061332e565b60405180910390fd5b5b505050565b8273ffffffffffffffffffffffffffffffffffffffff168573ffffffffffffffffffffffffffffffffffffffff161461240757612406838683611ee9565b5b61241183826124b5565b61242361241c610d00565b8584612534565b8273ffffffffffffffffffffffffffffffffffffffff168473ffffffffffffffffffffffffffffffffffffffff168673ffffffffffffffffffffffffffffffffffffffff167ffbde797d201c681b91056529119e0b02407c7bb96a4a2c75c01fc9667232c8db8585604051612499929190613e14565b60405180910390a45050505050565b6124b1826125a9565b5050565b5f73ffffffffffffffffffffffffffffffffffffffff168273ffffffffffffffffffffffffffffffffffffffff1603612525575f6040517f96c6fd1e00000000000000000000000000000000000000000000000000000000815260040161251c919061332e565b60405180910390fd5b612530825f83612a33565b5050565b6125418383836001612dc9565b61258257826040517f5274afe7000000000000000000000000000000000000000000000000000000008152600401612579919061332e565b60405180910390fd5b505050565b61258f612e2b565b60026125a161259c612e6c565b612e95565b5f0181905550565b5f5f90505b6009805490508110156127f9575f600982815481106125d0576125cf6141bc565b5b905f5260205f2090600302019050806002015f9054906101000a900460ff1680156125fe57505f8160010154115b156127eb575f612710826001015485612617919061391c565b612621919061398a565b90505f8111156127e95760065f9054906101000a900473ffffffffffffffffffffffffffffffffffffffff1673ffffffffffffffffffffffffffffffffffffffff16825f015f9054906101000a900473ffffffffffffffffffffffffffffffffffffffff1673ffffffffffffffffffffffffffffffffffffffff160361274c5760065f9054906101000a900473ffffffffffffffffffffffffffffffffffffffff1673ffffffffffffffffffffffffffffffffffffffff166369328dec6126e6610d00565b83306040518463ffffffff1660e01b815260040161270693929190613cc8565b6020604051808303815f875af1158015612722573d5f5f3e3d5ffd5b505050506040513d601f19601f8201168201806040525081019061274691906138c4565b506127e8565b60075f9054906101000a900473ffffffffffffffffffffffffffffffffffffffff1673ffffffffffffffffffffffffffffffffffffffff1663852a12e3826040518263ffffffff1660e01b81526004016127a691906130c5565b6020604051808303815f875af11580156127c2573d5f5f3e3d5ffd5b505050506040513d601f19601f820116820180604052508101906127e691906138c4565b505b5b505b5080806001019150506125ae565b5050565b600161280f61280a612e6c565b612e95565b5f0181905550565b5f61284561282483612e9e565b801561284057505f848061283b5761283a61395d565b5b868809115b612ecb565b612850868686612ed6565b61285a91906139ba565b9050949350505050565b5f73ffffffffffffffffffffffffffffffffffffffff168473ffffffffffffffffffffffffffffffffffffffff16036128d4575f6040517fe602df050000000000000000000000000000000000000000000000000000000081526004016128cb919061332e565b60405180910390fd5b5f73ffffffffffffffffffffffffffffffffffffffff168373ffffffffffffffffffffffffffffffffffffffff1603612944575f6040517f94280d6200000000000000000000000000000000000000000000000000000000815260040161293b919061332e565b60405180910390fd5b8160015f8673ffffffffffffffffffffffffffffffffffffffff1673ffffffffffffffffffffffffffffffffffffffff1681526020019081526020015f205f8573ffffffffffffffffffffffffffffffffffffffff1673ffffffffffffffffffffffffffffffffffffffff1681526020019081526020015f20819055508015612a2d578273ffffffffffffffffffffffffffffffffffffffff168473ffffffffffffffffffffffffffffffffffffffff167f8c5be1e5ebec7d5bd14f71427d1e84f3dd0314c0f7b2291e5b200ac8c7c3b92584604051612a2491906130c5565b60405180910390a35b50505050565b5f73ffffffffffffffffffffffffffffffffffffffff168373ffffffffffffffffffffffffffffffffffffffff1603612a83578060025f828254612a7791906139ba565b92505081905550612b51565b5f5f5f8573ffffffffffffffffffffffffffffffffffffffff1673ffffffffffffffffffffffffffffffffffffffff1681526020019081526020015f2054905081811015612b0c578381836040517fe450d38c000000000000000000000000000000000000000000000000000000008152600401612b0393929190613b9d565b60405180910390fd5b8181035f5f8673ffffffffffffffffffffffffffffffffffffffff1673ffffffffffffffffffffffffffffffffffffffff1681526020019081526020015f2081905550505b5f73ffffffffffffffffffffffffffffffffffffffff168273ffffffffffffffffffffffffffffffffffffffff1603612b98578060025f8282540392505081905550612be2565b805f5f8473ffffffffffffffffffffffffffffffffffffffff1673ffffffffffffffffffffffffffffffffffffffff1681526020019081526020015f205f82825401925050819055505b8173ffffffffffffffffffffffffffffffffffffffff168373ffffffffffffffffffffffffffffffffffffffff167fddf252ad1be2c89b69c2b068fc378daa952ba7f163c4a11628f55a4df523b3ef83604051612c3f91906130c5565b60405180910390a3505050565b5f69152d02c7e14af680000082612c63919061398a565b9050919050565b5f662386f26fc100006220148083612c82919061391c565b612c8c919061398a565b9050919050565b612ca1848484846001612fb5565b612ce257836040517f5274afe7000000000000000000000000000000000000000000000000000000008152600401612cd9919061332e565b60405180910390fd5b50505050565b5f73ffffffffffffffffffffffffffffffffffffffff168273ffffffffffffffffffffffffffffffffffffffff1603612d58575f6040517fec442f05000000000000000000000000000000000000000000000000000000008152600401612d4f919061332e565b60405180910390fd5b612d635f8383612a33565b5050565b5f5f63095ea7b360e01b9050604051815f525f1960601c86166004528460245260205f60445f5f8b5af1925060015f51148316612dbb578383151615612daf573d5f823e3d81fd5b5f873b113d1516831692505b806040525050949350505050565b5f5f63a9059cbb60e01b9050604051815f525f1960601c86166004528460245260205f60445f5f8b5af1925060015f51148316612e1d578383151615612e11573d5f823e3d81fd5b5f873b113d1516831692505b806040525050949350505050565b612e33613026565b15612e6a576040517f3ee5aeb500000000000000000000000000000000000000000000000000000000815260040160405180910390fd5b565b5f7f9b779b17422d0df92223018b32b4d1fa46e071723d6817e2486d003becc55f005f1b905090565b5f819050919050565b5f60016002836003811115612eb657612eb56141e9565b5b612ec09190614216565b60ff16149050919050565b5f8115159050919050565b5f5f5f612ee38686613042565b915091505f8203612f0857838181612efe57612efd61395d565b5b0492505050612fae565b818411612f2757612f26612f215f86146012601161305f565b613078565b5b5f8486880990508181118303925080820391505f855f038616905080860495508083049250600181825f0304019050808402831792505f600287600302189050808702600203810290508087026002038102905080870260020381029050808702600203810290508087026002038102905080870260020381029050808402955050505050505b9392505050565b5f5f6323b872dd60e01b9050604051815f525f1960601c87166004525f1960601c86166024528460445260205f60645f5f8c5af1925060015f51148316613013578383151615613007573d5f823e3d81fd5b5f883b113d1516831692505b806040525f606052505095945050505050565b5f6002613039613034612e6c565b612e95565b5f015414905090565b5f5f5f198385098385029150818110828203039250509250929050565b5f61306984612ecb565b82841802821890509392505050565b634e487b715f52806020526024601cfd5b60405180608001604052805f81526020015f81526020015f81526020015f81525090565b5f819050919050565b6130bf816130ad565b82525050565b5f6020820190506130d85f8301846130b6565b92915050565b5f81519050919050565b5f82825260208201905092915050565b8281835e5f83830152505050565b5f601f19601f8301169050919050565b5f613120826130de565b61312a81856130e8565b935061313a8185602086016130f8565b61314381613106565b840191505092915050565b5f6020820190508181035f8301526131668184613116565b905092915050565b5f604051905090565b5f5ffd5b613184816130ad565b811461318e575f5ffd5b50565b5f8135905061319f8161317b565b92915050565b5f602082840312156131ba576131b9613177565b5b5f6131c784828501613191565b91505092915050565b5f73ffffffffffffffffffffffffffffffffffffffff82169050919050565b5f6131f9826131d0565b9050919050565b613209816131ef565b8114613213575f5ffd5b50565b5f8135905061322481613200565b92915050565b5f5f604083850312156132405761323f613177565b5b5f61324d85828601613216565b925050602061325e85828601613191565b9150509250929050565b5f8115159050919050565b61327c81613268565b82525050565b5f6020820190506132955f830184613273565b92915050565b5f5f5f606084860312156132b2576132b1613177565b5b5f6132bf86828701613216565b93505060206132d086828701613216565b92505060406132e186828701613191565b9150509250925092565b5f60ff82169050919050565b613300816132eb565b82525050565b5f6020820190506133195f8301846132f7565b92915050565b613328816131ef565b82525050565b5f6020820190506133415f83018461331f565b92915050565b5f6020828403121561335c5761335b613177565b5b5f61336984828501613216565b91505092915050565b5f81519050919050565b5f82825260208201905092915050565b5f819050602082019050919050565b6133a4816131ef565b82525050565b6133b3816130ad565b82525050565b6133c281613268565b82525050565b606082015f8201516133dc5f85018261339b565b5060208201516133ef60208501826133aa565b50604082015161340260408501826133b9565b50505050565b5f61341383836133c8565b60608301905092915050565b5f602082019050919050565b5f61343582613372565b61343f818561337c565b935061344a8361338c565b805f5b8381101561347a5781516134618882613408565b975061346c8361341f565b92505060018101905061344d565b5085935050505092915050565b5f6020820190508181035f83015261349f818461342b565b905092915050565b608082015f8201516134bb5f8501826133aa565b5060208201516134ce60208501826133aa565b5060408201516134e160408501826133aa565b5060608201516134f460608501826133aa565b50505050565b5f60808201905061350d5f8301846134a7565b92915050565b5f5f6040838503121561352957613528613177565b5b5f61353685828601613191565b925050602061354785828601613216565b9150509250929050565b5f6060820190506135645f83018661331f565b61357160208301856130b6565b61357e6040830184613273565b949350505050565b5f5f5f6060848603121561359d5761359c613177565b5b5f6135aa86828701613191565b93505060206135bb86828701613216565b92505060406135cc86828701613216565b9150509250925092565b5f819050919050565b5f6135f96135f46135ef846131d0565b6135d6565b6131d0565b9050919050565b5f61360a826135df565b9050919050565b5f61361b82613600565b9050919050565b61362b81613611565b82525050565b5f6020820190506136445f830184613622565b92915050565b5f61365482613600565b9050919050565b6136648161364a565b82525050565b5f60208201905061367d5f83018461365b565b92915050565b5f5f6040838503121561369957613698613177565b5b5f6136a685828601613216565b92505060206136b785828601613216565b9150509250929050565b5f5ffd5b7f4e487b71000000000000000000000000000000000000000000000000000000005f52604160045260245ffd5b6136fb82613106565b810181811067ffffffffffffffff8211171561371a576137196136c5565b5b80604052505050565b5f61372c61316e565b905061373882826136f2565b919050565b5f8151905061374b8161317b565b92915050565b5f8151905061375f81613200565b92915050565b61376e816132eb565b8114613778575f5ffd5b50565b5f8151905061378981613765565b92915050565b5f61016082840312156137a5576137a46136c1565b5b6137b0610160613723565b90505f6137bf8482850161373d565b5f8301525060206137d28482850161373d565b60208301525060406137e68482850161373d565b60408301525060606137fa8482850161373d565b606083015250608061380e8482850161373d565b60808301525060a06138228482850161373d565b60a08301525060c061383684828501613751565b60c08301525060e061384a84828501613751565b60e08301525061010061385f84828501613751565b6101008301525061012061387584828501613751565b6101208301525061014061388b8482850161377b565b6101408301525092915050565b5f61016082840312156138ae576138ad613177565b5b5f6138bb8482850161378f565b91505092915050565b5f602082840312156138d9576138d8613177565b5b5f6138e68482850161373d565b91505092915050565b7f4e487b71000000000000000000000000000000000000000000000000000000005f52601160045260245ffd5b5f613926826130ad565b9150613931836130ad565b925082820261393f816130ad565b91508282048414831517613956576139556138ef565b5b5092915050565b7f4e487b71000000000000000000000000000000000000000000000000000000005f52601260045260245ffd5b5f613994826130ad565b915061399f836130ad565b9250826139af576139ae61395d565b5b828204905092915050565b5f6139c4826130ad565b91506139cf836130ad565b92508282019050808211156139e7576139e66138ef565b5b92915050565b7f4e487b71000000000000000000000000000000000000000000000000000000005f52602260045260245ffd5b5f6002820490506001821680613a3157607f821691505b602082108103613a4457613a436139ed565b5b50919050565b7f5661756c743a205468726573686f6c6420746f6f2068696768000000000000005f82015250565b5f613a7e6019836130e8565b9150613a8982613a4a565b602082019050919050565b5f6020820190508181035f830152613aab81613a72565b9050919050565b7f726562616c616e63655468726573686f6c6400000000000000000000000000005f82015250565b5f613ae66012836130e8565b9150613af182613ab2565b602082019050919050565b5f6060820190508181035f830152613b1381613ada565b9050613b2260208301856130b6565b613b2f60408301846130b6565b9392505050565b5f613b40826132eb565b9150613b4b836132eb565b9250828201905060ff811115613b6457613b636138ef565b5b92915050565b5f613b74826130ad565b9150613b7f836130ad565b9250828203905081811115613b9757613b966138ef565b5b92915050565b5f606082019050613bb05f83018661331f565b613bbd60208301856130b6565b613bca60408301846130b6565b949350505050565b7f5661756c743a204f6e6c79207969656c64206d6f6e69746f722063616e2072655f8201527f62616c616e636500000000000000000000000000000000000000000000000000602082015250565b5f613c2c6027836130e8565b9150613c3782613bd2565b604082019050919050565b5f6020820190508181035f830152613c5981613c20565b9050919050565b7f5661756c743a20416d6f756e74206d757374206265203e2030000000000000005f82015250565b5f613c946019836130e8565b9150613c9f82613c60565b602082019050919050565b5f6020820190508181035f830152613cc181613c88565b9050919050565b5f606082019050613cdb5f83018661331f565b613ce860208301856130b6565b613cf5604083018461331f565b949350505050565b5f819050919050565b5f61ffff82169050919050565b5f613d2d613d28613d2384613cfd565b6135d6565b613d06565b9050919050565b613d3d81613d13565b82525050565b5f608082019050613d565f83018761331f565b613d6360208301866130b6565b613d70604083018561331f565b613d7d6060830184613d34565b95945050505050565b7f455243343632363a2072656465656d2066726f6d20746865207a65726f2061645f8201527f6472657373000000000000000000000000000000000000000000000000000000602082015250565b5f613de06025836130e8565b9150613deb82613d86565b604082019050919050565b5f6020820190508181035f830152613e0d81613dd4565b9050919050565b5f604082019050613e275f8301856130b6565b613e3460208301846130b6565b9392505050565b7f5661756c743a2050657263656e7461676520746f6f20686967680000000000005f82015250565b5f613e6f601a836130e8565b9150613e7a82613e3b565b602082019050919050565b5f6020820190508181035f830152613e9c81613e63565b9050919050565b7f726562616c616e636550657263656e74616765000000000000000000000000005f82015250565b5f613ed76013836130e8565b9150613ee282613ea3565b602082019050919050565b5f6060820190508181035f830152613f0481613ecb565b9050613f1360208301856130b6565b613f2060408301846130b6565b9392505050565b7f5661756c743a204e6f2073686172657320746f207769746864726177000000005f82015250565b5f613f5b601c836130e8565b9150613f6682613f27565b602082019050919050565b5f6020820190508181035f830152613f8881613f4f565b9050919050565b7f6175746f526562616c616e6365456e61626c65640000000000000000000000005f82015250565b5f613fc36014836130e8565b9150613fce82613f8f565b602082019050919050565b5f613ff3613fee613fe9846132eb565b6135d6565b6130ad565b9050919050565b61400381613fd9565b82525050565b5f6060820190508181035f83015261402081613fb7565b905061402f6020830185613ffa565b61403c6040830184613ffa565b9392505050565b5f8160011c9050919050565b5f5f8291508390505b600185111561409857808604811115614074576140736138ef565b5b60018516156140835780820291505b808102905061409185614043565b9450614058565b94509492505050565b5f826140b0576001905061416b565b816140bd575f905061416b565b81600181146140d357600281146140dd5761410c565b600191505061416b565b60ff8411156140ef576140ee6138ef565b5b8360020a915084821115614106576141056138ef565b5b5061416b565b5060208310610133831016604e8410600b84101617156141415782820a90508381111561413c5761413b6138ef565b5b61416b565b61414e848484600161404f565b92509050818404811115614165576141646138ef565b5b81810290505b9392505050565b5f61417c826130ad565b9150614187836132eb565b92506141b47fffffffffffffffffffffffffffffffffffffffffffffffffffffffffffffffff84846140a1565b905092915050565b7f4e487b71000000000000000000000000000000000000000000000000000000005f52603260045260245ffd5b7f4e487b71000000000000000000000000000000000000000000000000000000005f52602160045260245ffd5b5f614220826132eb565b915061422b836132eb565b92508261423b5761423a61395d565b5b82820690509291505056fea26469706673582212208c378fe4eb83210525c5c57a8df00d1257e45c2c0e488484c428cee2621f1a2764736f6c634300081e0033","linkReferences":{}},"methodIdentifiers":{"allowance(address,address)":"dd62ed3e","approve(address,uint256)":"095ea7b3","asset()":"38d52e0f","autoRebalanceEnabled()":"a5ac4dd1","balanceOf(address)":"70a08231","convertToAssets(uint256)":"07a2d13a","convertToShares(uint256)":"c6e6f592","decimals()":"313ce567","deposit(uint256,address)":"6e553f65","emergencyWithdraw()":"db2e21bc","getPoolAllocations()":"4e8b354e","getYieldData()":"6ce0c521","maxDeposit(address)":"402d267d","maxMint(address)":"c63d75b6","maxRedeem(address)":"d905777e","maxWithdraw(address)":"ce96cb77","mint(uint256,address)":"94bf804d","name()":"06fdde03","owner()":"8da5cb5b","poolA()":"cbbf425f","poolAllocations(uint256)":"8f6d1257","poolB()":"d4a2aa33","previewDeposit(uint256)":"ef8b30f7","previewMint(uint256)":"b3d7f6b9","previewRedeem(uint256)":"4cdad506","previewWithdraw(uint256)":"0a28a477","rebalance(address,address,uint256)":"b3f865f7","rebalancePercentage()":"60538d12","rebalanceThreshold()":"3dfe9f6a","redeem(uint256,address,address)":"ba087652","renounceOwnership()":"715018a6","symbol()":"95d89b41","toggleAutoRebalance()":"f9e521b2","totalAssets()":"01e1d114","totalSupply()":"18160ddd","transfer(address,uint256)":"a9059cbb","transferFrom(address,address,uint256)":"23b872dd","transferOwnership(address)":"f2fde38b","updateRebalancePercentage(uint256)":"c4f111f7","updateRebalanceThreshold(uint256)":"12ddbc4f","updateYieldMonitor(address)":"88960bf9","withdraw(uint256,address,address)":"b460af94","yieldMonitor()":"bd28ceb4"},"id":43}