{
  "_format": "hh-sol-artifact-1",
  "contractName": "ConfigManager",
  "sourceName": "src/core/ConfigManager.sol",
  "abi": [
    {
      "inputs": [
        {
          "internalType": "address",
          "name": "_vault",
          "type": "address"
        }
      ],
      "stateMutability": "nonpayable",
      "type": "constructor"
    },
    {
      "inputs": [
        {
          "internalType": "address",
          "name": "owner",
          "type": "address"
        }
      ],
      "name": "OwnableInvalidOwner",
      "type": "error"
    },
    {
      "inputs": [
        {
          "internalType": "address",
          "name": "account",
          "type": "address"
        }
      ],
      "name": "OwnableUnauthorizedAccount",
      "type": "error"
    },
    {
      "anonymous": false,
      "inputs": [
        {
          "indexed": false,
          "internalType": "string",
          "name": "parameter",
          "type": "string"
        },
        {
          "indexed": false,
          "internalType": "uint256",
          "name": "oldValue",
          "type": "uint256"
        },
        {
          "indexed": false,
          "internalType": "uint256",
          "name": "newValue",
          "type": "uint256"
        }
      ],
      "name": "ConfigUpdated",
      "type": "event"
    },
    {
      "anonymous": false,
      "inputs": [
        {
          "indexed": false,
          "internalType": "string",
          "name": "parameter",
          "type": "string"
        },
        {
          "indexed": false,
          "internalType": "bool",
          "name": "oldValue",
          "type": "bool"
        },
        {
          "indexed": false,
          "internalType": "bool",
          "name": "newValue",
          "type": "bool"
        }
      ],
      "name": "ConfigUpdatedBool",
      "type": "event"
    },
    {
      "anonymous": false,
      "inputs": [
        {
          "indexed": true,
          "internalType": "address",
          "name": "previousOwner",
          "type": "address"
        },
        {
          "indexed": true,
          "internalType": "address",
          "name": "newOwner",
          "type": "address"
        }
      ],
      "name": "OwnershipTransferred",
      "type": "event"
    },
    {
      "anonymous": false,
      "inputs": [
        {
          "indexed": true,
          "internalType": "address",
          "name": "user",
          "type": "address"
        }
      ],
      "name": "UserAuthorized",
      "type": "event"
    },
    {
      "anonymous": false,
      "inputs": [
        {
          "indexed": true,
          "internalType": "address",
          "name": "user",
          "type": "address"
        }
      ],
      "name": "UserDeauthorized",
      "type": "event"
    },
    {
      "anonymous": false,
      "inputs": [
        {
          "indexed": true,
          "internalType": "address",
          "name": "oldVault",
          "type": "address"
        },
        {
          "indexed": true,
          "internalType": "address",
          "name": "newVault",
          "type": "address"
        }
      ],
      "name": "VaultUpdated",
      "type": "event"
    },
    {
      "inputs": [
        {
          "internalType": "address",
          "name": "user",
          "type": "address"
        }
      ],
      "name": "authorizeUser",
      "outputs": [],
      "stateMutability": "nonpayable",
      "type": "function"
    },
    {
      "inputs": [
        {
          "internalType": "address",
          "name": "",
          "type": "address"
        }
      ],
      "name": "authorizedUsers",
      "outputs": [
        {
          "internalType": "bool",
          "name": "",
          "type": "bool"
        }
      ],
      "stateMutability": "view",
      "type": "function"
    },
    {
      "inputs": [],
      "name": "config",
      "outputs": [
        {
          "internalType": "uint256",
          "name": "rebalanceThreshold",
          "type": "uint256"
        },
        {
          "internalType": "uint256",
          "name": "rebalancePercentage",
          "type": "uint256"
        },
        {
          "internalType": "uint256",
          "name": "maxAllocationPercentage",
          "type": "uint256"
        },
        {
          "internalType": "uint256",
          "name": "minDepositAmount",
          "type": "uint256"
        },
        {
          "internalType": "uint256",
          "name": "emergencyWithdrawFee",
          "type": "uint256"
        },
        {
          "internalType": "bool",
          "name": "autoRebalanceEnabled",
          "type": "bool"
        },
        {
          "internalType": "bool",
          "name": "paused",
          "type": "bool"
        }
      ],
      "stateMutability": "view",
      "type": "function"
    },
    {
      "inputs": [
        {
          "internalType": "address",
          "name": "user",
          "type": "address"
        }
      ],
      "name": "deauthorizeUser",
      "outputs": [],
      "stateMutability": "nonpayable",
      "type": "function"
    },
    {
      "inputs": [],
      "name": "getConfig",
      "outputs": [
        {
          "components": [
            {
              "internalType": "uint256",
              "name": "rebalanceThreshold",
              "type": "uint256"
            },
            {
              "internalType": "uint256",
              "name": "rebalancePercentage",
              "type": "uint256"
            },
            {
              "internalType": "uint256",
              "name": "maxAllocationPercentage",
              "type": "uint256"
            },
            {
              "internalType": "uint256",
              "name": "minDepositAmount",
              "type": "uint256"
            },
            {
              "internalType": "uint256",
              "name": "emergencyWithdrawFee",
              "type": "uint256"
            },
            {
              "internalType": "bool",
              "name": "autoRebalanceEnabled",
              "type": "bool"
            },
            {
              "internalType": "bool",
              "name": "paused",
              "type": "bool"
            }
          ],
          "internalType": "struct ConfigManager.StrategyConfig",
          "name": "",
          "type": "tuple"
        }
      ],
      "stateMutability": "view",
      "type": "function"
    },
    {
      "inputs": [
        {
          "internalType": "address",
          "name": "user",
          "type": "address"
        }
      ],
      "name": "isAuthorized",
      "outputs": [
        {
          "internalType": "bool",
          "name": "",
          "type": "bool"
        }
      ],
      "stateMutability": "view",
      "type": "function"
    },
    {
      "inputs": [],
      "name": "owner",
      "outputs": [
        {
          "internalType": "address",
          "name": "",
          "type": "address"
        }
      ],
      "stateMutability": "view",
      "type": "function"
    },
    {
      "inputs": [],
      "name": "pause",
      "outputs": [],
      "stateMutability": "nonpayable",
      "type": "function"
    },
    {
      "inputs": [],
      "name": "renounceOwnership",
      "outputs": [],
      "stateMutability": "nonpayable",
      "type": "function"
    },
    {
      "inputs": [],
      "name": "toggleAutoRebalance",
      "outputs": [],
      "stateMutability": "nonpayable",
      "type": "function"
    },
    {
      "inputs": [
        {
          "internalType": "address",
          "name": "newOwner",
          "type": "address"
        }
      ],
      "name": "transferOwnership",
      "outputs": [],
      "stateMutability": "nonpayable",
      "type": "function"
    },
    {
      "inputs": [],
      "name": "unpause",
      "outputs": [],
      "stateMutability": "nonpayable",
      "type": "function"
    },
    {
      "inputs": [
        {
          "internalType": "uint256",
          "name": "newFee",
          "type": "uint256"
        }
      ],
      "name": "updateEmergencyWithdrawFee",
      "outputs": [],
      "stateMutability": "nonpayable",
      "type": "function"
    },
    {
      "inputs": [
        {
          "internalType": "uint256",
          "name": "newMaxAllocation",
          "type": "uint256"
        }
      ],
      "name": "updateMaxAllocationPercentage",
      "outputs": [],
      "stateMutability": "nonpayable",
      "type": "function"
    },
    {
      "inputs": [
        {
          "internalType": "uint256",
          "name": "newMinDeposit",
          "type": "uint256"
        }
      ],
      "name": "updateMinDepositAmount",
      "outputs": [],
      "stateMutability": "nonpayable",
      "type": "function"
    },
    {
      "inputs": [
        {
          "internalType": "uint256",
          "name": "newPercentage",
          "type": "uint256"
        }
      ],
      "name": "updateRebalancePercentage",
      "outputs": [],
      "stateMutability": "nonpayable",
      "type": "function"
    },
    {
      "inputs": [
        {
          "internalType": "uint256",
          "name": "newThreshold",
          "type": "uint256"
        }
      ],
      "name": "updateRebalanceThreshold",
      "outputs": [],
      "stateMutability": "nonpayable",
      "type": "function"
    },
    {
      "inputs": [
        {
          "internalType": "address",
          "name": "newVault",
          "type": "address"
        }
      ],
      "name": "updateVaultAddress",
      "outputs": [],
      "stateMutability": "nonpayable",
      "type": "function"
    },
    {
      "inputs": [],
      "name": "vaultAddress",
      "outputs": [
        {
          "internalType": "address",
          "name": "",
          "type": "address"
        }
      ],
      "stateMutability": "view",
      "type": "function"
    }
  ],
  "bytecode": "0x608060405234801561001057600080fd5b506040516110dd3803806110dd83398101604081905261002f9161014b565b338061005557604051631e4fbdf760e01b81526000600482015260240160405180910390fd5b61005e816100fb565b50600780546001600160a01b0319166001600160a01b03929092169190911790556040805160e08101825260328082526103e860208301819052612328938301849052662386f26fc1000060608401819052606460808501819052600160a08601819052600060c0909601959095529284556002919091556003939093556004929092556005919091556006805461ffff1916909117905561017b565b600080546001600160a01b038381166001600160a01b0319831681178455604051919092169283917f8be0079c531659141344cd1fd0a4f28419497f9722a3daafe3b4186f6b6457e09190a35050565b60006020828403121561015d57600080fd5b81516001600160a01b038116811461017457600080fd5b9392505050565b610f538061018a6000396000f3fe608060405234801561001057600080fd5b50600436106101215760003560e01c80638456cb59116100ad578063caa11c5911610071578063caa11c59146102eb578063d2de2f85146102fe578063f2fde38b14610311578063f9e521b214610324578063fe9fbb801461032c57600080fd5b80638456cb591461024a57806384780205146102525780638da5cb5b14610265578063c3f909d414610276578063c4f111f7146102d857600080fd5b8063430bf08a116100f4578063430bf08a1461018e5780635f121b52146101b957806367c2a360146101cc578063715018a6146101df57806379502c55146101e757600080fd5b806312ddbc4f146101265780631828983a1461013b5780632d753072146101735780633f4ba83a14610186575b600080fd5b610139610134366004610e0c565b610358565b005b61015e610149366004610e25565b60086020526000908152604090205460ff1681565b60405190151581526020015b60405180910390f35b610139610181366004610e0c565b610460565b610139610567565b6007546101a1906001600160a01b031681565b6040516001600160a01b03909116815260200161016a565b6101396101c7366004610e25565b61064a565b6101396101da366004610e25565b61070e565b6101396107da565b60015460025460035460045460055460065461021195949392919060ff8082169161010090041687565b6040805197885260208801969096529486019390935260608501919091526080840152151560a0830152151560c082015260e00161016a565b6101396107ee565b610139610260366004610e0c565b6108c8565b6000546001600160a01b03166101a1565b61027e6109b8565b60405161016a9190600060e082019050825182526020830151602083015260408301516040830152606083015160608301526080830151608083015260a0830151151560a083015260c0830151151560c083015292915050565b6101396102e6366004610e0c565b610a4e565b6101396102f9366004610e0c565b610b47565b61013961030c366004610e25565b610c36565b61013961031f366004610e25565b610c90565b610139610cce565b61015e61033a366004610e25565b6001600160a01b031660009081526008602052604090205460ff1690565b6000546001600160a01b031633148061038057503360009081526008602052604090205460ff165b6103a55760405162461bcd60e51b815260040161039c90610e55565b60405180910390fd5b6101f48111156104015760405162461bcd60e51b815260206004820152602160248201527f436f6e6669674d616e616765723a205468726573686f6c6420746f6f206869676044820152600d60fb1b606482015260840161039c565b6001805490829055604080516060808252601290820152711c9958985b185b98d9551a1c995cda1bdb1960721b608082015260208101839052908101839052600080516020610efe8339815191529060a0015b60405180910390a15050565b6000546001600160a01b031633148061048857503360009081526008602052604090205460ff165b6104a45760405162461bcd60e51b815260040161039c90610e55565b61251c8111156105055760405162461bcd60e51b815260206004820152602660248201527f436f6e6669674d616e616765723a204d617820616c6c6f636174696f6e20746f6044820152650de40d0d2ced60d31b606482015260840161039c565b60038054908290556040805160608082526017908201527f6d6178416c6c6f636174696f6e50657263656e74616765000000000000000000608082015260208101839052908101839052600080516020610efe8339815191529060a001610454565b61056f610d8f565b600654610100900460ff166105c65760405162461bcd60e51b815260206004820152601960248201527f436f6e6669674d616e616765723a204e6f742070617573656400000000000000604482015260640161039c565b6006805461ff001981169182905560405160ff610100928390048116937fb56b945ac23dbdd24a8b055d56dad610f9be508849debd1adcf31dacc23e71d293610616938693919092041690610e8c565b60405180910390a1600080516020610efe8339815191526001600060405161063f929190610ec7565b60405180910390a150565b610652610d8f565b6001600160a01b03811660009081526008602052604090205460ff166106c55760405162461bcd60e51b815260206004820152602260248201527f436f6e6669674d616e616765723a2055736572206e6f7420617574686f72697a604482015261195960f21b606482015260840161039c565b6001600160a01b038116600081815260086020526040808220805460ff19169055517f4c83ba4c13e2371ee10551a330ea9c9ec7effa65ad94aa608aa13df3e24d0c2f9190a250565b610716610d8f565b6001600160a01b03811660009081526008602052604090205460ff161561078e5760405162461bcd60e51b815260206004820152602660248201527f436f6e6669674d616e616765723a205573657220616c726561647920617574686044820152651bdc9a5e995960d21b606482015260840161039c565b6001600160a01b038116600081815260086020526040808220805460ff19166001179055517fb0be505cf6e26533f3066ac7722c3f8a5e8a123f43187c7832d333c49603b1469190a250565b6107e2610d8f565b6107ec6000610dbc565b565b6107f6610d8f565b600654610100900460ff161561084e5760405162461bcd60e51b815260206004820152601d60248201527f436f6e6669674d616e616765723a20416c726561647920706175736564000000604482015260640161039c565b6006805461ff001981166101009081179283905560405160ff928290048316937fb56b945ac23dbdd24a8b055d56dad610f9be508849debd1adcf31dacc23e71d29361089f93869392041690610e8c565b60405180910390a1600080516020610efe8339815191526000600160405161063f929190610ec7565b6000546001600160a01b03163314806108f057503360009081526008602052604090205460ff165b61090c5760405162461bcd60e51b815260040161039c90610e55565b66038d7ea4c680008110156109635760405162461bcd60e51b815260206004820152601e60248201527f436f6e6669674d616e616765723a204d696e696d756d20746f6f206c6f770000604482015260640161039c565b60048054908290556040805160608082526010908201526f1b5a5b91195c1bdcda5d105b5bdd5b9d60821b608082015260208101839052908101839052600080516020610efe8339815191529060a001610454565b6109fc6040518060e0016040528060008152602001600081526020016000815260200160008152602001600081526020016000151581526020016000151581525090565b506040805160e08101825260015481526002546020820152600354918101919091526004546060820152600554608082015260065460ff808216151560a084015261010090910416151560c082015290565b6000546001600160a01b0316331480610a7657503360009081526008602052604090205460ff165b610a925760405162461bcd60e51b815260040161039c90610e55565b611388811115610aef5760405162461bcd60e51b815260206004820152602260248201527f436f6e6669674d616e616765723a2050657263656e7461676520746f6f2068696044820152610ced60f31b606482015260840161039c565b600280549082905560408051606080825260139082015272726562616c616e636550657263656e7461676560681b608082015260208101839052908101839052600080516020610efe8339815191529060a001610454565b6000546001600160a01b0316331480610b6f57503360009081526008602052604090205460ff165b610b8b5760405162461bcd60e51b815260040161039c90610e55565b6101f4811115610bdd5760405162461bcd60e51b815260206004820152601b60248201527f436f6e6669674d616e616765723a2046656520746f6f20686967680000000000604482015260640161039c565b600580549082905560408051606080825260149082015273656d657267656e6379576974686472617746656560601b608082015260208101839052908101839052600080516020610efe8339815191529060a001610454565b610c3e610d8f565b600780546001600160a01b038381166001600160a01b0319831681179093556040519116919082907f483bdedaaf23706a9800ac1af0d852b34927780d79f9d6ba60a80c7cad75ea3990600090a35050565b610c98610d8f565b6001600160a01b038116610cc257604051631e4fbdf760e01b81526000600482015260240161039c565b610ccb81610dbc565b50565b6000546001600160a01b0316331480610cf657503360009081526008602052604090205460ff165b610d125760405162461bcd60e51b815260040161039c90610e55565b6006805460ff808216801560ff19909316831790935560408051606080825260149082015273185d5d1bd49958985b185b98d9515b98589b195960621b608082015283156020820152929091161515908201527fb56b945ac23dbdd24a8b055d56dad610f9be508849debd1adcf31dacc23e71d29060a00161063f565b6000546001600160a01b031633146107ec5760405163118cdaa760e01b815233600482015260240161039c565b600080546001600160a01b038381166001600160a01b0319831681178455604051919092169283917f8be0079c531659141344cd1fd0a4f28419497f9722a3daafe3b4186f6b6457e09190a35050565b600060208284031215610e1e57600080fd5b5035919050565b600060208284031215610e3757600080fd5b81356001600160a01b0381168114610e4e57600080fd5b9392505050565b6020808252601d908201527f436f6e6669674d616e616765723a204e6f7420617574686f72697a6564000000604082015260600190565b606081526000610eb26060830160068152651c185d5cd95960d21b602082015260400190565b93151560208301525090151560409091015290565b606081526000610eed6060830160068152651c185d5cd95960d21b602082015260400190565b602083019490945250604001529056fed7474166e78731bc168caca1fe1ccebbd6f3c95baee64997902e6b48f442b81aa2646970667358221220a2f8a94fccce89966872debf5a08b3a93818a2b378a47f8fa9ca6419db11bcb364736f6c63430008140033",
  "linkReferences": {},
  "deployedLinkReferences": {}
}